{
	"DataStorage.sol": {
		"DataStorage": {
			"abi": [
				{
					"inputs": [
						{
							"components": [
								{
									"internalType": "bytes32",
									"name": "sensorId",
									"type": "bytes32"
								},
								{
									"internalType": "bytes32",
									"name": "timeStamp",
									"type": "bytes32"
								},
								{
									"internalType": "bytes32",
									"name": "value",
									"type": "bytes32"
								}
							],
							"internalType": "struct DataStorage.Data",
							"name": "newData",
							"type": "tuple"
						}
					],
					"name": "addData",
					"outputs": [],
					"stateMutability": "nonpayable",
					"type": "function"
				},
				{
					"inputs": [
						{
							"internalType": "uint256",
							"name": "",
							"type": "uint256"
						}
					],
					"name": "dataSet",
					"outputs": [
						{
							"internalType": "bytes32",
							"name": "sensorId",
							"type": "bytes32"
						},
						{
							"internalType": "bytes32",
							"name": "timeStamp",
							"type": "bytes32"
						},
						{
							"internalType": "bytes32",
							"name": "value",
							"type": "bytes32"
						}
					],
					"stateMutability": "view",
					"type": "function"
				},
				{
					"inputs": [
						{
							"internalType": "bytes32",
							"name": "givenId",
							"type": "bytes32"
						}
					],
					"name": "getAllDataBySensor",
					"outputs": [
						{
							"components": [
								{
									"internalType": "bytes32",
									"name": "sensorId",
									"type": "bytes32"
								},
								{
									"internalType": "bytes32",
									"name": "timeStamp",
									"type": "bytes32"
								},
								{
									"internalType": "bytes32",
									"name": "value",
									"type": "bytes32"
								}
							],
							"internalType": "struct DataStorage.Data[]",
							"name": "returnData",
							"type": "tuple[]"
						}
					],
					"stateMutability": "view",
					"type": "function"
				},
				{
					"inputs": [
						{
							"internalType": "uint256",
							"name": "arrayPointer",
							"type": "uint256"
						}
					],
					"name": "getData",
					"outputs": [
						{
							"internalType": "bytes32",
							"name": "Id",
							"type": "bytes32"
						},
						{
							"internalType": "bytes32",
							"name": "time",
							"type": "bytes32"
						},
						{
							"internalType": "bytes32",
							"name": "sensorvalue",
							"type": "bytes32"
						}
					],
					"stateMutability": "view",
					"type": "function"
				}
			],
			"devdoc": {
				"kind": "dev",
				"methods": {},
				"version": 1
			},
			"evm": {
				"assembly": "    /* \"DataStorage.sol\":25:755  contract DataStorage {... */\n  mstore(0x40, 0x80)\n  callvalue\n  dup1\n  iszero\n  tag_1\n  jumpi\n  0x00\n  dup1\n  revert\ntag_1:\n  pop\n  dataSize(sub_0)\n  dup1\n  dataOffset(sub_0)\n  0x00\n  codecopy\n  0x00\n  return\nstop\n\nsub_0: assembly {\n        /* \"DataStorage.sol\":25:755  contract DataStorage {... */\n      mstore(0x40, 0x80)\n      callvalue\n      dup1\n      iszero\n      tag_1\n      jumpi\n      0x00\n      dup1\n      revert\n    tag_1:\n      pop\n      jumpi(tag_2, lt(calldatasize, 0x04))\n      shr(0xe0, calldataload(0x00))\n      dup1\n      0x0178fe3f\n      eq\n      tag_3\n      jumpi\n      dup1\n      0x4a96d170\n      eq\n      tag_4\n      jumpi\n      dup1\n      0xc41bb527\n      eq\n      tag_5\n      jumpi\n      dup1\n      0xf37f0402\n      eq\n      tag_6\n      jumpi\n    tag_2:\n      0x00\n      dup1\n      revert\n        /* \"DataStorage.sol\":243:484  function getData(uint arrayPointer) view public returns (bytes32 Id, bytes32 time, bytes32 sensorvalue) {... */\n    tag_3:\n      tag_7\n      0x04\n      dup1\n      calldatasize\n      sub\n      dup2\n      add\n      swap1\n      tag_8\n      swap2\n      swap1\n      tag_9\n      jump\t// in\n    tag_8:\n      tag_10\n      jump\t// in\n    tag_7:\n      mload(0x40)\n      tag_11\n      swap4\n      swap3\n      swap2\n      swap1\n      tag_12\n      jump\t// in\n    tag_11:\n      mload(0x40)\n      dup1\n      swap2\n      sub\n      swap1\n      return\n        /* \"DataStorage.sol\":50:71  Data[] public dataSet */\n    tag_4:\n      tag_13\n      0x04\n      dup1\n      calldatasize\n      sub\n      dup2\n      add\n      swap1\n      tag_14\n      swap2\n      swap1\n      tag_9\n      jump\t// in\n    tag_14:\n      tag_15\n      jump\t// in\n    tag_13:\n      mload(0x40)\n      tag_16\n      swap4\n      swap3\n      swap2\n      swap1\n      tag_12\n      jump\t// in\n    tag_16:\n      mload(0x40)\n      dup1\n      swap2\n      sub\n      swap1\n      return\n        /* \"DataStorage.sol\":488:753  function getAllDataBySensor(bytes32 givenId) view public returns (Data[] memory returnData){... */\n    tag_5:\n      tag_17\n      0x04\n      dup1\n      calldatasize\n      sub\n      dup2\n      add\n      swap1\n      tag_18\n      swap2\n      swap1\n      tag_19\n      jump\t// in\n    tag_18:\n      tag_20\n      jump\t// in\n    tag_17:\n      mload(0x40)\n      tag_21\n      swap2\n      swap1\n      tag_22\n      jump\t// in\n    tag_21:\n      mload(0x40)\n      dup1\n      swap2\n      sub\n      swap1\n      return\n        /* \"DataStorage.sol\":160:239  function addData(Data calldata newData) public {... */\n    tag_6:\n      tag_23\n      0x04\n      dup1\n      calldatasize\n      sub\n      dup2\n      add\n      swap1\n      tag_24\n      swap2\n      swap1\n      tag_25\n      jump\t// in\n    tag_24:\n      tag_26\n      jump\t// in\n    tag_23:\n      stop\n        /* \"DataStorage.sol\":243:484  function getData(uint arrayPointer) view public returns (bytes32 Id, bytes32 time, bytes32 sensorvalue) {... */\n    tag_10:\n        /* \"DataStorage.sol\":300:310  bytes32 Id */\n      0x00\n        /* \"DataStorage.sol\":312:324  bytes32 time */\n      dup1\n        /* \"DataStorage.sol\":326:345  bytes32 sensorvalue */\n      0x00\n        /* \"DataStorage.sol\":358:365  dataSet */\n      dup1\n        /* \"DataStorage.sol\":366:378  arrayPointer */\n      dup5\n        /* \"DataStorage.sol\":358:379  dataSet[arrayPointer] */\n      dup2\n      sload\n      dup2\n      lt\n      tag_28\n      jumpi\n      tag_29\n      tag_30\n      jump\t// in\n    tag_29:\n    tag_28:\n      swap1\n      0x00\n      mstore\n      keccak256(0x00, 0x20)\n      swap1\n      0x03\n      mul\n      add\n        /* \"DataStorage.sol\":358:388  dataSet[arrayPointer].sensorId */\n      0x00\n      add\n      sload\n        /* \"DataStorage.sol\":353:388  Id = dataSet[arrayPointer].sensorId */\n      swap3\n      pop\n        /* \"DataStorage.sol\":401:408  dataSet */\n      0x00\n        /* \"DataStorage.sol\":409:421  arrayPointer */\n      dup5\n        /* \"DataStorage.sol\":401:422  dataSet[arrayPointer] */\n      dup2\n      sload\n      dup2\n      lt\n      tag_32\n      jumpi\n      tag_33\n      tag_30\n      jump\t// in\n    tag_33:\n    tag_32:\n      swap1\n      0x00\n      mstore\n      keccak256(0x00, 0x20)\n      swap1\n      0x03\n      mul\n      add\n        /* \"DataStorage.sol\":401:432  dataSet[arrayPointer].timeStamp */\n      0x01\n      add\n      sload\n        /* \"DataStorage.sol\":394:432  time = dataSet[arrayPointer].timeStamp */\n      swap2\n      pop\n        /* \"DataStorage.sol\":452:459  dataSet */\n      0x00\n        /* \"DataStorage.sol\":460:472  arrayPointer */\n      dup5\n        /* \"DataStorage.sol\":452:473  dataSet[arrayPointer] */\n      dup2\n      sload\n      dup2\n      lt\n      tag_35\n      jumpi\n      tag_36\n      tag_30\n      jump\t// in\n    tag_36:\n    tag_35:\n      swap1\n      0x00\n      mstore\n      keccak256(0x00, 0x20)\n      swap1\n      0x03\n      mul\n      add\n        /* \"DataStorage.sol\":452:479  dataSet[arrayPointer].value */\n      0x02\n      add\n      sload\n        /* \"DataStorage.sol\":438:479  sensorvalue = dataSet[arrayPointer].value */\n      swap1\n      pop\n        /* \"DataStorage.sol\":243:484  function getData(uint arrayPointer) view public returns (bytes32 Id, bytes32 time, bytes32 sensorvalue) {... */\n      swap2\n      swap4\n      swap1\n      swap3\n      pop\n      jump\t// out\n        /* \"DataStorage.sol\":50:71  Data[] public dataSet */\n    tag_15:\n      0x00\n      dup2\n      dup2\n      sload\n      dup2\n      lt\n      tag_38\n      jumpi\n      0x00\n      dup1\n      revert\n    tag_38:\n      swap1\n      0x00\n      mstore\n      keccak256(0x00, 0x20)\n      swap1\n      0x03\n      mul\n      add\n      0x00\n      swap2\n      pop\n      swap1\n      pop\n      dup1\n      0x00\n      add\n      sload\n      swap1\n      dup1\n      0x01\n      add\n      sload\n      swap1\n      dup1\n      0x02\n      add\n      sload\n      swap1\n      pop\n      dup4\n      jump\t// out\n        /* \"DataStorage.sol\":488:753  function getAllDataBySensor(bytes32 givenId) view public returns (Data[] memory returnData){... */\n    tag_20:\n        /* \"DataStorage.sol\":554:578  Data[] memory returnData */\n      0x60\n        /* \"DataStorage.sol\":585:591  uint x */\n      0x00\n        /* \"DataStorage.sol\":606:612  uint i */\n      dup1\n        /* \"DataStorage.sol\":601:749  for (uint i = 0; i < dataSet.length; i++){... */\n    tag_41:\n        /* \"DataStorage.sol\":622:629  dataSet */\n      0x00\n        /* \"DataStorage.sol\":622:636  dataSet.length */\n      dup1\n      sload\n      swap1\n      pop\n        /* \"DataStorage.sol\":618:619  i */\n      dup2\n        /* \"DataStorage.sol\":618:636  i < dataSet.length */\n      lt\n        /* \"DataStorage.sol\":601:749  for (uint i = 0; i < dataSet.length; i++){... */\n      iszero\n      tag_42\n      jumpi\n        /* \"DataStorage.sol\":677:684  givenId */\n      dup4\n        /* \"DataStorage.sol\":654:661  dataSet */\n      0x00\n        /* \"DataStorage.sol\":662:663  i */\n      dup3\n        /* \"DataStorage.sol\":654:664  dataSet[i] */\n      dup2\n      sload\n      dup2\n      lt\n      tag_44\n      jumpi\n      tag_45\n      tag_30\n      jump\t// in\n    tag_45:\n    tag_44:\n      swap1\n      0x00\n      mstore\n      keccak256(0x00, 0x20)\n      swap1\n      0x03\n      mul\n      add\n        /* \"DataStorage.sol\":654:673  dataSet[i].sensorId */\n      0x00\n      add\n      sload\n        /* \"DataStorage.sol\":654:684  dataSet[i].sensorId == givenId */\n      sub\n        /* \"DataStorage.sol\":650:743  if (dataSet[i].sensorId == givenId){... */\n      tag_47\n      jumpi\n        /* \"DataStorage.sol\":711:718  dataSet */\n      0x00\n        /* \"DataStorage.sol\":719:720  i */\n      dup2\n        /* \"DataStorage.sol\":711:721  dataSet[i] */\n      dup2\n      sload\n      dup2\n      lt\n      tag_48\n      jumpi\n      tag_49\n      tag_30\n      jump\t// in\n    tag_49:\n    tag_48:\n      swap1\n      0x00\n      mstore\n      keccak256(0x00, 0x20)\n      swap1\n      0x03\n      mul\n      add\n        /* \"DataStorage.sol\":695:721  returnData[x] = dataSet[i] */\n      mload(0x40)\n      dup1\n      0x60\n      add\n      0x40\n      mstore\n      swap1\n      dup2\n      0x00\n      dup3\n      add\n      sload\n      dup2\n      mstore\n      0x20\n      add\n      0x01\n      dup3\n      add\n      sload\n      dup2\n      mstore\n      0x20\n      add\n      0x02\n      dup3\n      add\n      sload\n      dup2\n      mstore\n      pop\n      pop\n        /* \"DataStorage.sol\":695:705  returnData */\n      dup4\n        /* \"DataStorage.sol\":706:707  x */\n      dup4\n        /* \"DataStorage.sol\":695:708  returnData[x] */\n      dup2\n      mload\n      dup2\n      lt\n      tag_51\n      jumpi\n      tag_52\n      tag_30\n      jump\t// in\n    tag_52:\n    tag_51:\n      0x20\n      mul\n      0x20\n      add\n      add\n        /* \"DataStorage.sol\":695:721  returnData[x] = dataSet[i] */\n      dup2\n      swap1\n      mstore\n      pop\n        /* \"DataStorage.sol\":731:734  x++ */\n      dup2\n      dup1\n      tag_53\n      swap1\n      tag_54\n      jump\t// in\n    tag_53:\n      swap3\n      pop\n      pop\n        /* \"DataStorage.sol\":650:743  if (dataSet[i].sensorId == givenId){... */\n    tag_47:\n        /* \"DataStorage.sol\":638:641  i++ */\n      dup1\n      dup1\n      tag_55\n      swap1\n      tag_54\n      jump\t// in\n    tag_55:\n      swap2\n      pop\n      pop\n        /* \"DataStorage.sol\":601:749  for (uint i = 0; i < dataSet.length; i++){... */\n      jump(tag_41)\n    tag_42:\n      pop\n        /* \"DataStorage.sol\":579:753  {... */\n      pop\n        /* \"DataStorage.sol\":488:753  function getAllDataBySensor(bytes32 givenId) view public returns (Data[] memory returnData){... */\n      swap2\n      swap1\n      pop\n      jump\t// out\n        /* \"DataStorage.sol\":160:239  function addData(Data calldata newData) public {... */\n    tag_26:\n        /* \"DataStorage.sol\":213:220  dataSet */\n      0x00\n        /* \"DataStorage.sol\":226:233  newData */\n      dup2\n        /* \"DataStorage.sol\":213:234  dataSet.push(newData) */\n      swap1\n      dup1\n      0x01\n      dup2\n      sload\n      add\n      dup1\n      dup3\n      sstore\n      dup1\n      swap2\n      pop\n      pop\n      0x01\n      swap1\n      sub\n      swap1\n      0x00\n      mstore\n      keccak256(0x00, 0x20)\n      swap1\n      0x03\n      mul\n      add\n      0x00\n      swap1\n      swap2\n      swap1\n      swap2\n      swap1\n      swap2\n      pop\n      dup2\n      dup2\n      tag_58\n      swap2\n      swap1\n      tag_59\n      jump\t// in\n    tag_58:\n      pop\n      pop\n        /* \"DataStorage.sol\":160:239  function addData(Data calldata newData) public {... */\n      pop\n      jump\t// out\n        /* \"#utility.yul\":88:205   */\n    tag_61:\n        /* \"#utility.yul\":197:198   */\n      0x00\n        /* \"#utility.yul\":194:195   */\n      dup1\n        /* \"#utility.yul\":187:199   */\n      revert\n        /* \"#utility.yul\":334:411   */\n    tag_63:\n        /* \"#utility.yul\":371:378   */\n      0x00\n        /* \"#utility.yul\":400:405   */\n      dup2\n        /* \"#utility.yul\":389:405   */\n      swap1\n      pop\n        /* \"#utility.yul\":334:411   */\n      swap2\n      swap1\n      pop\n      jump\t// out\n        /* \"#utility.yul\":417:539   */\n    tag_64:\n        /* \"#utility.yul\":490:514   */\n      tag_96\n        /* \"#utility.yul\":508:513   */\n      dup2\n        /* \"#utility.yul\":490:514   */\n      tag_63\n      jump\t// in\n    tag_96:\n        /* \"#utility.yul\":483:488   */\n      dup2\n        /* \"#utility.yul\":480:515   */\n      eq\n        /* \"#utility.yul\":470:533   */\n      tag_97\n      jumpi\n        /* \"#utility.yul\":529:530   */\n      0x00\n        /* \"#utility.yul\":526:527   */\n      dup1\n        /* \"#utility.yul\":519:531   */\n      revert\n        /* \"#utility.yul\":470:533   */\n    tag_97:\n        /* \"#utility.yul\":417:539   */\n      pop\n      jump\t// out\n        /* \"#utility.yul\":545:684   */\n    tag_65:\n        /* \"#utility.yul\":591:596   */\n      0x00\n        /* \"#utility.yul\":629:635   */\n      dup2\n        /* \"#utility.yul\":616:636   */\n      calldataload\n        /* \"#utility.yul\":607:636   */\n      swap1\n      pop\n        /* \"#utility.yul\":645:678   */\n      tag_99\n        /* \"#utility.yul\":672:677   */\n      dup2\n        /* \"#utility.yul\":645:678   */\n      tag_64\n      jump\t// in\n    tag_99:\n        /* \"#utility.yul\":545:684   */\n      swap3\n      swap2\n      pop\n      pop\n      jump\t// out\n        /* \"#utility.yul\":690:1019   */\n    tag_9:\n        /* \"#utility.yul\":749:755   */\n      0x00\n        /* \"#utility.yul\":798:800   */\n      0x20\n        /* \"#utility.yul\":786:795   */\n      dup3\n        /* \"#utility.yul\":777:784   */\n      dup5\n        /* \"#utility.yul\":773:796   */\n      sub\n        /* \"#utility.yul\":769:801   */\n      slt\n        /* \"#utility.yul\":766:885   */\n      iszero\n      tag_101\n      jumpi\n        /* \"#utility.yul\":804:883   */\n      tag_102\n      tag_61\n      jump\t// in\n    tag_102:\n        /* \"#utility.yul\":766:885   */\n    tag_101:\n        /* \"#utility.yul\":924:925   */\n      0x00\n        /* \"#utility.yul\":949:1002   */\n      tag_103\n        /* \"#utility.yul\":994:1001   */\n      dup5\n        /* \"#utility.yul\":985:991   */\n      dup3\n        /* \"#utility.yul\":974:983   */\n      dup6\n        /* \"#utility.yul\":970:992   */\n      add\n        /* \"#utility.yul\":949:1002   */\n      tag_65\n      jump\t// in\n    tag_103:\n        /* \"#utility.yul\":939:1002   */\n      swap2\n      pop\n        /* \"#utility.yul\":895:1012   */\n      pop\n        /* \"#utility.yul\":690:1019   */\n      swap3\n      swap2\n      pop\n      pop\n      jump\t// out\n        /* \"#utility.yul\":1025:1102   */\n    tag_66:\n        /* \"#utility.yul\":1062:1069   */\n      0x00\n        /* \"#utility.yul\":1091:1096   */\n      dup2\n        /* \"#utility.yul\":1080:1096   */\n      swap1\n      pop\n        /* \"#utility.yul\":1025:1102   */\n      swap2\n      swap1\n      pop\n      jump\t// out\n        /* \"#utility.yul\":1108:1226   */\n    tag_67:\n        /* \"#utility.yul\":1195:1219   */\n      tag_106\n        /* \"#utility.yul\":1213:1218   */\n      dup2\n        /* \"#utility.yul\":1195:1219   */\n      tag_66\n      jump\t// in\n    tag_106:\n        /* \"#utility.yul\":1190:1193   */\n      dup3\n        /* \"#utility.yul\":1183:1220   */\n      mstore\n        /* \"#utility.yul\":1108:1226   */\n      pop\n      pop\n      jump\t// out\n        /* \"#utility.yul\":1232:1674   */\n    tag_12:\n        /* \"#utility.yul\":1381:1385   */\n      0x00\n        /* \"#utility.yul\":1419:1421   */\n      0x60\n        /* \"#utility.yul\":1408:1417   */\n      dup3\n        /* \"#utility.yul\":1404:1422   */\n      add\n        /* \"#utility.yul\":1396:1422   */\n      swap1\n      pop\n        /* \"#utility.yul\":1432:1503   */\n      tag_108\n        /* \"#utility.yul\":1500:1501   */\n      0x00\n        /* \"#utility.yul\":1489:1498   */\n      dup4\n        /* \"#utility.yul\":1485:1502   */\n      add\n        /* \"#utility.yul\":1476:1482   */\n      dup7\n        /* \"#utility.yul\":1432:1503   */\n      tag_67\n      jump\t// in\n    tag_108:\n        /* \"#utility.yul\":1513:1585   */\n      tag_109\n        /* \"#utility.yul\":1581:1583   */\n      0x20\n        /* \"#utility.yul\":1570:1579   */\n      dup4\n        /* \"#utility.yul\":1566:1584   */\n      add\n        /* \"#utility.yul\":1557:1563   */\n      dup6\n        /* \"#utility.yul\":1513:1585   */\n      tag_67\n      jump\t// in\n    tag_109:\n        /* \"#utility.yul\":1595:1667   */\n      tag_110\n        /* \"#utility.yul\":1663:1665   */\n      0x40\n        /* \"#utility.yul\":1652:1661   */\n      dup4\n        /* \"#utility.yul\":1648:1666   */\n      add\n        /* \"#utility.yul\":1639:1645   */\n      dup5\n        /* \"#utility.yul\":1595:1667   */\n      tag_67\n      jump\t// in\n    tag_110:\n        /* \"#utility.yul\":1232:1674   */\n      swap5\n      swap4\n      pop\n      pop\n      pop\n      pop\n      jump\t// out\n        /* \"#utility.yul\":1680:1802   */\n    tag_68:\n        /* \"#utility.yul\":1753:1777   */\n      tag_112\n        /* \"#utility.yul\":1771:1776   */\n      dup2\n        /* \"#utility.yul\":1753:1777   */\n      tag_66\n      jump\t// in\n    tag_112:\n        /* \"#utility.yul\":1746:1751   */\n      dup2\n        /* \"#utility.yul\":1743:1778   */\n      eq\n        /* \"#utility.yul\":1733:1796   */\n      tag_113\n      jumpi\n        /* \"#utility.yul\":1792:1793   */\n      0x00\n        /* \"#utility.yul\":1789:1790   */\n      dup1\n        /* \"#utility.yul\":1782:1794   */\n      revert\n        /* \"#utility.yul\":1733:1796   */\n    tag_113:\n        /* \"#utility.yul\":1680:1802   */\n      pop\n      jump\t// out\n        /* \"#utility.yul\":1808:1947   */\n    tag_69:\n        /* \"#utility.yul\":1854:1859   */\n      0x00\n        /* \"#utility.yul\":1892:1898   */\n      dup2\n        /* \"#utility.yul\":1879:1899   */\n      calldataload\n        /* \"#utility.yul\":1870:1899   */\n      swap1\n      pop\n        /* \"#utility.yul\":1908:1941   */\n      tag_115\n        /* \"#utility.yul\":1935:1940   */\n      dup2\n        /* \"#utility.yul\":1908:1941   */\n      tag_68\n      jump\t// in\n    tag_115:\n        /* \"#utility.yul\":1808:1947   */\n      swap3\n      swap2\n      pop\n      pop\n      jump\t// out\n        /* \"#utility.yul\":1953:2282   */\n    tag_19:\n        /* \"#utility.yul\":2012:2018   */\n      0x00\n        /* \"#utility.yul\":2061:2063   */\n      0x20\n        /* \"#utility.yul\":2049:2058   */\n      dup3\n        /* \"#utility.yul\":2040:2047   */\n      dup5\n        /* \"#utility.yul\":2036:2059   */\n      sub\n        /* \"#utility.yul\":2032:2064   */\n      slt\n        /* \"#utility.yul\":2029:2148   */\n      iszero\n      tag_117\n      jumpi\n        /* \"#utility.yul\":2067:2146   */\n      tag_118\n      tag_61\n      jump\t// in\n    tag_118:\n        /* \"#utility.yul\":2029:2148   */\n    tag_117:\n        /* \"#utility.yul\":2187:2188   */\n      0x00\n        /* \"#utility.yul\":2212:2265   */\n      tag_119\n        /* \"#utility.yul\":2257:2264   */\n      dup5\n        /* \"#utility.yul\":2248:2254   */\n      dup3\n        /* \"#utility.yul\":2237:2246   */\n      dup6\n        /* \"#utility.yul\":2233:2255   */\n      add\n        /* \"#utility.yul\":2212:2265   */\n      tag_69\n      jump\t// in\n    tag_119:\n        /* \"#utility.yul\":2202:2265   */\n      swap2\n      pop\n        /* \"#utility.yul\":2158:2275   */\n      pop\n        /* \"#utility.yul\":1953:2282   */\n      swap3\n      swap2\n      pop\n      pop\n      jump\t// out\n        /* \"#utility.yul\":2288:2422   */\n    tag_70:\n        /* \"#utility.yul\":2375:2381   */\n      0x00\n        /* \"#utility.yul\":2409:2414   */\n      dup2\n        /* \"#utility.yul\":2403:2415   */\n      mload\n        /* \"#utility.yul\":2393:2415   */\n      swap1\n      pop\n        /* \"#utility.yul\":2288:2422   */\n      swap2\n      swap1\n      pop\n      jump\t// out\n        /* \"#utility.yul\":2428:2632   */\n    tag_71:\n        /* \"#utility.yul\":2547:2558   */\n      0x00\n        /* \"#utility.yul\":2581:2587   */\n      dup3\n        /* \"#utility.yul\":2576:2579   */\n      dup3\n        /* \"#utility.yul\":2569:2588   */\n      mstore\n        /* \"#utility.yul\":2621:2625   */\n      0x20\n        /* \"#utility.yul\":2616:2619   */\n      dup3\n        /* \"#utility.yul\":2612:2626   */\n      add\n        /* \"#utility.yul\":2597:2626   */\n      swap1\n      pop\n        /* \"#utility.yul\":2428:2632   */\n      swap3\n      swap2\n      pop\n      pop\n      jump\t// out\n        /* \"#utility.yul\":2638:2790   */\n    tag_72:\n        /* \"#utility.yul\":2725:2729   */\n      0x00\n        /* \"#utility.yul\":2748:2751   */\n      dup2\n        /* \"#utility.yul\":2740:2751   */\n      swap1\n      pop\n        /* \"#utility.yul\":2778:2782   */\n      0x20\n        /* \"#utility.yul\":2773:2776   */\n      dup3\n        /* \"#utility.yul\":2769:2783   */\n      add\n        /* \"#utility.yul\":2761:2783   */\n      swap1\n      pop\n        /* \"#utility.yul\":2638:2790   */\n      swap2\n      swap1\n      pop\n      jump\t// out\n        /* \"#utility.yul\":2796:2904   */\n    tag_73:\n        /* \"#utility.yul\":2873:2897   */\n      tag_124\n        /* \"#utility.yul\":2891:2896   */\n      dup2\n        /* \"#utility.yul\":2873:2897   */\n      tag_66\n      jump\t// in\n    tag_124:\n        /* \"#utility.yul\":2868:2871   */\n      dup3\n        /* \"#utility.yul\":2861:2898   */\n      mstore\n        /* \"#utility.yul\":2796:2904   */\n      pop\n      pop\n      jump\t// out\n        /* \"#utility.yul\":2968:3639   */\n    tag_74:\n        /* \"#utility.yul\":3095:3099   */\n      0x60\n        /* \"#utility.yul\":3090:3093   */\n      dup3\n        /* \"#utility.yul\":3086:3100   */\n      add\n        /* \"#utility.yul\":3186:3190   */\n      0x00\n        /* \"#utility.yul\":3179:3184   */\n      dup3\n        /* \"#utility.yul\":3175:3191   */\n      add\n        /* \"#utility.yul\":3169:3192   */\n      mload\n        /* \"#utility.yul\":3205:3268   */\n      tag_126\n        /* \"#utility.yul\":3262:3266   */\n      0x00\n        /* \"#utility.yul\":3257:3260   */\n      dup6\n        /* \"#utility.yul\":3253:3267   */\n      add\n        /* \"#utility.yul\":3239:3251   */\n      dup3\n        /* \"#utility.yul\":3205:3268   */\n      tag_73\n      jump\t// in\n    tag_126:\n        /* \"#utility.yul\":3110:3278   */\n      pop\n        /* \"#utility.yul\":3365:3369   */\n      0x20\n        /* \"#utility.yul\":3358:3363   */\n      dup3\n        /* \"#utility.yul\":3354:3370   */\n      add\n        /* \"#utility.yul\":3348:3371   */\n      mload\n        /* \"#utility.yul\":3384:3447   */\n      tag_127\n        /* \"#utility.yul\":3441:3445   */\n      0x20\n        /* \"#utility.yul\":3436:3439   */\n      dup6\n        /* \"#utility.yul\":3432:3446   */\n      add\n        /* \"#utility.yul\":3418:3430   */\n      dup3\n        /* \"#utility.yul\":3384:3447   */\n      tag_73\n      jump\t// in\n    tag_127:\n        /* \"#utility.yul\":3288:3457   */\n      pop\n        /* \"#utility.yul\":3540:3544   */\n      0x40\n        /* \"#utility.yul\":3533:3538   */\n      dup3\n        /* \"#utility.yul\":3529:3545   */\n      add\n        /* \"#utility.yul\":3523:3546   */\n      mload\n        /* \"#utility.yul\":3559:3622   */\n      tag_128\n        /* \"#utility.yul\":3616:3620   */\n      0x40\n        /* \"#utility.yul\":3611:3614   */\n      dup6\n        /* \"#utility.yul\":3607:3621   */\n      add\n        /* \"#utility.yul\":3593:3605   */\n      dup3\n        /* \"#utility.yul\":3559:3622   */\n      tag_73\n      jump\t// in\n    tag_128:\n        /* \"#utility.yul\":3467:3632   */\n      pop\n        /* \"#utility.yul\":3064:3639   */\n      pop\n        /* \"#utility.yul\":2968:3639   */\n      pop\n      pop\n      jump\t// out\n        /* \"#utility.yul\":3645:3904   */\n    tag_75:\n        /* \"#utility.yul\":3754:3764   */\n      0x00\n        /* \"#utility.yul\":3775:3861   */\n      tag_130\n        /* \"#utility.yul\":3857:3860   */\n      dup4\n        /* \"#utility.yul\":3849:3855   */\n      dup4\n        /* \"#utility.yul\":3775:3861   */\n      tag_74\n      jump\t// in\n    tag_130:\n        /* \"#utility.yul\":3893:3897   */\n      0x60\n        /* \"#utility.yul\":3888:3891   */\n      dup4\n        /* \"#utility.yul\":3884:3898   */\n      add\n        /* \"#utility.yul\":3870:3898   */\n      swap1\n      pop\n        /* \"#utility.yul\":3645:3904   */\n      swap3\n      swap2\n      pop\n      pop\n      jump\t// out\n        /* \"#utility.yul\":3910:4043   */\n    tag_76:\n        /* \"#utility.yul\":4000:4004   */\n      0x00\n        /* \"#utility.yul\":4032:4036   */\n      0x20\n        /* \"#utility.yul\":4027:4030   */\n      dup3\n        /* \"#utility.yul\":4023:4037   */\n      add\n        /* \"#utility.yul\":4015:4037   */\n      swap1\n      pop\n        /* \"#utility.yul\":3910:4043   */\n      swap2\n      swap1\n      pop\n      jump\t// out\n        /* \"#utility.yul\":4111:5003   */\n    tag_77:\n        /* \"#utility.yul\":4270:4273   */\n      0x00\n        /* \"#utility.yul\":4299:4373   */\n      tag_133\n        /* \"#utility.yul\":4367:4372   */\n      dup3\n        /* \"#utility.yul\":4299:4373   */\n      tag_70\n      jump\t// in\n    tag_133:\n        /* \"#utility.yul\":4389:4495   */\n      tag_134\n        /* \"#utility.yul\":4488:4494   */\n      dup2\n        /* \"#utility.yul\":4483:4486   */\n      dup6\n        /* \"#utility.yul\":4389:4495   */\n      tag_71\n      jump\t// in\n    tag_134:\n        /* \"#utility.yul\":4382:4495   */\n      swap4\n      pop\n        /* \"#utility.yul\":4519:4595   */\n      tag_135\n        /* \"#utility.yul\":4589:4594   */\n      dup4\n        /* \"#utility.yul\":4519:4595   */\n      tag_72\n      jump\t// in\n    tag_135:\n        /* \"#utility.yul\":4618:4625   */\n      dup1\n        /* \"#utility.yul\":4649:4650   */\n      0x00\n        /* \"#utility.yul\":4634:4978   */\n    tag_136:\n        /* \"#utility.yul\":4659:4665   */\n      dup4\n        /* \"#utility.yul\":4656:4657   */\n      dup2\n        /* \"#utility.yul\":4653:4666   */\n      lt\n        /* \"#utility.yul\":4634:4978   */\n      iszero\n      tag_138\n      jumpi\n        /* \"#utility.yul\":4735:4741   */\n      dup2\n        /* \"#utility.yul\":4729:4742   */\n      mload\n        /* \"#utility.yul\":4762:4865   */\n      tag_139\n        /* \"#utility.yul\":4861:4864   */\n      dup9\n        /* \"#utility.yul\":4846:4859   */\n      dup3\n        /* \"#utility.yul\":4762:4865   */\n      tag_75\n      jump\t// in\n    tag_139:\n        /* \"#utility.yul\":4755:4865   */\n      swap8\n      pop\n        /* \"#utility.yul\":4888:4968   */\n      tag_140\n        /* \"#utility.yul\":4961:4967   */\n      dup4\n        /* \"#utility.yul\":4888:4968   */\n      tag_76\n      jump\t// in\n    tag_140:\n        /* \"#utility.yul\":4878:4968   */\n      swap3\n      pop\n        /* \"#utility.yul\":4694:4978   */\n      pop\n        /* \"#utility.yul\":4681:4682   */\n      0x01\n        /* \"#utility.yul\":4678:4679   */\n      dup2\n        /* \"#utility.yul\":4674:4683   */\n      add\n        /* \"#utility.yul\":4669:4683   */\n      swap1\n      pop\n        /* \"#utility.yul\":4634:4978   */\n      jump(tag_136)\n    tag_138:\n        /* \"#utility.yul\":4638:4652   */\n      pop\n        /* \"#utility.yul\":4994:4997   */\n      dup6\n        /* \"#utility.yul\":4987:4997   */\n      swap4\n      pop\n        /* \"#utility.yul\":4275:5003   */\n      pop\n      pop\n      pop\n        /* \"#utility.yul\":4111:5003   */\n      swap3\n      swap2\n      pop\n      pop\n      jump\t// out\n        /* \"#utility.yul\":5009:5462   */\n    tag_22:\n        /* \"#utility.yul\":5192:5196   */\n      0x00\n        /* \"#utility.yul\":5230:5232   */\n      0x20\n        /* \"#utility.yul\":5219:5228   */\n      dup3\n        /* \"#utility.yul\":5215:5233   */\n      add\n        /* \"#utility.yul\":5207:5233   */\n      swap1\n      pop\n        /* \"#utility.yul\":5279:5288   */\n      dup2\n        /* \"#utility.yul\":5273:5277   */\n      dup2\n        /* \"#utility.yul\":5269:5289   */\n      sub\n        /* \"#utility.yul\":5265:5266   */\n      0x00\n        /* \"#utility.yul\":5254:5263   */\n      dup4\n        /* \"#utility.yul\":5250:5267   */\n      add\n        /* \"#utility.yul\":5243:5290   */\n      mstore\n        /* \"#utility.yul\":5307:5455   */\n      tag_142\n        /* \"#utility.yul\":5450:5454   */\n      dup2\n        /* \"#utility.yul\":5441:5447   */\n      dup5\n        /* \"#utility.yul\":5307:5455   */\n      tag_77\n      jump\t// in\n    tag_142:\n        /* \"#utility.yul\":5299:5455   */\n      swap1\n      pop\n        /* \"#utility.yul\":5009:5462   */\n      swap3\n      swap2\n      pop\n      pop\n      jump\t// out\n        /* \"#utility.yul\":5468:5585   */\n    tag_78:\n        /* \"#utility.yul\":5577:5578   */\n      0x00\n        /* \"#utility.yul\":5574:5575   */\n      dup1\n        /* \"#utility.yul\":5567:5579   */\n      revert\n        /* \"#utility.yul\":5622:5848   */\n    tag_79:\n        /* \"#utility.yul\":5690:5695   */\n      0x00\n        /* \"#utility.yul\":5731:5733   */\n      0x60\n        /* \"#utility.yul\":5722:5728   */\n      dup3\n        /* \"#utility.yul\":5717:5720   */\n      dup5\n        /* \"#utility.yul\":5713:5729   */\n      sub\n        /* \"#utility.yul\":5709:5734   */\n      slt\n        /* \"#utility.yul\":5706:5818   */\n      iszero\n      tag_145\n      jumpi\n        /* \"#utility.yul\":5737:5816   */\n      tag_146\n      tag_78\n      jump\t// in\n    tag_146:\n        /* \"#utility.yul\":5706:5818   */\n    tag_145:\n        /* \"#utility.yul\":5836:5842   */\n      dup2\n        /* \"#utility.yul\":5827:5842   */\n      swap1\n      pop\n        /* \"#utility.yul\":5622:5848   */\n      swap3\n      swap2\n      pop\n      pop\n      jump\t// out\n        /* \"#utility.yul\":5854:6227   */\n    tag_25:\n        /* \"#utility.yul\":5935:5941   */\n      0x00\n        /* \"#utility.yul\":5984:5986   */\n      0x60\n        /* \"#utility.yul\":5972:5981   */\n      dup3\n        /* \"#utility.yul\":5963:5970   */\n      dup5\n        /* \"#utility.yul\":5959:5982   */\n      sub\n        /* \"#utility.yul\":5955:5987   */\n      slt\n        /* \"#utility.yul\":5952:6071   */\n      iszero\n      tag_148\n      jumpi\n        /* \"#utility.yul\":5990:6069   */\n      tag_149\n      tag_61\n      jump\t// in\n    tag_149:\n        /* \"#utility.yul\":5952:6071   */\n    tag_148:\n        /* \"#utility.yul\":6110:6111   */\n      0x00\n        /* \"#utility.yul\":6135:6210   */\n      tag_150\n        /* \"#utility.yul\":6202:6209   */\n      dup5\n        /* \"#utility.yul\":6193:6199   */\n      dup3\n        /* \"#utility.yul\":6182:6191   */\n      dup6\n        /* \"#utility.yul\":6178:6200   */\n      add\n        /* \"#utility.yul\":6135:6210   */\n      tag_79\n      jump\t// in\n    tag_150:\n        /* \"#utility.yul\":6125:6210   */\n      swap2\n      pop\n        /* \"#utility.yul\":6081:6220   */\n      pop\n        /* \"#utility.yul\":5854:6227   */\n      swap3\n      swap2\n      pop\n      pop\n      jump\t// out\n        /* \"#utility.yul\":6233:6413   */\n    tag_30:\n        /* \"#utility.yul\":6281:6358   */\n      0x4e487b7100000000000000000000000000000000000000000000000000000000\n        /* \"#utility.yul\":6278:6279   */\n      0x00\n        /* \"#utility.yul\":6271:6359   */\n      mstore\n        /* \"#utility.yul\":6378:6382   */\n      0x32\n        /* \"#utility.yul\":6375:6376   */\n      0x04\n        /* \"#utility.yul\":6368:6383   */\n      mstore\n        /* \"#utility.yul\":6402:6406   */\n      0x24\n        /* \"#utility.yul\":6399:6400   */\n      0x00\n        /* \"#utility.yul\":6392:6407   */\n      revert\n        /* \"#utility.yul\":6419:6599   */\n    tag_80:\n        /* \"#utility.yul\":6467:6544   */\n      0x4e487b7100000000000000000000000000000000000000000000000000000000\n        /* \"#utility.yul\":6464:6465   */\n      0x00\n        /* \"#utility.yul\":6457:6545   */\n      mstore\n        /* \"#utility.yul\":6564:6568   */\n      0x11\n        /* \"#utility.yul\":6561:6562   */\n      0x04\n        /* \"#utility.yul\":6554:6569   */\n      mstore\n        /* \"#utility.yul\":6588:6592   */\n      0x24\n        /* \"#utility.yul\":6585:6586   */\n      0x00\n        /* \"#utility.yul\":6578:6593   */\n      revert\n        /* \"#utility.yul\":6605:6838   */\n    tag_54:\n        /* \"#utility.yul\":6644:6647   */\n      0x00\n        /* \"#utility.yul\":6667:6691   */\n      tag_154\n        /* \"#utility.yul\":6685:6690   */\n      dup3\n        /* \"#utility.yul\":6667:6691   */\n      tag_63\n      jump\t// in\n    tag_154:\n        /* \"#utility.yul\":6658:6691   */\n      swap2\n      pop\n        /* \"#utility.yul\":6713:6779   */\n      0xffffffffffffffffffffffffffffffffffffffffffffffffffffffffffffffff\n        /* \"#utility.yul\":6706:6711   */\n      dup3\n        /* \"#utility.yul\":6703:6780   */\n      sub\n        /* \"#utility.yul\":6700:6803   */\n      tag_155\n      jumpi\n        /* \"#utility.yul\":6783:6801   */\n      tag_156\n      tag_80\n      jump\t// in\n    tag_156:\n        /* \"#utility.yul\":6700:6803   */\n    tag_155:\n        /* \"#utility.yul\":6830:6831   */\n      0x01\n        /* \"#utility.yul\":6823:6828   */\n      dup3\n        /* \"#utility.yul\":6819:6832   */\n      add\n        /* \"#utility.yul\":6812:6832   */\n      swap1\n      pop\n        /* \"#utility.yul\":6605:6838   */\n      swap2\n      swap1\n      pop\n      jump\t// out\n        /* \"#utility.yul\":7030:7216   */\n    tag_82:\n        /* \"#utility.yul\":7075:7086   */\n      0x00\n        /* \"#utility.yul\":7124:7127   */\n      dup2\n        /* \"#utility.yul\":7111:7128   */\n      calldataload\n        /* \"#utility.yul\":7137:7170   */\n      tag_159\n        /* \"#utility.yul\":7164:7169   */\n      dup2\n        /* \"#utility.yul\":7137:7170   */\n      tag_68\n      jump\t// in\n    tag_159:\n        /* \"#utility.yul\":7204:7209   */\n      dup1\n        /* \"#utility.yul\":7180:7209   */\n      swap2\n      pop\n        /* \"#utility.yul\":7087:7216   */\n      pop\n        /* \"#utility.yul\":7030:7216   */\n      swap2\n      swap1\n      pop\n      jump\t// out\n        /* \"#utility.yul\":7222:7314   */\n    tag_83:\n        /* \"#utility.yul\":7254:7262   */\n      0x00\n        /* \"#utility.yul\":7301:7306   */\n      dup2\n        /* \"#utility.yul\":7298:7299   */\n      0x00\n        /* \"#utility.yul\":7294:7307   */\n      shl\n        /* \"#utility.yul\":7273:7307   */\n      swap1\n      pop\n        /* \"#utility.yul\":7222:7314   */\n      swap2\n      swap1\n      pop\n      jump\t// out\n        /* \"#utility.yul\":7320:7610   */\n    tag_84:\n        /* \"#utility.yul\":7378:7384   */\n      0x00\n        /* \"#utility.yul\":7407:7473   */\n      0xffffffffffffffffffffffffffffffffffffffffffffffffffffffffffffffff\n        /* \"#utility.yul\":7494:7516   */\n      tag_162\n        /* \"#utility.yul\":7507:7515   */\n      dup5\n        /* \"#utility.yul\":7494:7516   */\n      tag_83\n      jump\t// in\n    tag_162:\n        /* \"#utility.yul\":7482:7516   */\n      swap4\n      pop\n        /* \"#utility.yul\":7549:7553   */\n      dup1\n        /* \"#utility.yul\":7545:7554   */\n      not\n        /* \"#utility.yul\":7538:7543   */\n      dup4\n        /* \"#utility.yul\":7534:7555   */\n      and\n        /* \"#utility.yul\":7525:7555   */\n      swap3\n      pop\n        /* \"#utility.yul\":7598:7602   */\n      dup1\n        /* \"#utility.yul\":7588:7596   */\n      dup5\n        /* \"#utility.yul\":7584:7603   */\n      and\n        /* \"#utility.yul\":7577:7582   */\n      dup4\n        /* \"#utility.yul\":7574:7604   */\n      or\n        /* \"#utility.yul\":7564:7604   */\n      swap2\n      pop\n        /* \"#utility.yul\":7385:7610   */\n      pop\n        /* \"#utility.yul\":7320:7610   */\n      swap3\n      swap2\n      pop\n      pop\n      jump\t// out\n        /* \"#utility.yul\":7616:7729   */\n    tag_85:\n        /* \"#utility.yul\":7666:7675   */\n      0x00\n        /* \"#utility.yul\":7699:7723   */\n      tag_164\n        /* \"#utility.yul\":7717:7722   */\n      dup3\n        /* \"#utility.yul\":7699:7723   */\n      tag_66\n      jump\t// in\n    tag_164:\n        /* \"#utility.yul\":7686:7723   */\n      swap1\n      pop\n        /* \"#utility.yul\":7616:7729   */\n      swap2\n      swap1\n      pop\n      jump\t// out\n        /* \"#utility.yul\":7735:7837   */\n    tag_86:\n        /* \"#utility.yul\":7777:7785   */\n      0x00\n        /* \"#utility.yul\":7824:7829   */\n      dup2\n        /* \"#utility.yul\":7821:7822   */\n      0x00\n        /* \"#utility.yul\":7817:7830   */\n      shr\n        /* \"#utility.yul\":7796:7830   */\n      swap1\n      pop\n        /* \"#utility.yul\":7735:7837   */\n      swap2\n      swap1\n      pop\n      jump\t// out\n        /* \"#utility.yul\":7843:7942   */\n    tag_87:\n        /* \"#utility.yul\":7886:7889   */\n      0x00\n        /* \"#utility.yul\":7907:7936   */\n      tag_167\n        /* \"#utility.yul\":7930:7935   */\n      dup3\n        /* \"#utility.yul\":7907:7936   */\n      tag_86\n      jump\t// in\n    tag_167:\n        /* \"#utility.yul\":7900:7936   */\n      swap1\n      pop\n        /* \"#utility.yul\":7843:7942   */\n      swap2\n      swap1\n      pop\n      jump\t// out\n        /* \"#utility.yul\":7948:8210   */\n    tag_88:\n        /* \"#utility.yul\":8058:8097   */\n      tag_169\n        /* \"#utility.yul\":8089:8096   */\n      dup3\n        /* \"#utility.yul\":8058:8097   */\n      tag_85\n      jump\t// in\n    tag_169:\n        /* \"#utility.yul\":8119:8203   */\n      tag_170\n        /* \"#utility.yul\":8161:8202   */\n      tag_171\n        /* \"#utility.yul\":8185:8201   */\n      dup3\n        /* \"#utility.yul\":8161:8202   */\n      tag_87\n      jump\t// in\n    tag_171:\n        /* \"#utility.yul\":8154:8158   */\n      dup4\n        /* \"#utility.yul\":8148:8159   */\n      sload\n        /* \"#utility.yul\":8119:8203   */\n      tag_84\n      jump\t// in\n    tag_170:\n        /* \"#utility.yul\":8113:8117   */\n      dup3\n        /* \"#utility.yul\":8106:8204   */\n      sstore\n        /* \"#utility.yul\":8024:8210   */\n      pop\n        /* \"#utility.yul\":7948:8210   */\n      pop\n      pop\n      jump\t// out\n        /* \"#utility.yul\":8216:9349   */\n    tag_89:\n        /* \"#utility.yul\":8382:8383   */\n      0x00\n        /* \"#utility.yul\":8376:8380   */\n      dup2\n        /* \"#utility.yul\":8372:8384   */\n      add\n        /* \"#utility.yul\":8428:8429   */\n      0x00\n        /* \"#utility.yul\":8421:8426   */\n      dup4\n        /* \"#utility.yul\":8417:8430   */\n      add\n        /* \"#utility.yul\":8478:8490   */\n      dup1\n        /* \"#utility.yul\":8521:8563   */\n      tag_173\n        /* \"#utility.yul\":8549:8562   */\n      dup2\n        /* \"#utility.yul\":8521:8563   */\n      tag_82\n      jump\t// in\n    tag_173:\n        /* \"#utility.yul\":8504:8563   */\n      swap1\n      pop\n        /* \"#utility.yul\":8577:8655   */\n      tag_174\n        /* \"#utility.yul\":8641:8654   */\n      dup2\n        /* \"#utility.yul\":8629:8639   */\n      dup5\n        /* \"#utility.yul\":8577:8655   */\n      tag_88\n      jump\t// in\n    tag_174:\n        /* \"#utility.yul\":8339:8666   */\n      pop\n      pop\n      pop\n        /* \"#utility.yul\":8719:8720   */\n      0x01\n        /* \"#utility.yul\":8713:8717   */\n      dup2\n        /* \"#utility.yul\":8709:8721   */\n      add\n        /* \"#utility.yul\":8765:8767   */\n      0x20\n        /* \"#utility.yul\":8758:8763   */\n      dup4\n        /* \"#utility.yul\":8754:8768   */\n      add\n        /* \"#utility.yul\":8816:8828   */\n      dup1\n        /* \"#utility.yul\":8859:8901   */\n      tag_175\n        /* \"#utility.yul\":8887:8900   */\n      dup2\n        /* \"#utility.yul\":8859:8901   */\n      tag_82\n      jump\t// in\n    tag_175:\n        /* \"#utility.yul\":8842:8901   */\n      swap1\n      pop\n        /* \"#utility.yul\":8915:8993   */\n      tag_176\n        /* \"#utility.yul\":8979:8992   */\n      dup2\n        /* \"#utility.yul\":8967:8977   */\n      dup5\n        /* \"#utility.yul\":8915:8993   */\n      tag_88\n      jump\t// in\n    tag_176:\n        /* \"#utility.yul\":8676:9004   */\n      pop\n      pop\n      pop\n        /* \"#utility.yul\":9057:9058   */\n      0x02\n        /* \"#utility.yul\":9051:9055   */\n      dup2\n        /* \"#utility.yul\":9047:9059   */\n      add\n        /* \"#utility.yul\":9103:9105   */\n      0x40\n        /* \"#utility.yul\":9096:9101   */\n      dup4\n        /* \"#utility.yul\":9092:9106   */\n      add\n        /* \"#utility.yul\":9154:9166   */\n      dup1\n        /* \"#utility.yul\":9197:9239   */\n      tag_177\n        /* \"#utility.yul\":9225:9238   */\n      dup2\n        /* \"#utility.yul\":9197:9239   */\n      tag_82\n      jump\t// in\n    tag_177:\n        /* \"#utility.yul\":9180:9239   */\n      swap1\n      pop\n        /* \"#utility.yul\":9253:9331   */\n      tag_178\n        /* \"#utility.yul\":9317:9330   */\n      dup2\n        /* \"#utility.yul\":9305:9315   */\n      dup5\n        /* \"#utility.yul\":9253:9331   */\n      tag_88\n      jump\t// in\n    tag_178:\n        /* \"#utility.yul\":9014:9342   */\n      pop\n      pop\n      pop\n        /* \"#utility.yul\":8216:9349   */\n      pop\n      pop\n      jump\t// out\n        /* \"#utility.yul\":9355:9591   */\n    tag_59:\n        /* \"#utility.yul\":9481:9585   */\n      tag_180\n        /* \"#utility.yul\":9577:9584   */\n      dup3\n        /* \"#utility.yul\":9571:9575   */\n      dup3\n        /* \"#utility.yul\":9481:9585   */\n      tag_89\n      jump\t// in\n    tag_180:\n        /* \"#utility.yul\":9355:9591   */\n      pop\n      pop\n      jump\t// out\n\n    auxdata: 0xa2646970667358221220966db8e2fcd6b9cd5a584606843e8f97517bf3d7ead3e9b4bbd26dacb83b811064736f6c634300080d0033\n}\n",
				"bytecode": {
					"linkReferences": {},
					"object": "608060405234801561001057600080fd5b5061075a806100206000396000f3fe608060405234801561001057600080fd5b506004361061004c5760003560e01c80630178fe3f146100515780634a96d17014610083578063c41bb527146100b5578063f37f0402146100e5575b600080fd5b61006b60048036038101906100669190610307565b610101565b60405161007a9392919061034d565b60405180910390f35b61009d60048036038101906100989190610307565b610184565b6040516100ac9392919061034d565b60405180910390f35b6100cf60048036038101906100ca91906103b0565b6101be565b6040516100dc91906104dd565b60405180910390f35b6100ff60048036038101906100fa9190610523565b61028f565b005b600080600080848154811061011957610118610550565b5b90600052602060002090600302016000015492506000848154811061014157610140610550565b5b90600052602060002090600302016001015491506000848154811061016957610168610550565b5b90600052602060002090600302016002015490509193909250565b6000818154811061019457600080fd5b90600052602060002090600302016000915090508060000154908060010154908060020154905083565b60606000805b6000805490508110156102885783600082815481106101e6576101e5610550565b5b90600052602060002090600302016000015403610275576000818154811061021157610210610550565b5b9060005260206000209060030201604051806060016040529081600082015481526020016001820154815260200160028201548152505083838151811061025b5761025a610550565b5b60200260200101819052508180610271906105ae565b9250505b8080610280906105ae565b9150506101c4565b5050919050565b600081908060018154018082558091505060019003906000526020600020906003020160009091909190915081816102c79190610716565b505050565b600080fd5b6000819050919050565b6102e4816102d1565b81146102ef57600080fd5b50565b600081359050610301816102db565b92915050565b60006020828403121561031d5761031c6102cc565b5b600061032b848285016102f2565b91505092915050565b6000819050919050565b61034781610334565b82525050565b6000606082019050610362600083018661033e565b61036f602083018561033e565b61037c604083018461033e565b949350505050565b61038d81610334565b811461039857600080fd5b50565b6000813590506103aa81610384565b92915050565b6000602082840312156103c6576103c56102cc565b5b60006103d48482850161039b565b91505092915050565b600081519050919050565b600082825260208201905092915050565b6000819050602082019050919050565b61041281610334565b82525050565b60608201600082015161042e6000850182610409565b5060208201516104416020850182610409565b5060408201516104546040850182610409565b50505050565b60006104668383610418565b60608301905092915050565b6000602082019050919050565b600061048a826103dd565b61049481856103e8565b935061049f836103f9565b8060005b838110156104d05781516104b7888261045a565b97506104c283610472565b9250506001810190506104a3565b5085935050505092915050565b600060208201905081810360008301526104f7818461047f565b905092915050565b600080fd5b60006060828403121561051a576105196104ff565b5b81905092915050565b600060608284031215610539576105386102cc565b5b600061054784828501610504565b91505092915050565b7f4e487b7100000000000000000000000000000000000000000000000000000000600052603260045260246000fd5b7f4e487b7100000000000000000000000000000000000000000000000000000000600052601160045260246000fd5b60006105b9826102d1565b91507fffffffffffffffffffffffffffffffffffffffffffffffffffffffffffffffff82036105eb576105ea61057f565b5b600182019050919050565b6000813561060381610384565b80915050919050565b60008160001b9050919050565b60007fffffffffffffffffffffffffffffffffffffffffffffffffffffffffffffffff6106458461060c565b9350801983169250808416831791505092915050565b600061066682610334565b9050919050565b60008160001c9050919050565b60006106858261066d565b9050919050565b6106958261065b565b6106a86106a18261067a565b8354610619565b8255505050565b6000810160008301806106c1816105f6565b90506106cd818461068c565b5050506001810160208301806106e2816105f6565b90506106ee818461068c565b505050600281016040830180610703816105f6565b905061070f818461068c565b5050505050565b61072082826106af565b505056fea2646970667358221220966db8e2fcd6b9cd5a584606843e8f97517bf3d7ead3e9b4bbd26dacb83b811064736f6c634300080d0033",
					"opcodes": "PUSH1 0x80 PUSH1 0x40 MSTORE CALLVALUE DUP1 ISZERO PUSH2 0x10 JUMPI PUSH1 0x0 DUP1 REVERT JUMPDEST POP PUSH2 0x75A DUP1 PUSH2 0x20 PUSH1 0x0 CODECOPY PUSH1 0x0 RETURN INVALID PUSH1 0x80 PUSH1 0x40 MSTORE CALLVALUE DUP1 ISZERO PUSH2 0x10 JUMPI PUSH1 0x0 DUP1 REVERT JUMPDEST POP PUSH1 0x4 CALLDATASIZE LT PUSH2 0x4C JUMPI PUSH1 0x0 CALLDATALOAD PUSH1 0xE0 SHR DUP1 PUSH4 0x178FE3F EQ PUSH2 0x51 JUMPI DUP1 PUSH4 0x4A96D170 EQ PUSH2 0x83 JUMPI DUP1 PUSH4 0xC41BB527 EQ PUSH2 0xB5 JUMPI DUP1 PUSH4 0xF37F0402 EQ PUSH2 0xE5 JUMPI JUMPDEST PUSH1 0x0 DUP1 REVERT JUMPDEST PUSH2 0x6B PUSH1 0x4 DUP1 CALLDATASIZE SUB DUP2 ADD SWAP1 PUSH2 0x66 SWAP2 SWAP1 PUSH2 0x307 JUMP JUMPDEST PUSH2 0x101 JUMP JUMPDEST PUSH1 0x40 MLOAD PUSH2 0x7A SWAP4 SWAP3 SWAP2 SWAP1 PUSH2 0x34D JUMP JUMPDEST PUSH1 0x40 MLOAD DUP1 SWAP2 SUB SWAP1 RETURN JUMPDEST PUSH2 0x9D PUSH1 0x4 DUP1 CALLDATASIZE SUB DUP2 ADD SWAP1 PUSH2 0x98 SWAP2 SWAP1 PUSH2 0x307 JUMP JUMPDEST PUSH2 0x184 JUMP JUMPDEST PUSH1 0x40 MLOAD PUSH2 0xAC SWAP4 SWAP3 SWAP2 SWAP1 PUSH2 0x34D JUMP JUMPDEST PUSH1 0x40 MLOAD DUP1 SWAP2 SUB SWAP1 RETURN JUMPDEST PUSH2 0xCF PUSH1 0x4 DUP1 CALLDATASIZE SUB DUP2 ADD SWAP1 PUSH2 0xCA SWAP2 SWAP1 PUSH2 0x3B0 JUMP JUMPDEST PUSH2 0x1BE JUMP JUMPDEST PUSH1 0x40 MLOAD PUSH2 0xDC SWAP2 SWAP1 PUSH2 0x4DD JUMP JUMPDEST PUSH1 0x40 MLOAD DUP1 SWAP2 SUB SWAP1 RETURN JUMPDEST PUSH2 0xFF PUSH1 0x4 DUP1 CALLDATASIZE SUB DUP2 ADD SWAP1 PUSH2 0xFA SWAP2 SWAP1 PUSH2 0x523 JUMP JUMPDEST PUSH2 0x28F JUMP JUMPDEST STOP JUMPDEST PUSH1 0x0 DUP1 PUSH1 0x0 DUP1 DUP5 DUP2 SLOAD DUP2 LT PUSH2 0x119 JUMPI PUSH2 0x118 PUSH2 0x550 JUMP JUMPDEST JUMPDEST SWAP1 PUSH1 0x0 MSTORE PUSH1 0x20 PUSH1 0x0 KECCAK256 SWAP1 PUSH1 0x3 MUL ADD PUSH1 0x0 ADD SLOAD SWAP3 POP PUSH1 0x0 DUP5 DUP2 SLOAD DUP2 LT PUSH2 0x141 JUMPI PUSH2 0x140 PUSH2 0x550 JUMP JUMPDEST JUMPDEST SWAP1 PUSH1 0x0 MSTORE PUSH1 0x20 PUSH1 0x0 KECCAK256 SWAP1 PUSH1 0x3 MUL ADD PUSH1 0x1 ADD SLOAD SWAP2 POP PUSH1 0x0 DUP5 DUP2 SLOAD DUP2 LT PUSH2 0x169 JUMPI PUSH2 0x168 PUSH2 0x550 JUMP JUMPDEST JUMPDEST SWAP1 PUSH1 0x0 MSTORE PUSH1 0x20 PUSH1 0x0 KECCAK256 SWAP1 PUSH1 0x3 MUL ADD PUSH1 0x2 ADD SLOAD SWAP1 POP SWAP2 SWAP4 SWAP1 SWAP3 POP JUMP JUMPDEST PUSH1 0x0 DUP2 DUP2 SLOAD DUP2 LT PUSH2 0x194 JUMPI PUSH1 0x0 DUP1 REVERT JUMPDEST SWAP1 PUSH1 0x0 MSTORE PUSH1 0x20 PUSH1 0x0 KECCAK256 SWAP1 PUSH1 0x3 MUL ADD PUSH1 0x0 SWAP2 POP SWAP1 POP DUP1 PUSH1 0x0 ADD SLOAD SWAP1 DUP1 PUSH1 0x1 ADD SLOAD SWAP1 DUP1 PUSH1 0x2 ADD SLOAD SWAP1 POP DUP4 JUMP JUMPDEST PUSH1 0x60 PUSH1 0x0 DUP1 JUMPDEST PUSH1 0x0 DUP1 SLOAD SWAP1 POP DUP2 LT ISZERO PUSH2 0x288 JUMPI DUP4 PUSH1 0x0 DUP3 DUP2 SLOAD DUP2 LT PUSH2 0x1E6 JUMPI PUSH2 0x1E5 PUSH2 0x550 JUMP JUMPDEST JUMPDEST SWAP1 PUSH1 0x0 MSTORE PUSH1 0x20 PUSH1 0x0 KECCAK256 SWAP1 PUSH1 0x3 MUL ADD PUSH1 0x0 ADD SLOAD SUB PUSH2 0x275 JUMPI PUSH1 0x0 DUP2 DUP2 SLOAD DUP2 LT PUSH2 0x211 JUMPI PUSH2 0x210 PUSH2 0x550 JUMP JUMPDEST JUMPDEST SWAP1 PUSH1 0x0 MSTORE PUSH1 0x20 PUSH1 0x0 KECCAK256 SWAP1 PUSH1 0x3 MUL ADD PUSH1 0x40 MLOAD DUP1 PUSH1 0x60 ADD PUSH1 0x40 MSTORE SWAP1 DUP2 PUSH1 0x0 DUP3 ADD SLOAD DUP2 MSTORE PUSH1 0x20 ADD PUSH1 0x1 DUP3 ADD SLOAD DUP2 MSTORE PUSH1 0x20 ADD PUSH1 0x2 DUP3 ADD SLOAD DUP2 MSTORE POP POP DUP4 DUP4 DUP2 MLOAD DUP2 LT PUSH2 0x25B JUMPI PUSH2 0x25A PUSH2 0x550 JUMP JUMPDEST JUMPDEST PUSH1 0x20 MUL PUSH1 0x20 ADD ADD DUP2 SWAP1 MSTORE POP DUP2 DUP1 PUSH2 0x271 SWAP1 PUSH2 0x5AE JUMP JUMPDEST SWAP3 POP POP JUMPDEST DUP1 DUP1 PUSH2 0x280 SWAP1 PUSH2 0x5AE JUMP JUMPDEST SWAP2 POP POP PUSH2 0x1C4 JUMP JUMPDEST POP POP SWAP2 SWAP1 POP JUMP JUMPDEST PUSH1 0x0 DUP2 SWAP1 DUP1 PUSH1 0x1 DUP2 SLOAD ADD DUP1 DUP3 SSTORE DUP1 SWAP2 POP POP PUSH1 0x1 SWAP1 SUB SWAP1 PUSH1 0x0 MSTORE PUSH1 0x20 PUSH1 0x0 KECCAK256 SWAP1 PUSH1 0x3 MUL ADD PUSH1 0x0 SWAP1 SWAP2 SWAP1 SWAP2 SWAP1 SWAP2 POP DUP2 DUP2 PUSH2 0x2C7 SWAP2 SWAP1 PUSH2 0x716 JUMP JUMPDEST POP POP POP JUMP JUMPDEST PUSH1 0x0 DUP1 REVERT JUMPDEST PUSH1 0x0 DUP2 SWAP1 POP SWAP2 SWAP1 POP JUMP JUMPDEST PUSH2 0x2E4 DUP2 PUSH2 0x2D1 JUMP JUMPDEST DUP2 EQ PUSH2 0x2EF JUMPI PUSH1 0x0 DUP1 REVERT JUMPDEST POP JUMP JUMPDEST PUSH1 0x0 DUP2 CALLDATALOAD SWAP1 POP PUSH2 0x301 DUP2 PUSH2 0x2DB JUMP JUMPDEST SWAP3 SWAP2 POP POP JUMP JUMPDEST PUSH1 0x0 PUSH1 0x20 DUP3 DUP5 SUB SLT ISZERO PUSH2 0x31D JUMPI PUSH2 0x31C PUSH2 0x2CC JUMP JUMPDEST JUMPDEST PUSH1 0x0 PUSH2 0x32B DUP5 DUP3 DUP6 ADD PUSH2 0x2F2 JUMP JUMPDEST SWAP2 POP POP SWAP3 SWAP2 POP POP JUMP JUMPDEST PUSH1 0x0 DUP2 SWAP1 POP SWAP2 SWAP1 POP JUMP JUMPDEST PUSH2 0x347 DUP2 PUSH2 0x334 JUMP JUMPDEST DUP3 MSTORE POP POP JUMP JUMPDEST PUSH1 0x0 PUSH1 0x60 DUP3 ADD SWAP1 POP PUSH2 0x362 PUSH1 0x0 DUP4 ADD DUP7 PUSH2 0x33E JUMP JUMPDEST PUSH2 0x36F PUSH1 0x20 DUP4 ADD DUP6 PUSH2 0x33E JUMP JUMPDEST PUSH2 0x37C PUSH1 0x40 DUP4 ADD DUP5 PUSH2 0x33E JUMP JUMPDEST SWAP5 SWAP4 POP POP POP POP JUMP JUMPDEST PUSH2 0x38D DUP2 PUSH2 0x334 JUMP JUMPDEST DUP2 EQ PUSH2 0x398 JUMPI PUSH1 0x0 DUP1 REVERT JUMPDEST POP JUMP JUMPDEST PUSH1 0x0 DUP2 CALLDATALOAD SWAP1 POP PUSH2 0x3AA DUP2 PUSH2 0x384 JUMP JUMPDEST SWAP3 SWAP2 POP POP JUMP JUMPDEST PUSH1 0x0 PUSH1 0x20 DUP3 DUP5 SUB SLT ISZERO PUSH2 0x3C6 JUMPI PUSH2 0x3C5 PUSH2 0x2CC JUMP JUMPDEST JUMPDEST PUSH1 0x0 PUSH2 0x3D4 DUP5 DUP3 DUP6 ADD PUSH2 0x39B JUMP JUMPDEST SWAP2 POP POP SWAP3 SWAP2 POP POP JUMP JUMPDEST PUSH1 0x0 DUP2 MLOAD SWAP1 POP SWAP2 SWAP1 POP JUMP JUMPDEST PUSH1 0x0 DUP3 DUP3 MSTORE PUSH1 0x20 DUP3 ADD SWAP1 POP SWAP3 SWAP2 POP POP JUMP JUMPDEST PUSH1 0x0 DUP2 SWAP1 POP PUSH1 0x20 DUP3 ADD SWAP1 POP SWAP2 SWAP1 POP JUMP JUMPDEST PUSH2 0x412 DUP2 PUSH2 0x334 JUMP JUMPDEST DUP3 MSTORE POP POP JUMP JUMPDEST PUSH1 0x60 DUP3 ADD PUSH1 0x0 DUP3 ADD MLOAD PUSH2 0x42E PUSH1 0x0 DUP6 ADD DUP3 PUSH2 0x409 JUMP JUMPDEST POP PUSH1 0x20 DUP3 ADD MLOAD PUSH2 0x441 PUSH1 0x20 DUP6 ADD DUP3 PUSH2 0x409 JUMP JUMPDEST POP PUSH1 0x40 DUP3 ADD MLOAD PUSH2 0x454 PUSH1 0x40 DUP6 ADD DUP3 PUSH2 0x409 JUMP JUMPDEST POP POP POP POP JUMP JUMPDEST PUSH1 0x0 PUSH2 0x466 DUP4 DUP4 PUSH2 0x418 JUMP JUMPDEST PUSH1 0x60 DUP4 ADD SWAP1 POP SWAP3 SWAP2 POP POP JUMP JUMPDEST PUSH1 0x0 PUSH1 0x20 DUP3 ADD SWAP1 POP SWAP2 SWAP1 POP JUMP JUMPDEST PUSH1 0x0 PUSH2 0x48A DUP3 PUSH2 0x3DD JUMP JUMPDEST PUSH2 0x494 DUP2 DUP6 PUSH2 0x3E8 JUMP JUMPDEST SWAP4 POP PUSH2 0x49F DUP4 PUSH2 0x3F9 JUMP JUMPDEST DUP1 PUSH1 0x0 JUMPDEST DUP4 DUP2 LT ISZERO PUSH2 0x4D0 JUMPI DUP2 MLOAD PUSH2 0x4B7 DUP9 DUP3 PUSH2 0x45A JUMP JUMPDEST SWAP8 POP PUSH2 0x4C2 DUP4 PUSH2 0x472 JUMP JUMPDEST SWAP3 POP POP PUSH1 0x1 DUP2 ADD SWAP1 POP PUSH2 0x4A3 JUMP JUMPDEST POP DUP6 SWAP4 POP POP POP POP SWAP3 SWAP2 POP POP JUMP JUMPDEST PUSH1 0x0 PUSH1 0x20 DUP3 ADD SWAP1 POP DUP2 DUP2 SUB PUSH1 0x0 DUP4 ADD MSTORE PUSH2 0x4F7 DUP2 DUP5 PUSH2 0x47F JUMP JUMPDEST SWAP1 POP SWAP3 SWAP2 POP POP JUMP JUMPDEST PUSH1 0x0 DUP1 REVERT JUMPDEST PUSH1 0x0 PUSH1 0x60 DUP3 DUP5 SUB SLT ISZERO PUSH2 0x51A JUMPI PUSH2 0x519 PUSH2 0x4FF JUMP JUMPDEST JUMPDEST DUP2 SWAP1 POP SWAP3 SWAP2 POP POP JUMP JUMPDEST PUSH1 0x0 PUSH1 0x60 DUP3 DUP5 SUB SLT ISZERO PUSH2 0x539 JUMPI PUSH2 0x538 PUSH2 0x2CC JUMP JUMPDEST JUMPDEST PUSH1 0x0 PUSH2 0x547 DUP5 DUP3 DUP6 ADD PUSH2 0x504 JUMP JUMPDEST SWAP2 POP POP SWAP3 SWAP2 POP POP JUMP JUMPDEST PUSH32 0x4E487B7100000000000000000000000000000000000000000000000000000000 PUSH1 0x0 MSTORE PUSH1 0x32 PUSH1 0x4 MSTORE PUSH1 0x24 PUSH1 0x0 REVERT JUMPDEST PUSH32 0x4E487B7100000000000000000000000000000000000000000000000000000000 PUSH1 0x0 MSTORE PUSH1 0x11 PUSH1 0x4 MSTORE PUSH1 0x24 PUSH1 0x0 REVERT JUMPDEST PUSH1 0x0 PUSH2 0x5B9 DUP3 PUSH2 0x2D1 JUMP JUMPDEST SWAP2 POP PUSH32 0xFFFFFFFFFFFFFFFFFFFFFFFFFFFFFFFFFFFFFFFFFFFFFFFFFFFFFFFFFFFFFFFF DUP3 SUB PUSH2 0x5EB JUMPI PUSH2 0x5EA PUSH2 0x57F JUMP JUMPDEST JUMPDEST PUSH1 0x1 DUP3 ADD SWAP1 POP SWAP2 SWAP1 POP JUMP JUMPDEST PUSH1 0x0 DUP2 CALLDATALOAD PUSH2 0x603 DUP2 PUSH2 0x384 JUMP JUMPDEST DUP1 SWAP2 POP POP SWAP2 SWAP1 POP JUMP JUMPDEST PUSH1 0x0 DUP2 PUSH1 0x0 SHL SWAP1 POP SWAP2 SWAP1 POP JUMP JUMPDEST PUSH1 0x0 PUSH32 0xFFFFFFFFFFFFFFFFFFFFFFFFFFFFFFFFFFFFFFFFFFFFFFFFFFFFFFFFFFFFFFFF PUSH2 0x645 DUP5 PUSH2 0x60C JUMP JUMPDEST SWAP4 POP DUP1 NOT DUP4 AND SWAP3 POP DUP1 DUP5 AND DUP4 OR SWAP2 POP POP SWAP3 SWAP2 POP POP JUMP JUMPDEST PUSH1 0x0 PUSH2 0x666 DUP3 PUSH2 0x334 JUMP JUMPDEST SWAP1 POP SWAP2 SWAP1 POP JUMP JUMPDEST PUSH1 0x0 DUP2 PUSH1 0x0 SHR SWAP1 POP SWAP2 SWAP1 POP JUMP JUMPDEST PUSH1 0x0 PUSH2 0x685 DUP3 PUSH2 0x66D JUMP JUMPDEST SWAP1 POP SWAP2 SWAP1 POP JUMP JUMPDEST PUSH2 0x695 DUP3 PUSH2 0x65B JUMP JUMPDEST PUSH2 0x6A8 PUSH2 0x6A1 DUP3 PUSH2 0x67A JUMP JUMPDEST DUP4 SLOAD PUSH2 0x619 JUMP JUMPDEST DUP3 SSTORE POP POP POP JUMP JUMPDEST PUSH1 0x0 DUP2 ADD PUSH1 0x0 DUP4 ADD DUP1 PUSH2 0x6C1 DUP2 PUSH2 0x5F6 JUMP JUMPDEST SWAP1 POP PUSH2 0x6CD DUP2 DUP5 PUSH2 0x68C JUMP JUMPDEST POP POP POP PUSH1 0x1 DUP2 ADD PUSH1 0x20 DUP4 ADD DUP1 PUSH2 0x6E2 DUP2 PUSH2 0x5F6 JUMP JUMPDEST SWAP1 POP PUSH2 0x6EE DUP2 DUP5 PUSH2 0x68C JUMP JUMPDEST POP POP POP PUSH1 0x2 DUP2 ADD PUSH1 0x40 DUP4 ADD DUP1 PUSH2 0x703 DUP2 PUSH2 0x5F6 JUMP JUMPDEST SWAP1 POP PUSH2 0x70F DUP2 DUP5 PUSH2 0x68C JUMP JUMPDEST POP POP POP POP POP JUMP JUMPDEST PUSH2 0x720 DUP3 DUP3 PUSH2 0x6AF JUMP JUMPDEST POP POP JUMP INVALID LOG2 PUSH5 0x6970667358 0x22 SLT KECCAK256 SWAP7 PUSH14 0xB8E2FCD6B9CD5A584606843E8F97 MLOAD PUSH28 0xF3D7EAD3E9B4BBD26DACB83B811064736F6C634300080D0033000000 "
				},
				"gasEstimates": {
					"creation": {
						"codeDepositCost": "376400",
						"executionCost": "411",
						"totalCost": "376811"
					},
					"external": {
						"addData((bytes32,bytes32,bytes32))": "infinite",
						"dataSet(uint256)": "infinite",
						"getAllDataBySensor(bytes32)": "infinite",
						"getData(uint256)": "infinite"
					}
				},
				"methodIdentifiers": {
					"addData((bytes32,bytes32,bytes32))": "f37f0402",
					"dataSet(uint256)": "4a96d170",
					"getAllDataBySensor(bytes32)": "c41bb527",
					"getData(uint256)": "0178fe3f"
				}
			},
			"userdoc": {
				"kind": "user",
				"methods": {},
				"version": 1
			}
		}
	}
}