{
	"DataStorage.sol": {
		"DataStorage": {
			"abi": [
				{
					"inputs": [
						{
							"components": [
								{
									"internalType": "bytes32",
									"name": "sensorId",
									"type": "bytes32"
								},
								{
									"internalType": "bytes32",
									"name": "timeStamp",
									"type": "bytes32"
								},
								{
									"internalType": "bytes32",
									"name": "value",
									"type": "bytes32"
								}
							],
							"internalType": "struct DataStorage.Data",
							"name": "newData",
							"type": "tuple"
						}
					],
					"name": "addData",
					"outputs": [],
					"stateMutability": "payable",
					"type": "function"
				},
				{
					"inputs": [
						{
							"internalType": "uint256",
							"name": "",
							"type": "uint256"
						}
					],
					"name": "dataSet",
					"outputs": [
						{
							"internalType": "bytes32",
							"name": "sensorId",
							"type": "bytes32"
						},
						{
							"internalType": "bytes32",
							"name": "timeStamp",
							"type": "bytes32"
						},
						{
							"internalType": "bytes32",
							"name": "value",
							"type": "bytes32"
						}
					],
					"stateMutability": "view",
					"type": "function"
				},
				{
					"inputs": [
						{
							"internalType": "bytes32",
							"name": "givenId",
							"type": "bytes32"
						}
					],
					"name": "getAllDataBySensor",
					"outputs": [
						{
							"components": [
								{
									"internalType": "bytes32",
									"name": "sensorId",
									"type": "bytes32"
								},
								{
									"internalType": "bytes32",
									"name": "timeStamp",
									"type": "bytes32"
								},
								{
									"internalType": "bytes32",
									"name": "value",
									"type": "bytes32"
								}
							],
							"internalType": "struct DataStorage.Data[]",
							"name": "returnData",
							"type": "tuple[]"
						}
					],
					"stateMutability": "view",
					"type": "function"
				},
				{
					"inputs": [
						{
							"internalType": "uint256",
							"name": "arrayPointer",
							"type": "uint256"
						}
					],
					"name": "getData",
					"outputs": [
						{
							"internalType": "bytes32",
							"name": "Id",
							"type": "bytes32"
						},
						{
							"internalType": "bytes32",
							"name": "time",
							"type": "bytes32"
						},
						{
							"internalType": "bytes32",
							"name": "sensorvalue",
							"type": "bytes32"
						}
					],
					"stateMutability": "view",
					"type": "function"
				}
			],
			"devdoc": {
				"kind": "dev",
				"methods": {},
				"version": 1
			},
			"evm": {
				"assembly": "    /* \"DataStorage.sol\":25:763  contract DataStorage {... */\n  mstore(0x40, 0x80)\n  callvalue\n  dup1\n  iszero\n  tag_1\n  jumpi\n  0x00\n  dup1\n  revert\ntag_1:\n  pop\n  dataSize(sub_0)\n  dup1\n  dataOffset(sub_0)\n  0x00\n  codecopy\n  0x00\n  return\nstop\n\nsub_0: assembly {\n        /* \"DataStorage.sol\":25:763  contract DataStorage {... */\n      mstore(0x40, 0x80)\n      jumpi(tag_1, lt(calldatasize, 0x04))\n      shr(0xe0, calldataload(0x00))\n      dup1\n      0x0178fe3f\n      eq\n      tag_2\n      jumpi\n      dup1\n      0x4a96d170\n      eq\n      tag_3\n      jumpi\n      dup1\n      0xc41bb527\n      eq\n      tag_4\n      jumpi\n      dup1\n      0xf37f0402\n      eq\n      tag_5\n      jumpi\n    tag_1:\n      0x00\n      dup1\n      revert\n        /* \"DataStorage.sol\":251:492  function getData(uint arrayPointer) view public returns (bytes32 Id, bytes32 time, bytes32 sensorvalue) {... */\n    tag_2:\n      callvalue\n      dup1\n      iszero\n      tag_6\n      jumpi\n      0x00\n      dup1\n      revert\n    tag_6:\n      pop\n      tag_7\n      0x04\n      dup1\n      calldatasize\n      sub\n      dup2\n      add\n      swap1\n      tag_8\n      swap2\n      swap1\n      tag_9\n      jump\t// in\n    tag_8:\n      tag_10\n      jump\t// in\n    tag_7:\n      mload(0x40)\n      tag_11\n      swap4\n      swap3\n      swap2\n      swap1\n      tag_12\n      jump\t// in\n    tag_11:\n      mload(0x40)\n      dup1\n      swap2\n      sub\n      swap1\n      return\n        /* \"DataStorage.sol\":50:71  Data[] public dataSet */\n    tag_3:\n      callvalue\n      dup1\n      iszero\n      tag_13\n      jumpi\n      0x00\n      dup1\n      revert\n    tag_13:\n      pop\n      tag_14\n      0x04\n      dup1\n      calldatasize\n      sub\n      dup2\n      add\n      swap1\n      tag_15\n      swap2\n      swap1\n      tag_9\n      jump\t// in\n    tag_15:\n      tag_16\n      jump\t// in\n    tag_14:\n      mload(0x40)\n      tag_17\n      swap4\n      swap3\n      swap2\n      swap1\n      tag_12\n      jump\t// in\n    tag_17:\n      mload(0x40)\n      dup1\n      swap2\n      sub\n      swap1\n      return\n        /* \"DataStorage.sol\":496:761  function getAllDataBySensor(bytes32 givenId) view public returns (Data[] memory returnData){... */\n    tag_4:\n      callvalue\n      dup1\n      iszero\n      tag_18\n      jumpi\n      0x00\n      dup1\n      revert\n    tag_18:\n      pop\n      tag_19\n      0x04\n      dup1\n      calldatasize\n      sub\n      dup2\n      add\n      swap1\n      tag_20\n      swap2\n      swap1\n      tag_21\n      jump\t// in\n    tag_20:\n      tag_22\n      jump\t// in\n    tag_19:\n      mload(0x40)\n      tag_23\n      swap2\n      swap1\n      tag_24\n      jump\t// in\n    tag_23:\n      mload(0x40)\n      dup1\n      swap2\n      sub\n      swap1\n      return\n        /* \"DataStorage.sol\":160:247  function addData(Data calldata newData) public payable {... */\n    tag_5:\n      tag_25\n      0x04\n      dup1\n      calldatasize\n      sub\n      dup2\n      add\n      swap1\n      tag_26\n      swap2\n      swap1\n      tag_27\n      jump\t// in\n    tag_26:\n      tag_28\n      jump\t// in\n    tag_25:\n      stop\n        /* \"DataStorage.sol\":251:492  function getData(uint arrayPointer) view public returns (bytes32 Id, bytes32 time, bytes32 sensorvalue) {... */\n    tag_10:\n        /* \"DataStorage.sol\":308:318  bytes32 Id */\n      0x00\n        /* \"DataStorage.sol\":320:332  bytes32 time */\n      dup1\n        /* \"DataStorage.sol\":334:353  bytes32 sensorvalue */\n      0x00\n        /* \"DataStorage.sol\":366:373  dataSet */\n      dup1\n        /* \"DataStorage.sol\":374:386  arrayPointer */\n      dup5\n        /* \"DataStorage.sol\":366:387  dataSet[arrayPointer] */\n      dup2\n      sload\n      dup2\n      lt\n      tag_30\n      jumpi\n      tag_31\n      tag_32\n      jump\t// in\n    tag_31:\n    tag_30:\n      swap1\n      0x00\n      mstore\n      keccak256(0x00, 0x20)\n      swap1\n      0x03\n      mul\n      add\n        /* \"DataStorage.sol\":366:396  dataSet[arrayPointer].sensorId */\n      0x00\n      add\n      sload\n        /* \"DataStorage.sol\":361:396  Id = dataSet[arrayPointer].sensorId */\n      swap3\n      pop\n        /* \"DataStorage.sol\":409:416  dataSet */\n      0x00\n        /* \"DataStorage.sol\":417:429  arrayPointer */\n      dup5\n        /* \"DataStorage.sol\":409:430  dataSet[arrayPointer] */\n      dup2\n      sload\n      dup2\n      lt\n      tag_34\n      jumpi\n      tag_35\n      tag_32\n      jump\t// in\n    tag_35:\n    tag_34:\n      swap1\n      0x00\n      mstore\n      keccak256(0x00, 0x20)\n      swap1\n      0x03\n      mul\n      add\n        /* \"DataStorage.sol\":409:440  dataSet[arrayPointer].timeStamp */\n      0x01\n      add\n      sload\n        /* \"DataStorage.sol\":402:440  time = dataSet[arrayPointer].timeStamp */\n      swap2\n      pop\n        /* \"DataStorage.sol\":460:467  dataSet */\n      0x00\n        /* \"DataStorage.sol\":468:480  arrayPointer */\n      dup5\n        /* \"DataStorage.sol\":460:481  dataSet[arrayPointer] */\n      dup2\n      sload\n      dup2\n      lt\n      tag_37\n      jumpi\n      tag_38\n      tag_32\n      jump\t// in\n    tag_38:\n    tag_37:\n      swap1\n      0x00\n      mstore\n      keccak256(0x00, 0x20)\n      swap1\n      0x03\n      mul\n      add\n        /* \"DataStorage.sol\":460:487  dataSet[arrayPointer].value */\n      0x02\n      add\n      sload\n        /* \"DataStorage.sol\":446:487  sensorvalue = dataSet[arrayPointer].value */\n      swap1\n      pop\n        /* \"DataStorage.sol\":251:492  function getData(uint arrayPointer) view public returns (bytes32 Id, bytes32 time, bytes32 sensorvalue) {... */\n      swap2\n      swap4\n      swap1\n      swap3\n      pop\n      jump\t// out\n        /* \"DataStorage.sol\":50:71  Data[] public dataSet */\n    tag_16:\n      0x00\n      dup2\n      dup2\n      sload\n      dup2\n      lt\n      tag_40\n      jumpi\n      0x00\n      dup1\n      revert\n    tag_40:\n      swap1\n      0x00\n      mstore\n      keccak256(0x00, 0x20)\n      swap1\n      0x03\n      mul\n      add\n      0x00\n      swap2\n      pop\n      swap1\n      pop\n      dup1\n      0x00\n      add\n      sload\n      swap1\n      dup1\n      0x01\n      add\n      sload\n      swap1\n      dup1\n      0x02\n      add\n      sload\n      swap1\n      pop\n      dup4\n      jump\t// out\n        /* \"DataStorage.sol\":496:761  function getAllDataBySensor(bytes32 givenId) view public returns (Data[] memory returnData){... */\n    tag_22:\n        /* \"DataStorage.sol\":562:586  Data[] memory returnData */\n      0x60\n        /* \"DataStorage.sol\":593:599  uint x */\n      0x00\n        /* \"DataStorage.sol\":614:620  uint i */\n      dup1\n        /* \"DataStorage.sol\":609:757  for (uint i = 0; i < dataSet.length; i++){... */\n    tag_43:\n        /* \"DataStorage.sol\":630:637  dataSet */\n      0x00\n        /* \"DataStorage.sol\":630:644  dataSet.length */\n      dup1\n      sload\n      swap1\n      pop\n        /* \"DataStorage.sol\":626:627  i */\n      dup2\n        /* \"DataStorage.sol\":626:644  i < dataSet.length */\n      lt\n        /* \"DataStorage.sol\":609:757  for (uint i = 0; i < dataSet.length; i++){... */\n      iszero\n      tag_44\n      jumpi\n        /* \"DataStorage.sol\":685:692  givenId */\n      dup4\n        /* \"DataStorage.sol\":662:669  dataSet */\n      0x00\n        /* \"DataStorage.sol\":670:671  i */\n      dup3\n        /* \"DataStorage.sol\":662:672  dataSet[i] */\n      dup2\n      sload\n      dup2\n      lt\n      tag_46\n      jumpi\n      tag_47\n      tag_32\n      jump\t// in\n    tag_47:\n    tag_46:\n      swap1\n      0x00\n      mstore\n      keccak256(0x00, 0x20)\n      swap1\n      0x03\n      mul\n      add\n        /* \"DataStorage.sol\":662:681  dataSet[i].sensorId */\n      0x00\n      add\n      sload\n        /* \"DataStorage.sol\":662:692  dataSet[i].sensorId == givenId */\n      sub\n        /* \"DataStorage.sol\":658:751  if (dataSet[i].sensorId == givenId){... */\n      tag_49\n      jumpi\n        /* \"DataStorage.sol\":719:726  dataSet */\n      0x00\n        /* \"DataStorage.sol\":727:728  i */\n      dup2\n        /* \"DataStorage.sol\":719:729  dataSet[i] */\n      dup2\n      sload\n      dup2\n      lt\n      tag_50\n      jumpi\n      tag_51\n      tag_32\n      jump\t// in\n    tag_51:\n    tag_50:\n      swap1\n      0x00\n      mstore\n      keccak256(0x00, 0x20)\n      swap1\n      0x03\n      mul\n      add\n        /* \"DataStorage.sol\":703:729  returnData[x] = dataSet[i] */\n      mload(0x40)\n      dup1\n      0x60\n      add\n      0x40\n      mstore\n      swap1\n      dup2\n      0x00\n      dup3\n      add\n      sload\n      dup2\n      mstore\n      0x20\n      add\n      0x01\n      dup3\n      add\n      sload\n      dup2\n      mstore\n      0x20\n      add\n      0x02\n      dup3\n      add\n      sload\n      dup2\n      mstore\n      pop\n      pop\n        /* \"DataStorage.sol\":703:713  returnData */\n      dup4\n        /* \"DataStorage.sol\":714:715  x */\n      dup4\n        /* \"DataStorage.sol\":703:716  returnData[x] */\n      dup2\n      mload\n      dup2\n      lt\n      tag_53\n      jumpi\n      tag_54\n      tag_32\n      jump\t// in\n    tag_54:\n    tag_53:\n      0x20\n      mul\n      0x20\n      add\n      add\n        /* \"DataStorage.sol\":703:729  returnData[x] = dataSet[i] */\n      dup2\n      swap1\n      mstore\n      pop\n        /* \"DataStorage.sol\":739:742  x++ */\n      dup2\n      dup1\n      tag_55\n      swap1\n      tag_56\n      jump\t// in\n    tag_55:\n      swap3\n      pop\n      pop\n        /* \"DataStorage.sol\":658:751  if (dataSet[i].sensorId == givenId){... */\n    tag_49:\n        /* \"DataStorage.sol\":646:649  i++ */\n      dup1\n      dup1\n      tag_57\n      swap1\n      tag_56\n      jump\t// in\n    tag_57:\n      swap2\n      pop\n      pop\n        /* \"DataStorage.sol\":609:757  for (uint i = 0; i < dataSet.length; i++){... */\n      jump(tag_43)\n    tag_44:\n      pop\n        /* \"DataStorage.sol\":587:761  {... */\n      pop\n        /* \"DataStorage.sol\":496:761  function getAllDataBySensor(bytes32 givenId) view public returns (Data[] memory returnData){... */\n      swap2\n      swap1\n      pop\n      jump\t// out\n        /* \"DataStorage.sol\":160:247  function addData(Data calldata newData) public payable {... */\n    tag_28:\n        /* \"DataStorage.sol\":221:228  dataSet */\n      0x00\n        /* \"DataStorage.sol\":234:241  newData */\n      dup2\n        /* \"DataStorage.sol\":221:242  dataSet.push(newData) */\n      swap1\n      dup1\n      0x01\n      dup2\n      sload\n      add\n      dup1\n      dup3\n      sstore\n      dup1\n      swap2\n      pop\n      pop\n      0x01\n      swap1\n      sub\n      swap1\n      0x00\n      mstore\n      keccak256(0x00, 0x20)\n      swap1\n      0x03\n      mul\n      add\n      0x00\n      swap1\n      swap2\n      swap1\n      swap2\n      swap1\n      swap2\n      pop\n      dup2\n      dup2\n      tag_60\n      swap2\n      swap1\n      tag_61\n      jump\t// in\n    tag_60:\n      pop\n      pop\n        /* \"DataStorage.sol\":160:247  function addData(Data calldata newData) public payable {... */\n      pop\n      jump\t// out\n        /* \"#utility.yul\":88:205   */\n    tag_63:\n        /* \"#utility.yul\":197:198   */\n      0x00\n        /* \"#utility.yul\":194:195   */\n      dup1\n        /* \"#utility.yul\":187:199   */\n      revert\n        /* \"#utility.yul\":334:411   */\n    tag_65:\n        /* \"#utility.yul\":371:378   */\n      0x00\n        /* \"#utility.yul\":400:405   */\n      dup2\n        /* \"#utility.yul\":389:405   */\n      swap1\n      pop\n        /* \"#utility.yul\":334:411   */\n      swap2\n      swap1\n      pop\n      jump\t// out\n        /* \"#utility.yul\":417:539   */\n    tag_66:\n        /* \"#utility.yul\":490:514   */\n      tag_98\n        /* \"#utility.yul\":508:513   */\n      dup2\n        /* \"#utility.yul\":490:514   */\n      tag_65\n      jump\t// in\n    tag_98:\n        /* \"#utility.yul\":483:488   */\n      dup2\n        /* \"#utility.yul\":480:515   */\n      eq\n        /* \"#utility.yul\":470:533   */\n      tag_99\n      jumpi\n        /* \"#utility.yul\":529:530   */\n      0x00\n        /* \"#utility.yul\":526:527   */\n      dup1\n        /* \"#utility.yul\":519:531   */\n      revert\n        /* \"#utility.yul\":470:533   */\n    tag_99:\n        /* \"#utility.yul\":417:539   */\n      pop\n      jump\t// out\n        /* \"#utility.yul\":545:684   */\n    tag_67:\n        /* \"#utility.yul\":591:596   */\n      0x00\n        /* \"#utility.yul\":629:635   */\n      dup2\n        /* \"#utility.yul\":616:636   */\n      calldataload\n        /* \"#utility.yul\":607:636   */\n      swap1\n      pop\n        /* \"#utility.yul\":645:678   */\n      tag_101\n        /* \"#utility.yul\":672:677   */\n      dup2\n        /* \"#utility.yul\":645:678   */\n      tag_66\n      jump\t// in\n    tag_101:\n        /* \"#utility.yul\":545:684   */\n      swap3\n      swap2\n      pop\n      pop\n      jump\t// out\n        /* \"#utility.yul\":690:1019   */\n    tag_9:\n        /* \"#utility.yul\":749:755   */\n      0x00\n        /* \"#utility.yul\":798:800   */\n      0x20\n        /* \"#utility.yul\":786:795   */\n      dup3\n        /* \"#utility.yul\":777:784   */\n      dup5\n        /* \"#utility.yul\":773:796   */\n      sub\n        /* \"#utility.yul\":769:801   */\n      slt\n        /* \"#utility.yul\":766:885   */\n      iszero\n      tag_103\n      jumpi\n        /* \"#utility.yul\":804:883   */\n      tag_104\n      tag_63\n      jump\t// in\n    tag_104:\n        /* \"#utility.yul\":766:885   */\n    tag_103:\n        /* \"#utility.yul\":924:925   */\n      0x00\n        /* \"#utility.yul\":949:1002   */\n      tag_105\n        /* \"#utility.yul\":994:1001   */\n      dup5\n        /* \"#utility.yul\":985:991   */\n      dup3\n        /* \"#utility.yul\":974:983   */\n      dup6\n        /* \"#utility.yul\":970:992   */\n      add\n        /* \"#utility.yul\":949:1002   */\n      tag_67\n      jump\t// in\n    tag_105:\n        /* \"#utility.yul\":939:1002   */\n      swap2\n      pop\n        /* \"#utility.yul\":895:1012   */\n      pop\n        /* \"#utility.yul\":690:1019   */\n      swap3\n      swap2\n      pop\n      pop\n      jump\t// out\n        /* \"#utility.yul\":1025:1102   */\n    tag_68:\n        /* \"#utility.yul\":1062:1069   */\n      0x00\n        /* \"#utility.yul\":1091:1096   */\n      dup2\n        /* \"#utility.yul\":1080:1096   */\n      swap1\n      pop\n        /* \"#utility.yul\":1025:1102   */\n      swap2\n      swap1\n      pop\n      jump\t// out\n        /* \"#utility.yul\":1108:1226   */\n    tag_69:\n        /* \"#utility.yul\":1195:1219   */\n      tag_108\n        /* \"#utility.yul\":1213:1218   */\n      dup2\n        /* \"#utility.yul\":1195:1219   */\n      tag_68\n      jump\t// in\n    tag_108:\n        /* \"#utility.yul\":1190:1193   */\n      dup3\n        /* \"#utility.yul\":1183:1220   */\n      mstore\n        /* \"#utility.yul\":1108:1226   */\n      pop\n      pop\n      jump\t// out\n        /* \"#utility.yul\":1232:1674   */\n    tag_12:\n        /* \"#utility.yul\":1381:1385   */\n      0x00\n        /* \"#utility.yul\":1419:1421   */\n      0x60\n        /* \"#utility.yul\":1408:1417   */\n      dup3\n        /* \"#utility.yul\":1404:1422   */\n      add\n        /* \"#utility.yul\":1396:1422   */\n      swap1\n      pop\n        /* \"#utility.yul\":1432:1503   */\n      tag_110\n        /* \"#utility.yul\":1500:1501   */\n      0x00\n        /* \"#utility.yul\":1489:1498   */\n      dup4\n        /* \"#utility.yul\":1485:1502   */\n      add\n        /* \"#utility.yul\":1476:1482   */\n      dup7\n        /* \"#utility.yul\":1432:1503   */\n      tag_69\n      jump\t// in\n    tag_110:\n        /* \"#utility.yul\":1513:1585   */\n      tag_111\n        /* \"#utility.yul\":1581:1583   */\n      0x20\n        /* \"#utility.yul\":1570:1579   */\n      dup4\n        /* \"#utility.yul\":1566:1584   */\n      add\n        /* \"#utility.yul\":1557:1563   */\n      dup6\n        /* \"#utility.yul\":1513:1585   */\n      tag_69\n      jump\t// in\n    tag_111:\n        /* \"#utility.yul\":1595:1667   */\n      tag_112\n        /* \"#utility.yul\":1663:1665   */\n      0x40\n        /* \"#utility.yul\":1652:1661   */\n      dup4\n        /* \"#utility.yul\":1648:1666   */\n      add\n        /* \"#utility.yul\":1639:1645   */\n      dup5\n        /* \"#utility.yul\":1595:1667   */\n      tag_69\n      jump\t// in\n    tag_112:\n        /* \"#utility.yul\":1232:1674   */\n      swap5\n      swap4\n      pop\n      pop\n      pop\n      pop\n      jump\t// out\n        /* \"#utility.yul\":1680:1802   */\n    tag_70:\n        /* \"#utility.yul\":1753:1777   */\n      tag_114\n        /* \"#utility.yul\":1771:1776   */\n      dup2\n        /* \"#utility.yul\":1753:1777   */\n      tag_68\n      jump\t// in\n    tag_114:\n        /* \"#utility.yul\":1746:1751   */\n      dup2\n        /* \"#utility.yul\":1743:1778   */\n      eq\n        /* \"#utility.yul\":1733:1796   */\n      tag_115\n      jumpi\n        /* \"#utility.yul\":1792:1793   */\n      0x00\n        /* \"#utility.yul\":1789:1790   */\n      dup1\n        /* \"#utility.yul\":1782:1794   */\n      revert\n        /* \"#utility.yul\":1733:1796   */\n    tag_115:\n        /* \"#utility.yul\":1680:1802   */\n      pop\n      jump\t// out\n        /* \"#utility.yul\":1808:1947   */\n    tag_71:\n        /* \"#utility.yul\":1854:1859   */\n      0x00\n        /* \"#utility.yul\":1892:1898   */\n      dup2\n        /* \"#utility.yul\":1879:1899   */\n      calldataload\n        /* \"#utility.yul\":1870:1899   */\n      swap1\n      pop\n        /* \"#utility.yul\":1908:1941   */\n      tag_117\n        /* \"#utility.yul\":1935:1940   */\n      dup2\n        /* \"#utility.yul\":1908:1941   */\n      tag_70\n      jump\t// in\n    tag_117:\n        /* \"#utility.yul\":1808:1947   */\n      swap3\n      swap2\n      pop\n      pop\n      jump\t// out\n        /* \"#utility.yul\":1953:2282   */\n    tag_21:\n        /* \"#utility.yul\":2012:2018   */\n      0x00\n        /* \"#utility.yul\":2061:2063   */\n      0x20\n        /* \"#utility.yul\":2049:2058   */\n      dup3\n        /* \"#utility.yul\":2040:2047   */\n      dup5\n        /* \"#utility.yul\":2036:2059   */\n      sub\n        /* \"#utility.yul\":2032:2064   */\n      slt\n        /* \"#utility.yul\":2029:2148   */\n      iszero\n      tag_119\n      jumpi\n        /* \"#utility.yul\":2067:2146   */\n      tag_120\n      tag_63\n      jump\t// in\n    tag_120:\n        /* \"#utility.yul\":2029:2148   */\n    tag_119:\n        /* \"#utility.yul\":2187:2188   */\n      0x00\n        /* \"#utility.yul\":2212:2265   */\n      tag_121\n        /* \"#utility.yul\":2257:2264   */\n      dup5\n        /* \"#utility.yul\":2248:2254   */\n      dup3\n        /* \"#utility.yul\":2237:2246   */\n      dup6\n        /* \"#utility.yul\":2233:2255   */\n      add\n        /* \"#utility.yul\":2212:2265   */\n      tag_71\n      jump\t// in\n    tag_121:\n        /* \"#utility.yul\":2202:2265   */\n      swap2\n      pop\n        /* \"#utility.yul\":2158:2275   */\n      pop\n        /* \"#utility.yul\":1953:2282   */\n      swap3\n      swap2\n      pop\n      pop\n      jump\t// out\n        /* \"#utility.yul\":2288:2422   */\n    tag_72:\n        /* \"#utility.yul\":2375:2381   */\n      0x00\n        /* \"#utility.yul\":2409:2414   */\n      dup2\n        /* \"#utility.yul\":2403:2415   */\n      mload\n        /* \"#utility.yul\":2393:2415   */\n      swap1\n      pop\n        /* \"#utility.yul\":2288:2422   */\n      swap2\n      swap1\n      pop\n      jump\t// out\n        /* \"#utility.yul\":2428:2632   */\n    tag_73:\n        /* \"#utility.yul\":2547:2558   */\n      0x00\n        /* \"#utility.yul\":2581:2587   */\n      dup3\n        /* \"#utility.yul\":2576:2579   */\n      dup3\n        /* \"#utility.yul\":2569:2588   */\n      mstore\n        /* \"#utility.yul\":2621:2625   */\n      0x20\n        /* \"#utility.yul\":2616:2619   */\n      dup3\n        /* \"#utility.yul\":2612:2626   */\n      add\n        /* \"#utility.yul\":2597:2626   */\n      swap1\n      pop\n        /* \"#utility.yul\":2428:2632   */\n      swap3\n      swap2\n      pop\n      pop\n      jump\t// out\n        /* \"#utility.yul\":2638:2790   */\n    tag_74:\n        /* \"#utility.yul\":2725:2729   */\n      0x00\n        /* \"#utility.yul\":2748:2751   */\n      dup2\n        /* \"#utility.yul\":2740:2751   */\n      swap1\n      pop\n        /* \"#utility.yul\":2778:2782   */\n      0x20\n        /* \"#utility.yul\":2773:2776   */\n      dup3\n        /* \"#utility.yul\":2769:2783   */\n      add\n        /* \"#utility.yul\":2761:2783   */\n      swap1\n      pop\n        /* \"#utility.yul\":2638:2790   */\n      swap2\n      swap1\n      pop\n      jump\t// out\n        /* \"#utility.yul\":2796:2904   */\n    tag_75:\n        /* \"#utility.yul\":2873:2897   */\n      tag_126\n        /* \"#utility.yul\":2891:2896   */\n      dup2\n        /* \"#utility.yul\":2873:2897   */\n      tag_68\n      jump\t// in\n    tag_126:\n        /* \"#utility.yul\":2868:2871   */\n      dup3\n        /* \"#utility.yul\":2861:2898   */\n      mstore\n        /* \"#utility.yul\":2796:2904   */\n      pop\n      pop\n      jump\t// out\n        /* \"#utility.yul\":2968:3639   */\n    tag_76:\n        /* \"#utility.yul\":3095:3099   */\n      0x60\n        /* \"#utility.yul\":3090:3093   */\n      dup3\n        /* \"#utility.yul\":3086:3100   */\n      add\n        /* \"#utility.yul\":3186:3190   */\n      0x00\n        /* \"#utility.yul\":3179:3184   */\n      dup3\n        /* \"#utility.yul\":3175:3191   */\n      add\n        /* \"#utility.yul\":3169:3192   */\n      mload\n        /* \"#utility.yul\":3205:3268   */\n      tag_128\n        /* \"#utility.yul\":3262:3266   */\n      0x00\n        /* \"#utility.yul\":3257:3260   */\n      dup6\n        /* \"#utility.yul\":3253:3267   */\n      add\n        /* \"#utility.yul\":3239:3251   */\n      dup3\n        /* \"#utility.yul\":3205:3268   */\n      tag_75\n      jump\t// in\n    tag_128:\n        /* \"#utility.yul\":3110:3278   */\n      pop\n        /* \"#utility.yul\":3365:3369   */\n      0x20\n        /* \"#utility.yul\":3358:3363   */\n      dup3\n        /* \"#utility.yul\":3354:3370   */\n      add\n        /* \"#utility.yul\":3348:3371   */\n      mload\n        /* \"#utility.yul\":3384:3447   */\n      tag_129\n        /* \"#utility.yul\":3441:3445   */\n      0x20\n        /* \"#utility.yul\":3436:3439   */\n      dup6\n        /* \"#utility.yul\":3432:3446   */\n      add\n        /* \"#utility.yul\":3418:3430   */\n      dup3\n        /* \"#utility.yul\":3384:3447   */\n      tag_75\n      jump\t// in\n    tag_129:\n        /* \"#utility.yul\":3288:3457   */\n      pop\n        /* \"#utility.yul\":3540:3544   */\n      0x40\n        /* \"#utility.yul\":3533:3538   */\n      dup3\n        /* \"#utility.yul\":3529:3545   */\n      add\n        /* \"#utility.yul\":3523:3546   */\n      mload\n        /* \"#utility.yul\":3559:3622   */\n      tag_130\n        /* \"#utility.yul\":3616:3620   */\n      0x40\n        /* \"#utility.yul\":3611:3614   */\n      dup6\n        /* \"#utility.yul\":3607:3621   */\n      add\n        /* \"#utility.yul\":3593:3605   */\n      dup3\n        /* \"#utility.yul\":3559:3622   */\n      tag_75\n      jump\t// in\n    tag_130:\n        /* \"#utility.yul\":3467:3632   */\n      pop\n        /* \"#utility.yul\":3064:3639   */\n      pop\n        /* \"#utility.yul\":2968:3639   */\n      pop\n      pop\n      jump\t// out\n        /* \"#utility.yul\":3645:3904   */\n    tag_77:\n        /* \"#utility.yul\":3754:3764   */\n      0x00\n        /* \"#utility.yul\":3775:3861   */\n      tag_132\n        /* \"#utility.yul\":3857:3860   */\n      dup4\n        /* \"#utility.yul\":3849:3855   */\n      dup4\n        /* \"#utility.yul\":3775:3861   */\n      tag_76\n      jump\t// in\n    tag_132:\n        /* \"#utility.yul\":3893:3897   */\n      0x60\n        /* \"#utility.yul\":3888:3891   */\n      dup4\n        /* \"#utility.yul\":3884:3898   */\n      add\n        /* \"#utility.yul\":3870:3898   */\n      swap1\n      pop\n        /* \"#utility.yul\":3645:3904   */\n      swap3\n      swap2\n      pop\n      pop\n      jump\t// out\n        /* \"#utility.yul\":3910:4043   */\n    tag_78:\n        /* \"#utility.yul\":4000:4004   */\n      0x00\n        /* \"#utility.yul\":4032:4036   */\n      0x20\n        /* \"#utility.yul\":4027:4030   */\n      dup3\n        /* \"#utility.yul\":4023:4037   */\n      add\n        /* \"#utility.yul\":4015:4037   */\n      swap1\n      pop\n        /* \"#utility.yul\":3910:4043   */\n      swap2\n      swap1\n      pop\n      jump\t// out\n        /* \"#utility.yul\":4111:5003   */\n    tag_79:\n        /* \"#utility.yul\":4270:4273   */\n      0x00\n        /* \"#utility.yul\":4299:4373   */\n      tag_135\n        /* \"#utility.yul\":4367:4372   */\n      dup3\n        /* \"#utility.yul\":4299:4373   */\n      tag_72\n      jump\t// in\n    tag_135:\n        /* \"#utility.yul\":4389:4495   */\n      tag_136\n        /* \"#utility.yul\":4488:4494   */\n      dup2\n        /* \"#utility.yul\":4483:4486   */\n      dup6\n        /* \"#utility.yul\":4389:4495   */\n      tag_73\n      jump\t// in\n    tag_136:\n        /* \"#utility.yul\":4382:4495   */\n      swap4\n      pop\n        /* \"#utility.yul\":4519:4595   */\n      tag_137\n        /* \"#utility.yul\":4589:4594   */\n      dup4\n        /* \"#utility.yul\":4519:4595   */\n      tag_74\n      jump\t// in\n    tag_137:\n        /* \"#utility.yul\":4618:4625   */\n      dup1\n        /* \"#utility.yul\":4649:4650   */\n      0x00\n        /* \"#utility.yul\":4634:4978   */\n    tag_138:\n        /* \"#utility.yul\":4659:4665   */\n      dup4\n        /* \"#utility.yul\":4656:4657   */\n      dup2\n        /* \"#utility.yul\":4653:4666   */\n      lt\n        /* \"#utility.yul\":4634:4978   */\n      iszero\n      tag_140\n      jumpi\n        /* \"#utility.yul\":4735:4741   */\n      dup2\n        /* \"#utility.yul\":4729:4742   */\n      mload\n        /* \"#utility.yul\":4762:4865   */\n      tag_141\n        /* \"#utility.yul\":4861:4864   */\n      dup9\n        /* \"#utility.yul\":4846:4859   */\n      dup3\n        /* \"#utility.yul\":4762:4865   */\n      tag_77\n      jump\t// in\n    tag_141:\n        /* \"#utility.yul\":4755:4865   */\n      swap8\n      pop\n        /* \"#utility.yul\":4888:4968   */\n      tag_142\n        /* \"#utility.yul\":4961:4967   */\n      dup4\n        /* \"#utility.yul\":4888:4968   */\n      tag_78\n      jump\t// in\n    tag_142:\n        /* \"#utility.yul\":4878:4968   */\n      swap3\n      pop\n        /* \"#utility.yul\":4694:4978   */\n      pop\n        /* \"#utility.yul\":4681:4682   */\n      0x01\n        /* \"#utility.yul\":4678:4679   */\n      dup2\n        /* \"#utility.yul\":4674:4683   */\n      add\n        /* \"#utility.yul\":4669:4683   */\n      swap1\n      pop\n        /* \"#utility.yul\":4634:4978   */\n      jump(tag_138)\n    tag_140:\n        /* \"#utility.yul\":4638:4652   */\n      pop\n        /* \"#utility.yul\":4994:4997   */\n      dup6\n        /* \"#utility.yul\":4987:4997   */\n      swap4\n      pop\n        /* \"#utility.yul\":4275:5003   */\n      pop\n      pop\n      pop\n        /* \"#utility.yul\":4111:5003   */\n      swap3\n      swap2\n      pop\n      pop\n      jump\t// out\n        /* \"#utility.yul\":5009:5462   */\n    tag_24:\n        /* \"#utility.yul\":5192:5196   */\n      0x00\n        /* \"#utility.yul\":5230:5232   */\n      0x20\n        /* \"#utility.yul\":5219:5228   */\n      dup3\n        /* \"#utility.yul\":5215:5233   */\n      add\n        /* \"#utility.yul\":5207:5233   */\n      swap1\n      pop\n        /* \"#utility.yul\":5279:5288   */\n      dup2\n        /* \"#utility.yul\":5273:5277   */\n      dup2\n        /* \"#utility.yul\":5269:5289   */\n      sub\n        /* \"#utility.yul\":5265:5266   */\n      0x00\n        /* \"#utility.yul\":5254:5263   */\n      dup4\n        /* \"#utility.yul\":5250:5267   */\n      add\n        /* \"#utility.yul\":5243:5290   */\n      mstore\n        /* \"#utility.yul\":5307:5455   */\n      tag_144\n        /* \"#utility.yul\":5450:5454   */\n      dup2\n        /* \"#utility.yul\":5441:5447   */\n      dup5\n        /* \"#utility.yul\":5307:5455   */\n      tag_79\n      jump\t// in\n    tag_144:\n        /* \"#utility.yul\":5299:5455   */\n      swap1\n      pop\n        /* \"#utility.yul\":5009:5462   */\n      swap3\n      swap2\n      pop\n      pop\n      jump\t// out\n        /* \"#utility.yul\":5468:5585   */\n    tag_80:\n        /* \"#utility.yul\":5577:5578   */\n      0x00\n        /* \"#utility.yul\":5574:5575   */\n      dup1\n        /* \"#utility.yul\":5567:5579   */\n      revert\n        /* \"#utility.yul\":5622:5848   */\n    tag_81:\n        /* \"#utility.yul\":5690:5695   */\n      0x00\n        /* \"#utility.yul\":5731:5733   */\n      0x60\n        /* \"#utility.yul\":5722:5728   */\n      dup3\n        /* \"#utility.yul\":5717:5720   */\n      dup5\n        /* \"#utility.yul\":5713:5729   */\n      sub\n        /* \"#utility.yul\":5709:5734   */\n      slt\n        /* \"#utility.yul\":5706:5818   */\n      iszero\n      tag_147\n      jumpi\n        /* \"#utility.yul\":5737:5816   */\n      tag_148\n      tag_80\n      jump\t// in\n    tag_148:\n        /* \"#utility.yul\":5706:5818   */\n    tag_147:\n        /* \"#utility.yul\":5836:5842   */\n      dup2\n        /* \"#utility.yul\":5827:5842   */\n      swap1\n      pop\n        /* \"#utility.yul\":5622:5848   */\n      swap3\n      swap2\n      pop\n      pop\n      jump\t// out\n        /* \"#utility.yul\":5854:6227   */\n    tag_27:\n        /* \"#utility.yul\":5935:5941   */\n      0x00\n        /* \"#utility.yul\":5984:5986   */\n      0x60\n        /* \"#utility.yul\":5972:5981   */\n      dup3\n        /* \"#utility.yul\":5963:5970   */\n      dup5\n        /* \"#utility.yul\":5959:5982   */\n      sub\n        /* \"#utility.yul\":5955:5987   */\n      slt\n        /* \"#utility.yul\":5952:6071   */\n      iszero\n      tag_150\n      jumpi\n        /* \"#utility.yul\":5990:6069   */\n      tag_151\n      tag_63\n      jump\t// in\n    tag_151:\n        /* \"#utility.yul\":5952:6071   */\n    tag_150:\n        /* \"#utility.yul\":6110:6111   */\n      0x00\n        /* \"#utility.yul\":6135:6210   */\n      tag_152\n        /* \"#utility.yul\":6202:6209   */\n      dup5\n        /* \"#utility.yul\":6193:6199   */\n      dup3\n        /* \"#utility.yul\":6182:6191   */\n      dup6\n        /* \"#utility.yul\":6178:6200   */\n      add\n        /* \"#utility.yul\":6135:6210   */\n      tag_81\n      jump\t// in\n    tag_152:\n        /* \"#utility.yul\":6125:6210   */\n      swap2\n      pop\n        /* \"#utility.yul\":6081:6220   */\n      pop\n        /* \"#utility.yul\":5854:6227   */\n      swap3\n      swap2\n      pop\n      pop\n      jump\t// out\n        /* \"#utility.yul\":6233:6413   */\n    tag_32:\n        /* \"#utility.yul\":6281:6358   */\n      0x4e487b7100000000000000000000000000000000000000000000000000000000\n        /* \"#utility.yul\":6278:6279   */\n      0x00\n        /* \"#utility.yul\":6271:6359   */\n      mstore\n        /* \"#utility.yul\":6378:6382   */\n      0x32\n        /* \"#utility.yul\":6375:6376   */\n      0x04\n        /* \"#utility.yul\":6368:6383   */\n      mstore\n        /* \"#utility.yul\":6402:6406   */\n      0x24\n        /* \"#utility.yul\":6399:6400   */\n      0x00\n        /* \"#utility.yul\":6392:6407   */\n      revert\n        /* \"#utility.yul\":6419:6599   */\n    tag_82:\n        /* \"#utility.yul\":6467:6544   */\n      0x4e487b7100000000000000000000000000000000000000000000000000000000\n        /* \"#utility.yul\":6464:6465   */\n      0x00\n        /* \"#utility.yul\":6457:6545   */\n      mstore\n        /* \"#utility.yul\":6564:6568   */\n      0x11\n        /* \"#utility.yul\":6561:6562   */\n      0x04\n        /* \"#utility.yul\":6554:6569   */\n      mstore\n        /* \"#utility.yul\":6588:6592   */\n      0x24\n        /* \"#utility.yul\":6585:6586   */\n      0x00\n        /* \"#utility.yul\":6578:6593   */\n      revert\n        /* \"#utility.yul\":6605:6838   */\n    tag_56:\n        /* \"#utility.yul\":6644:6647   */\n      0x00\n        /* \"#utility.yul\":6667:6691   */\n      tag_156\n        /* \"#utility.yul\":6685:6690   */\n      dup3\n        /* \"#utility.yul\":6667:6691   */\n      tag_65\n      jump\t// in\n    tag_156:\n        /* \"#utility.yul\":6658:6691   */\n      swap2\n      pop\n        /* \"#utility.yul\":6713:6779   */\n      0xffffffffffffffffffffffffffffffffffffffffffffffffffffffffffffffff\n        /* \"#utility.yul\":6706:6711   */\n      dup3\n        /* \"#utility.yul\":6703:6780   */\n      sub\n        /* \"#utility.yul\":6700:6803   */\n      tag_157\n      jumpi\n        /* \"#utility.yul\":6783:6801   */\n      tag_158\n      tag_82\n      jump\t// in\n    tag_158:\n        /* \"#utility.yul\":6700:6803   */\n    tag_157:\n        /* \"#utility.yul\":6830:6831   */\n      0x01\n        /* \"#utility.yul\":6823:6828   */\n      dup3\n        /* \"#utility.yul\":6819:6832   */\n      add\n        /* \"#utility.yul\":6812:6832   */\n      swap1\n      pop\n        /* \"#utility.yul\":6605:6838   */\n      swap2\n      swap1\n      pop\n      jump\t// out\n        /* \"#utility.yul\":7030:7216   */\n    tag_84:\n        /* \"#utility.yul\":7075:7086   */\n      0x00\n        /* \"#utility.yul\":7124:7127   */\n      dup2\n        /* \"#utility.yul\":7111:7128   */\n      calldataload\n        /* \"#utility.yul\":7137:7170   */\n      tag_161\n        /* \"#utility.yul\":7164:7169   */\n      dup2\n        /* \"#utility.yul\":7137:7170   */\n      tag_70\n      jump\t// in\n    tag_161:\n        /* \"#utility.yul\":7204:7209   */\n      dup1\n        /* \"#utility.yul\":7180:7209   */\n      swap2\n      pop\n        /* \"#utility.yul\":7087:7216   */\n      pop\n        /* \"#utility.yul\":7030:7216   */\n      swap2\n      swap1\n      pop\n      jump\t// out\n        /* \"#utility.yul\":7222:7314   */\n    tag_85:\n        /* \"#utility.yul\":7254:7262   */\n      0x00\n        /* \"#utility.yul\":7301:7306   */\n      dup2\n        /* \"#utility.yul\":7298:7299   */\n      0x00\n        /* \"#utility.yul\":7294:7307   */\n      shl\n        /* \"#utility.yul\":7273:7307   */\n      swap1\n      pop\n        /* \"#utility.yul\":7222:7314   */\n      swap2\n      swap1\n      pop\n      jump\t// out\n        /* \"#utility.yul\":7320:7610   */\n    tag_86:\n        /* \"#utility.yul\":7378:7384   */\n      0x00\n        /* \"#utility.yul\":7407:7473   */\n      0xffffffffffffffffffffffffffffffffffffffffffffffffffffffffffffffff\n        /* \"#utility.yul\":7494:7516   */\n      tag_164\n        /* \"#utility.yul\":7507:7515   */\n      dup5\n        /* \"#utility.yul\":7494:7516   */\n      tag_85\n      jump\t// in\n    tag_164:\n        /* \"#utility.yul\":7482:7516   */\n      swap4\n      pop\n        /* \"#utility.yul\":7549:7553   */\n      dup1\n        /* \"#utility.yul\":7545:7554   */\n      not\n        /* \"#utility.yul\":7538:7543   */\n      dup4\n        /* \"#utility.yul\":7534:7555   */\n      and\n        /* \"#utility.yul\":7525:7555   */\n      swap3\n      pop\n        /* \"#utility.yul\":7598:7602   */\n      dup1\n        /* \"#utility.yul\":7588:7596   */\n      dup5\n        /* \"#utility.yul\":7584:7603   */\n      and\n        /* \"#utility.yul\":7577:7582   */\n      dup4\n        /* \"#utility.yul\":7574:7604   */\n      or\n        /* \"#utility.yul\":7564:7604   */\n      swap2\n      pop\n        /* \"#utility.yul\":7385:7610   */\n      pop\n        /* \"#utility.yul\":7320:7610   */\n      swap3\n      swap2\n      pop\n      pop\n      jump\t// out\n        /* \"#utility.yul\":7616:7729   */\n    tag_87:\n        /* \"#utility.yul\":7666:7675   */\n      0x00\n        /* \"#utility.yul\":7699:7723   */\n      tag_166\n        /* \"#utility.yul\":7717:7722   */\n      dup3\n        /* \"#utility.yul\":7699:7723   */\n      tag_68\n      jump\t// in\n    tag_166:\n        /* \"#utility.yul\":7686:7723   */\n      swap1\n      pop\n        /* \"#utility.yul\":7616:7729   */\n      swap2\n      swap1\n      pop\n      jump\t// out\n        /* \"#utility.yul\":7735:7837   */\n    tag_88:\n        /* \"#utility.yul\":7777:7785   */\n      0x00\n        /* \"#utility.yul\":7824:7829   */\n      dup2\n        /* \"#utility.yul\":7821:7822   */\n      0x00\n        /* \"#utility.yul\":7817:7830   */\n      shr\n        /* \"#utility.yul\":7796:7830   */\n      swap1\n      pop\n        /* \"#utility.yul\":7735:7837   */\n      swap2\n      swap1\n      pop\n      jump\t// out\n        /* \"#utility.yul\":7843:7942   */\n    tag_89:\n        /* \"#utility.yul\":7886:7889   */\n      0x00\n        /* \"#utility.yul\":7907:7936   */\n      tag_169\n        /* \"#utility.yul\":7930:7935   */\n      dup3\n        /* \"#utility.yul\":7907:7936   */\n      tag_88\n      jump\t// in\n    tag_169:\n        /* \"#utility.yul\":7900:7936   */\n      swap1\n      pop\n        /* \"#utility.yul\":7843:7942   */\n      swap2\n      swap1\n      pop\n      jump\t// out\n        /* \"#utility.yul\":7948:8210   */\n    tag_90:\n        /* \"#utility.yul\":8058:8097   */\n      tag_171\n        /* \"#utility.yul\":8089:8096   */\n      dup3\n        /* \"#utility.yul\":8058:8097   */\n      tag_87\n      jump\t// in\n    tag_171:\n        /* \"#utility.yul\":8119:8203   */\n      tag_172\n        /* \"#utility.yul\":8161:8202   */\n      tag_173\n        /* \"#utility.yul\":8185:8201   */\n      dup3\n        /* \"#utility.yul\":8161:8202   */\n      tag_89\n      jump\t// in\n    tag_173:\n        /* \"#utility.yul\":8154:8158   */\n      dup4\n        /* \"#utility.yul\":8148:8159   */\n      sload\n        /* \"#utility.yul\":8119:8203   */\n      tag_86\n      jump\t// in\n    tag_172:\n        /* \"#utility.yul\":8113:8117   */\n      dup3\n        /* \"#utility.yul\":8106:8204   */\n      sstore\n        /* \"#utility.yul\":8024:8210   */\n      pop\n        /* \"#utility.yul\":7948:8210   */\n      pop\n      pop\n      jump\t// out\n        /* \"#utility.yul\":8216:9349   */\n    tag_91:\n        /* \"#utility.yul\":8382:8383   */\n      0x00\n        /* \"#utility.yul\":8376:8380   */\n      dup2\n        /* \"#utility.yul\":8372:8384   */\n      add\n        /* \"#utility.yul\":8428:8429   */\n      0x00\n        /* \"#utility.yul\":8421:8426   */\n      dup4\n        /* \"#utility.yul\":8417:8430   */\n      add\n        /* \"#utility.yul\":8478:8490   */\n      dup1\n        /* \"#utility.yul\":8521:8563   */\n      tag_175\n        /* \"#utility.yul\":8549:8562   */\n      dup2\n        /* \"#utility.yul\":8521:8563   */\n      tag_84\n      jump\t// in\n    tag_175:\n        /* \"#utility.yul\":8504:8563   */\n      swap1\n      pop\n        /* \"#utility.yul\":8577:8655   */\n      tag_176\n        /* \"#utility.yul\":8641:8654   */\n      dup2\n        /* \"#utility.yul\":8629:8639   */\n      dup5\n        /* \"#utility.yul\":8577:8655   */\n      tag_90\n      jump\t// in\n    tag_176:\n        /* \"#utility.yul\":8339:8666   */\n      pop\n      pop\n      pop\n        /* \"#utility.yul\":8719:8720   */\n      0x01\n        /* \"#utility.yul\":8713:8717   */\n      dup2\n        /* \"#utility.yul\":8709:8721   */\n      add\n        /* \"#utility.yul\":8765:8767   */\n      0x20\n        /* \"#utility.yul\":8758:8763   */\n      dup4\n        /* \"#utility.yul\":8754:8768   */\n      add\n        /* \"#utility.yul\":8816:8828   */\n      dup1\n        /* \"#utility.yul\":8859:8901   */\n      tag_177\n        /* \"#utility.yul\":8887:8900   */\n      dup2\n        /* \"#utility.yul\":8859:8901   */\n      tag_84\n      jump\t// in\n    tag_177:\n        /* \"#utility.yul\":8842:8901   */\n      swap1\n      pop\n        /* \"#utility.yul\":8915:8993   */\n      tag_178\n        /* \"#utility.yul\":8979:8992   */\n      dup2\n        /* \"#utility.yul\":8967:8977   */\n      dup5\n        /* \"#utility.yul\":8915:8993   */\n      tag_90\n      jump\t// in\n    tag_178:\n        /* \"#utility.yul\":8676:9004   */\n      pop\n      pop\n      pop\n        /* \"#utility.yul\":9057:9058   */\n      0x02\n        /* \"#utility.yul\":9051:9055   */\n      dup2\n        /* \"#utility.yul\":9047:9059   */\n      add\n        /* \"#utility.yul\":9103:9105   */\n      0x40\n        /* \"#utility.yul\":9096:9101   */\n      dup4\n        /* \"#utility.yul\":9092:9106   */\n      add\n        /* \"#utility.yul\":9154:9166   */\n      dup1\n        /* \"#utility.yul\":9197:9239   */\n      tag_179\n        /* \"#utility.yul\":9225:9238   */\n      dup2\n        /* \"#utility.yul\":9197:9239   */\n      tag_84\n      jump\t// in\n    tag_179:\n        /* \"#utility.yul\":9180:9239   */\n      swap1\n      pop\n        /* \"#utility.yul\":9253:9331   */\n      tag_180\n        /* \"#utility.yul\":9317:9330   */\n      dup2\n        /* \"#utility.yul\":9305:9315   */\n      dup5\n        /* \"#utility.yul\":9253:9331   */\n      tag_90\n      jump\t// in\n    tag_180:\n        /* \"#utility.yul\":9014:9342   */\n      pop\n      pop\n      pop\n        /* \"#utility.yul\":8216:9349   */\n      pop\n      pop\n      jump\t// out\n        /* \"#utility.yul\":9355:9591   */\n    tag_61:\n        /* \"#utility.yul\":9481:9585   */\n      tag_182\n        /* \"#utility.yul\":9577:9584   */\n      dup3\n        /* \"#utility.yul\":9571:9575   */\n      dup3\n        /* \"#utility.yul\":9481:9585   */\n      tag_91\n      jump\t// in\n    tag_182:\n        /* \"#utility.yul\":9355:9591   */\n      pop\n      pop\n      jump\t// out\n\n    auxdata: 0xa2646970667358221220f1760d0fa65b2a3c192e1518f819c39d842bcb41bcaf68272be31dd2adf3eb7064736f6c634300080d0033\n}\n",
				"bytecode": {
					"linkReferences": {},
					"object": "608060405234801561001057600080fd5b50610774806100206000396000f3fe60806040526004361061003f5760003560e01c80630178fe3f146100445780634a96d17014610083578063c41bb527146100c2578063f37f0402146100ff575b600080fd5b34801561005057600080fd5b5061006b60048036038101906100669190610321565b61011b565b60405161007a93929190610367565b60405180910390f35b34801561008f57600080fd5b506100aa60048036038101906100a59190610321565b61019e565b6040516100b993929190610367565b60405180910390f35b3480156100ce57600080fd5b506100e960048036038101906100e491906103ca565b6101d8565b6040516100f691906104f7565b60405180910390f35b6101196004803603810190610114919061053d565b6102a9565b005b60008060008084815481106101335761013261056a565b5b90600052602060002090600302016000015492506000848154811061015b5761015a61056a565b5b9060005260206000209060030201600101549150600084815481106101835761018261056a565b5b90600052602060002090600302016002015490509193909250565b600081815481106101ae57600080fd5b90600052602060002090600302016000915090508060000154908060010154908060020154905083565b60606000805b6000805490508110156102a2578360008281548110610200576101ff61056a565b5b9060005260206000209060030201600001540361028f576000818154811061022b5761022a61056a565b5b906000526020600020906003020160405180606001604052908160008201548152602001600182015481526020016002820154815250508383815181106102755761027461056a565b5b6020026020010181905250818061028b906105c8565b9250505b808061029a906105c8565b9150506101de565b5050919050565b600081908060018154018082558091505060019003906000526020600020906003020160009091909190915081816102e19190610730565b505050565b600080fd5b6000819050919050565b6102fe816102eb565b811461030957600080fd5b50565b60008135905061031b816102f5565b92915050565b600060208284031215610337576103366102e6565b5b60006103458482850161030c565b91505092915050565b6000819050919050565b6103618161034e565b82525050565b600060608201905061037c6000830186610358565b6103896020830185610358565b6103966040830184610358565b949350505050565b6103a78161034e565b81146103b257600080fd5b50565b6000813590506103c48161039e565b92915050565b6000602082840312156103e0576103df6102e6565b5b60006103ee848285016103b5565b91505092915050565b600081519050919050565b600082825260208201905092915050565b6000819050602082019050919050565b61042c8161034e565b82525050565b6060820160008201516104486000850182610423565b50602082015161045b6020850182610423565b50604082015161046e6040850182610423565b50505050565b60006104808383610432565b60608301905092915050565b6000602082019050919050565b60006104a4826103f7565b6104ae8185610402565b93506104b983610413565b8060005b838110156104ea5781516104d18882610474565b97506104dc8361048c565b9250506001810190506104bd565b5085935050505092915050565b600060208201905081810360008301526105118184610499565b905092915050565b600080fd5b60006060828403121561053457610533610519565b5b81905092915050565b600060608284031215610553576105526102e6565b5b60006105618482850161051e565b91505092915050565b7f4e487b7100000000000000000000000000000000000000000000000000000000600052603260045260246000fd5b7f4e487b7100000000000000000000000000000000000000000000000000000000600052601160045260246000fd5b60006105d3826102eb565b91507fffffffffffffffffffffffffffffffffffffffffffffffffffffffffffffffff820361060557610604610599565b5b600182019050919050565b6000813561061d8161039e565b80915050919050565b60008160001b9050919050565b60007fffffffffffffffffffffffffffffffffffffffffffffffffffffffffffffffff61065f84610626565b9350801983169250808416831791505092915050565b60006106808261034e565b9050919050565b60008160001c9050919050565b600061069f82610687565b9050919050565b6106af82610675565b6106c26106bb82610694565b8354610633565b8255505050565b6000810160008301806106db81610610565b90506106e781846106a6565b5050506001810160208301806106fc81610610565b905061070881846106a6565b50505060028101604083018061071d81610610565b905061072981846106a6565b5050505050565b61073a82826106c9565b505056fea2646970667358221220f1760d0fa65b2a3c192e1518f819c39d842bcb41bcaf68272be31dd2adf3eb7064736f6c634300080d0033",
					"opcodes": "PUSH1 0x80 PUSH1 0x40 MSTORE CALLVALUE DUP1 ISZERO PUSH2 0x10 JUMPI PUSH1 0x0 DUP1 REVERT JUMPDEST POP PUSH2 0x774 DUP1 PUSH2 0x20 PUSH1 0x0 CODECOPY PUSH1 0x0 RETURN INVALID PUSH1 0x80 PUSH1 0x40 MSTORE PUSH1 0x4 CALLDATASIZE LT PUSH2 0x3F JUMPI PUSH1 0x0 CALLDATALOAD PUSH1 0xE0 SHR DUP1 PUSH4 0x178FE3F EQ PUSH2 0x44 JUMPI DUP1 PUSH4 0x4A96D170 EQ PUSH2 0x83 JUMPI DUP1 PUSH4 0xC41BB527 EQ PUSH2 0xC2 JUMPI DUP1 PUSH4 0xF37F0402 EQ PUSH2 0xFF JUMPI JUMPDEST PUSH1 0x0 DUP1 REVERT JUMPDEST CALLVALUE DUP1 ISZERO PUSH2 0x50 JUMPI PUSH1 0x0 DUP1 REVERT JUMPDEST POP PUSH2 0x6B PUSH1 0x4 DUP1 CALLDATASIZE SUB DUP2 ADD SWAP1 PUSH2 0x66 SWAP2 SWAP1 PUSH2 0x321 JUMP JUMPDEST PUSH2 0x11B JUMP JUMPDEST PUSH1 0x40 MLOAD PUSH2 0x7A SWAP4 SWAP3 SWAP2 SWAP1 PUSH2 0x367 JUMP JUMPDEST PUSH1 0x40 MLOAD DUP1 SWAP2 SUB SWAP1 RETURN JUMPDEST CALLVALUE DUP1 ISZERO PUSH2 0x8F JUMPI PUSH1 0x0 DUP1 REVERT JUMPDEST POP PUSH2 0xAA PUSH1 0x4 DUP1 CALLDATASIZE SUB DUP2 ADD SWAP1 PUSH2 0xA5 SWAP2 SWAP1 PUSH2 0x321 JUMP JUMPDEST PUSH2 0x19E JUMP JUMPDEST PUSH1 0x40 MLOAD PUSH2 0xB9 SWAP4 SWAP3 SWAP2 SWAP1 PUSH2 0x367 JUMP JUMPDEST PUSH1 0x40 MLOAD DUP1 SWAP2 SUB SWAP1 RETURN JUMPDEST CALLVALUE DUP1 ISZERO PUSH2 0xCE JUMPI PUSH1 0x0 DUP1 REVERT JUMPDEST POP PUSH2 0xE9 PUSH1 0x4 DUP1 CALLDATASIZE SUB DUP2 ADD SWAP1 PUSH2 0xE4 SWAP2 SWAP1 PUSH2 0x3CA JUMP JUMPDEST PUSH2 0x1D8 JUMP JUMPDEST PUSH1 0x40 MLOAD PUSH2 0xF6 SWAP2 SWAP1 PUSH2 0x4F7 JUMP JUMPDEST PUSH1 0x40 MLOAD DUP1 SWAP2 SUB SWAP1 RETURN JUMPDEST PUSH2 0x119 PUSH1 0x4 DUP1 CALLDATASIZE SUB DUP2 ADD SWAP1 PUSH2 0x114 SWAP2 SWAP1 PUSH2 0x53D JUMP JUMPDEST PUSH2 0x2A9 JUMP JUMPDEST STOP JUMPDEST PUSH1 0x0 DUP1 PUSH1 0x0 DUP1 DUP5 DUP2 SLOAD DUP2 LT PUSH2 0x133 JUMPI PUSH2 0x132 PUSH2 0x56A JUMP JUMPDEST JUMPDEST SWAP1 PUSH1 0x0 MSTORE PUSH1 0x20 PUSH1 0x0 KECCAK256 SWAP1 PUSH1 0x3 MUL ADD PUSH1 0x0 ADD SLOAD SWAP3 POP PUSH1 0x0 DUP5 DUP2 SLOAD DUP2 LT PUSH2 0x15B JUMPI PUSH2 0x15A PUSH2 0x56A JUMP JUMPDEST JUMPDEST SWAP1 PUSH1 0x0 MSTORE PUSH1 0x20 PUSH1 0x0 KECCAK256 SWAP1 PUSH1 0x3 MUL ADD PUSH1 0x1 ADD SLOAD SWAP2 POP PUSH1 0x0 DUP5 DUP2 SLOAD DUP2 LT PUSH2 0x183 JUMPI PUSH2 0x182 PUSH2 0x56A JUMP JUMPDEST JUMPDEST SWAP1 PUSH1 0x0 MSTORE PUSH1 0x20 PUSH1 0x0 KECCAK256 SWAP1 PUSH1 0x3 MUL ADD PUSH1 0x2 ADD SLOAD SWAP1 POP SWAP2 SWAP4 SWAP1 SWAP3 POP JUMP JUMPDEST PUSH1 0x0 DUP2 DUP2 SLOAD DUP2 LT PUSH2 0x1AE JUMPI PUSH1 0x0 DUP1 REVERT JUMPDEST SWAP1 PUSH1 0x0 MSTORE PUSH1 0x20 PUSH1 0x0 KECCAK256 SWAP1 PUSH1 0x3 MUL ADD PUSH1 0x0 SWAP2 POP SWAP1 POP DUP1 PUSH1 0x0 ADD SLOAD SWAP1 DUP1 PUSH1 0x1 ADD SLOAD SWAP1 DUP1 PUSH1 0x2 ADD SLOAD SWAP1 POP DUP4 JUMP JUMPDEST PUSH1 0x60 PUSH1 0x0 DUP1 JUMPDEST PUSH1 0x0 DUP1 SLOAD SWAP1 POP DUP2 LT ISZERO PUSH2 0x2A2 JUMPI DUP4 PUSH1 0x0 DUP3 DUP2 SLOAD DUP2 LT PUSH2 0x200 JUMPI PUSH2 0x1FF PUSH2 0x56A JUMP JUMPDEST JUMPDEST SWAP1 PUSH1 0x0 MSTORE PUSH1 0x20 PUSH1 0x0 KECCAK256 SWAP1 PUSH1 0x3 MUL ADD PUSH1 0x0 ADD SLOAD SUB PUSH2 0x28F JUMPI PUSH1 0x0 DUP2 DUP2 SLOAD DUP2 LT PUSH2 0x22B JUMPI PUSH2 0x22A PUSH2 0x56A JUMP JUMPDEST JUMPDEST SWAP1 PUSH1 0x0 MSTORE PUSH1 0x20 PUSH1 0x0 KECCAK256 SWAP1 PUSH1 0x3 MUL ADD PUSH1 0x40 MLOAD DUP1 PUSH1 0x60 ADD PUSH1 0x40 MSTORE SWAP1 DUP2 PUSH1 0x0 DUP3 ADD SLOAD DUP2 MSTORE PUSH1 0x20 ADD PUSH1 0x1 DUP3 ADD SLOAD DUP2 MSTORE PUSH1 0x20 ADD PUSH1 0x2 DUP3 ADD SLOAD DUP2 MSTORE POP POP DUP4 DUP4 DUP2 MLOAD DUP2 LT PUSH2 0x275 JUMPI PUSH2 0x274 PUSH2 0x56A JUMP JUMPDEST JUMPDEST PUSH1 0x20 MUL PUSH1 0x20 ADD ADD DUP2 SWAP1 MSTORE POP DUP2 DUP1 PUSH2 0x28B SWAP1 PUSH2 0x5C8 JUMP JUMPDEST SWAP3 POP POP JUMPDEST DUP1 DUP1 PUSH2 0x29A SWAP1 PUSH2 0x5C8 JUMP JUMPDEST SWAP2 POP POP PUSH2 0x1DE JUMP JUMPDEST POP POP SWAP2 SWAP1 POP JUMP JUMPDEST PUSH1 0x0 DUP2 SWAP1 DUP1 PUSH1 0x1 DUP2 SLOAD ADD DUP1 DUP3 SSTORE DUP1 SWAP2 POP POP PUSH1 0x1 SWAP1 SUB SWAP1 PUSH1 0x0 MSTORE PUSH1 0x20 PUSH1 0x0 KECCAK256 SWAP1 PUSH1 0x3 MUL ADD PUSH1 0x0 SWAP1 SWAP2 SWAP1 SWAP2 SWAP1 SWAP2 POP DUP2 DUP2 PUSH2 0x2E1 SWAP2 SWAP1 PUSH2 0x730 JUMP JUMPDEST POP POP POP JUMP JUMPDEST PUSH1 0x0 DUP1 REVERT JUMPDEST PUSH1 0x0 DUP2 SWAP1 POP SWAP2 SWAP1 POP JUMP JUMPDEST PUSH2 0x2FE DUP2 PUSH2 0x2EB JUMP JUMPDEST DUP2 EQ PUSH2 0x309 JUMPI PUSH1 0x0 DUP1 REVERT JUMPDEST POP JUMP JUMPDEST PUSH1 0x0 DUP2 CALLDATALOAD SWAP1 POP PUSH2 0x31B DUP2 PUSH2 0x2F5 JUMP JUMPDEST SWAP3 SWAP2 POP POP JUMP JUMPDEST PUSH1 0x0 PUSH1 0x20 DUP3 DUP5 SUB SLT ISZERO PUSH2 0x337 JUMPI PUSH2 0x336 PUSH2 0x2E6 JUMP JUMPDEST JUMPDEST PUSH1 0x0 PUSH2 0x345 DUP5 DUP3 DUP6 ADD PUSH2 0x30C JUMP JUMPDEST SWAP2 POP POP SWAP3 SWAP2 POP POP JUMP JUMPDEST PUSH1 0x0 DUP2 SWAP1 POP SWAP2 SWAP1 POP JUMP JUMPDEST PUSH2 0x361 DUP2 PUSH2 0x34E JUMP JUMPDEST DUP3 MSTORE POP POP JUMP JUMPDEST PUSH1 0x0 PUSH1 0x60 DUP3 ADD SWAP1 POP PUSH2 0x37C PUSH1 0x0 DUP4 ADD DUP7 PUSH2 0x358 JUMP JUMPDEST PUSH2 0x389 PUSH1 0x20 DUP4 ADD DUP6 PUSH2 0x358 JUMP JUMPDEST PUSH2 0x396 PUSH1 0x40 DUP4 ADD DUP5 PUSH2 0x358 JUMP JUMPDEST SWAP5 SWAP4 POP POP POP POP JUMP JUMPDEST PUSH2 0x3A7 DUP2 PUSH2 0x34E JUMP JUMPDEST DUP2 EQ PUSH2 0x3B2 JUMPI PUSH1 0x0 DUP1 REVERT JUMPDEST POP JUMP JUMPDEST PUSH1 0x0 DUP2 CALLDATALOAD SWAP1 POP PUSH2 0x3C4 DUP2 PUSH2 0x39E JUMP JUMPDEST SWAP3 SWAP2 POP POP JUMP JUMPDEST PUSH1 0x0 PUSH1 0x20 DUP3 DUP5 SUB SLT ISZERO PUSH2 0x3E0 JUMPI PUSH2 0x3DF PUSH2 0x2E6 JUMP JUMPDEST JUMPDEST PUSH1 0x0 PUSH2 0x3EE DUP5 DUP3 DUP6 ADD PUSH2 0x3B5 JUMP JUMPDEST SWAP2 POP POP SWAP3 SWAP2 POP POP JUMP JUMPDEST PUSH1 0x0 DUP2 MLOAD SWAP1 POP SWAP2 SWAP1 POP JUMP JUMPDEST PUSH1 0x0 DUP3 DUP3 MSTORE PUSH1 0x20 DUP3 ADD SWAP1 POP SWAP3 SWAP2 POP POP JUMP JUMPDEST PUSH1 0x0 DUP2 SWAP1 POP PUSH1 0x20 DUP3 ADD SWAP1 POP SWAP2 SWAP1 POP JUMP JUMPDEST PUSH2 0x42C DUP2 PUSH2 0x34E JUMP JUMPDEST DUP3 MSTORE POP POP JUMP JUMPDEST PUSH1 0x60 DUP3 ADD PUSH1 0x0 DUP3 ADD MLOAD PUSH2 0x448 PUSH1 0x0 DUP6 ADD DUP3 PUSH2 0x423 JUMP JUMPDEST POP PUSH1 0x20 DUP3 ADD MLOAD PUSH2 0x45B PUSH1 0x20 DUP6 ADD DUP3 PUSH2 0x423 JUMP JUMPDEST POP PUSH1 0x40 DUP3 ADD MLOAD PUSH2 0x46E PUSH1 0x40 DUP6 ADD DUP3 PUSH2 0x423 JUMP JUMPDEST POP POP POP POP JUMP JUMPDEST PUSH1 0x0 PUSH2 0x480 DUP4 DUP4 PUSH2 0x432 JUMP JUMPDEST PUSH1 0x60 DUP4 ADD SWAP1 POP SWAP3 SWAP2 POP POP JUMP JUMPDEST PUSH1 0x0 PUSH1 0x20 DUP3 ADD SWAP1 POP SWAP2 SWAP1 POP JUMP JUMPDEST PUSH1 0x0 PUSH2 0x4A4 DUP3 PUSH2 0x3F7 JUMP JUMPDEST PUSH2 0x4AE DUP2 DUP6 PUSH2 0x402 JUMP JUMPDEST SWAP4 POP PUSH2 0x4B9 DUP4 PUSH2 0x413 JUMP JUMPDEST DUP1 PUSH1 0x0 JUMPDEST DUP4 DUP2 LT ISZERO PUSH2 0x4EA JUMPI DUP2 MLOAD PUSH2 0x4D1 DUP9 DUP3 PUSH2 0x474 JUMP JUMPDEST SWAP8 POP PUSH2 0x4DC DUP4 PUSH2 0x48C JUMP JUMPDEST SWAP3 POP POP PUSH1 0x1 DUP2 ADD SWAP1 POP PUSH2 0x4BD JUMP JUMPDEST POP DUP6 SWAP4 POP POP POP POP SWAP3 SWAP2 POP POP JUMP JUMPDEST PUSH1 0x0 PUSH1 0x20 DUP3 ADD SWAP1 POP DUP2 DUP2 SUB PUSH1 0x0 DUP4 ADD MSTORE PUSH2 0x511 DUP2 DUP5 PUSH2 0x499 JUMP JUMPDEST SWAP1 POP SWAP3 SWAP2 POP POP JUMP JUMPDEST PUSH1 0x0 DUP1 REVERT JUMPDEST PUSH1 0x0 PUSH1 0x60 DUP3 DUP5 SUB SLT ISZERO PUSH2 0x534 JUMPI PUSH2 0x533 PUSH2 0x519 JUMP JUMPDEST JUMPDEST DUP2 SWAP1 POP SWAP3 SWAP2 POP POP JUMP JUMPDEST PUSH1 0x0 PUSH1 0x60 DUP3 DUP5 SUB SLT ISZERO PUSH2 0x553 JUMPI PUSH2 0x552 PUSH2 0x2E6 JUMP JUMPDEST JUMPDEST PUSH1 0x0 PUSH2 0x561 DUP5 DUP3 DUP6 ADD PUSH2 0x51E JUMP JUMPDEST SWAP2 POP POP SWAP3 SWAP2 POP POP JUMP JUMPDEST PUSH32 0x4E487B7100000000000000000000000000000000000000000000000000000000 PUSH1 0x0 MSTORE PUSH1 0x32 PUSH1 0x4 MSTORE PUSH1 0x24 PUSH1 0x0 REVERT JUMPDEST PUSH32 0x4E487B7100000000000000000000000000000000000000000000000000000000 PUSH1 0x0 MSTORE PUSH1 0x11 PUSH1 0x4 MSTORE PUSH1 0x24 PUSH1 0x0 REVERT JUMPDEST PUSH1 0x0 PUSH2 0x5D3 DUP3 PUSH2 0x2EB JUMP JUMPDEST SWAP2 POP PUSH32 0xFFFFFFFFFFFFFFFFFFFFFFFFFFFFFFFFFFFFFFFFFFFFFFFFFFFFFFFFFFFFFFFF DUP3 SUB PUSH2 0x605 JUMPI PUSH2 0x604 PUSH2 0x599 JUMP JUMPDEST JUMPDEST PUSH1 0x1 DUP3 ADD SWAP1 POP SWAP2 SWAP1 POP JUMP JUMPDEST PUSH1 0x0 DUP2 CALLDATALOAD PUSH2 0x61D DUP2 PUSH2 0x39E JUMP JUMPDEST DUP1 SWAP2 POP POP SWAP2 SWAP1 POP JUMP JUMPDEST PUSH1 0x0 DUP2 PUSH1 0x0 SHL SWAP1 POP SWAP2 SWAP1 POP JUMP JUMPDEST PUSH1 0x0 PUSH32 0xFFFFFFFFFFFFFFFFFFFFFFFFFFFFFFFFFFFFFFFFFFFFFFFFFFFFFFFFFFFFFFFF PUSH2 0x65F DUP5 PUSH2 0x626 JUMP JUMPDEST SWAP4 POP DUP1 NOT DUP4 AND SWAP3 POP DUP1 DUP5 AND DUP4 OR SWAP2 POP POP SWAP3 SWAP2 POP POP JUMP JUMPDEST PUSH1 0x0 PUSH2 0x680 DUP3 PUSH2 0x34E JUMP JUMPDEST SWAP1 POP SWAP2 SWAP1 POP JUMP JUMPDEST PUSH1 0x0 DUP2 PUSH1 0x0 SHR SWAP1 POP SWAP2 SWAP1 POP JUMP JUMPDEST PUSH1 0x0 PUSH2 0x69F DUP3 PUSH2 0x687 JUMP JUMPDEST SWAP1 POP SWAP2 SWAP1 POP JUMP JUMPDEST PUSH2 0x6AF DUP3 PUSH2 0x675 JUMP JUMPDEST PUSH2 0x6C2 PUSH2 0x6BB DUP3 PUSH2 0x694 JUMP JUMPDEST DUP4 SLOAD PUSH2 0x633 JUMP JUMPDEST DUP3 SSTORE POP POP POP JUMP JUMPDEST PUSH1 0x0 DUP2 ADD PUSH1 0x0 DUP4 ADD DUP1 PUSH2 0x6DB DUP2 PUSH2 0x610 JUMP JUMPDEST SWAP1 POP PUSH2 0x6E7 DUP2 DUP5 PUSH2 0x6A6 JUMP JUMPDEST POP POP POP PUSH1 0x1 DUP2 ADD PUSH1 0x20 DUP4 ADD DUP1 PUSH2 0x6FC DUP2 PUSH2 0x610 JUMP JUMPDEST SWAP1 POP PUSH2 0x708 DUP2 DUP5 PUSH2 0x6A6 JUMP JUMPDEST POP POP POP PUSH1 0x2 DUP2 ADD PUSH1 0x40 DUP4 ADD DUP1 PUSH2 0x71D DUP2 PUSH2 0x610 JUMP JUMPDEST SWAP1 POP PUSH2 0x729 DUP2 DUP5 PUSH2 0x6A6 JUMP JUMPDEST POP POP POP POP POP JUMP JUMPDEST PUSH2 0x73A DUP3 DUP3 PUSH2 0x6C9 JUMP JUMPDEST POP POP JUMP INVALID LOG2 PUSH5 0x6970667358 0x22 SLT KECCAK256 CALL PUSH23 0xD0FA65B2A3C192E1518F819C39D842BCB41BCAF68272B 0xE3 SAR 0xD2 0xAD RETURN 0xEB PUSH17 0x64736F6C634300080D0033000000000000 "
				},
				"gasEstimates": {
					"creation": {
						"codeDepositCost": "381600",
						"executionCost": "418",
						"totalCost": "382018"
					},
					"external": {
						"addData((bytes32,bytes32,bytes32))": "infinite",
						"dataSet(uint256)": "infinite",
						"getAllDataBySensor(bytes32)": "infinite",
						"getData(uint256)": "infinite"
					}
				},
				"methodIdentifiers": {
					"addData((bytes32,bytes32,bytes32))": "f37f0402",
					"dataSet(uint256)": "4a96d170",
					"getAllDataBySensor(bytes32)": "c41bb527",
					"getData(uint256)": "0178fe3f"
				}
			},
			"userdoc": {
				"kind": "user",
				"methods": {},
				"version": 1
			}
		}
	}
}