{
	"contracts/DataStorage.sol": {
		"DataStorage": {
			"abi": [
				{
					"inputs": [
						{
							"internalType": "uint256",
							"name": "Id",
							"type": "uint256"
						},
						{
							"internalType": "string",
							"name": "time",
							"type": "string"
						},
						{
							"internalType": "uint256",
							"name": "sensorvalue",
							"type": "uint256"
						}
					],
					"name": "addData",
					"outputs": [],
					"stateMutability": "nonpayable",
					"type": "function"
				},
				{
					"inputs": [
						{
							"internalType": "uint256",
							"name": "",
							"type": "uint256"
						}
					],
					"name": "dataSet",
					"outputs": [
						{
							"internalType": "uint256",
							"name": "sensorId",
							"type": "uint256"
						},
						{
							"internalType": "string",
							"name": "timeStamp",
							"type": "string"
						},
						{
							"internalType": "uint256",
							"name": "value",
							"type": "uint256"
						}
					],
					"stateMutability": "view",
					"type": "function"
				},
				{
					"inputs": [
						{
							"internalType": "uint256",
							"name": "givenId",
							"type": "uint256"
						}
					],
					"name": "getAllDataBySensor",
					"outputs": [
						{
							"components": [
								{
									"internalType": "uint256",
									"name": "sensorId",
									"type": "uint256"
								},
								{
									"internalType": "string",
									"name": "timeStamp",
									"type": "string"
								},
								{
									"internalType": "uint256",
									"name": "value",
									"type": "uint256"
								}
							],
							"internalType": "struct DataStorage.Data[]",
							"name": "returnData",
							"type": "tuple[]"
						}
					],
					"stateMutability": "view",
					"type": "function"
				},
				{
					"inputs": [
						{
							"internalType": "uint256",
							"name": "arrayPointer",
							"type": "uint256"
						}
					],
					"name": "getData",
					"outputs": [
						{
							"internalType": "uint256",
							"name": "Id",
							"type": "uint256"
						},
						{
							"internalType": "string",
							"name": "time",
							"type": "string"
						},
						{
							"internalType": "uint256",
							"name": "sensorvalue",
							"type": "uint256"
						}
					],
					"stateMutability": "view",
					"type": "function"
				}
			],
			"devdoc": {
				"kind": "dev",
				"methods": {},
				"version": 1
			},
			"evm": {
				"assembly": "    /* \"contracts/DataStorage.sol\":25:789  contract DataStorage {... */\n  mstore(0x40, 0x80)\n  callvalue\n  dup1\n  iszero\n  tag_1\n  jumpi\n  0x00\n  dup1\n  revert\ntag_1:\n  pop\n  dataSize(sub_0)\n  dup1\n  dataOffset(sub_0)\n  0x00\n  codecopy\n  0x00\n  return\nstop\n\nsub_0: assembly {\n        /* \"contracts/DataStorage.sol\":25:789  contract DataStorage {... */\n      mstore(0x40, 0x80)\n      callvalue\n      dup1\n      iszero\n      tag_1\n      jumpi\n      0x00\n      dup1\n      revert\n    tag_1:\n      pop\n      jumpi(tag_2, lt(calldatasize, 0x04))\n      shr(0xe0, calldataload(0x00))\n      dup1\n      0x0178fe3f\n      eq\n      tag_3\n      jumpi\n      dup1\n      0x4a96d170\n      eq\n      tag_4\n      jumpi\n      dup1\n      0x6b85da7c\n      eq\n      tag_5\n      jumpi\n      dup1\n      0xcc295b66\n      eq\n      tag_6\n      jumpi\n    tag_2:\n      0x00\n      dup1\n      revert\n        /* \"contracts/DataStorage.sol\":280:521  function getData(uint arrayPointer) view public returns (uint Id, string memory time, uint sensorvalue) {... */\n    tag_3:\n      tag_7\n      tag_8\n      calldatasize\n      0x04\n      tag_9\n      jump\t// in\n    tag_8:\n      tag_10\n      jump\t// in\n    tag_7:\n      mload(0x40)\n      tag_11\n      swap4\n      swap3\n      swap2\n      swap1\n      tag_12\n      jump\t// in\n    tag_11:\n      mload(0x40)\n      dup1\n      swap2\n      sub\n      swap1\n      return\n        /* \"contracts/DataStorage.sol\":50:71  Data[] public dataSet */\n    tag_4:\n      tag_7\n      tag_14\n      calldatasize\n      0x04\n      tag_9\n      jump\t// in\n    tag_14:\n      tag_15\n      jump\t// in\n        /* \"contracts/DataStorage.sol\":525:787  function getAllDataBySensor(uint givenId) view public returns (Data[] memory returnData){... */\n    tag_5:\n      tag_17\n      tag_18\n      calldatasize\n      0x04\n      tag_9\n      jump\t// in\n    tag_18:\n      tag_19\n      jump\t// in\n    tag_17:\n      mload(0x40)\n      tag_11\n      swap2\n      swap1\n      tag_21\n      jump\t// in\n        /* \"contracts/DataStorage.sol\":153:276  function addData(uint Id, string memory time, uint sensorvalue) public {... */\n    tag_6:\n      tag_22\n      tag_23\n      calldatasize\n      0x04\n      tag_24\n      jump\t// in\n    tag_23:\n      tag_25\n      jump\t// in\n    tag_22:\n      stop\n        /* \"contracts/DataStorage.sol\":280:521  function getData(uint arrayPointer) view public returns (uint Id, string memory time, uint sensorvalue) {... */\n    tag_10:\n        /* \"contracts/DataStorage.sol\":337:344  uint Id */\n      0x00\n        /* \"contracts/DataStorage.sol\":346:364  string memory time */\n      0x60\n        /* \"contracts/DataStorage.sol\":366:382  uint sensorvalue */\n      0x00\n        /* \"contracts/DataStorage.sol\":395:402  dataSet */\n      dup1\n        /* \"contracts/DataStorage.sol\":403:415  arrayPointer */\n      dup5\n        /* \"contracts/DataStorage.sol\":395:416  dataSet[arrayPointer] */\n      dup2\n      sload\n      dup2\n      lt\n      tag_28\n      jumpi\n      tag_28\n      tag_29\n      jump\t// in\n    tag_28:\n      swap1\n      0x00\n      mstore\n      keccak256(0x00, 0x20)\n      swap1\n      0x03\n      mul\n      add\n        /* \"contracts/DataStorage.sol\":395:425  dataSet[arrayPointer].sensorId */\n      0x00\n      add\n      sload\n        /* \"contracts/DataStorage.sol\":390:425  Id = dataSet[arrayPointer].sensorId */\n      swap3\n      pop\n        /* \"contracts/DataStorage.sol\":438:445  dataSet */\n      0x00\n        /* \"contracts/DataStorage.sol\":446:458  arrayPointer */\n      dup5\n        /* \"contracts/DataStorage.sol\":438:459  dataSet[arrayPointer] */\n      dup2\n      sload\n      dup2\n      lt\n      tag_32\n      jumpi\n      tag_32\n      tag_29\n      jump\t// in\n    tag_32:\n      swap1\n      0x00\n      mstore\n      keccak256(0x00, 0x20)\n      swap1\n      0x03\n      mul\n      add\n        /* \"contracts/DataStorage.sol\":438:469  dataSet[arrayPointer].timeStamp */\n      0x01\n      add\n        /* \"contracts/DataStorage.sol\":431:469  time = dataSet[arrayPointer].timeStamp */\n      dup1\n      sload\n      tag_34\n      swap1\n      tag_35\n      jump\t// in\n    tag_34:\n      dup1\n      0x1f\n      add\n      0x20\n      dup1\n      swap2\n      div\n      mul\n      0x20\n      add\n      mload(0x40)\n      swap1\n      dup2\n      add\n      0x40\n      mstore\n      dup1\n      swap3\n      swap2\n      swap1\n      dup2\n      dup2\n      mstore\n      0x20\n      add\n      dup3\n      dup1\n      sload\n      tag_36\n      swap1\n      tag_35\n      jump\t// in\n    tag_36:\n      dup1\n      iszero\n      tag_37\n      jumpi\n      dup1\n      0x1f\n      lt\n      tag_38\n      jumpi\n      0x0100\n      dup1\n      dup4\n      sload\n      div\n      mul\n      dup4\n      mstore\n      swap2\n      0x20\n      add\n      swap2\n      jump(tag_37)\n    tag_38:\n      dup3\n      add\n      swap2\n      swap1\n      0x00\n      mstore\n      keccak256(0x00, 0x20)\n      swap1\n    tag_39:\n      dup2\n      sload\n      dup2\n      mstore\n      swap1\n      0x01\n      add\n      swap1\n      0x20\n      add\n      dup1\n      dup4\n      gt\n      tag_39\n      jumpi\n      dup3\n      swap1\n      sub\n      0x1f\n      and\n      dup3\n      add\n      swap2\n    tag_37:\n      pop\n      pop\n      pop\n      pop\n      pop\n      swap2\n      pop\n        /* \"contracts/DataStorage.sol\":489:496  dataSet */\n      0x00\n        /* \"contracts/DataStorage.sol\":497:509  arrayPointer */\n      dup5\n        /* \"contracts/DataStorage.sol\":489:510  dataSet[arrayPointer] */\n      dup2\n      sload\n      dup2\n      lt\n      tag_41\n      jumpi\n      tag_41\n      tag_29\n      jump\t// in\n    tag_41:\n      swap1\n      0x00\n      mstore\n      keccak256(0x00, 0x20)\n      swap1\n      0x03\n      mul\n      add\n        /* \"contracts/DataStorage.sol\":489:516  dataSet[arrayPointer].value */\n      0x02\n      add\n      sload\n        /* \"contracts/DataStorage.sol\":475:516  sensorvalue = dataSet[arrayPointer].value */\n      swap1\n      pop\n        /* \"contracts/DataStorage.sol\":280:521  function getData(uint arrayPointer) view public returns (uint Id, string memory time, uint sensorvalue) {... */\n      swap2\n      swap4\n      swap1\n      swap3\n      pop\n      jump\t// out\n        /* \"contracts/DataStorage.sol\":50:71  Data[] public dataSet */\n    tag_15:\n      0x00\n      dup2\n      dup2\n      sload\n      dup2\n      lt\n      tag_43\n      jumpi\n      0x00\n      dup1\n      revert\n    tag_43:\n      0x00\n      swap2\n      dup3\n      mstore\n      0x20\n      swap1\n      swap2\n      keccak256\n      0x03\n      swap1\n      swap2\n      mul\n      add\n      dup1\n      sload\n      0x01\n      dup3\n      add\n      dup1\n      sload\n      swap2\n      swap4\n      pop\n      swap1\n      tag_45\n      swap1\n      tag_35\n      jump\t// in\n    tag_45:\n      dup1\n      0x1f\n      add\n      0x20\n      dup1\n      swap2\n      div\n      mul\n      0x20\n      add\n      mload(0x40)\n      swap1\n      dup2\n      add\n      0x40\n      mstore\n      dup1\n      swap3\n      swap2\n      swap1\n      dup2\n      dup2\n      mstore\n      0x20\n      add\n      dup3\n      dup1\n      sload\n      tag_46\n      swap1\n      tag_35\n      jump\t// in\n    tag_46:\n      dup1\n      iszero\n      tag_47\n      jumpi\n      dup1\n      0x1f\n      lt\n      tag_48\n      jumpi\n      0x0100\n      dup1\n      dup4\n      sload\n      div\n      mul\n      dup4\n      mstore\n      swap2\n      0x20\n      add\n      swap2\n      jump(tag_47)\n    tag_48:\n      dup3\n      add\n      swap2\n      swap1\n      0x00\n      mstore\n      keccak256(0x00, 0x20)\n      swap1\n    tag_49:\n      dup2\n      sload\n      dup2\n      mstore\n      swap1\n      0x01\n      add\n      swap1\n      0x20\n      add\n      dup1\n      dup4\n      gt\n      tag_49\n      jumpi\n      dup3\n      swap1\n      sub\n      0x1f\n      and\n      dup3\n      add\n      swap2\n    tag_47:\n      pop\n      pop\n      pop\n      pop\n      pop\n      swap1\n      dup1\n      0x02\n      add\n      sload\n      swap1\n      pop\n      dup4\n      jump\t// out\n        /* \"contracts/DataStorage.sol\":525:787  function getAllDataBySensor(uint givenId) view public returns (Data[] memory returnData){... */\n    tag_19:\n        /* \"contracts/DataStorage.sol\":588:612  Data[] memory returnData */\n      0x60\n        /* \"contracts/DataStorage.sol\":619:625  uint x */\n      0x00\n        /* \"contracts/DataStorage.sol\":640:646  uint i */\n      dup1\n        /* \"contracts/DataStorage.sol\":635:783  for (uint i = 0; i < dataSet.length; i++){... */\n    tag_51:\n        /* \"contracts/DataStorage.sol\":656:663  dataSet */\n      0x00\n        /* \"contracts/DataStorage.sol\":656:670  dataSet.length */\n      sload\n        /* \"contracts/DataStorage.sol\":652:670  i < dataSet.length */\n      dup2\n      lt\n        /* \"contracts/DataStorage.sol\":635:783  for (uint i = 0; i < dataSet.length; i++){... */\n      iszero\n      tag_52\n      jumpi\n        /* \"contracts/DataStorage.sol\":711:718  givenId */\n      dup4\n        /* \"contracts/DataStorage.sol\":688:695  dataSet */\n      0x00\n        /* \"contracts/DataStorage.sol\":696:697  i */\n      dup3\n        /* \"contracts/DataStorage.sol\":688:698  dataSet[i] */\n      dup2\n      sload\n      dup2\n      lt\n      tag_55\n      jumpi\n      tag_55\n      tag_29\n      jump\t// in\n    tag_55:\n      swap1\n      0x00\n      mstore\n      keccak256(0x00, 0x20)\n      swap1\n      0x03\n      mul\n      add\n        /* \"contracts/DataStorage.sol\":688:707  dataSet[i].sensorId */\n      0x00\n      add\n      sload\n        /* \"contracts/DataStorage.sol\":688:718  dataSet[i].sensorId == givenId */\n      sub\n        /* \"contracts/DataStorage.sol\":684:777  if (dataSet[i].sensorId == givenId){... */\n      tag_57\n      jumpi\n        /* \"contracts/DataStorage.sol\":745:752  dataSet */\n      0x00\n        /* \"contracts/DataStorage.sol\":753:754  i */\n      dup2\n        /* \"contracts/DataStorage.sol\":745:755  dataSet[i] */\n      dup2\n      sload\n      dup2\n      lt\n      tag_59\n      jumpi\n      tag_59\n      tag_29\n      jump\t// in\n    tag_59:\n      swap1\n      0x00\n      mstore\n      keccak256(0x00, 0x20)\n      swap1\n      0x03\n      mul\n      add\n        /* \"contracts/DataStorage.sol\":729:755  returnData[x] = dataSet[i] */\n      mload(0x40)\n      dup1\n      0x60\n      add\n      0x40\n      mstore\n      swap1\n      dup2\n      0x00\n      dup3\n      add\n      sload\n      dup2\n      mstore\n      0x20\n      add\n      0x01\n      dup3\n      add\n      dup1\n      sload\n      tag_61\n      swap1\n      tag_35\n      jump\t// in\n    tag_61:\n      dup1\n      0x1f\n      add\n      0x20\n      dup1\n      swap2\n      div\n      mul\n      0x20\n      add\n      mload(0x40)\n      swap1\n      dup2\n      add\n      0x40\n      mstore\n      dup1\n      swap3\n      swap2\n      swap1\n      dup2\n      dup2\n      mstore\n      0x20\n      add\n      dup3\n      dup1\n      sload\n      tag_62\n      swap1\n      tag_35\n      jump\t// in\n    tag_62:\n      dup1\n      iszero\n      tag_63\n      jumpi\n      dup1\n      0x1f\n      lt\n      tag_64\n      jumpi\n      0x0100\n      dup1\n      dup4\n      sload\n      div\n      mul\n      dup4\n      mstore\n      swap2\n      0x20\n      add\n      swap2\n      jump(tag_63)\n    tag_64:\n      dup3\n      add\n      swap2\n      swap1\n      0x00\n      mstore\n      keccak256(0x00, 0x20)\n      swap1\n    tag_65:\n      dup2\n      sload\n      dup2\n      mstore\n      swap1\n      0x01\n      add\n      swap1\n      0x20\n      add\n      dup1\n      dup4\n      gt\n      tag_65\n      jumpi\n      dup3\n      swap1\n      sub\n      0x1f\n      and\n      dup3\n      add\n      swap2\n    tag_63:\n      pop\n      pop\n      pop\n      pop\n      pop\n      dup2\n      mstore\n      0x20\n      add\n      0x02\n      dup3\n      add\n      sload\n      dup2\n      mstore\n      pop\n      pop\n        /* \"contracts/DataStorage.sol\":729:739  returnData */\n      dup4\n        /* \"contracts/DataStorage.sol\":740:741  x */\n      dup4\n        /* \"contracts/DataStorage.sol\":729:742  returnData[x] */\n      dup2\n      mload\n      dup2\n      lt\n      tag_67\n      jumpi\n      tag_67\n      tag_29\n      jump\t// in\n    tag_67:\n      0x20\n      mul\n      0x20\n      add\n      add\n        /* \"contracts/DataStorage.sol\":729:755  returnData[x] = dataSet[i] */\n      dup2\n      swap1\n      mstore\n      pop\n        /* \"contracts/DataStorage.sol\":765:768  x++ */\n      dup2\n      dup1\n      tag_68\n      swap1\n      tag_69\n      jump\t// in\n    tag_68:\n      swap3\n      pop\n      pop\n        /* \"contracts/DataStorage.sol\":684:777  if (dataSet[i].sensorId == givenId){... */\n    tag_57:\n        /* \"contracts/DataStorage.sol\":672:675  i++ */\n      dup1\n      tag_70\n      dup2\n      tag_69\n      jump\t// in\n    tag_70:\n      swap2\n      pop\n      pop\n        /* \"contracts/DataStorage.sol\":635:783  for (uint i = 0; i < dataSet.length; i++){... */\n      jump(tag_51)\n    tag_52:\n      pop\n        /* \"contracts/DataStorage.sol\":613:787  {... */\n      pop\n        /* \"contracts/DataStorage.sol\":525:787  function getAllDataBySensor(uint givenId) view public returns (Data[] memory returnData){... */\n      swap2\n      swap1\n      pop\n      jump\t// out\n        /* \"contracts/DataStorage.sol\":153:276  function addData(uint Id, string memory time, uint sensorvalue) public {... */\n    tag_25:\n        /* \"contracts/DataStorage.sol\":243:270  Data(Id, time, sensorvalue) */\n      0x40\n      dup1\n      mload\n      0x60\n      dup2\n      add\n      dup3\n      mstore\n      dup5\n      dup2\n      mstore\n      0x20\n      dup1\n      dup3\n      add\n      dup6\n      dup2\n      mstore\n      swap3\n      dup3\n      add\n      dup5\n      swap1\n      mstore\n        /* \"contracts/DataStorage.sol\":230:237  dataSet */\n      0x00\n        /* \"contracts/DataStorage.sol\":230:271  dataSet.push(Data(Id, time, sensorvalue)) */\n      dup1\n      sload\n      0x01\n      dup2\n      add\n      dup3\n      sstore\n      swap1\n      dup1\n      mstore\n      dup3\n      mload\n      0x03\n      swap1\n      swap2\n      mul\n      0x290decd9548b62a8d60345a988386fc84ba6bc95484008f6362f93160ef3e563\n      dup2\n      add\n      swap2\n      dup3\n      sstore\n      swap4\n      mload\n      dup1\n      mload\n        /* \"contracts/DataStorage.sol\":243:270  Data(Id, time, sensorvalue) */\n      swap4\n      swap5\n        /* \"contracts/DataStorage.sol\":230:271  dataSet.push(Data(Id, time, sensorvalue)) */\n      swap2\n      swap4\n      tag_73\n      swap4\n      0x290decd9548b62a8d60345a988386fc84ba6bc95484008f6362f93160ef3e564\n      swap1\n      swap4\n      add\n      swap3\n      swap2\n      swap1\n      swap2\n      add\n      swap1\n      tag_74\n      jump\t// in\n    tag_73:\n      pop\n      0x40\n      dup3\n      add\n      mload\n      dup2\n      0x02\n      add\n      sstore\n      pop\n      pop\n        /* \"contracts/DataStorage.sol\":153:276  function addData(uint Id, string memory time, uint sensorvalue) public {... */\n      pop\n      pop\n      pop\n      jump\t// out\n    tag_74:\n      dup3\n      dup1\n      sload\n      tag_75\n      swap1\n      tag_35\n      jump\t// in\n    tag_75:\n      swap1\n      0x00\n      mstore\n      keccak256(0x00, 0x20)\n      swap1\n      0x1f\n      add\n      0x20\n      swap1\n      div\n      dup2\n      add\n      swap3\n      dup3\n      tag_77\n      jumpi\n      0x00\n      dup6\n      sstore\n      jump(tag_80)\n    tag_77:\n      dup3\n      0x1f\n      lt\n      tag_78\n      jumpi\n      dup1\n      mload\n      not(0xff)\n      and\n      dup4\n      dup1\n      add\n      or\n      dup6\n      sstore\n      jump(tag_80)\n    tag_78:\n      dup3\n      dup1\n      add\n      0x01\n      add\n      dup6\n      sstore\n      dup3\n      iszero\n      tag_80\n      jumpi\n      swap2\n      dup3\n      add\n    tag_79:\n      dup3\n      dup2\n      gt\n      iszero\n      tag_80\n      jumpi\n      dup3\n      mload\n      dup3\n      sstore\n      swap2\n      0x20\n      add\n      swap2\n      swap1\n      0x01\n      add\n      swap1\n      jump(tag_79)\n    tag_80:\n      pop\n      tag_81\n      swap3\n      swap2\n      pop\n      tag_82\n      jump\t// in\n    tag_81:\n      pop\n      swap1\n      jump\t// out\n    tag_82:\n    tag_83:\n      dup1\n      dup3\n      gt\n      iszero\n      tag_81\n      jumpi\n      0x00\n      dup2\n      sstore\n      0x01\n      add\n      jump(tag_83)\n        /* \"#utility.yul\":14:194   */\n    tag_9:\n        /* \"#utility.yul\":73:79   */\n      0x00\n        /* \"#utility.yul\":126:128   */\n      0x20\n        /* \"#utility.yul\":114:123   */\n      dup3\n        /* \"#utility.yul\":105:112   */\n      dup5\n        /* \"#utility.yul\":101:124   */\n      sub\n        /* \"#utility.yul\":97:129   */\n      slt\n        /* \"#utility.yul\":94:146   */\n      iszero\n      tag_89\n      jumpi\n        /* \"#utility.yul\":142:143   */\n      0x00\n        /* \"#utility.yul\":139:140   */\n      dup1\n        /* \"#utility.yul\":132:144   */\n      revert\n        /* \"#utility.yul\":94:146   */\n    tag_89:\n      pop\n        /* \"#utility.yul\":165:188   */\n      calldataload\n      swap2\n        /* \"#utility.yul\":14:194   */\n      swap1\n      pop\n      jump\t// out\n        /* \"#utility.yul\":199:671   */\n    tag_85:\n        /* \"#utility.yul\":241:244   */\n      0x00\n        /* \"#utility.yul\":279:284   */\n      dup2\n        /* \"#utility.yul\":273:285   */\n      mload\n        /* \"#utility.yul\":306:312   */\n      dup1\n        /* \"#utility.yul\":301:304   */\n      dup5\n        /* \"#utility.yul\":294:313   */\n      mstore\n        /* \"#utility.yul\":331:332   */\n      0x00\n        /* \"#utility.yul\":341:503   */\n    tag_91:\n        /* \"#utility.yul\":355:361   */\n      dup2\n        /* \"#utility.yul\":352:353   */\n      dup2\n        /* \"#utility.yul\":349:362   */\n      lt\n        /* \"#utility.yul\":341:503   */\n      iszero\n      tag_93\n      jumpi\n        /* \"#utility.yul\":417:421   */\n      0x20\n        /* \"#utility.yul\":473:486   */\n      dup2\n      dup6\n      add\n        /* \"#utility.yul\":469:491   */\n      dup2\n      add\n        /* \"#utility.yul\":463:492   */\n      mload\n        /* \"#utility.yul\":445:456   */\n      dup7\n      dup4\n      add\n        /* \"#utility.yul\":441:461   */\n      dup3\n      add\n        /* \"#utility.yul\":434:493   */\n      mstore\n        /* \"#utility.yul\":370:382   */\n      add\n        /* \"#utility.yul\":341:503   */\n      jump(tag_91)\n    tag_93:\n        /* \"#utility.yul\":521:527   */\n      dup2\n        /* \"#utility.yul\":518:519   */\n      dup2\n        /* \"#utility.yul\":515:528   */\n      gt\n        /* \"#utility.yul\":512:599   */\n      iszero\n      tag_94\n      jumpi\n        /* \"#utility.yul\":587:588   */\n      0x00\n        /* \"#utility.yul\":580:584   */\n      0x20\n        /* \"#utility.yul\":571:577   */\n      dup4\n        /* \"#utility.yul\":566:569   */\n      dup8\n        /* \"#utility.yul\":562:578   */\n      add\n        /* \"#utility.yul\":558:585   */\n      add\n        /* \"#utility.yul\":551:589   */\n      mstore\n        /* \"#utility.yul\":512:599   */\n    tag_94:\n      pop\n        /* \"#utility.yul\":653:655   */\n      0x1f\n        /* \"#utility.yul\":632:647   */\n      add\n      not(0x1f)\n        /* \"#utility.yul\":628:657   */\n      and\n        /* \"#utility.yul\":619:658   */\n      swap3\n      swap1\n      swap3\n      add\n        /* \"#utility.yul\":660:664   */\n      0x20\n        /* \"#utility.yul\":615:665   */\n      add\n      swap3\n        /* \"#utility.yul\":199:671   */\n      swap2\n      pop\n      pop\n      jump\t// out\n        /* \"#utility.yul\":676:1038   */\n    tag_12:\n        /* \"#utility.yul\":881:887   */\n      dup4\n        /* \"#utility.yul\":870:879   */\n      dup2\n        /* \"#utility.yul\":863:888   */\n      mstore\n        /* \"#utility.yul\":924:926   */\n      0x60\n        /* \"#utility.yul\":919:921   */\n      0x20\n        /* \"#utility.yul\":908:917   */\n      dup3\n        /* \"#utility.yul\":904:922   */\n      add\n        /* \"#utility.yul\":897:927   */\n      mstore\n        /* \"#utility.yul\":844:848   */\n      0x00\n        /* \"#utility.yul\":944:989   */\n      tag_96\n        /* \"#utility.yul\":985:987   */\n      0x60\n        /* \"#utility.yul\":974:983   */\n      dup4\n        /* \"#utility.yul\":970:988   */\n      add\n        /* \"#utility.yul\":962:968   */\n      dup6\n        /* \"#utility.yul\":944:989   */\n      tag_85\n      jump\t// in\n    tag_96:\n        /* \"#utility.yul\":936:989   */\n      swap1\n      pop\n        /* \"#utility.yul\":1025:1031   */\n      dup3\n        /* \"#utility.yul\":1020:1022   */\n      0x40\n        /* \"#utility.yul\":1009:1018   */\n      dup4\n        /* \"#utility.yul\":1005:1023   */\n      add\n        /* \"#utility.yul\":998:1032   */\n      mstore\n        /* \"#utility.yul\":676:1038   */\n      swap5\n      swap4\n      pop\n      pop\n      pop\n      pop\n      jump\t// out\n        /* \"#utility.yul\":1043:2176   */\n    tag_21:\n        /* \"#utility.yul\":1225:1229   */\n      0x00\n        /* \"#utility.yul\":1254:1256   */\n      0x20\n        /* \"#utility.yul\":1294:1296   */\n      dup1\n        /* \"#utility.yul\":1283:1292   */\n      dup4\n        /* \"#utility.yul\":1279:1297   */\n      add\n        /* \"#utility.yul\":1324:1326   */\n      dup2\n        /* \"#utility.yul\":1313:1322   */\n      dup5\n        /* \"#utility.yul\":1306:1327   */\n      mstore\n        /* \"#utility.yul\":1347:1353   */\n      dup1\n        /* \"#utility.yul\":1382:1388   */\n      dup6\n        /* \"#utility.yul\":1376:1389   */\n      mload\n        /* \"#utility.yul\":1413:1419   */\n      dup1\n        /* \"#utility.yul\":1405:1411   */\n      dup4\n        /* \"#utility.yul\":1398:1420   */\n      mstore\n        /* \"#utility.yul\":1439:1441   */\n      0x40\n        /* \"#utility.yul\":1429:1441   */\n      swap3\n      pop\n        /* \"#utility.yul\":1472:1474   */\n      dup3\n        /* \"#utility.yul\":1461:1470   */\n      dup7\n        /* \"#utility.yul\":1457:1475   */\n      add\n        /* \"#utility.yul\":1450:1475   */\n      swap2\n      pop\n        /* \"#utility.yul\":1534:1536   */\n      dup3\n        /* \"#utility.yul\":1524:1530   */\n      dup2\n        /* \"#utility.yul\":1521:1522   */\n      0x05\n        /* \"#utility.yul\":1517:1531   */\n      shl\n        /* \"#utility.yul\":1506:1515   */\n      dup8\n        /* \"#utility.yul\":1502:1532   */\n      add\n        /* \"#utility.yul\":1498:1537   */\n      add\n        /* \"#utility.yul\":1572:1574   */\n      dup5\n        /* \"#utility.yul\":1564:1570   */\n      dup9\n        /* \"#utility.yul\":1560:1575   */\n      add\n        /* \"#utility.yul\":1593:1594   */\n      0x00\n        /* \"#utility.yul\":1603:2147   */\n    tag_98:\n        /* \"#utility.yul\":1617:1623   */\n      dup4\n        /* \"#utility.yul\":1614:1615   */\n      dup2\n        /* \"#utility.yul\":1611:1624   */\n      lt\n        /* \"#utility.yul\":1603:2147   */\n      iszero\n      tag_100\n      jumpi\n        /* \"#utility.yul\":1710:1712   */\n      0x3f\n        /* \"#utility.yul\":1706:1713   */\n      not\n        /* \"#utility.yul\":1694:1703   */\n      dup10\n        /* \"#utility.yul\":1686:1692   */\n      dup5\n        /* \"#utility.yul\":1682:1704   */\n      sub\n        /* \"#utility.yul\":1678:1714   */\n      add\n        /* \"#utility.yul\":1673:1676   */\n      dup6\n        /* \"#utility.yul\":1666:1715   */\n      mstore\n        /* \"#utility.yul\":1744:1750   */\n      dup2\n        /* \"#utility.yul\":1738:1751   */\n      mload\n        /* \"#utility.yul\":1774:1778   */\n      0x60\n        /* \"#utility.yul\":1812:1814   */\n      dup2\n        /* \"#utility.yul\":1806:1815   */\n      mload\n        /* \"#utility.yul\":1798:1804   */\n      dup6\n        /* \"#utility.yul\":1791:1816   */\n      mstore\n        /* \"#utility.yul\":1863:1865   */\n      dup9\n        /* \"#utility.yul\":1859:1861   */\n      dup3\n        /* \"#utility.yul\":1855:1866   */\n      add\n        /* \"#utility.yul\":1849:1867   */\n      mload\n        /* \"#utility.yul\":1904:1906   */\n      dup2\n        /* \"#utility.yul\":1899:1901   */\n      dup11\n        /* \"#utility.yul\":1891:1897   */\n      dup8\n        /* \"#utility.yul\":1887:1902   */\n      add\n        /* \"#utility.yul\":1880:1907   */\n      mstore\n        /* \"#utility.yul\":1934:1982   */\n      tag_101\n        /* \"#utility.yul\":1978:1980   */\n      dup3\n        /* \"#utility.yul\":1970:1976   */\n      dup8\n        /* \"#utility.yul\":1966:1981   */\n      add\n        /* \"#utility.yul\":1952:1964   */\n      dup3\n        /* \"#utility.yul\":1934:1982   */\n      tag_85\n      jump\t// in\n    tag_101:\n        /* \"#utility.yul\":2025:2036   */\n      swap3\n      dup10\n      add\n        /* \"#utility.yul\":2019:2037   */\n      mload\n        /* \"#utility.yul\":2002:2017   */\n      swap6\n      dup10\n      add\n        /* \"#utility.yul\":1995:2038   */\n      swap6\n      swap1\n      swap6\n      mstore\n      pop\n        /* \"#utility.yul\":2125:2137   */\n      swap5\n      dup8\n      add\n      swap5\n        /* \"#utility.yul\":1920:1982   */\n      swap3\n      pop\n        /* \"#utility.yul\":2090:2105   */\n      swap1\n      dup7\n      add\n      swap1\n        /* \"#utility.yul\":1639:1640   */\n      0x01\n        /* \"#utility.yul\":1632:1641   */\n      add\n        /* \"#utility.yul\":1603:2147   */\n      jump(tag_98)\n    tag_100:\n      pop\n        /* \"#utility.yul\":2164:2170   */\n      swap1\n      swap9\n        /* \"#utility.yul\":1043:2176   */\n      swap8\n      pop\n      pop\n      pop\n      pop\n      pop\n      pop\n      pop\n      pop\n      jump\t// out\n        /* \"#utility.yul\":2181:2308   */\n    tag_86:\n        /* \"#utility.yul\":2242:2252   */\n      0x4e487b71\n        /* \"#utility.yul\":2237:2240   */\n      0xe0\n        /* \"#utility.yul\":2233:2253   */\n      shl\n        /* \"#utility.yul\":2230:2231   */\n      0x00\n        /* \"#utility.yul\":2223:2254   */\n      mstore\n        /* \"#utility.yul\":2273:2277   */\n      0x41\n        /* \"#utility.yul\":2270:2271   */\n      0x04\n        /* \"#utility.yul\":2263:2278   */\n      mstore\n        /* \"#utility.yul\":2297:2301   */\n      0x24\n        /* \"#utility.yul\":2294:2295   */\n      0x00\n        /* \"#utility.yul\":2287:2302   */\n      revert\n        /* \"#utility.yul\":2313:3371   */\n    tag_24:\n        /* \"#utility.yul\":2400:2406   */\n      0x00\n        /* \"#utility.yul\":2408:2414   */\n      dup1\n        /* \"#utility.yul\":2416:2422   */\n      0x00\n        /* \"#utility.yul\":2469:2471   */\n      0x60\n        /* \"#utility.yul\":2457:2466   */\n      dup5\n        /* \"#utility.yul\":2448:2455   */\n      dup7\n        /* \"#utility.yul\":2444:2467   */\n      sub\n        /* \"#utility.yul\":2440:2472   */\n      slt\n        /* \"#utility.yul\":2437:2489   */\n      iszero\n      tag_104\n      jumpi\n        /* \"#utility.yul\":2485:2486   */\n      0x00\n        /* \"#utility.yul\":2482:2483   */\n      dup1\n        /* \"#utility.yul\":2475:2487   */\n      revert\n        /* \"#utility.yul\":2437:2489   */\n    tag_104:\n        /* \"#utility.yul\":2521:2530   */\n      dup4\n        /* \"#utility.yul\":2508:2531   */\n      calldataload\n        /* \"#utility.yul\":2498:2531   */\n      swap3\n      pop\n        /* \"#utility.yul\":2582:2584   */\n      0x20\n        /* \"#utility.yul\":2571:2580   */\n      dup5\n        /* \"#utility.yul\":2567:2585   */\n      add\n        /* \"#utility.yul\":2554:2586   */\n      calldataload\n        /* \"#utility.yul\":2605:2623   */\n      0xffffffffffffffff\n        /* \"#utility.yul\":2646:2648   */\n      dup1\n        /* \"#utility.yul\":2638:2644   */\n      dup3\n        /* \"#utility.yul\":2635:2649   */\n      gt\n        /* \"#utility.yul\":2632:2666   */\n      iszero\n      tag_105\n      jumpi\n        /* \"#utility.yul\":2662:2663   */\n      0x00\n        /* \"#utility.yul\":2659:2660   */\n      dup1\n        /* \"#utility.yul\":2652:2664   */\n      revert\n        /* \"#utility.yul\":2632:2666   */\n    tag_105:\n        /* \"#utility.yul\":2700:2706   */\n      dup2\n        /* \"#utility.yul\":2689:2698   */\n      dup7\n        /* \"#utility.yul\":2685:2707   */\n      add\n        /* \"#utility.yul\":2675:2707   */\n      swap2\n      pop\n        /* \"#utility.yul\":2745:2752   */\n      dup7\n        /* \"#utility.yul\":2738:2742   */\n      0x1f\n        /* \"#utility.yul\":2734:2736   */\n      dup4\n        /* \"#utility.yul\":2730:2743   */\n      add\n        /* \"#utility.yul\":2726:2753   */\n      slt\n        /* \"#utility.yul\":2716:2771   */\n      tag_106\n      jumpi\n        /* \"#utility.yul\":2767:2768   */\n      0x00\n        /* \"#utility.yul\":2764:2765   */\n      dup1\n        /* \"#utility.yul\":2757:2769   */\n      revert\n        /* \"#utility.yul\":2716:2771   */\n    tag_106:\n        /* \"#utility.yul\":2803:2805   */\n      dup2\n        /* \"#utility.yul\":2790:2806   */\n      calldataload\n        /* \"#utility.yul\":2825:2827   */\n      dup2\n        /* \"#utility.yul\":2821:2823   */\n      dup2\n        /* \"#utility.yul\":2818:2828   */\n      gt\n        /* \"#utility.yul\":2815:2851   */\n      iszero\n      tag_108\n      jumpi\n        /* \"#utility.yul\":2831:2849   */\n      tag_108\n      tag_86\n      jump\t// in\n    tag_108:\n        /* \"#utility.yul\":2906:2908   */\n      0x40\n        /* \"#utility.yul\":2900:2909   */\n      mload\n        /* \"#utility.yul\":2874:2876   */\n      0x1f\n        /* \"#utility.yul\":2960:2973   */\n      dup3\n      add\n      not(0x1f)\n        /* \"#utility.yul\":2956:2978   */\n      swap1\n      dup2\n      and\n        /* \"#utility.yul\":2980:2982   */\n      0x3f\n        /* \"#utility.yul\":2952:2983   */\n      add\n        /* \"#utility.yul\":2948:2988   */\n      and\n        /* \"#utility.yul\":2936:2989   */\n      dup2\n      add\n      swap1\n        /* \"#utility.yul\":3004:3022   */\n      dup4\n      dup3\n      gt\n        /* \"#utility.yul\":3024:3046   */\n      dup2\n      dup4\n      lt\n        /* \"#utility.yul\":3001:3047   */\n      or\n        /* \"#utility.yul\":2998:3070   */\n      iszero\n      tag_110\n      jumpi\n        /* \"#utility.yul\":3050:3068   */\n      tag_110\n      tag_86\n      jump\t// in\n    tag_110:\n        /* \"#utility.yul\":3090:3100   */\n      dup2\n        /* \"#utility.yul\":3086:3088   */\n      0x40\n        /* \"#utility.yul\":3079:3101   */\n      mstore\n        /* \"#utility.yul\":3125:3127   */\n      dup3\n        /* \"#utility.yul\":3117:3123   */\n      dup2\n        /* \"#utility.yul\":3110:3128   */\n      mstore\n        /* \"#utility.yul\":3165:3172   */\n      dup10\n        /* \"#utility.yul\":3160:3162   */\n      0x20\n        /* \"#utility.yul\":3155:3157   */\n      dup5\n        /* \"#utility.yul\":3151:3153   */\n      dup8\n        /* \"#utility.yul\":3147:3158   */\n      add\n        /* \"#utility.yul\":3143:3163   */\n      add\n        /* \"#utility.yul\":3140:3173   */\n      gt\n        /* \"#utility.yul\":3137:3190   */\n      iszero\n      tag_111\n      jumpi\n        /* \"#utility.yul\":3186:3187   */\n      0x00\n        /* \"#utility.yul\":3183:3184   */\n      dup1\n        /* \"#utility.yul\":3176:3188   */\n      revert\n        /* \"#utility.yul\":3137:3190   */\n    tag_111:\n        /* \"#utility.yul\":3242:3244   */\n      dup3\n        /* \"#utility.yul\":3237:3239   */\n      0x20\n        /* \"#utility.yul\":3233:3235   */\n      dup7\n        /* \"#utility.yul\":3229:3240   */\n      add\n        /* \"#utility.yul\":3224:3226   */\n      0x20\n        /* \"#utility.yul\":3216:3222   */\n      dup4\n        /* \"#utility.yul\":3212:3227   */\n      add\n        /* \"#utility.yul\":3199:3245   */\n      calldatacopy\n        /* \"#utility.yul\":3287:3288   */\n      0x00\n        /* \"#utility.yul\":3282:3284   */\n      0x20\n        /* \"#utility.yul\":3277:3279   */\n      dup5\n        /* \"#utility.yul\":3269:3275   */\n      dup4\n        /* \"#utility.yul\":3265:3280   */\n      add\n        /* \"#utility.yul\":3261:3285   */\n      add\n        /* \"#utility.yul\":3254:3289   */\n      mstore\n        /* \"#utility.yul\":3308:3314   */\n      dup1\n        /* \"#utility.yul\":3298:3314   */\n      swap7\n      pop\n      pop\n      pop\n      pop\n      pop\n      pop\n        /* \"#utility.yul\":3361:3363   */\n      0x40\n        /* \"#utility.yul\":3350:3359   */\n      dup5\n        /* \"#utility.yul\":3346:3364   */\n      add\n        /* \"#utility.yul\":3333:3365   */\n      calldataload\n        /* \"#utility.yul\":3323:3365   */\n      swap1\n      pop\n        /* \"#utility.yul\":2313:3371   */\n      swap3\n      pop\n      swap3\n      pop\n      swap3\n      jump\t// out\n        /* \"#utility.yul\":3376:3503   */\n    tag_29:\n        /* \"#utility.yul\":3437:3447   */\n      0x4e487b71\n        /* \"#utility.yul\":3432:3435   */\n      0xe0\n        /* \"#utility.yul\":3428:3448   */\n      shl\n        /* \"#utility.yul\":3425:3426   */\n      0x00\n        /* \"#utility.yul\":3418:3449   */\n      mstore\n        /* \"#utility.yul\":3468:3472   */\n      0x32\n        /* \"#utility.yul\":3465:3466   */\n      0x04\n        /* \"#utility.yul\":3458:3473   */\n      mstore\n        /* \"#utility.yul\":3492:3496   */\n      0x24\n        /* \"#utility.yul\":3489:3490   */\n      0x00\n        /* \"#utility.yul\":3482:3497   */\n      revert\n        /* \"#utility.yul\":3508:3888   */\n    tag_35:\n        /* \"#utility.yul\":3587:3588   */\n      0x01\n        /* \"#utility.yul\":3583:3595   */\n      dup2\n      dup2\n      shr\n      swap1\n        /* \"#utility.yul\":3630:3642   */\n      dup3\n      and\n      dup1\n        /* \"#utility.yul\":3651:3712   */\n      tag_114\n      jumpi\n        /* \"#utility.yul\":3705:3709   */\n      0x7f\n        /* \"#utility.yul\":3697:3703   */\n      dup3\n        /* \"#utility.yul\":3693:3710   */\n      and\n        /* \"#utility.yul\":3683:3710   */\n      swap2\n      pop\n        /* \"#utility.yul\":3651:3712   */\n    tag_114:\n        /* \"#utility.yul\":3758:3760   */\n      0x20\n        /* \"#utility.yul\":3750:3756   */\n      dup3\n        /* \"#utility.yul\":3747:3761   */\n      lt\n        /* \"#utility.yul\":3727:3745   */\n      dup2\n        /* \"#utility.yul\":3724:3762   */\n      sub\n        /* \"#utility.yul\":3721:3882   */\n      tag_115\n      jumpi\n        /* \"#utility.yul\":3804:3814   */\n      0x4e487b71\n        /* \"#utility.yul\":3799:3802   */\n      0xe0\n        /* \"#utility.yul\":3795:3815   */\n      shl\n        /* \"#utility.yul\":3792:3793   */\n      0x00\n        /* \"#utility.yul\":3785:3816   */\n      mstore\n        /* \"#utility.yul\":3839:3843   */\n      0x22\n        /* \"#utility.yul\":3836:3837   */\n      0x04\n        /* \"#utility.yul\":3829:3844   */\n      mstore\n        /* \"#utility.yul\":3867:3871   */\n      0x24\n        /* \"#utility.yul\":3864:3865   */\n      0x00\n        /* \"#utility.yul\":3857:3872   */\n      revert\n        /* \"#utility.yul\":3721:3882   */\n    tag_115:\n      pop\n        /* \"#utility.yul\":3508:3888   */\n      swap2\n      swap1\n      pop\n      jump\t// out\n        /* \"#utility.yul\":3893:4125   */\n    tag_69:\n        /* \"#utility.yul\":3932:3935   */\n      0x00\n        /* \"#utility.yul\":3953:3970   */\n      0x01\n      dup3\n      add\n        /* \"#utility.yul\":3950:4090   */\n      tag_117\n      jumpi\n        /* \"#utility.yul\":4012:4022   */\n      0x4e487b71\n        /* \"#utility.yul\":4007:4010   */\n      0xe0\n        /* \"#utility.yul\":4003:4023   */\n      shl\n        /* \"#utility.yul\":4000:4001   */\n      0x00\n        /* \"#utility.yul\":3993:4024   */\n      mstore\n        /* \"#utility.yul\":4047:4051   */\n      0x11\n        /* \"#utility.yul\":4044:4045   */\n      0x04\n        /* \"#utility.yul\":4037:4052   */\n      mstore\n        /* \"#utility.yul\":4075:4079   */\n      0x24\n        /* \"#utility.yul\":4072:4073   */\n      0x00\n        /* \"#utility.yul\":4065:4080   */\n      revert\n        /* \"#utility.yul\":3950:4090   */\n    tag_117:\n      pop\n        /* \"#utility.yul\":4117:4118   */\n      0x01\n        /* \"#utility.yul\":4106:4119   */\n      add\n      swap1\n        /* \"#utility.yul\":3893:4125   */\n      jump\t// out\n\n    auxdata: 0xa26469706673582212200a6d69c5cb89fddfd33f7f5817ec1ffcd7a4967aa179cb837d7065347b12c96964736f6c634300080d0033\n}\n",
				"bytecode": {
					"linkReferences": {},
					"object": "608060405234801561001057600080fd5b506107af806100206000396000f3fe608060405234801561001057600080fd5b506004361061004c5760003560e01c80630178fe3f146100515780634a96d1701461007c5780636b85da7c1461008f578063cc295b66146100af575b600080fd5b61006461005f366004610518565b6100c4565b6040516100739392919061057e565b60405180910390f35b61006461008a366004610518565b6101cd565b6100a261009d366004610518565b61028b565b60405161007391906105a7565b6100c26100bd36600461063e565b6103dd565b005b6000606060008084815481106100dc576100dc610702565b90600052602060002090600302016000015492506000848154811061010357610103610702565b9060005260206000209060030201600101805461011f90610718565b80601f016020809104026020016040519081016040528092919081815260200182805461014b90610718565b80156101985780601f1061016d57610100808354040283529160200191610198565b820191906000526020600020905b81548152906001019060200180831161017b57829003601f168201915b50505050509150600084815481106101b2576101b2610702565b90600052602060002090600302016002015490509193909250565b600081815481106101dd57600080fd5b6000918252602090912060039091020180546001820180549193509061020290610718565b80601f016020809104026020016040519081016040528092919081815260200182805461022e90610718565b801561027b5780601f106102505761010080835404028352916020019161027b565b820191906000526020600020905b81548152906001019060200180831161025e57829003601f168201915b5050505050908060020154905083565b60606000805b6000548110156103d65783600082815481106102af576102af610702565b906000526020600020906003020160000154036103c457600081815481106102d9576102d9610702565b90600052602060002090600302016040518060600160405290816000820154815260200160018201805461030c90610718565b80601f016020809104026020016040519081016040528092919081815260200182805461033890610718565b80156103855780601f1061035a57610100808354040283529160200191610385565b820191906000526020600020905b81548152906001019060200180831161036857829003601f168201915b505050505081526020016002820154815250508383815181106103aa576103aa610702565b602002602001018190525081806103c090610752565b9250505b806103ce81610752565b915050610291565b5050919050565b60408051606081018252848152602080820185815292820184905260008054600181018255908052825160039091027f290decd9548b62a8d60345a988386fc84ba6bc95484008f6362f93160ef3e5638101918255935180519394919361046d937f290decd9548b62a8d60345a988386fc84ba6bc95484008f6362f93160ef3e56490930192919091019061047f565b50604082015181600201555050505050565b82805461048b90610718565b90600052602060002090601f0160209004810192826104ad57600085556104f3565b82601f106104c657805160ff19168380011785556104f3565b828001600101855582156104f3579182015b828111156104f35782518255916020019190600101906104d8565b506104ff929150610503565b5090565b5b808211156104ff5760008155600101610504565b60006020828403121561052a57600080fd5b5035919050565b6000815180845260005b818110156105575760208185018101518683018201520161053b565b81811115610569576000602083870101525b50601f01601f19169290920160200192915050565b8381526060602082015260006105976060830185610531565b9050826040830152949350505050565b60006020808301818452808551808352604092508286019150828160051b87010184880160005b8381101561061a57603f19898403018552815160608151855288820151818a8701526105fc82870182610531565b928901519589019590955250948701949250908601906001016105ce565b509098975050505050505050565b634e487b7160e01b600052604160045260246000fd5b60008060006060848603121561065357600080fd5b83359250602084013567ffffffffffffffff8082111561067257600080fd5b818601915086601f83011261068657600080fd5b81358181111561069857610698610628565b604051601f8201601f19908116603f011681019083821181831017156106c0576106c0610628565b816040528281528960208487010111156106d957600080fd5b826020860160208301376000602084830101528096505050505050604084013590509250925092565b634e487b7160e01b600052603260045260246000fd5b600181811c9082168061072c57607f821691505b60208210810361074c57634e487b7160e01b600052602260045260246000fd5b50919050565b60006001820161077257634e487b7160e01b600052601160045260246000fd5b506001019056fea26469706673582212200a6d69c5cb89fddfd33f7f5817ec1ffcd7a4967aa179cb837d7065347b12c96964736f6c634300080d0033",
					"opcodes": "PUSH1 0x80 PUSH1 0x40 MSTORE CALLVALUE DUP1 ISZERO PUSH2 0x10 JUMPI PUSH1 0x0 DUP1 REVERT JUMPDEST POP PUSH2 0x7AF DUP1 PUSH2 0x20 PUSH1 0x0 CODECOPY PUSH1 0x0 RETURN INVALID PUSH1 0x80 PUSH1 0x40 MSTORE CALLVALUE DUP1 ISZERO PUSH2 0x10 JUMPI PUSH1 0x0 DUP1 REVERT JUMPDEST POP PUSH1 0x4 CALLDATASIZE LT PUSH2 0x4C JUMPI PUSH1 0x0 CALLDATALOAD PUSH1 0xE0 SHR DUP1 PUSH4 0x178FE3F EQ PUSH2 0x51 JUMPI DUP1 PUSH4 0x4A96D170 EQ PUSH2 0x7C JUMPI DUP1 PUSH4 0x6B85DA7C EQ PUSH2 0x8F JUMPI DUP1 PUSH4 0xCC295B66 EQ PUSH2 0xAF JUMPI JUMPDEST PUSH1 0x0 DUP1 REVERT JUMPDEST PUSH2 0x64 PUSH2 0x5F CALLDATASIZE PUSH1 0x4 PUSH2 0x518 JUMP JUMPDEST PUSH2 0xC4 JUMP JUMPDEST PUSH1 0x40 MLOAD PUSH2 0x73 SWAP4 SWAP3 SWAP2 SWAP1 PUSH2 0x57E JUMP JUMPDEST PUSH1 0x40 MLOAD DUP1 SWAP2 SUB SWAP1 RETURN JUMPDEST PUSH2 0x64 PUSH2 0x8A CALLDATASIZE PUSH1 0x4 PUSH2 0x518 JUMP JUMPDEST PUSH2 0x1CD JUMP JUMPDEST PUSH2 0xA2 PUSH2 0x9D CALLDATASIZE PUSH1 0x4 PUSH2 0x518 JUMP JUMPDEST PUSH2 0x28B JUMP JUMPDEST PUSH1 0x40 MLOAD PUSH2 0x73 SWAP2 SWAP1 PUSH2 0x5A7 JUMP JUMPDEST PUSH2 0xC2 PUSH2 0xBD CALLDATASIZE PUSH1 0x4 PUSH2 0x63E JUMP JUMPDEST PUSH2 0x3DD JUMP JUMPDEST STOP JUMPDEST PUSH1 0x0 PUSH1 0x60 PUSH1 0x0 DUP1 DUP5 DUP2 SLOAD DUP2 LT PUSH2 0xDC JUMPI PUSH2 0xDC PUSH2 0x702 JUMP JUMPDEST SWAP1 PUSH1 0x0 MSTORE PUSH1 0x20 PUSH1 0x0 KECCAK256 SWAP1 PUSH1 0x3 MUL ADD PUSH1 0x0 ADD SLOAD SWAP3 POP PUSH1 0x0 DUP5 DUP2 SLOAD DUP2 LT PUSH2 0x103 JUMPI PUSH2 0x103 PUSH2 0x702 JUMP JUMPDEST SWAP1 PUSH1 0x0 MSTORE PUSH1 0x20 PUSH1 0x0 KECCAK256 SWAP1 PUSH1 0x3 MUL ADD PUSH1 0x1 ADD DUP1 SLOAD PUSH2 0x11F SWAP1 PUSH2 0x718 JUMP JUMPDEST DUP1 PUSH1 0x1F ADD PUSH1 0x20 DUP1 SWAP2 DIV MUL PUSH1 0x20 ADD PUSH1 0x40 MLOAD SWAP1 DUP2 ADD PUSH1 0x40 MSTORE DUP1 SWAP3 SWAP2 SWAP1 DUP2 DUP2 MSTORE PUSH1 0x20 ADD DUP3 DUP1 SLOAD PUSH2 0x14B SWAP1 PUSH2 0x718 JUMP JUMPDEST DUP1 ISZERO PUSH2 0x198 JUMPI DUP1 PUSH1 0x1F LT PUSH2 0x16D JUMPI PUSH2 0x100 DUP1 DUP4 SLOAD DIV MUL DUP4 MSTORE SWAP2 PUSH1 0x20 ADD SWAP2 PUSH2 0x198 JUMP JUMPDEST DUP3 ADD SWAP2 SWAP1 PUSH1 0x0 MSTORE PUSH1 0x20 PUSH1 0x0 KECCAK256 SWAP1 JUMPDEST DUP2 SLOAD DUP2 MSTORE SWAP1 PUSH1 0x1 ADD SWAP1 PUSH1 0x20 ADD DUP1 DUP4 GT PUSH2 0x17B JUMPI DUP3 SWAP1 SUB PUSH1 0x1F AND DUP3 ADD SWAP2 JUMPDEST POP POP POP POP POP SWAP2 POP PUSH1 0x0 DUP5 DUP2 SLOAD DUP2 LT PUSH2 0x1B2 JUMPI PUSH2 0x1B2 PUSH2 0x702 JUMP JUMPDEST SWAP1 PUSH1 0x0 MSTORE PUSH1 0x20 PUSH1 0x0 KECCAK256 SWAP1 PUSH1 0x3 MUL ADD PUSH1 0x2 ADD SLOAD SWAP1 POP SWAP2 SWAP4 SWAP1 SWAP3 POP JUMP JUMPDEST PUSH1 0x0 DUP2 DUP2 SLOAD DUP2 LT PUSH2 0x1DD JUMPI PUSH1 0x0 DUP1 REVERT JUMPDEST PUSH1 0x0 SWAP2 DUP3 MSTORE PUSH1 0x20 SWAP1 SWAP2 KECCAK256 PUSH1 0x3 SWAP1 SWAP2 MUL ADD DUP1 SLOAD PUSH1 0x1 DUP3 ADD DUP1 SLOAD SWAP2 SWAP4 POP SWAP1 PUSH2 0x202 SWAP1 PUSH2 0x718 JUMP JUMPDEST DUP1 PUSH1 0x1F ADD PUSH1 0x20 DUP1 SWAP2 DIV MUL PUSH1 0x20 ADD PUSH1 0x40 MLOAD SWAP1 DUP2 ADD PUSH1 0x40 MSTORE DUP1 SWAP3 SWAP2 SWAP1 DUP2 DUP2 MSTORE PUSH1 0x20 ADD DUP3 DUP1 SLOAD PUSH2 0x22E SWAP1 PUSH2 0x718 JUMP JUMPDEST DUP1 ISZERO PUSH2 0x27B JUMPI DUP1 PUSH1 0x1F LT PUSH2 0x250 JUMPI PUSH2 0x100 DUP1 DUP4 SLOAD DIV MUL DUP4 MSTORE SWAP2 PUSH1 0x20 ADD SWAP2 PUSH2 0x27B JUMP JUMPDEST DUP3 ADD SWAP2 SWAP1 PUSH1 0x0 MSTORE PUSH1 0x20 PUSH1 0x0 KECCAK256 SWAP1 JUMPDEST DUP2 SLOAD DUP2 MSTORE SWAP1 PUSH1 0x1 ADD SWAP1 PUSH1 0x20 ADD DUP1 DUP4 GT PUSH2 0x25E JUMPI DUP3 SWAP1 SUB PUSH1 0x1F AND DUP3 ADD SWAP2 JUMPDEST POP POP POP POP POP SWAP1 DUP1 PUSH1 0x2 ADD SLOAD SWAP1 POP DUP4 JUMP JUMPDEST PUSH1 0x60 PUSH1 0x0 DUP1 JUMPDEST PUSH1 0x0 SLOAD DUP2 LT ISZERO PUSH2 0x3D6 JUMPI DUP4 PUSH1 0x0 DUP3 DUP2 SLOAD DUP2 LT PUSH2 0x2AF JUMPI PUSH2 0x2AF PUSH2 0x702 JUMP JUMPDEST SWAP1 PUSH1 0x0 MSTORE PUSH1 0x20 PUSH1 0x0 KECCAK256 SWAP1 PUSH1 0x3 MUL ADD PUSH1 0x0 ADD SLOAD SUB PUSH2 0x3C4 JUMPI PUSH1 0x0 DUP2 DUP2 SLOAD DUP2 LT PUSH2 0x2D9 JUMPI PUSH2 0x2D9 PUSH2 0x702 JUMP JUMPDEST SWAP1 PUSH1 0x0 MSTORE PUSH1 0x20 PUSH1 0x0 KECCAK256 SWAP1 PUSH1 0x3 MUL ADD PUSH1 0x40 MLOAD DUP1 PUSH1 0x60 ADD PUSH1 0x40 MSTORE SWAP1 DUP2 PUSH1 0x0 DUP3 ADD SLOAD DUP2 MSTORE PUSH1 0x20 ADD PUSH1 0x1 DUP3 ADD DUP1 SLOAD PUSH2 0x30C SWAP1 PUSH2 0x718 JUMP JUMPDEST DUP1 PUSH1 0x1F ADD PUSH1 0x20 DUP1 SWAP2 DIV MUL PUSH1 0x20 ADD PUSH1 0x40 MLOAD SWAP1 DUP2 ADD PUSH1 0x40 MSTORE DUP1 SWAP3 SWAP2 SWAP1 DUP2 DUP2 MSTORE PUSH1 0x20 ADD DUP3 DUP1 SLOAD PUSH2 0x338 SWAP1 PUSH2 0x718 JUMP JUMPDEST DUP1 ISZERO PUSH2 0x385 JUMPI DUP1 PUSH1 0x1F LT PUSH2 0x35A JUMPI PUSH2 0x100 DUP1 DUP4 SLOAD DIV MUL DUP4 MSTORE SWAP2 PUSH1 0x20 ADD SWAP2 PUSH2 0x385 JUMP JUMPDEST DUP3 ADD SWAP2 SWAP1 PUSH1 0x0 MSTORE PUSH1 0x20 PUSH1 0x0 KECCAK256 SWAP1 JUMPDEST DUP2 SLOAD DUP2 MSTORE SWAP1 PUSH1 0x1 ADD SWAP1 PUSH1 0x20 ADD DUP1 DUP4 GT PUSH2 0x368 JUMPI DUP3 SWAP1 SUB PUSH1 0x1F AND DUP3 ADD SWAP2 JUMPDEST POP POP POP POP POP DUP2 MSTORE PUSH1 0x20 ADD PUSH1 0x2 DUP3 ADD SLOAD DUP2 MSTORE POP POP DUP4 DUP4 DUP2 MLOAD DUP2 LT PUSH2 0x3AA JUMPI PUSH2 0x3AA PUSH2 0x702 JUMP JUMPDEST PUSH1 0x20 MUL PUSH1 0x20 ADD ADD DUP2 SWAP1 MSTORE POP DUP2 DUP1 PUSH2 0x3C0 SWAP1 PUSH2 0x752 JUMP JUMPDEST SWAP3 POP POP JUMPDEST DUP1 PUSH2 0x3CE DUP2 PUSH2 0x752 JUMP JUMPDEST SWAP2 POP POP PUSH2 0x291 JUMP JUMPDEST POP POP SWAP2 SWAP1 POP JUMP JUMPDEST PUSH1 0x40 DUP1 MLOAD PUSH1 0x60 DUP2 ADD DUP3 MSTORE DUP5 DUP2 MSTORE PUSH1 0x20 DUP1 DUP3 ADD DUP6 DUP2 MSTORE SWAP3 DUP3 ADD DUP5 SWAP1 MSTORE PUSH1 0x0 DUP1 SLOAD PUSH1 0x1 DUP2 ADD DUP3 SSTORE SWAP1 DUP1 MSTORE DUP3 MLOAD PUSH1 0x3 SWAP1 SWAP2 MUL PUSH32 0x290DECD9548B62A8D60345A988386FC84BA6BC95484008F6362F93160EF3E563 DUP2 ADD SWAP2 DUP3 SSTORE SWAP4 MLOAD DUP1 MLOAD SWAP4 SWAP5 SWAP2 SWAP4 PUSH2 0x46D SWAP4 PUSH32 0x290DECD9548B62A8D60345A988386FC84BA6BC95484008F6362F93160EF3E564 SWAP1 SWAP4 ADD SWAP3 SWAP2 SWAP1 SWAP2 ADD SWAP1 PUSH2 0x47F JUMP JUMPDEST POP PUSH1 0x40 DUP3 ADD MLOAD DUP2 PUSH1 0x2 ADD SSTORE POP POP POP POP POP JUMP JUMPDEST DUP3 DUP1 SLOAD PUSH2 0x48B SWAP1 PUSH2 0x718 JUMP JUMPDEST SWAP1 PUSH1 0x0 MSTORE PUSH1 0x20 PUSH1 0x0 KECCAK256 SWAP1 PUSH1 0x1F ADD PUSH1 0x20 SWAP1 DIV DUP2 ADD SWAP3 DUP3 PUSH2 0x4AD JUMPI PUSH1 0x0 DUP6 SSTORE PUSH2 0x4F3 JUMP JUMPDEST DUP3 PUSH1 0x1F LT PUSH2 0x4C6 JUMPI DUP1 MLOAD PUSH1 0xFF NOT AND DUP4 DUP1 ADD OR DUP6 SSTORE PUSH2 0x4F3 JUMP JUMPDEST DUP3 DUP1 ADD PUSH1 0x1 ADD DUP6 SSTORE DUP3 ISZERO PUSH2 0x4F3 JUMPI SWAP2 DUP3 ADD JUMPDEST DUP3 DUP2 GT ISZERO PUSH2 0x4F3 JUMPI DUP3 MLOAD DUP3 SSTORE SWAP2 PUSH1 0x20 ADD SWAP2 SWAP1 PUSH1 0x1 ADD SWAP1 PUSH2 0x4D8 JUMP JUMPDEST POP PUSH2 0x4FF SWAP3 SWAP2 POP PUSH2 0x503 JUMP JUMPDEST POP SWAP1 JUMP JUMPDEST JUMPDEST DUP1 DUP3 GT ISZERO PUSH2 0x4FF JUMPI PUSH1 0x0 DUP2 SSTORE PUSH1 0x1 ADD PUSH2 0x504 JUMP JUMPDEST PUSH1 0x0 PUSH1 0x20 DUP3 DUP5 SUB SLT ISZERO PUSH2 0x52A JUMPI PUSH1 0x0 DUP1 REVERT JUMPDEST POP CALLDATALOAD SWAP2 SWAP1 POP JUMP JUMPDEST PUSH1 0x0 DUP2 MLOAD DUP1 DUP5 MSTORE PUSH1 0x0 JUMPDEST DUP2 DUP2 LT ISZERO PUSH2 0x557 JUMPI PUSH1 0x20 DUP2 DUP6 ADD DUP2 ADD MLOAD DUP7 DUP4 ADD DUP3 ADD MSTORE ADD PUSH2 0x53B JUMP JUMPDEST DUP2 DUP2 GT ISZERO PUSH2 0x569 JUMPI PUSH1 0x0 PUSH1 0x20 DUP4 DUP8 ADD ADD MSTORE JUMPDEST POP PUSH1 0x1F ADD PUSH1 0x1F NOT AND SWAP3 SWAP1 SWAP3 ADD PUSH1 0x20 ADD SWAP3 SWAP2 POP POP JUMP JUMPDEST DUP4 DUP2 MSTORE PUSH1 0x60 PUSH1 0x20 DUP3 ADD MSTORE PUSH1 0x0 PUSH2 0x597 PUSH1 0x60 DUP4 ADD DUP6 PUSH2 0x531 JUMP JUMPDEST SWAP1 POP DUP3 PUSH1 0x40 DUP4 ADD MSTORE SWAP5 SWAP4 POP POP POP POP JUMP JUMPDEST PUSH1 0x0 PUSH1 0x20 DUP1 DUP4 ADD DUP2 DUP5 MSTORE DUP1 DUP6 MLOAD DUP1 DUP4 MSTORE PUSH1 0x40 SWAP3 POP DUP3 DUP7 ADD SWAP2 POP DUP3 DUP2 PUSH1 0x5 SHL DUP8 ADD ADD DUP5 DUP9 ADD PUSH1 0x0 JUMPDEST DUP4 DUP2 LT ISZERO PUSH2 0x61A JUMPI PUSH1 0x3F NOT DUP10 DUP5 SUB ADD DUP6 MSTORE DUP2 MLOAD PUSH1 0x60 DUP2 MLOAD DUP6 MSTORE DUP9 DUP3 ADD MLOAD DUP2 DUP11 DUP8 ADD MSTORE PUSH2 0x5FC DUP3 DUP8 ADD DUP3 PUSH2 0x531 JUMP JUMPDEST SWAP3 DUP10 ADD MLOAD SWAP6 DUP10 ADD SWAP6 SWAP1 SWAP6 MSTORE POP SWAP5 DUP8 ADD SWAP5 SWAP3 POP SWAP1 DUP7 ADD SWAP1 PUSH1 0x1 ADD PUSH2 0x5CE JUMP JUMPDEST POP SWAP1 SWAP9 SWAP8 POP POP POP POP POP POP POP POP JUMP JUMPDEST PUSH4 0x4E487B71 PUSH1 0xE0 SHL PUSH1 0x0 MSTORE PUSH1 0x41 PUSH1 0x4 MSTORE PUSH1 0x24 PUSH1 0x0 REVERT JUMPDEST PUSH1 0x0 DUP1 PUSH1 0x0 PUSH1 0x60 DUP5 DUP7 SUB SLT ISZERO PUSH2 0x653 JUMPI PUSH1 0x0 DUP1 REVERT JUMPDEST DUP4 CALLDATALOAD SWAP3 POP PUSH1 0x20 DUP5 ADD CALLDATALOAD PUSH8 0xFFFFFFFFFFFFFFFF DUP1 DUP3 GT ISZERO PUSH2 0x672 JUMPI PUSH1 0x0 DUP1 REVERT JUMPDEST DUP2 DUP7 ADD SWAP2 POP DUP7 PUSH1 0x1F DUP4 ADD SLT PUSH2 0x686 JUMPI PUSH1 0x0 DUP1 REVERT JUMPDEST DUP2 CALLDATALOAD DUP2 DUP2 GT ISZERO PUSH2 0x698 JUMPI PUSH2 0x698 PUSH2 0x628 JUMP JUMPDEST PUSH1 0x40 MLOAD PUSH1 0x1F DUP3 ADD PUSH1 0x1F NOT SWAP1 DUP2 AND PUSH1 0x3F ADD AND DUP2 ADD SWAP1 DUP4 DUP3 GT DUP2 DUP4 LT OR ISZERO PUSH2 0x6C0 JUMPI PUSH2 0x6C0 PUSH2 0x628 JUMP JUMPDEST DUP2 PUSH1 0x40 MSTORE DUP3 DUP2 MSTORE DUP10 PUSH1 0x20 DUP5 DUP8 ADD ADD GT ISZERO PUSH2 0x6D9 JUMPI PUSH1 0x0 DUP1 REVERT JUMPDEST DUP3 PUSH1 0x20 DUP7 ADD PUSH1 0x20 DUP4 ADD CALLDATACOPY PUSH1 0x0 PUSH1 0x20 DUP5 DUP4 ADD ADD MSTORE DUP1 SWAP7 POP POP POP POP POP POP PUSH1 0x40 DUP5 ADD CALLDATALOAD SWAP1 POP SWAP3 POP SWAP3 POP SWAP3 JUMP JUMPDEST PUSH4 0x4E487B71 PUSH1 0xE0 SHL PUSH1 0x0 MSTORE PUSH1 0x32 PUSH1 0x4 MSTORE PUSH1 0x24 PUSH1 0x0 REVERT JUMPDEST PUSH1 0x1 DUP2 DUP2 SHR SWAP1 DUP3 AND DUP1 PUSH2 0x72C JUMPI PUSH1 0x7F DUP3 AND SWAP2 POP JUMPDEST PUSH1 0x20 DUP3 LT DUP2 SUB PUSH2 0x74C JUMPI PUSH4 0x4E487B71 PUSH1 0xE0 SHL PUSH1 0x0 MSTORE PUSH1 0x22 PUSH1 0x4 MSTORE PUSH1 0x24 PUSH1 0x0 REVERT JUMPDEST POP SWAP2 SWAP1 POP JUMP JUMPDEST PUSH1 0x0 PUSH1 0x1 DUP3 ADD PUSH2 0x772 JUMPI PUSH4 0x4E487B71 PUSH1 0xE0 SHL PUSH1 0x0 MSTORE PUSH1 0x11 PUSH1 0x4 MSTORE PUSH1 0x24 PUSH1 0x0 REVERT JUMPDEST POP PUSH1 0x1 ADD SWAP1 JUMP INVALID LOG2 PUSH5 0x6970667358 0x22 SLT KECCAK256 EXP PUSH14 0x69C5CB89FDDFD33F7F5817EC1FFC 0xD7 LOG4 SWAP7 PUSH27 0xA179CB837D7065347B12C96964736F6C634300080D003300000000 "
				},
				"gasEstimates": {
					"creation": {
						"codeDepositCost": "393400",
						"executionCost": "430",
						"totalCost": "393830"
					},
					"external": {
						"addData(uint256,string,uint256)": "infinite",
						"dataSet(uint256)": "infinite",
						"getAllDataBySensor(uint256)": "infinite",
						"getData(uint256)": "infinite"
					}
				},
				"methodIdentifiers": {
					"addData(uint256,string,uint256)": "cc295b66",
					"dataSet(uint256)": "4a96d170",
					"getAllDataBySensor(uint256)": "6b85da7c",
					"getData(uint256)": "0178fe3f"
				}
			},
			"userdoc": {
				"kind": "user",
				"methods": {},
				"version": 1
			}
		}
	}
}