{
	"data": {
		"bytecode": {
			"linkReferences": {},
			"object": "608060405234801561001057600080fd5b506106d9806100206000396000f3fe60806040526004361061003f5760003560e01c80630178fe3f146100445780632c99cd1a146100815780634a96d1701461009d578063bdd1805d146100dc575b600080fd5b34801561005057600080fd5b5061006b6004803603810190610066919061034a565b610119565b60405161007891906103e1565b60405180910390f35b61009b60048036038101906100969190610428565b610173565b005b3480156100a957600080fd5b506100c460048036038101906100bf919061034a565b6101e3565b6040516100d393929190610486565b60405180910390f35b3480156100e857600080fd5b5061010360048036038101906100fe91906104bd565b61021d565b60405161011091906105db565b60405180910390f35b6101216102ee565b60008281548110610135576101346105fd565b5b906000526020600020906003020160405180606001604052908160008201548152602001600182015481526020016002820154815250509050919050565b6000429050600060405180606001604052808581526020018381526020018481525090806001815401808255809150506001900390600052602060002090600302016000909190919091506000820151816000015560208201518160010155604082015181600201555050505050565b600081815481106101f357600080fd5b90600052602060002090600302016000915090508060000154908060010154908060020154905083565b60606000805b6000805490508110156102e7578360008281548110610245576102446105fd565b5b906000526020600020906003020160000154036102d457600081815481106102705761026f6105fd565b5b906000526020600020906003020160405180606001604052908160008201548152602001600182015481526020016002820154815250508383815181106102ba576102b96105fd565b5b602002602001018190525081806102d09061065b565b9250505b80806102df9061065b565b915050610223565b5050919050565b60405180606001604052806000815260200160008152602001600081525090565b600080fd5b6000819050919050565b61032781610314565b811461033257600080fd5b50565b6000813590506103448161031e565b92915050565b6000602082840312156103605761035f61030f565b5b600061036e84828501610335565b91505092915050565b6000819050919050565b61038a81610377565b82525050565b61039981610314565b82525050565b6060820160008201516103b56000850182610381565b5060208201516103c86020850182610390565b5060408201516103db6040850182610381565b50505050565b60006060820190506103f6600083018461039f565b92915050565b61040581610377565b811461041057600080fd5b50565b600081359050610422816103fc565b92915050565b6000806040838503121561043f5761043e61030f565b5b600061044d85828601610413565b925050602061045e85828601610413565b9150509250929050565b61047181610377565b82525050565b61048081610314565b82525050565b600060608201905061049b6000830186610468565b6104a86020830185610477565b6104b56040830184610468565b949350505050565b6000602082840312156104d3576104d261030f565b5b60006104e184828501610413565b91505092915050565b600081519050919050565b600082825260208201905092915050565b6000819050602082019050919050565b60608201600082015161052c6000850182610381565b50602082015161053f6020850182610390565b5060408201516105526040850182610381565b50505050565b60006105648383610516565b60608301905092915050565b6000602082019050919050565b6000610588826104ea565b61059281856104f5565b935061059d83610506565b8060005b838110156105ce5781516105b58882610558565b97506105c083610570565b9250506001810190506105a1565b5085935050505092915050565b600060208201905081810360008301526105f5818461057d565b905092915050565b7f4e487b7100000000000000000000000000000000000000000000000000000000600052603260045260246000fd5b7f4e487b7100000000000000000000000000000000000000000000000000000000600052601160045260246000fd5b600061066682610314565b91507fffffffffffffffffffffffffffffffffffffffffffffffffffffffffffffffff82036106985761069761062c565b5b60018201905091905056fea2646970667358221220908810e99ef3211eaee41fa88325bc9df17310b21b8b671bbadd68d3a172edaf64736f6c634300080d0033",
			"opcodes": "PUSH1 0x80 PUSH1 0x40 MSTORE CALLVALUE DUP1 ISZERO PUSH2 0x10 JUMPI PUSH1 0x0 DUP1 REVERT JUMPDEST POP PUSH2 0x6D9 DUP1 PUSH2 0x20 PUSH1 0x0 CODECOPY PUSH1 0x0 RETURN INVALID PUSH1 0x80 PUSH1 0x40 MSTORE PUSH1 0x4 CALLDATASIZE LT PUSH2 0x3F JUMPI PUSH1 0x0 CALLDATALOAD PUSH1 0xE0 SHR DUP1 PUSH4 0x178FE3F EQ PUSH2 0x44 JUMPI DUP1 PUSH4 0x2C99CD1A EQ PUSH2 0x81 JUMPI DUP1 PUSH4 0x4A96D170 EQ PUSH2 0x9D JUMPI DUP1 PUSH4 0xBDD1805D EQ PUSH2 0xDC JUMPI JUMPDEST PUSH1 0x0 DUP1 REVERT JUMPDEST CALLVALUE DUP1 ISZERO PUSH2 0x50 JUMPI PUSH1 0x0 DUP1 REVERT JUMPDEST POP PUSH2 0x6B PUSH1 0x4 DUP1 CALLDATASIZE SUB DUP2 ADD SWAP1 PUSH2 0x66 SWAP2 SWAP1 PUSH2 0x34A JUMP JUMPDEST PUSH2 0x119 JUMP JUMPDEST PUSH1 0x40 MLOAD PUSH2 0x78 SWAP2 SWAP1 PUSH2 0x3E1 JUMP JUMPDEST PUSH1 0x40 MLOAD DUP1 SWAP2 SUB SWAP1 RETURN JUMPDEST PUSH2 0x9B PUSH1 0x4 DUP1 CALLDATASIZE SUB DUP2 ADD SWAP1 PUSH2 0x96 SWAP2 SWAP1 PUSH2 0x428 JUMP JUMPDEST PUSH2 0x173 JUMP JUMPDEST STOP JUMPDEST CALLVALUE DUP1 ISZERO PUSH2 0xA9 JUMPI PUSH1 0x0 DUP1 REVERT JUMPDEST POP PUSH2 0xC4 PUSH1 0x4 DUP1 CALLDATASIZE SUB DUP2 ADD SWAP1 PUSH2 0xBF SWAP2 SWAP1 PUSH2 0x34A JUMP JUMPDEST PUSH2 0x1E3 JUMP JUMPDEST PUSH1 0x40 MLOAD PUSH2 0xD3 SWAP4 SWAP3 SWAP2 SWAP1 PUSH2 0x486 JUMP JUMPDEST PUSH1 0x40 MLOAD DUP1 SWAP2 SUB SWAP1 RETURN JUMPDEST CALLVALUE DUP1 ISZERO PUSH2 0xE8 JUMPI PUSH1 0x0 DUP1 REVERT JUMPDEST POP PUSH2 0x103 PUSH1 0x4 DUP1 CALLDATASIZE SUB DUP2 ADD SWAP1 PUSH2 0xFE SWAP2 SWAP1 PUSH2 0x4BD JUMP JUMPDEST PUSH2 0x21D JUMP JUMPDEST PUSH1 0x40 MLOAD PUSH2 0x110 SWAP2 SWAP1 PUSH2 0x5DB JUMP JUMPDEST PUSH1 0x40 MLOAD DUP1 SWAP2 SUB SWAP1 RETURN JUMPDEST PUSH2 0x121 PUSH2 0x2EE JUMP JUMPDEST PUSH1 0x0 DUP3 DUP2 SLOAD DUP2 LT PUSH2 0x135 JUMPI PUSH2 0x134 PUSH2 0x5FD JUMP JUMPDEST JUMPDEST SWAP1 PUSH1 0x0 MSTORE PUSH1 0x20 PUSH1 0x0 KECCAK256 SWAP1 PUSH1 0x3 MUL ADD PUSH1 0x40 MLOAD DUP1 PUSH1 0x60 ADD PUSH1 0x40 MSTORE SWAP1 DUP2 PUSH1 0x0 DUP3 ADD SLOAD DUP2 MSTORE PUSH1 0x20 ADD PUSH1 0x1 DUP3 ADD SLOAD DUP2 MSTORE PUSH1 0x20 ADD PUSH1 0x2 DUP3 ADD SLOAD DUP2 MSTORE POP POP SWAP1 POP SWAP2 SWAP1 POP JUMP JUMPDEST PUSH1 0x0 TIMESTAMP SWAP1 POP PUSH1 0x0 PUSH1 0x40 MLOAD DUP1 PUSH1 0x60 ADD PUSH1 0x40 MSTORE DUP1 DUP6 DUP2 MSTORE PUSH1 0x20 ADD DUP4 DUP2 MSTORE PUSH1 0x20 ADD DUP5 DUP2 MSTORE POP SWAP1 DUP1 PUSH1 0x1 DUP2 SLOAD ADD DUP1 DUP3 SSTORE DUP1 SWAP2 POP POP PUSH1 0x1 SWAP1 SUB SWAP1 PUSH1 0x0 MSTORE PUSH1 0x20 PUSH1 0x0 KECCAK256 SWAP1 PUSH1 0x3 MUL ADD PUSH1 0x0 SWAP1 SWAP2 SWAP1 SWAP2 SWAP1 SWAP2 POP PUSH1 0x0 DUP3 ADD MLOAD DUP2 PUSH1 0x0 ADD SSTORE PUSH1 0x20 DUP3 ADD MLOAD DUP2 PUSH1 0x1 ADD SSTORE PUSH1 0x40 DUP3 ADD MLOAD DUP2 PUSH1 0x2 ADD SSTORE POP POP POP POP POP JUMP JUMPDEST PUSH1 0x0 DUP2 DUP2 SLOAD DUP2 LT PUSH2 0x1F3 JUMPI PUSH1 0x0 DUP1 REVERT JUMPDEST SWAP1 PUSH1 0x0 MSTORE PUSH1 0x20 PUSH1 0x0 KECCAK256 SWAP1 PUSH1 0x3 MUL ADD PUSH1 0x0 SWAP2 POP SWAP1 POP DUP1 PUSH1 0x0 ADD SLOAD SWAP1 DUP1 PUSH1 0x1 ADD SLOAD SWAP1 DUP1 PUSH1 0x2 ADD SLOAD SWAP1 POP DUP4 JUMP JUMPDEST PUSH1 0x60 PUSH1 0x0 DUP1 JUMPDEST PUSH1 0x0 DUP1 SLOAD SWAP1 POP DUP2 LT ISZERO PUSH2 0x2E7 JUMPI DUP4 PUSH1 0x0 DUP3 DUP2 SLOAD DUP2 LT PUSH2 0x245 JUMPI PUSH2 0x244 PUSH2 0x5FD JUMP JUMPDEST JUMPDEST SWAP1 PUSH1 0x0 MSTORE PUSH1 0x20 PUSH1 0x0 KECCAK256 SWAP1 PUSH1 0x3 MUL ADD PUSH1 0x0 ADD SLOAD SUB PUSH2 0x2D4 JUMPI PUSH1 0x0 DUP2 DUP2 SLOAD DUP2 LT PUSH2 0x270 JUMPI PUSH2 0x26F PUSH2 0x5FD JUMP JUMPDEST JUMPDEST SWAP1 PUSH1 0x0 MSTORE PUSH1 0x20 PUSH1 0x0 KECCAK256 SWAP1 PUSH1 0x3 MUL ADD PUSH1 0x40 MLOAD DUP1 PUSH1 0x60 ADD PUSH1 0x40 MSTORE SWAP1 DUP2 PUSH1 0x0 DUP3 ADD SLOAD DUP2 MSTORE PUSH1 0x20 ADD PUSH1 0x1 DUP3 ADD SLOAD DUP2 MSTORE PUSH1 0x20 ADD PUSH1 0x2 DUP3 ADD SLOAD DUP2 MSTORE POP POP DUP4 DUP4 DUP2 MLOAD DUP2 LT PUSH2 0x2BA JUMPI PUSH2 0x2B9 PUSH2 0x5FD JUMP JUMPDEST JUMPDEST PUSH1 0x20 MUL PUSH1 0x20 ADD ADD DUP2 SWAP1 MSTORE POP DUP2 DUP1 PUSH2 0x2D0 SWAP1 PUSH2 0x65B JUMP JUMPDEST SWAP3 POP POP JUMPDEST DUP1 DUP1 PUSH2 0x2DF SWAP1 PUSH2 0x65B JUMP JUMPDEST SWAP2 POP POP PUSH2 0x223 JUMP JUMPDEST POP POP SWAP2 SWAP1 POP JUMP JUMPDEST PUSH1 0x40 MLOAD DUP1 PUSH1 0x60 ADD PUSH1 0x40 MSTORE DUP1 PUSH1 0x0 DUP2 MSTORE PUSH1 0x20 ADD PUSH1 0x0 DUP2 MSTORE PUSH1 0x20 ADD PUSH1 0x0 DUP2 MSTORE POP SWAP1 JUMP JUMPDEST PUSH1 0x0 DUP1 REVERT JUMPDEST PUSH1 0x0 DUP2 SWAP1 POP SWAP2 SWAP1 POP JUMP JUMPDEST PUSH2 0x327 DUP2 PUSH2 0x314 JUMP JUMPDEST DUP2 EQ PUSH2 0x332 JUMPI PUSH1 0x0 DUP1 REVERT JUMPDEST POP JUMP JUMPDEST PUSH1 0x0 DUP2 CALLDATALOAD SWAP1 POP PUSH2 0x344 DUP2 PUSH2 0x31E JUMP JUMPDEST SWAP3 SWAP2 POP POP JUMP JUMPDEST PUSH1 0x0 PUSH1 0x20 DUP3 DUP5 SUB SLT ISZERO PUSH2 0x360 JUMPI PUSH2 0x35F PUSH2 0x30F JUMP JUMPDEST JUMPDEST PUSH1 0x0 PUSH2 0x36E DUP5 DUP3 DUP6 ADD PUSH2 0x335 JUMP JUMPDEST SWAP2 POP POP SWAP3 SWAP2 POP POP JUMP JUMPDEST PUSH1 0x0 DUP2 SWAP1 POP SWAP2 SWAP1 POP JUMP JUMPDEST PUSH2 0x38A DUP2 PUSH2 0x377 JUMP JUMPDEST DUP3 MSTORE POP POP JUMP JUMPDEST PUSH2 0x399 DUP2 PUSH2 0x314 JUMP JUMPDEST DUP3 MSTORE POP POP JUMP JUMPDEST PUSH1 0x60 DUP3 ADD PUSH1 0x0 DUP3 ADD MLOAD PUSH2 0x3B5 PUSH1 0x0 DUP6 ADD DUP3 PUSH2 0x381 JUMP JUMPDEST POP PUSH1 0x20 DUP3 ADD MLOAD PUSH2 0x3C8 PUSH1 0x20 DUP6 ADD DUP3 PUSH2 0x390 JUMP JUMPDEST POP PUSH1 0x40 DUP3 ADD MLOAD PUSH2 0x3DB PUSH1 0x40 DUP6 ADD DUP3 PUSH2 0x381 JUMP JUMPDEST POP POP POP POP JUMP JUMPDEST PUSH1 0x0 PUSH1 0x60 DUP3 ADD SWAP1 POP PUSH2 0x3F6 PUSH1 0x0 DUP4 ADD DUP5 PUSH2 0x39F JUMP JUMPDEST SWAP3 SWAP2 POP POP JUMP JUMPDEST PUSH2 0x405 DUP2 PUSH2 0x377 JUMP JUMPDEST DUP2 EQ PUSH2 0x410 JUMPI PUSH1 0x0 DUP1 REVERT JUMPDEST POP JUMP JUMPDEST PUSH1 0x0 DUP2 CALLDATALOAD SWAP1 POP PUSH2 0x422 DUP2 PUSH2 0x3FC JUMP JUMPDEST SWAP3 SWAP2 POP POP JUMP JUMPDEST PUSH1 0x0 DUP1 PUSH1 0x40 DUP4 DUP6 SUB SLT ISZERO PUSH2 0x43F JUMPI PUSH2 0x43E PUSH2 0x30F JUMP JUMPDEST JUMPDEST PUSH1 0x0 PUSH2 0x44D DUP6 DUP3 DUP7 ADD PUSH2 0x413 JUMP JUMPDEST SWAP3 POP POP PUSH1 0x20 PUSH2 0x45E DUP6 DUP3 DUP7 ADD PUSH2 0x413 JUMP JUMPDEST SWAP2 POP POP SWAP3 POP SWAP3 SWAP1 POP JUMP JUMPDEST PUSH2 0x471 DUP2 PUSH2 0x377 JUMP JUMPDEST DUP3 MSTORE POP POP JUMP JUMPDEST PUSH2 0x480 DUP2 PUSH2 0x314 JUMP JUMPDEST DUP3 MSTORE POP POP JUMP JUMPDEST PUSH1 0x0 PUSH1 0x60 DUP3 ADD SWAP1 POP PUSH2 0x49B PUSH1 0x0 DUP4 ADD DUP7 PUSH2 0x468 JUMP JUMPDEST PUSH2 0x4A8 PUSH1 0x20 DUP4 ADD DUP6 PUSH2 0x477 JUMP JUMPDEST PUSH2 0x4B5 PUSH1 0x40 DUP4 ADD DUP5 PUSH2 0x468 JUMP JUMPDEST SWAP5 SWAP4 POP POP POP POP JUMP JUMPDEST PUSH1 0x0 PUSH1 0x20 DUP3 DUP5 SUB SLT ISZERO PUSH2 0x4D3 JUMPI PUSH2 0x4D2 PUSH2 0x30F JUMP JUMPDEST JUMPDEST PUSH1 0x0 PUSH2 0x4E1 DUP5 DUP3 DUP6 ADD PUSH2 0x413 JUMP JUMPDEST SWAP2 POP POP SWAP3 SWAP2 POP POP JUMP JUMPDEST PUSH1 0x0 DUP2 MLOAD SWAP1 POP SWAP2 SWAP1 POP JUMP JUMPDEST PUSH1 0x0 DUP3 DUP3 MSTORE PUSH1 0x20 DUP3 ADD SWAP1 POP SWAP3 SWAP2 POP POP JUMP JUMPDEST PUSH1 0x0 DUP2 SWAP1 POP PUSH1 0x20 DUP3 ADD SWAP1 POP SWAP2 SWAP1 POP JUMP JUMPDEST PUSH1 0x60 DUP3 ADD PUSH1 0x0 DUP3 ADD MLOAD PUSH2 0x52C PUSH1 0x0 DUP6 ADD DUP3 PUSH2 0x381 JUMP JUMPDEST POP PUSH1 0x20 DUP3 ADD MLOAD PUSH2 0x53F PUSH1 0x20 DUP6 ADD DUP3 PUSH2 0x390 JUMP JUMPDEST POP PUSH1 0x40 DUP3 ADD MLOAD PUSH2 0x552 PUSH1 0x40 DUP6 ADD DUP3 PUSH2 0x381 JUMP JUMPDEST POP POP POP POP JUMP JUMPDEST PUSH1 0x0 PUSH2 0x564 DUP4 DUP4 PUSH2 0x516 JUMP JUMPDEST PUSH1 0x60 DUP4 ADD SWAP1 POP SWAP3 SWAP2 POP POP JUMP JUMPDEST PUSH1 0x0 PUSH1 0x20 DUP3 ADD SWAP1 POP SWAP2 SWAP1 POP JUMP JUMPDEST PUSH1 0x0 PUSH2 0x588 DUP3 PUSH2 0x4EA JUMP JUMPDEST PUSH2 0x592 DUP2 DUP6 PUSH2 0x4F5 JUMP JUMPDEST SWAP4 POP PUSH2 0x59D DUP4 PUSH2 0x506 JUMP JUMPDEST DUP1 PUSH1 0x0 JUMPDEST DUP4 DUP2 LT ISZERO PUSH2 0x5CE JUMPI DUP2 MLOAD PUSH2 0x5B5 DUP9 DUP3 PUSH2 0x558 JUMP JUMPDEST SWAP8 POP PUSH2 0x5C0 DUP4 PUSH2 0x570 JUMP JUMPDEST SWAP3 POP POP PUSH1 0x1 DUP2 ADD SWAP1 POP PUSH2 0x5A1 JUMP JUMPDEST POP DUP6 SWAP4 POP POP POP POP SWAP3 SWAP2 POP POP JUMP JUMPDEST PUSH1 0x0 PUSH1 0x20 DUP3 ADD SWAP1 POP DUP2 DUP2 SUB PUSH1 0x0 DUP4 ADD MSTORE PUSH2 0x5F5 DUP2 DUP5 PUSH2 0x57D JUMP JUMPDEST SWAP1 POP SWAP3 SWAP2 POP POP JUMP JUMPDEST PUSH32 0x4E487B7100000000000000000000000000000000000000000000000000000000 PUSH1 0x0 MSTORE PUSH1 0x32 PUSH1 0x4 MSTORE PUSH1 0x24 PUSH1 0x0 REVERT JUMPDEST PUSH32 0x4E487B7100000000000000000000000000000000000000000000000000000000 PUSH1 0x0 MSTORE PUSH1 0x11 PUSH1 0x4 MSTORE PUSH1 0x24 PUSH1 0x0 REVERT JUMPDEST PUSH1 0x0 PUSH2 0x666 DUP3 PUSH2 0x314 JUMP JUMPDEST SWAP2 POP PUSH32 0xFFFFFFFFFFFFFFFFFFFFFFFFFFFFFFFFFFFFFFFFFFFFFFFFFFFFFFFFFFFFFFFF DUP3 SUB PUSH2 0x698 JUMPI PUSH2 0x697 PUSH2 0x62C JUMP JUMPDEST JUMPDEST PUSH1 0x1 DUP3 ADD SWAP1 POP SWAP2 SWAP1 POP JUMP INVALID LOG2 PUSH5 0x6970667358 0x22 SLT KECCAK256 SWAP1 DUP9 LT 0xE9 SWAP15 RETURN 0x21 0x1E 0xAE 0xE4 0x1F 0xA8 DUP4 0x25 0xBC SWAP14 CALL PUSH20 0x10B21B8B671BBADD68D3A172EDAF64736F6C6343 STOP ADDMOD 0xD STOP CALLER "
		},
		"gasEstimates": {
			"creation": {
				"codeDepositCost": "350600",
				"executionCost": "386",
				"totalCost": "350986"
			},
			"external": {
				"addData(int256,int256)": "infinite",
				"dataSet(uint256)": "infinite",
				"getAllDataBySensor(int256)": "infinite",
				"getData(uint256)": "infinite"
			}
		},
		"methodIdentifiers": {
			"addData(int256,int256)": "2c99cd1a",
			"dataSet(uint256)": "4a96d170",
			"getAllDataBySensor(int256)": "bdd1805d",
			"getData(uint256)": "0178fe3f"
		}
	},
	"abi": [
		{
			"inputs": [
				{
					"internalType": "int256",
					"name": "id",
					"type": "int256"
				},
				{
					"internalType": "int256",
					"name": "value",
					"type": "int256"
				}
			],
			"name": "addData",
			"outputs": [],
			"stateMutability": "payable",
			"type": "function"
		},
		{
			"inputs": [
				{
					"internalType": "uint256",
					"name": "",
					"type": "uint256"
				}
			],
			"name": "dataSet",
			"outputs": [
				{
					"internalType": "int256",
					"name": "sensorId",
					"type": "int256"
				},
				{
					"internalType": "uint256",
					"name": "timeStamp",
					"type": "uint256"
				},
				{
					"internalType": "int256",
					"name": "value",
					"type": "int256"
				}
			],
			"stateMutability": "view",
			"type": "function"
		},
		{
			"inputs": [
				{
					"internalType": "int256",
					"name": "givenId",
					"type": "int256"
				}
			],
			"name": "getAllDataBySensor",
			"outputs": [
				{
					"components": [
						{
							"internalType": "int256",
							"name": "sensorId",
							"type": "int256"
						},
						{
							"internalType": "uint256",
							"name": "timeStamp",
							"type": "uint256"
						},
						{
							"internalType": "int256",
							"name": "value",
							"type": "int256"
						}
					],
					"internalType": "struct DataStorage.Data[]",
					"name": "returnData",
					"type": "tuple[]"
				}
			],
			"stateMutability": "view",
			"type": "function"
		},
		{
			"inputs": [
				{
					"internalType": "uint256",
					"name": "arrayPointer",
					"type": "uint256"
				}
			],
			"name": "getData",
			"outputs": [
				{
					"components": [
						{
							"internalType": "int256",
							"name": "sensorId",
							"type": "int256"
						},
						{
							"internalType": "uint256",
							"name": "timeStamp",
							"type": "uint256"
						},
						{
							"internalType": "int256",
							"name": "value",
							"type": "int256"
						}
					],
					"internalType": "struct DataStorage.Data",
					"name": "returnData",
					"type": "tuple"
				}
			],
			"stateMutability": "view",
			"type": "function"
		}
	]
}