{
  "contractName": "DataStorage",
  "abi": [
    {
      "inputs": [
        {
          "internalType": "uint256",
          "name": "",
          "type": "uint256"
        }
      ],
      "name": "dataSet",
      "outputs": [
        {
          "internalType": "int256",
          "name": "sensorId",
          "type": "int256"
        },
        {
          "internalType": "uint256",
          "name": "timeStamp",
          "type": "uint256"
        },
        {
          "internalType": "int256",
          "name": "value",
          "type": "int256"
        }
      ],
      "stateMutability": "view",
      "type": "function",
      "constant": true
    },
    {
      "inputs": [
        {
          "internalType": "int256",
          "name": "id",
          "type": "int256"
        },
        {
          "internalType": "int256",
          "name": "value",
          "type": "int256"
        }
      ],
      "name": "addData",
      "outputs": [],
      "stateMutability": "payable",
      "type": "function",
      "payable": true
    },
    {
      "inputs": [
        {
          "internalType": "uint256",
          "name": "arrayPointer",
          "type": "uint256"
        }
      ],
      "name": "getData",
      "outputs": [
        {
          "components": [
            {
              "internalType": "int256",
              "name": "sensorId",
              "type": "int256"
            },
            {
              "internalType": "uint256",
              "name": "timeStamp",
              "type": "uint256"
            },
            {
              "internalType": "int256",
              "name": "value",
              "type": "int256"
            }
          ],
          "internalType": "struct DataStorage.Data",
          "name": "returnData",
          "type": "tuple"
        }
      ],
      "stateMutability": "view",
      "type": "function",
      "constant": true
    },
    {
      "inputs": [
        {
          "internalType": "int256",
          "name": "givenId",
          "type": "int256"
        }
      ],
      "name": "getAllDataBySensor",
      "outputs": [
        {
          "components": [
            {
              "internalType": "int256",
              "name": "sensorId",
              "type": "int256"
            },
            {
              "internalType": "uint256",
              "name": "timeStamp",
              "type": "uint256"
            },
            {
              "internalType": "int256",
              "name": "value",
              "type": "int256"
            }
          ],
          "internalType": "struct DataStorage.Data[]",
          "name": "returnData",
          "type": "tuple[]"
        }
      ],
      "stateMutability": "view",
      "type": "function",
      "constant": true
    }
  ],
  "bytecode": "0x608060405234801561001057600080fd5b506106db806100206000396000f3fe60806040526004361061003f5760003560e01c80630178fe3f146100445780632c99cd1a146100815780634a96d1701461009d578063bdd1805d146100dc575b600080fd5b34801561005057600080fd5b5061006b6004803603810190610066919061034b565b610119565b60405161007891906103e2565b60405180910390f35b61009b60048036038101906100969190610429565b610173565b005b3480156100a957600080fd5b506100c460048036038101906100bf919061034b565b6101e3565b6040516100d393929190610487565b60405180910390f35b3480156100e857600080fd5b5061010360048036038101906100fe91906104be565b61021d565b60405161011091906105dc565b60405180910390f35b6101216102ef565b60008281548110610135576101346105fe565b5b906000526020600020906003020160405180606001604052908160008201548152602001600182015481526020016002820154815250509050919050565b6000429050600060405180606001604052808581526020018381526020018481525090806001815401808255809150506001900390600052602060002090600302016000909190919091506000820151816000015560208201518160010155604082015181600201555050505050565b600081815481106101f357600080fd5b90600052602060002090600302016000915090508060000154908060010154908060020154905083565b60606000805b6000805490508110156102e8578360008281548110610245576102446105fe565b5b90600052602060002090600302016000015414156102d55760008181548110610271576102706105fe565b5b906000526020600020906003020160405180606001604052908160008201548152602001600182015481526020016002820154815250508383815181106102bb576102ba6105fe565b5b602002602001018190525081806102d19061065c565b9250505b80806102e09061065c565b915050610223565b5050919050565b60405180606001604052806000815260200160008152602001600081525090565b600080fd5b6000819050919050565b61032881610315565b811461033357600080fd5b50565b6000813590506103458161031f565b92915050565b60006020828403121561036157610360610310565b5b600061036f84828501610336565b91505092915050565b6000819050919050565b61038b81610378565b82525050565b61039a81610315565b82525050565b6060820160008201516103b66000850182610382565b5060208201516103c96020850182610391565b5060408201516103dc6040850182610382565b50505050565b60006060820190506103f760008301846103a0565b92915050565b61040681610378565b811461041157600080fd5b50565b600081359050610423816103fd565b92915050565b600080604083850312156104405761043f610310565b5b600061044e85828601610414565b925050602061045f85828601610414565b9150509250929050565b61047281610378565b82525050565b61048181610315565b82525050565b600060608201905061049c6000830186610469565b6104a96020830185610478565b6104b66040830184610469565b949350505050565b6000602082840312156104d4576104d3610310565b5b60006104e284828501610414565b91505092915050565b600081519050919050565b600082825260208201905092915050565b6000819050602082019050919050565b60608201600082015161052d6000850182610382565b5060208201516105406020850182610391565b5060408201516105536040850182610382565b50505050565b60006105658383610517565b60608301905092915050565b6000602082019050919050565b6000610589826104eb565b61059381856104f6565b935061059e83610507565b8060005b838110156105cf5781516105b68882610559565b97506105c183610571565b9250506001810190506105a2565b5085935050505092915050565b600060208201905081810360008301526105f6818461057e565b905092915050565b7f4e487b7100000000000000000000000000000000000000000000000000000000600052603260045260246000fd5b7f4e487b7100000000000000000000000000000000000000000000000000000000600052601160045260246000fd5b600061066782610315565b91507fffffffffffffffffffffffffffffffffffffffffffffffffffffffffffffffff82141561069a5761069961062d565b5b60018201905091905056fea26469706673582212208230c61eb35faf9faa0b4df66557f32bb15fbb2e54fc833547bbe5f177c7679964736f6c63430008090033",
  "immutableReferences": {},
  "source": "pragma solidity ^0.8.9;\n\ncontract DataStorage {\n  Data[] public dataSet;\n  int sensorId;\n  uint timeStamp;\n  int Value;\n  \n  struct Data{\n    int sensorId;\n    uint timeStamp;\n    int value;\n  }\n\n  function addData(int id, int value) public payable {\n    uint time = block.timestamp;\n    dataSet.push(Data(id, time, value));\n  }\n\n  function getData(uint arrayPointer) view public returns (Data memory returnData) {\n    returnData = dataSet[arrayPointer];\n  }\n\n  function getAllDataBySensor(int givenId) view public returns (Data[] memory returnData){\n    uint x = 0;\n    for (uint i = 0; i < dataSet.length; i++){\n      if (dataSet[i].sensorId == givenId){\n        returnData[x] = dataSet[i];\n        x++;\n      }\n    }\n  }\n}\n",
  "sourcePath": "/home/me/Desktop/Truffle/contracts/DataStorage.sol",
  "compiler": {
    "name": "solc",
    "version": "0.8.9+commit.e5eed63a.Emscripten.clang"
  },
  "schemaVersion": "3.4.3",
  "updatedAt": "2022-04-20T07:48:56.116Z",
  "networkType": "ethereum",
  "devdoc": {
    "kind": "dev",
    "methods": {},
    "version": 1
  },
  "userdoc": {
    "kind": "user",
    "methods": {},
    "version": 1
  }
}