{
	"DataStorage.sol": {
		"DataStorage": {
			"abi": [
				{
					"inputs": [
						{
							"internalType": "uint256",
							"name": "Id",
							"type": "uint256"
						},
						{
							"internalType": "string",
							"name": "time",
							"type": "string"
						},
						{
							"internalType": "uint256",
							"name": "sensorvalue",
							"type": "uint256"
						}
					],
					"name": "addData",
					"outputs": [],
					"stateMutability": "nonpayable",
					"type": "function"
				},
				{
					"inputs": [
						{
							"internalType": "uint256",
							"name": "",
							"type": "uint256"
						}
					],
					"name": "dataSet",
					"outputs": [
						{
							"internalType": "uint256",
							"name": "sensorId",
							"type": "uint256"
						},
						{
							"internalType": "string",
							"name": "timeStamp",
							"type": "string"
						},
						{
							"internalType": "uint256",
							"name": "value",
							"type": "uint256"
						}
					],
					"stateMutability": "view",
					"type": "function"
				},
				{
					"inputs": [
						{
							"internalType": "uint256",
							"name": "givenId",
							"type": "uint256"
						}
					],
					"name": "getAllDataBySensor",
					"outputs": [
						{
							"components": [
								{
									"internalType": "uint256",
									"name": "sensorId",
									"type": "uint256"
								},
								{
									"internalType": "string",
									"name": "timeStamp",
									"type": "string"
								},
								{
									"internalType": "uint256",
									"name": "value",
									"type": "uint256"
								}
							],
							"internalType": "struct DataStorage.Data[]",
							"name": "returnData",
							"type": "tuple[]"
						}
					],
					"stateMutability": "view",
					"type": "function"
				},
				{
					"inputs": [
						{
							"internalType": "uint256",
							"name": "arrayPointer",
							"type": "uint256"
						}
					],
					"name": "getData",
					"outputs": [
						{
							"internalType": "uint256",
							"name": "Id",
							"type": "uint256"
						},
						{
							"internalType": "string",
							"name": "time",
							"type": "string"
						},
						{
							"internalType": "uint256",
							"name": "sensorvalue",
							"type": "uint256"
						}
					],
					"stateMutability": "view",
					"type": "function"
				}
			],
			"devdoc": {
				"kind": "dev",
				"methods": {},
				"version": 1
			},
			"evm": {
				"assembly": "    /* \"DataStorage.sol\":25:760  contract DataStorage {... */\n  mstore(0x40, 0x80)\n  callvalue\n  dup1\n  iszero\n  tag_1\n  jumpi\n  0x00\n  dup1\n  revert\ntag_1:\n  pop\n  dataSize(sub_0)\n  dup1\n  dataOffset(sub_0)\n  0x00\n  codecopy\n  0x00\n  return\nstop\n\nsub_0: assembly {\n        /* \"DataStorage.sol\":25:760  contract DataStorage {... */\n      mstore(0x40, 0x80)\n      callvalue\n      dup1\n      iszero\n      tag_1\n      jumpi\n      0x00\n      dup1\n      revert\n    tag_1:\n      pop\n      jumpi(tag_2, lt(calldatasize, 0x04))\n      shr(0xe0, calldataload(0x00))\n      dup1\n      0x0178fe3f\n      eq\n      tag_3\n      jumpi\n      dup1\n      0x4a96d170\n      eq\n      tag_4\n      jumpi\n      dup1\n      0x6b85da7c\n      eq\n      tag_5\n      jumpi\n      dup1\n      0xcc295b66\n      eq\n      tag_6\n      jumpi\n    tag_2:\n      0x00\n      dup1\n      revert\n        /* \"DataStorage.sol\":280:521  function getData(uint arrayPointer) view public returns (uint Id, string memory time, uint sensorvalue) {... */\n    tag_3:\n      tag_7\n      0x04\n      dup1\n      calldatasize\n      sub\n      dup2\n      add\n      swap1\n      tag_8\n      swap2\n      swap1\n      tag_9\n      jump\t// in\n    tag_8:\n      tag_10\n      jump\t// in\n    tag_7:\n      mload(0x40)\n      tag_11\n      swap4\n      swap3\n      swap2\n      swap1\n      tag_12\n      jump\t// in\n    tag_11:\n      mload(0x40)\n      dup1\n      swap2\n      sub\n      swap1\n      return\n        /* \"DataStorage.sol\":50:71  Data[] public dataSet */\n    tag_4:\n      tag_13\n      0x04\n      dup1\n      calldatasize\n      sub\n      dup2\n      add\n      swap1\n      tag_14\n      swap2\n      swap1\n      tag_9\n      jump\t// in\n    tag_14:\n      tag_15\n      jump\t// in\n    tag_13:\n      mload(0x40)\n      tag_16\n      swap4\n      swap3\n      swap2\n      swap1\n      tag_12\n      jump\t// in\n    tag_16:\n      mload(0x40)\n      dup1\n      swap2\n      sub\n      swap1\n      return\n        /* \"DataStorage.sol\":525:758  function getAllDataBySensor(uint givenId) view public returns (Data[] memory returnData){... */\n    tag_5:\n      tag_17\n      0x04\n      dup1\n      calldatasize\n      sub\n      dup2\n      add\n      swap1\n      tag_18\n      swap2\n      swap1\n      tag_9\n      jump\t// in\n    tag_18:\n      tag_19\n      jump\t// in\n    tag_17:\n      mload(0x40)\n      tag_20\n      swap2\n      swap1\n      tag_21\n      jump\t// in\n    tag_20:\n      mload(0x40)\n      dup1\n      swap2\n      sub\n      swap1\n      return\n        /* \"DataStorage.sol\":153:276  function addData(uint Id, string memory time, uint sensorvalue) public {... */\n    tag_6:\n      tag_22\n      0x04\n      dup1\n      calldatasize\n      sub\n      dup2\n      add\n      swap1\n      tag_23\n      swap2\n      swap1\n      tag_24\n      jump\t// in\n    tag_23:\n      tag_25\n      jump\t// in\n    tag_22:\n      stop\n        /* \"DataStorage.sol\":280:521  function getData(uint arrayPointer) view public returns (uint Id, string memory time, uint sensorvalue) {... */\n    tag_10:\n        /* \"DataStorage.sol\":337:344  uint Id */\n      0x00\n        /* \"DataStorage.sol\":346:364  string memory time */\n      0x60\n        /* \"DataStorage.sol\":366:382  uint sensorvalue */\n      0x00\n        /* \"DataStorage.sol\":395:402  dataSet */\n      dup1\n        /* \"DataStorage.sol\":403:415  arrayPointer */\n      dup5\n        /* \"DataStorage.sol\":395:416  dataSet[arrayPointer] */\n      dup2\n      sload\n      dup2\n      lt\n      tag_27\n      jumpi\n      tag_28\n      tag_29\n      jump\t// in\n    tag_28:\n    tag_27:\n      swap1\n      0x00\n      mstore\n      keccak256(0x00, 0x20)\n      swap1\n      0x03\n      mul\n      add\n        /* \"DataStorage.sol\":395:425  dataSet[arrayPointer].sensorId */\n      0x00\n      add\n      sload\n        /* \"DataStorage.sol\":390:425  Id = dataSet[arrayPointer].sensorId */\n      swap3\n      pop\n        /* \"DataStorage.sol\":438:445  dataSet */\n      0x00\n        /* \"DataStorage.sol\":446:458  arrayPointer */\n      dup5\n        /* \"DataStorage.sol\":438:459  dataSet[arrayPointer] */\n      dup2\n      sload\n      dup2\n      lt\n      tag_31\n      jumpi\n      tag_32\n      tag_29\n      jump\t// in\n    tag_32:\n    tag_31:\n      swap1\n      0x00\n      mstore\n      keccak256(0x00, 0x20)\n      swap1\n      0x03\n      mul\n      add\n        /* \"DataStorage.sol\":438:469  dataSet[arrayPointer].timeStamp */\n      0x01\n      add\n        /* \"DataStorage.sol\":431:469  time = dataSet[arrayPointer].timeStamp */\n      dup1\n      sload\n      tag_34\n      swap1\n      tag_35\n      jump\t// in\n    tag_34:\n      dup1\n      0x1f\n      add\n      0x20\n      dup1\n      swap2\n      div\n      mul\n      0x20\n      add\n      mload(0x40)\n      swap1\n      dup2\n      add\n      0x40\n      mstore\n      dup1\n      swap3\n      swap2\n      swap1\n      dup2\n      dup2\n      mstore\n      0x20\n      add\n      dup3\n      dup1\n      sload\n      tag_36\n      swap1\n      tag_35\n      jump\t// in\n    tag_36:\n      dup1\n      iszero\n      tag_37\n      jumpi\n      dup1\n      0x1f\n      lt\n      tag_38\n      jumpi\n      0x0100\n      dup1\n      dup4\n      sload\n      div\n      mul\n      dup4\n      mstore\n      swap2\n      0x20\n      add\n      swap2\n      jump(tag_37)\n    tag_38:\n      dup3\n      add\n      swap2\n      swap1\n      0x00\n      mstore\n      keccak256(0x00, 0x20)\n      swap1\n    tag_39:\n      dup2\n      sload\n      dup2\n      mstore\n      swap1\n      0x01\n      add\n      swap1\n      0x20\n      add\n      dup1\n      dup4\n      gt\n      tag_39\n      jumpi\n      dup3\n      swap1\n      sub\n      0x1f\n      and\n      dup3\n      add\n      swap2\n    tag_37:\n      pop\n      pop\n      pop\n      pop\n      pop\n      swap2\n      pop\n        /* \"DataStorage.sol\":489:496  dataSet */\n      0x00\n        /* \"DataStorage.sol\":497:509  arrayPointer */\n      dup5\n        /* \"DataStorage.sol\":489:510  dataSet[arrayPointer] */\n      dup2\n      sload\n      dup2\n      lt\n      tag_40\n      jumpi\n      tag_41\n      tag_29\n      jump\t// in\n    tag_41:\n    tag_40:\n      swap1\n      0x00\n      mstore\n      keccak256(0x00, 0x20)\n      swap1\n      0x03\n      mul\n      add\n        /* \"DataStorage.sol\":489:516  dataSet[arrayPointer].value */\n      0x02\n      add\n      sload\n        /* \"DataStorage.sol\":475:516  sensorvalue = dataSet[arrayPointer].value */\n      swap1\n      pop\n        /* \"DataStorage.sol\":280:521  function getData(uint arrayPointer) view public returns (uint Id, string memory time, uint sensorvalue) {... */\n      swap2\n      swap4\n      swap1\n      swap3\n      pop\n      jump\t// out\n        /* \"DataStorage.sol\":50:71  Data[] public dataSet */\n    tag_15:\n      0x00\n      dup2\n      dup2\n      sload\n      dup2\n      lt\n      tag_43\n      jumpi\n      0x00\n      dup1\n      revert\n    tag_43:\n      swap1\n      0x00\n      mstore\n      keccak256(0x00, 0x20)\n      swap1\n      0x03\n      mul\n      add\n      0x00\n      swap2\n      pop\n      swap1\n      pop\n      dup1\n      0x00\n      add\n      sload\n      swap1\n      dup1\n      0x01\n      add\n      dup1\n      sload\n      tag_45\n      swap1\n      tag_35\n      jump\t// in\n    tag_45:\n      dup1\n      0x1f\n      add\n      0x20\n      dup1\n      swap2\n      div\n      mul\n      0x20\n      add\n      mload(0x40)\n      swap1\n      dup2\n      add\n      0x40\n      mstore\n      dup1\n      swap3\n      swap2\n      swap1\n      dup2\n      dup2\n      mstore\n      0x20\n      add\n      dup3\n      dup1\n      sload\n      tag_46\n      swap1\n      tag_35\n      jump\t// in\n    tag_46:\n      dup1\n      iszero\n      tag_47\n      jumpi\n      dup1\n      0x1f\n      lt\n      tag_48\n      jumpi\n      0x0100\n      dup1\n      dup4\n      sload\n      div\n      mul\n      dup4\n      mstore\n      swap2\n      0x20\n      add\n      swap2\n      jump(tag_47)\n    tag_48:\n      dup3\n      add\n      swap2\n      swap1\n      0x00\n      mstore\n      keccak256(0x00, 0x20)\n      swap1\n    tag_49:\n      dup2\n      sload\n      dup2\n      mstore\n      swap1\n      0x01\n      add\n      swap1\n      0x20\n      add\n      dup1\n      dup4\n      gt\n      tag_49\n      jumpi\n      dup3\n      swap1\n      sub\n      0x1f\n      and\n      dup3\n      add\n      swap2\n    tag_47:\n      pop\n      pop\n      pop\n      pop\n      pop\n      swap1\n      dup1\n      0x02\n      add\n      sload\n      swap1\n      pop\n      dup4\n      jump\t// out\n        /* \"DataStorage.sol\":525:758  function getAllDataBySensor(uint givenId) view public returns (Data[] memory returnData){... */\n    tag_19:\n        /* \"DataStorage.sol\":588:612  Data[] memory returnData */\n      0x60\n        /* \"DataStorage.sol\":624:630  uint i */\n      0x00\n        /* \"DataStorage.sol\":619:754  for (uint i = 0; i < dataSet.length; i++){... */\n    tag_51:\n        /* \"DataStorage.sol\":640:647  dataSet */\n      0x00\n        /* \"DataStorage.sol\":640:654  dataSet.length */\n      dup1\n      sload\n      swap1\n      pop\n        /* \"DataStorage.sol\":636:637  i */\n      dup2\n        /* \"DataStorage.sol\":636:654  i < dataSet.length */\n      lt\n        /* \"DataStorage.sol\":619:754  for (uint i = 0; i < dataSet.length; i++){... */\n      iszero\n      tag_52\n      jumpi\n        /* \"DataStorage.sol\":695:702  givenId */\n      dup3\n        /* \"DataStorage.sol\":672:679  dataSet */\n      0x00\n        /* \"DataStorage.sol\":680:681  i */\n      dup3\n        /* \"DataStorage.sol\":672:682  dataSet[i] */\n      dup2\n      sload\n      dup2\n      lt\n      tag_54\n      jumpi\n      tag_55\n      tag_29\n      jump\t// in\n    tag_55:\n    tag_54:\n      swap1\n      0x00\n      mstore\n      keccak256(0x00, 0x20)\n      swap1\n      0x03\n      mul\n      add\n        /* \"DataStorage.sol\":672:691  dataSet[i].sensorId */\n      0x00\n      add\n      sload\n        /* \"DataStorage.sol\":672:702  dataSet[i].sensorId == givenId */\n      sub\n        /* \"DataStorage.sol\":668:748  if (dataSet[i].sensorId == givenId){... */\n      tag_57\n      jumpi\n        /* \"DataStorage.sol\":729:736  dataSet */\n      0x00\n        /* \"DataStorage.sol\":737:738  i */\n      dup2\n        /* \"DataStorage.sol\":729:739  dataSet[i] */\n      dup2\n      sload\n      dup2\n      lt\n      tag_58\n      jumpi\n      tag_59\n      tag_29\n      jump\t// in\n    tag_59:\n    tag_58:\n      swap1\n      0x00\n      mstore\n      keccak256(0x00, 0x20)\n      swap1\n      0x03\n      mul\n      add\n        /* \"DataStorage.sol\":713:739  returnData[i] = dataSet[i] */\n      mload(0x40)\n      dup1\n      0x60\n      add\n      0x40\n      mstore\n      swap1\n      dup2\n      0x00\n      dup3\n      add\n      sload\n      dup2\n      mstore\n      0x20\n      add\n      0x01\n      dup3\n      add\n      dup1\n      sload\n      tag_61\n      swap1\n      tag_35\n      jump\t// in\n    tag_61:\n      dup1\n      0x1f\n      add\n      0x20\n      dup1\n      swap2\n      div\n      mul\n      0x20\n      add\n      mload(0x40)\n      swap1\n      dup2\n      add\n      0x40\n      mstore\n      dup1\n      swap3\n      swap2\n      swap1\n      dup2\n      dup2\n      mstore\n      0x20\n      add\n      dup3\n      dup1\n      sload\n      tag_62\n      swap1\n      tag_35\n      jump\t// in\n    tag_62:\n      dup1\n      iszero\n      tag_63\n      jumpi\n      dup1\n      0x1f\n      lt\n      tag_64\n      jumpi\n      0x0100\n      dup1\n      dup4\n      sload\n      div\n      mul\n      dup4\n      mstore\n      swap2\n      0x20\n      add\n      swap2\n      jump(tag_63)\n    tag_64:\n      dup3\n      add\n      swap2\n      swap1\n      0x00\n      mstore\n      keccak256(0x00, 0x20)\n      swap1\n    tag_65:\n      dup2\n      sload\n      dup2\n      mstore\n      swap1\n      0x01\n      add\n      swap1\n      0x20\n      add\n      dup1\n      dup4\n      gt\n      tag_65\n      jumpi\n      dup3\n      swap1\n      sub\n      0x1f\n      and\n      dup3\n      add\n      swap2\n    tag_63:\n      pop\n      pop\n      pop\n      pop\n      pop\n      dup2\n      mstore\n      0x20\n      add\n      0x02\n      dup3\n      add\n      sload\n      dup2\n      mstore\n      pop\n      pop\n        /* \"DataStorage.sol\":713:723  returnData */\n      dup3\n        /* \"DataStorage.sol\":724:725  i */\n      dup3\n        /* \"DataStorage.sol\":713:726  returnData[i] */\n      dup2\n      mload\n      dup2\n      lt\n      tag_66\n      jumpi\n      tag_67\n      tag_29\n      jump\t// in\n    tag_67:\n    tag_66:\n      0x20\n      mul\n      0x20\n      add\n      add\n        /* \"DataStorage.sol\":713:739  returnData[i] = dataSet[i] */\n      dup2\n      swap1\n      mstore\n      pop\n        /* \"DataStorage.sol\":668:748  if (dataSet[i].sensorId == givenId){... */\n    tag_57:\n        /* \"DataStorage.sol\":656:659  i++ */\n      dup1\n      dup1\n      tag_68\n      swap1\n      tag_69\n      jump\t// in\n    tag_68:\n      swap2\n      pop\n      pop\n        /* \"DataStorage.sol\":619:754  for (uint i = 0; i < dataSet.length; i++){... */\n      jump(tag_51)\n    tag_52:\n      pop\n        /* \"DataStorage.sol\":525:758  function getAllDataBySensor(uint givenId) view public returns (Data[] memory returnData){... */\n      swap2\n      swap1\n      pop\n      jump\t// out\n        /* \"DataStorage.sol\":153:276  function addData(uint Id, string memory time, uint sensorvalue) public {... */\n    tag_25:\n        /* \"DataStorage.sol\":230:237  dataSet */\n      0x00\n        /* \"DataStorage.sol\":243:270  Data(Id, time, sensorvalue) */\n      mload(0x40)\n      dup1\n      0x60\n      add\n      0x40\n      mstore\n      dup1\n        /* \"DataStorage.sol\":248:250  Id */\n      dup6\n        /* \"DataStorage.sol\":243:270  Data(Id, time, sensorvalue) */\n      dup2\n      mstore\n      0x20\n      add\n        /* \"DataStorage.sol\":252:256  time */\n      dup5\n        /* \"DataStorage.sol\":243:270  Data(Id, time, sensorvalue) */\n      dup2\n      mstore\n      0x20\n      add\n        /* \"DataStorage.sol\":258:269  sensorvalue */\n      dup4\n        /* \"DataStorage.sol\":243:270  Data(Id, time, sensorvalue) */\n      dup2\n      mstore\n      pop\n        /* \"DataStorage.sol\":230:271  dataSet.push(Data(Id, time, sensorvalue)) */\n      swap1\n      dup1\n      0x01\n      dup2\n      sload\n      add\n      dup1\n      dup3\n      sstore\n      dup1\n      swap2\n      pop\n      pop\n      0x01\n      swap1\n      sub\n      swap1\n      0x00\n      mstore\n      keccak256(0x00, 0x20)\n      swap1\n      0x03\n      mul\n      add\n      0x00\n      swap1\n      swap2\n      swap1\n      swap2\n      swap1\n      swap2\n      pop\n      0x00\n      dup3\n      add\n      mload\n      dup2\n      0x00\n      add\n      sstore\n      0x20\n      dup3\n      add\n      mload\n      dup2\n      0x01\n      add\n      swap1\n      dup1\n      mload\n      swap1\n      0x20\n      add\n      swap1\n      tag_72\n      swap3\n      swap2\n      swap1\n      tag_73\n      jump\t// in\n    tag_72:\n      pop\n      0x40\n      dup3\n      add\n      mload\n      dup2\n      0x02\n      add\n      sstore\n      pop\n      pop\n        /* \"DataStorage.sol\":153:276  function addData(uint Id, string memory time, uint sensorvalue) public {... */\n      pop\n      pop\n      pop\n      jump\t// out\n    tag_73:\n      dup3\n      dup1\n      sload\n      tag_74\n      swap1\n      tag_35\n      jump\t// in\n    tag_74:\n      swap1\n      0x00\n      mstore\n      keccak256(0x00, 0x20)\n      swap1\n      0x1f\n      add\n      0x20\n      swap1\n      div\n      dup2\n      add\n      swap3\n      dup3\n      tag_76\n      jumpi\n      0x00\n      dup6\n      sstore\n      jump(tag_75)\n    tag_76:\n      dup3\n      0x1f\n      lt\n      tag_77\n      jumpi\n      dup1\n      mload\n      not(0xff)\n      and\n      dup4\n      dup1\n      add\n      or\n      dup6\n      sstore\n      jump(tag_75)\n    tag_77:\n      dup3\n      dup1\n      add\n      0x01\n      add\n      dup6\n      sstore\n      dup3\n      iszero\n      tag_75\n      jumpi\n      swap2\n      dup3\n      add\n    tag_78:\n      dup3\n      dup2\n      gt\n      iszero\n      tag_79\n      jumpi\n      dup3\n      mload\n      dup3\n      sstore\n      swap2\n      0x20\n      add\n      swap2\n      swap1\n      0x01\n      add\n      swap1\n      jump(tag_78)\n    tag_79:\n    tag_75:\n      pop\n      swap1\n      pop\n      tag_80\n      swap2\n      swap1\n      tag_81\n      jump\t// in\n    tag_80:\n      pop\n      swap1\n      jump\t// out\n    tag_81:\n    tag_82:\n      dup1\n      dup3\n      gt\n      iszero\n      tag_83\n      jumpi\n      0x00\n      dup2\n      0x00\n      swap1\n      sstore\n      pop\n      0x01\n      add\n      jump(tag_82)\n    tag_83:\n      pop\n      swap1\n      jump\t// out\n        /* \"#utility.yul\":7:82   */\n    tag_84:\n        /* \"#utility.yul\":40:46   */\n      0x00\n        /* \"#utility.yul\":73:75   */\n      0x40\n        /* \"#utility.yul\":67:76   */\n      mload\n        /* \"#utility.yul\":57:76   */\n      swap1\n      pop\n        /* \"#utility.yul\":7:82   */\n      swap1\n      jump\t// out\n        /* \"#utility.yul\":88:205   */\n    tag_85:\n        /* \"#utility.yul\":197:198   */\n      0x00\n        /* \"#utility.yul\":194:195   */\n      dup1\n        /* \"#utility.yul\":187:199   */\n      revert\n        /* \"#utility.yul\":211:328   */\n    tag_86:\n        /* \"#utility.yul\":320:321   */\n      0x00\n        /* \"#utility.yul\":317:318   */\n      dup1\n        /* \"#utility.yul\":310:322   */\n      revert\n        /* \"#utility.yul\":334:411   */\n    tag_87:\n        /* \"#utility.yul\":371:378   */\n      0x00\n        /* \"#utility.yul\":400:405   */\n      dup2\n        /* \"#utility.yul\":389:405   */\n      swap1\n      pop\n        /* \"#utility.yul\":334:411   */\n      swap2\n      swap1\n      pop\n      jump\t// out\n        /* \"#utility.yul\":417:539   */\n    tag_88:\n        /* \"#utility.yul\":490:514   */\n      tag_123\n        /* \"#utility.yul\":508:513   */\n      dup2\n        /* \"#utility.yul\":490:514   */\n      tag_87\n      jump\t// in\n    tag_123:\n        /* \"#utility.yul\":483:488   */\n      dup2\n        /* \"#utility.yul\":480:515   */\n      eq\n        /* \"#utility.yul\":470:533   */\n      tag_124\n      jumpi\n        /* \"#utility.yul\":529:530   */\n      0x00\n        /* \"#utility.yul\":526:527   */\n      dup1\n        /* \"#utility.yul\":519:531   */\n      revert\n        /* \"#utility.yul\":470:533   */\n    tag_124:\n        /* \"#utility.yul\":417:539   */\n      pop\n      jump\t// out\n        /* \"#utility.yul\":545:684   */\n    tag_89:\n        /* \"#utility.yul\":591:596   */\n      0x00\n        /* \"#utility.yul\":629:635   */\n      dup2\n        /* \"#utility.yul\":616:636   */\n      calldataload\n        /* \"#utility.yul\":607:636   */\n      swap1\n      pop\n        /* \"#utility.yul\":645:678   */\n      tag_126\n        /* \"#utility.yul\":672:677   */\n      dup2\n        /* \"#utility.yul\":645:678   */\n      tag_88\n      jump\t// in\n    tag_126:\n        /* \"#utility.yul\":545:684   */\n      swap3\n      swap2\n      pop\n      pop\n      jump\t// out\n        /* \"#utility.yul\":690:1019   */\n    tag_9:\n        /* \"#utility.yul\":749:755   */\n      0x00\n        /* \"#utility.yul\":798:800   */\n      0x20\n        /* \"#utility.yul\":786:795   */\n      dup3\n        /* \"#utility.yul\":777:784   */\n      dup5\n        /* \"#utility.yul\":773:796   */\n      sub\n        /* \"#utility.yul\":769:801   */\n      slt\n        /* \"#utility.yul\":766:885   */\n      iszero\n      tag_128\n      jumpi\n        /* \"#utility.yul\":804:883   */\n      tag_129\n      tag_85\n      jump\t// in\n    tag_129:\n        /* \"#utility.yul\":766:885   */\n    tag_128:\n        /* \"#utility.yul\":924:925   */\n      0x00\n        /* \"#utility.yul\":949:1002   */\n      tag_130\n        /* \"#utility.yul\":994:1001   */\n      dup5\n        /* \"#utility.yul\":985:991   */\n      dup3\n        /* \"#utility.yul\":974:983   */\n      dup6\n        /* \"#utility.yul\":970:992   */\n      add\n        /* \"#utility.yul\":949:1002   */\n      tag_89\n      jump\t// in\n    tag_130:\n        /* \"#utility.yul\":939:1002   */\n      swap2\n      pop\n        /* \"#utility.yul\":895:1012   */\n      pop\n        /* \"#utility.yul\":690:1019   */\n      swap3\n      swap2\n      pop\n      pop\n      jump\t// out\n        /* \"#utility.yul\":1025:1143   */\n    tag_90:\n        /* \"#utility.yul\":1112:1136   */\n      tag_132\n        /* \"#utility.yul\":1130:1135   */\n      dup2\n        /* \"#utility.yul\":1112:1136   */\n      tag_87\n      jump\t// in\n    tag_132:\n        /* \"#utility.yul\":1107:1110   */\n      dup3\n        /* \"#utility.yul\":1100:1137   */\n      mstore\n        /* \"#utility.yul\":1025:1143   */\n      pop\n      pop\n      jump\t// out\n        /* \"#utility.yul\":1149:1248   */\n    tag_91:\n        /* \"#utility.yul\":1201:1207   */\n      0x00\n        /* \"#utility.yul\":1235:1240   */\n      dup2\n        /* \"#utility.yul\":1229:1241   */\n      mload\n        /* \"#utility.yul\":1219:1241   */\n      swap1\n      pop\n        /* \"#utility.yul\":1149:1248   */\n      swap2\n      swap1\n      pop\n      jump\t// out\n        /* \"#utility.yul\":1254:1423   */\n    tag_92:\n        /* \"#utility.yul\":1338:1349   */\n      0x00\n        /* \"#utility.yul\":1372:1378   */\n      dup3\n        /* \"#utility.yul\":1367:1370   */\n      dup3\n        /* \"#utility.yul\":1360:1379   */\n      mstore\n        /* \"#utility.yul\":1412:1416   */\n      0x20\n        /* \"#utility.yul\":1407:1410   */\n      dup3\n        /* \"#utility.yul\":1403:1417   */\n      add\n        /* \"#utility.yul\":1388:1417   */\n      swap1\n      pop\n        /* \"#utility.yul\":1254:1423   */\n      swap3\n      swap2\n      pop\n      pop\n      jump\t// out\n        /* \"#utility.yul\":1429:1736   */\n    tag_93:\n        /* \"#utility.yul\":1497:1498   */\n      0x00\n        /* \"#utility.yul\":1507:1620   */\n    tag_136:\n        /* \"#utility.yul\":1521:1527   */\n      dup4\n        /* \"#utility.yul\":1518:1519   */\n      dup2\n        /* \"#utility.yul\":1515:1528   */\n      lt\n        /* \"#utility.yul\":1507:1620   */\n      iszero\n      tag_138\n      jumpi\n        /* \"#utility.yul\":1606:1607   */\n      dup1\n        /* \"#utility.yul\":1601:1604   */\n      dup3\n        /* \"#utility.yul\":1597:1608   */\n      add\n        /* \"#utility.yul\":1591:1609   */\n      mload\n        /* \"#utility.yul\":1587:1588   */\n      dup2\n        /* \"#utility.yul\":1582:1585   */\n      dup5\n        /* \"#utility.yul\":1578:1589   */\n      add\n        /* \"#utility.yul\":1571:1610   */\n      mstore\n        /* \"#utility.yul\":1543:1545   */\n      0x20\n        /* \"#utility.yul\":1540:1541   */\n      dup2\n        /* \"#utility.yul\":1536:1546   */\n      add\n        /* \"#utility.yul\":1531:1546   */\n      swap1\n      pop\n        /* \"#utility.yul\":1507:1620   */\n      jump(tag_136)\n    tag_138:\n        /* \"#utility.yul\":1638:1644   */\n      dup4\n        /* \"#utility.yul\":1635:1636   */\n      dup2\n        /* \"#utility.yul\":1632:1645   */\n      gt\n        /* \"#utility.yul\":1629:1730   */\n      iszero\n      tag_139\n      jumpi\n        /* \"#utility.yul\":1718:1719   */\n      0x00\n        /* \"#utility.yul\":1709:1715   */\n      dup5\n        /* \"#utility.yul\":1704:1707   */\n      dup5\n        /* \"#utility.yul\":1700:1716   */\n      add\n        /* \"#utility.yul\":1693:1720   */\n      mstore\n        /* \"#utility.yul\":1629:1730   */\n    tag_139:\n        /* \"#utility.yul\":1478:1736   */\n      pop\n        /* \"#utility.yul\":1429:1736   */\n      pop\n      pop\n      pop\n      jump\t// out\n        /* \"#utility.yul\":1742:1844   */\n    tag_94:\n        /* \"#utility.yul\":1783:1789   */\n      0x00\n        /* \"#utility.yul\":1834:1836   */\n      0x1f\n        /* \"#utility.yul\":1830:1837   */\n      not\n        /* \"#utility.yul\":1825:1827   */\n      0x1f\n        /* \"#utility.yul\":1818:1823   */\n      dup4\n        /* \"#utility.yul\":1814:1828   */\n      add\n        /* \"#utility.yul\":1810:1838   */\n      and\n        /* \"#utility.yul\":1800:1838   */\n      swap1\n      pop\n        /* \"#utility.yul\":1742:1844   */\n      swap2\n      swap1\n      pop\n      jump\t// out\n        /* \"#utility.yul\":1850:2214   */\n    tag_95:\n        /* \"#utility.yul\":1938:1941   */\n      0x00\n        /* \"#utility.yul\":1966:2005   */\n      tag_142\n        /* \"#utility.yul\":1999:2004   */\n      dup3\n        /* \"#utility.yul\":1966:2005   */\n      tag_91\n      jump\t// in\n    tag_142:\n        /* \"#utility.yul\":2021:2092   */\n      tag_143\n        /* \"#utility.yul\":2085:2091   */\n      dup2\n        /* \"#utility.yul\":2080:2083   */\n      dup6\n        /* \"#utility.yul\":2021:2092   */\n      tag_92\n      jump\t// in\n    tag_143:\n        /* \"#utility.yul\":2014:2092   */\n      swap4\n      pop\n        /* \"#utility.yul\":2101:2153   */\n      tag_144\n        /* \"#utility.yul\":2146:2152   */\n      dup2\n        /* \"#utility.yul\":2141:2144   */\n      dup6\n        /* \"#utility.yul\":2134:2138   */\n      0x20\n        /* \"#utility.yul\":2127:2132   */\n      dup7\n        /* \"#utility.yul\":2123:2139   */\n      add\n        /* \"#utility.yul\":2101:2153   */\n      tag_93\n      jump\t// in\n    tag_144:\n        /* \"#utility.yul\":2178:2207   */\n      tag_145\n        /* \"#utility.yul\":2200:2206   */\n      dup2\n        /* \"#utility.yul\":2178:2207   */\n      tag_94\n      jump\t// in\n    tag_145:\n        /* \"#utility.yul\":2173:2176   */\n      dup5\n        /* \"#utility.yul\":2169:2208   */\n      add\n        /* \"#utility.yul\":2162:2208   */\n      swap2\n      pop\n        /* \"#utility.yul\":1942:2214   */\n      pop\n        /* \"#utility.yul\":1850:2214   */\n      swap3\n      swap2\n      pop\n      pop\n      jump\t// out\n        /* \"#utility.yul\":2220:2753   */\n    tag_12:\n        /* \"#utility.yul\":2389:2393   */\n      0x00\n        /* \"#utility.yul\":2427:2429   */\n      0x60\n        /* \"#utility.yul\":2416:2425   */\n      dup3\n        /* \"#utility.yul\":2412:2430   */\n      add\n        /* \"#utility.yul\":2404:2430   */\n      swap1\n      pop\n        /* \"#utility.yul\":2440:2511   */\n      tag_147\n        /* \"#utility.yul\":2508:2509   */\n      0x00\n        /* \"#utility.yul\":2497:2506   */\n      dup4\n        /* \"#utility.yul\":2493:2510   */\n      add\n        /* \"#utility.yul\":2484:2490   */\n      dup7\n        /* \"#utility.yul\":2440:2511   */\n      tag_90\n      jump\t// in\n    tag_147:\n        /* \"#utility.yul\":2558:2567   */\n      dup2\n        /* \"#utility.yul\":2552:2556   */\n      dup2\n        /* \"#utility.yul\":2548:2568   */\n      sub\n        /* \"#utility.yul\":2543:2545   */\n      0x20\n        /* \"#utility.yul\":2532:2541   */\n      dup4\n        /* \"#utility.yul\":2528:2546   */\n      add\n        /* \"#utility.yul\":2521:2569   */\n      mstore\n        /* \"#utility.yul\":2586:2664   */\n      tag_148\n        /* \"#utility.yul\":2659:2663   */\n      dup2\n        /* \"#utility.yul\":2650:2656   */\n      dup6\n        /* \"#utility.yul\":2586:2664   */\n      tag_95\n      jump\t// in\n    tag_148:\n        /* \"#utility.yul\":2578:2664   */\n      swap1\n      pop\n        /* \"#utility.yul\":2674:2746   */\n      tag_149\n        /* \"#utility.yul\":2742:2744   */\n      0x40\n        /* \"#utility.yul\":2731:2740   */\n      dup4\n        /* \"#utility.yul\":2727:2745   */\n      add\n        /* \"#utility.yul\":2718:2724   */\n      dup5\n        /* \"#utility.yul\":2674:2746   */\n      tag_90\n      jump\t// in\n    tag_149:\n        /* \"#utility.yul\":2220:2753   */\n      swap5\n      swap4\n      pop\n      pop\n      pop\n      pop\n      jump\t// out\n        /* \"#utility.yul\":2759:2893   */\n    tag_96:\n        /* \"#utility.yul\":2846:2852   */\n      0x00\n        /* \"#utility.yul\":2880:2885   */\n      dup2\n        /* \"#utility.yul\":2874:2886   */\n      mload\n        /* \"#utility.yul\":2864:2886   */\n      swap1\n      pop\n        /* \"#utility.yul\":2759:2893   */\n      swap2\n      swap1\n      pop\n      jump\t// out\n        /* \"#utility.yul\":2899:3103   */\n    tag_97:\n        /* \"#utility.yul\":3018:3029   */\n      0x00\n        /* \"#utility.yul\":3052:3058   */\n      dup3\n        /* \"#utility.yul\":3047:3050   */\n      dup3\n        /* \"#utility.yul\":3040:3059   */\n      mstore\n        /* \"#utility.yul\":3092:3096   */\n      0x20\n        /* \"#utility.yul\":3087:3090   */\n      dup3\n        /* \"#utility.yul\":3083:3097   */\n      add\n        /* \"#utility.yul\":3068:3097   */\n      swap1\n      pop\n        /* \"#utility.yul\":2899:3103   */\n      swap3\n      swap2\n      pop\n      pop\n      jump\t// out\n        /* \"#utility.yul\":3109:3261   */\n    tag_98:\n        /* \"#utility.yul\":3196:3200   */\n      0x00\n        /* \"#utility.yul\":3219:3222   */\n      dup2\n        /* \"#utility.yul\":3211:3222   */\n      swap1\n      pop\n        /* \"#utility.yul\":3249:3253   */\n      0x20\n        /* \"#utility.yul\":3244:3247   */\n      dup3\n        /* \"#utility.yul\":3240:3254   */\n      add\n        /* \"#utility.yul\":3232:3254   */\n      swap1\n      pop\n        /* \"#utility.yul\":3109:3261   */\n      swap2\n      swap1\n      pop\n      jump\t// out\n        /* \"#utility.yul\":3267:3375   */\n    tag_99:\n        /* \"#utility.yul\":3344:3368   */\n      tag_154\n        /* \"#utility.yul\":3362:3367   */\n      dup2\n        /* \"#utility.yul\":3344:3368   */\n      tag_87\n      jump\t// in\n    tag_154:\n        /* \"#utility.yul\":3339:3342   */\n      dup3\n        /* \"#utility.yul\":3332:3369   */\n      mstore\n        /* \"#utility.yul\":3267:3375   */\n      pop\n      pop\n      jump\t// out\n        /* \"#utility.yul\":3381:3540   */\n    tag_100:\n        /* \"#utility.yul\":3455:3466   */\n      0x00\n        /* \"#utility.yul\":3489:3495   */\n      dup3\n        /* \"#utility.yul\":3484:3487   */\n      dup3\n        /* \"#utility.yul\":3477:3496   */\n      mstore\n        /* \"#utility.yul\":3529:3533   */\n      0x20\n        /* \"#utility.yul\":3524:3527   */\n      dup3\n        /* \"#utility.yul\":3520:3534   */\n      add\n        /* \"#utility.yul\":3505:3534   */\n      swap1\n      pop\n        /* \"#utility.yul\":3381:3540   */\n      swap3\n      swap2\n      pop\n      pop\n      jump\t// out\n        /* \"#utility.yul\":3546:3890   */\n    tag_101:\n        /* \"#utility.yul\":3624:3627   */\n      0x00\n        /* \"#utility.yul\":3652:3691   */\n      tag_157\n        /* \"#utility.yul\":3685:3690   */\n      dup3\n        /* \"#utility.yul\":3652:3691   */\n      tag_91\n      jump\t// in\n    tag_157:\n        /* \"#utility.yul\":3707:3768   */\n      tag_158\n        /* \"#utility.yul\":3761:3767   */\n      dup2\n        /* \"#utility.yul\":3756:3759   */\n      dup6\n        /* \"#utility.yul\":3707:3768   */\n      tag_100\n      jump\t// in\n    tag_158:\n        /* \"#utility.yul\":3700:3768   */\n      swap4\n      pop\n        /* \"#utility.yul\":3777:3829   */\n      tag_159\n        /* \"#utility.yul\":3822:3828   */\n      dup2\n        /* \"#utility.yul\":3817:3820   */\n      dup6\n        /* \"#utility.yul\":3810:3814   */\n      0x20\n        /* \"#utility.yul\":3803:3808   */\n      dup7\n        /* \"#utility.yul\":3799:3815   */\n      add\n        /* \"#utility.yul\":3777:3829   */\n      tag_93\n      jump\t// in\n    tag_159:\n        /* \"#utility.yul\":3854:3883   */\n      tag_160\n        /* \"#utility.yul\":3876:3882   */\n      dup2\n        /* \"#utility.yul\":3854:3883   */\n      tag_94\n      jump\t// in\n    tag_160:\n        /* \"#utility.yul\":3849:3852   */\n      dup5\n        /* \"#utility.yul\":3845:3884   */\n      add\n        /* \"#utility.yul\":3838:3884   */\n      swap2\n      pop\n        /* \"#utility.yul\":3628:3890   */\n      pop\n        /* \"#utility.yul\":3546:3890   */\n      swap3\n      swap2\n      pop\n      pop\n      jump\t// out\n        /* \"#utility.yul\":3954:4724   */\n    tag_102:\n        /* \"#utility.yul\":4053:4056   */\n      0x00\n        /* \"#utility.yul\":4089:4093   */\n      0x60\n        /* \"#utility.yul\":4084:4087   */\n      dup4\n        /* \"#utility.yul\":4080:4094   */\n      add\n        /* \"#utility.yul\":4180:4184   */\n      0x00\n        /* \"#utility.yul\":4173:4178   */\n      dup4\n        /* \"#utility.yul\":4169:4185   */\n      add\n        /* \"#utility.yul\":4163:4186   */\n      mload\n        /* \"#utility.yul\":4199:4262   */\n      tag_162\n        /* \"#utility.yul\":4256:4260   */\n      0x00\n        /* \"#utility.yul\":4251:4254   */\n      dup7\n        /* \"#utility.yul\":4247:4261   */\n      add\n        /* \"#utility.yul\":4233:4245   */\n      dup3\n        /* \"#utility.yul\":4199:4262   */\n      tag_99\n      jump\t// in\n    tag_162:\n        /* \"#utility.yul\":4104:4272   */\n      pop\n        /* \"#utility.yul\":4359:4363   */\n      0x20\n        /* \"#utility.yul\":4352:4357   */\n      dup4\n        /* \"#utility.yul\":4348:4364   */\n      add\n        /* \"#utility.yul\":4342:4365   */\n      mload\n        /* \"#utility.yul\":4412:4415   */\n      dup5\n        /* \"#utility.yul\":4406:4410   */\n      dup3\n        /* \"#utility.yul\":4402:4416   */\n      sub\n        /* \"#utility.yul\":4395:4399   */\n      0x20\n        /* \"#utility.yul\":4390:4393   */\n      dup7\n        /* \"#utility.yul\":4386:4400   */\n      add\n        /* \"#utility.yul\":4379:4417   */\n      mstore\n        /* \"#utility.yul\":4438:4511   */\n      tag_163\n        /* \"#utility.yul\":4506:4510   */\n      dup3\n        /* \"#utility.yul\":4492:4504   */\n      dup3\n        /* \"#utility.yul\":4438:4511   */\n      tag_101\n      jump\t// in\n    tag_163:\n        /* \"#utility.yul\":4430:4511   */\n      swap2\n      pop\n        /* \"#utility.yul\":4282:4522   */\n      pop\n        /* \"#utility.yul\":4605:4609   */\n      0x40\n        /* \"#utility.yul\":4598:4603   */\n      dup4\n        /* \"#utility.yul\":4594:4610   */\n      add\n        /* \"#utility.yul\":4588:4611   */\n      mload\n        /* \"#utility.yul\":4624:4687   */\n      tag_164\n        /* \"#utility.yul\":4681:4685   */\n      0x40\n        /* \"#utility.yul\":4676:4679   */\n      dup7\n        /* \"#utility.yul\":4672:4686   */\n      add\n        /* \"#utility.yul\":4658:4670   */\n      dup3\n        /* \"#utility.yul\":4624:4687   */\n      tag_99\n      jump\t// in\n    tag_164:\n        /* \"#utility.yul\":4532:4697   */\n      pop\n        /* \"#utility.yul\":4714:4718   */\n      dup1\n        /* \"#utility.yul\":4707:4718   */\n      swap2\n      pop\n        /* \"#utility.yul\":4058:4724   */\n      pop\n        /* \"#utility.yul\":3954:4724   */\n      swap3\n      swap2\n      pop\n      pop\n      jump\t// out\n        /* \"#utility.yul\":4730:4966   */\n    tag_103:\n        /* \"#utility.yul\":4839:4849   */\n      0x00\n        /* \"#utility.yul\":4874:4960   */\n      tag_166\n        /* \"#utility.yul\":4956:4959   */\n      dup4\n        /* \"#utility.yul\":4948:4954   */\n      dup4\n        /* \"#utility.yul\":4874:4960   */\n      tag_102\n      jump\t// in\n    tag_166:\n        /* \"#utility.yul\":4860:4960   */\n      swap1\n      pop\n        /* \"#utility.yul\":4730:4966   */\n      swap3\n      swap2\n      pop\n      pop\n      jump\t// out\n        /* \"#utility.yul\":4972:5105   */\n    tag_104:\n        /* \"#utility.yul\":5062:5066   */\n      0x00\n        /* \"#utility.yul\":5094:5098   */\n      0x20\n        /* \"#utility.yul\":5089:5092   */\n      dup3\n        /* \"#utility.yul\":5085:5099   */\n      add\n        /* \"#utility.yul\":5077:5099   */\n      swap1\n      pop\n        /* \"#utility.yul\":4972:5105   */\n      swap2\n      swap1\n      pop\n      jump\t// out\n        /* \"#utility.yul\":5173:6244   */\n    tag_105:\n        /* \"#utility.yul\":5332:5335   */\n      0x00\n        /* \"#utility.yul\":5361:5435   */\n      tag_169\n        /* \"#utility.yul\":5429:5434   */\n      dup3\n        /* \"#utility.yul\":5361:5435   */\n      tag_96\n      jump\t// in\n    tag_169:\n        /* \"#utility.yul\":5451:5557   */\n      tag_170\n        /* \"#utility.yul\":5550:5556   */\n      dup2\n        /* \"#utility.yul\":5545:5548   */\n      dup6\n        /* \"#utility.yul\":5451:5557   */\n      tag_97\n      jump\t// in\n    tag_170:\n        /* \"#utility.yul\":5444:5557   */\n      swap4\n      pop\n        /* \"#utility.yul\":5583:5586   */\n      dup4\n        /* \"#utility.yul\":5628:5632   */\n      0x20\n        /* \"#utility.yul\":5620:5626   */\n      dup3\n        /* \"#utility.yul\":5616:5633   */\n      mul\n        /* \"#utility.yul\":5611:5614   */\n      dup6\n        /* \"#utility.yul\":5607:5634   */\n      add\n        /* \"#utility.yul\":5658:5734   */\n      tag_171\n        /* \"#utility.yul\":5728:5733   */\n      dup6\n        /* \"#utility.yul\":5658:5734   */\n      tag_98\n      jump\t// in\n    tag_171:\n        /* \"#utility.yul\":5757:5764   */\n      dup1\n        /* \"#utility.yul\":5788:5789   */\n      0x00\n        /* \"#utility.yul\":5773:6199   */\n    tag_172:\n        /* \"#utility.yul\":5798:5804   */\n      dup6\n        /* \"#utility.yul\":5795:5796   */\n      dup2\n        /* \"#utility.yul\":5792:5805   */\n      lt\n        /* \"#utility.yul\":5773:6199   */\n      iszero\n      tag_174\n      jumpi\n        /* \"#utility.yul\":5869:5878   */\n      dup5\n        /* \"#utility.yul\":5863:5867   */\n      dup5\n        /* \"#utility.yul\":5859:5879   */\n      sub\n        /* \"#utility.yul\":5854:5857   */\n      dup10\n        /* \"#utility.yul\":5847:5880   */\n      mstore\n        /* \"#utility.yul\":5920:5926   */\n      dup2\n        /* \"#utility.yul\":5914:5927   */\n      mload\n        /* \"#utility.yul\":5948:6052   */\n      tag_175\n        /* \"#utility.yul\":6047:6051   */\n      dup6\n        /* \"#utility.yul\":6032:6045   */\n      dup3\n        /* \"#utility.yul\":5948:6052   */\n      tag_103\n      jump\t// in\n    tag_175:\n        /* \"#utility.yul\":5940:6052   */\n      swap5\n      pop\n        /* \"#utility.yul\":6075:6155   */\n      tag_176\n        /* \"#utility.yul\":6148:6154   */\n      dup4\n        /* \"#utility.yul\":6075:6155   */\n      tag_104\n      jump\t// in\n    tag_176:\n        /* \"#utility.yul\":6065:6155   */\n      swap3\n      pop\n        /* \"#utility.yul\":6184:6188   */\n      0x20\n        /* \"#utility.yul\":6179:6182   */\n      dup11\n        /* \"#utility.yul\":6175:6189   */\n      add\n        /* \"#utility.yul\":6168:6189   */\n      swap10\n      pop\n        /* \"#utility.yul\":5833:6199   */\n      pop\n        /* \"#utility.yul\":5820:5821   */\n      0x01\n        /* \"#utility.yul\":5817:5818   */\n      dup2\n        /* \"#utility.yul\":5813:5822   */\n      add\n        /* \"#utility.yul\":5808:5822   */\n      swap1\n      pop\n        /* \"#utility.yul\":5773:6199   */\n      jump(tag_172)\n    tag_174:\n        /* \"#utility.yul\":5777:5791   */\n      pop\n        /* \"#utility.yul\":6215:6219   */\n      dup3\n        /* \"#utility.yul\":6208:6219   */\n      swap8\n      pop\n        /* \"#utility.yul\":6235:6238   */\n      dup8\n        /* \"#utility.yul\":6228:6238   */\n      swap6\n      pop\n        /* \"#utility.yul\":5337:6244   */\n      pop\n      pop\n      pop\n      pop\n      pop\n        /* \"#utility.yul\":5173:6244   */\n      swap3\n      swap2\n      pop\n      pop\n      jump\t// out\n        /* \"#utility.yul\":6250:6703   */\n    tag_21:\n        /* \"#utility.yul\":6433:6437   */\n      0x00\n        /* \"#utility.yul\":6471:6473   */\n      0x20\n        /* \"#utility.yul\":6460:6469   */\n      dup3\n        /* \"#utility.yul\":6456:6474   */\n      add\n        /* \"#utility.yul\":6448:6474   */\n      swap1\n      pop\n        /* \"#utility.yul\":6520:6529   */\n      dup2\n        /* \"#utility.yul\":6514:6518   */\n      dup2\n        /* \"#utility.yul\":6510:6530   */\n      sub\n        /* \"#utility.yul\":6506:6507   */\n      0x00\n        /* \"#utility.yul\":6495:6504   */\n      dup4\n        /* \"#utility.yul\":6491:6508   */\n      add\n        /* \"#utility.yul\":6484:6531   */\n      mstore\n        /* \"#utility.yul\":6548:6696   */\n      tag_178\n        /* \"#utility.yul\":6691:6695   */\n      dup2\n        /* \"#utility.yul\":6682:6688   */\n      dup5\n        /* \"#utility.yul\":6548:6696   */\n      tag_105\n      jump\t// in\n    tag_178:\n        /* \"#utility.yul\":6540:6696   */\n      swap1\n      pop\n        /* \"#utility.yul\":6250:6703   */\n      swap3\n      swap2\n      pop\n      pop\n      jump\t// out\n        /* \"#utility.yul\":6709:6826   */\n    tag_106:\n        /* \"#utility.yul\":6818:6819   */\n      0x00\n        /* \"#utility.yul\":6815:6816   */\n      dup1\n        /* \"#utility.yul\":6808:6820   */\n      revert\n        /* \"#utility.yul\":6832:6949   */\n    tag_107:\n        /* \"#utility.yul\":6941:6942   */\n      0x00\n        /* \"#utility.yul\":6938:6939   */\n      dup1\n        /* \"#utility.yul\":6931:6943   */\n      revert\n        /* \"#utility.yul\":6955:7135   */\n    tag_108:\n        /* \"#utility.yul\":7003:7080   */\n      0x4e487b7100000000000000000000000000000000000000000000000000000000\n        /* \"#utility.yul\":7000:7001   */\n      0x00\n        /* \"#utility.yul\":6993:7081   */\n      mstore\n        /* \"#utility.yul\":7100:7104   */\n      0x41\n        /* \"#utility.yul\":7097:7098   */\n      0x04\n        /* \"#utility.yul\":7090:7105   */\n      mstore\n        /* \"#utility.yul\":7124:7128   */\n      0x24\n        /* \"#utility.yul\":7121:7122   */\n      0x00\n        /* \"#utility.yul\":7114:7129   */\n      revert\n        /* \"#utility.yul\":7141:7422   */\n    tag_109:\n        /* \"#utility.yul\":7224:7251   */\n      tag_183\n        /* \"#utility.yul\":7246:7250   */\n      dup3\n        /* \"#utility.yul\":7224:7251   */\n      tag_94\n      jump\t// in\n    tag_183:\n        /* \"#utility.yul\":7216:7222   */\n      dup2\n        /* \"#utility.yul\":7212:7252   */\n      add\n        /* \"#utility.yul\":7354:7360   */\n      dup2\n        /* \"#utility.yul\":7342:7352   */\n      dup2\n        /* \"#utility.yul\":7339:7361   */\n      lt\n        /* \"#utility.yul\":7318:7336   */\n      0xffffffffffffffff\n        /* \"#utility.yul\":7306:7316   */\n      dup3\n        /* \"#utility.yul\":7303:7337   */\n      gt\n        /* \"#utility.yul\":7300:7362   */\n      or\n        /* \"#utility.yul\":7297:7385   */\n      iszero\n      tag_184\n      jumpi\n        /* \"#utility.yul\":7365:7383   */\n      tag_185\n      tag_108\n      jump\t// in\n    tag_185:\n        /* \"#utility.yul\":7297:7385   */\n    tag_184:\n        /* \"#utility.yul\":7405:7415   */\n      dup1\n        /* \"#utility.yul\":7401:7403   */\n      0x40\n        /* \"#utility.yul\":7394:7416   */\n      mstore\n        /* \"#utility.yul\":7184:7422   */\n      pop\n        /* \"#utility.yul\":7141:7422   */\n      pop\n      pop\n      jump\t// out\n        /* \"#utility.yul\":7428:7557   */\n    tag_110:\n        /* \"#utility.yul\":7462:7468   */\n      0x00\n        /* \"#utility.yul\":7489:7509   */\n      tag_187\n      tag_84\n      jump\t// in\n    tag_187:\n        /* \"#utility.yul\":7479:7509   */\n      swap1\n      pop\n        /* \"#utility.yul\":7518:7551   */\n      tag_188\n        /* \"#utility.yul\":7546:7550   */\n      dup3\n        /* \"#utility.yul\":7538:7544   */\n      dup3\n        /* \"#utility.yul\":7518:7551   */\n      tag_109\n      jump\t// in\n    tag_188:\n        /* \"#utility.yul\":7428:7557   */\n      swap2\n      swap1\n      pop\n      jump\t// out\n        /* \"#utility.yul\":7563:7871   */\n    tag_111:\n        /* \"#utility.yul\":7625:7629   */\n      0x00\n        /* \"#utility.yul\":7715:7733   */\n      0xffffffffffffffff\n        /* \"#utility.yul\":7707:7713   */\n      dup3\n        /* \"#utility.yul\":7704:7734   */\n      gt\n        /* \"#utility.yul\":7701:7757   */\n      iszero\n      tag_190\n      jumpi\n        /* \"#utility.yul\":7737:7755   */\n      tag_191\n      tag_108\n      jump\t// in\n    tag_191:\n        /* \"#utility.yul\":7701:7757   */\n    tag_190:\n        /* \"#utility.yul\":7775:7804   */\n      tag_192\n        /* \"#utility.yul\":7797:7803   */\n      dup3\n        /* \"#utility.yul\":7775:7804   */\n      tag_94\n      jump\t// in\n    tag_192:\n        /* \"#utility.yul\":7767:7804   */\n      swap1\n      pop\n        /* \"#utility.yul\":7859:7863   */\n      0x20\n        /* \"#utility.yul\":7853:7857   */\n      dup2\n        /* \"#utility.yul\":7849:7864   */\n      add\n        /* \"#utility.yul\":7841:7864   */\n      swap1\n      pop\n        /* \"#utility.yul\":7563:7871   */\n      swap2\n      swap1\n      pop\n      jump\t// out\n        /* \"#utility.yul\":7877:8031   */\n    tag_112:\n        /* \"#utility.yul\":7961:7967   */\n      dup3\n        /* \"#utility.yul\":7956:7959   */\n      dup2\n        /* \"#utility.yul\":7951:7954   */\n      dup4\n        /* \"#utility.yul\":7938:7968   */\n      calldatacopy\n        /* \"#utility.yul\":8023:8024   */\n      0x00\n        /* \"#utility.yul\":8014:8020   */\n      dup4\n        /* \"#utility.yul\":8009:8012   */\n      dup4\n        /* \"#utility.yul\":8005:8021   */\n      add\n        /* \"#utility.yul\":7998:8025   */\n      mstore\n        /* \"#utility.yul\":7877:8031   */\n      pop\n      pop\n      pop\n      jump\t// out\n        /* \"#utility.yul\":8037:8449   */\n    tag_113:\n        /* \"#utility.yul\":8115:8120   */\n      0x00\n        /* \"#utility.yul\":8140:8206   */\n      tag_195\n        /* \"#utility.yul\":8156:8205   */\n      tag_196\n        /* \"#utility.yul\":8198:8204   */\n      dup5\n        /* \"#utility.yul\":8156:8205   */\n      tag_111\n      jump\t// in\n    tag_196:\n        /* \"#utility.yul\":8140:8206   */\n      tag_110\n      jump\t// in\n    tag_195:\n        /* \"#utility.yul\":8131:8206   */\n      swap1\n      pop\n        /* \"#utility.yul\":8229:8235   */\n      dup3\n        /* \"#utility.yul\":8222:8227   */\n      dup2\n        /* \"#utility.yul\":8215:8236   */\n      mstore\n        /* \"#utility.yul\":8267:8271   */\n      0x20\n        /* \"#utility.yul\":8260:8265   */\n      dup2\n        /* \"#utility.yul\":8256:8272   */\n      add\n        /* \"#utility.yul\":8305:8308   */\n      dup5\n        /* \"#utility.yul\":8296:8302   */\n      dup5\n        /* \"#utility.yul\":8291:8294   */\n      dup5\n        /* \"#utility.yul\":8287:8303   */\n      add\n        /* \"#utility.yul\":8284:8309   */\n      gt\n        /* \"#utility.yul\":8281:8393   */\n      iszero\n      tag_197\n      jumpi\n        /* \"#utility.yul\":8312:8391   */\n      tag_198\n      tag_107\n      jump\t// in\n    tag_198:\n        /* \"#utility.yul\":8281:8393   */\n    tag_197:\n        /* \"#utility.yul\":8402:8443   */\n      tag_199\n        /* \"#utility.yul\":8436:8442   */\n      dup5\n        /* \"#utility.yul\":8431:8434   */\n      dup3\n        /* \"#utility.yul\":8426:8429   */\n      dup6\n        /* \"#utility.yul\":8402:8443   */\n      tag_112\n      jump\t// in\n    tag_199:\n        /* \"#utility.yul\":8121:8449   */\n      pop\n        /* \"#utility.yul\":8037:8449   */\n      swap4\n      swap3\n      pop\n      pop\n      pop\n      jump\t// out\n        /* \"#utility.yul\":8469:8809   */\n    tag_114:\n        /* \"#utility.yul\":8525:8530   */\n      0x00\n        /* \"#utility.yul\":8574:8577   */\n      dup3\n        /* \"#utility.yul\":8567:8571   */\n      0x1f\n        /* \"#utility.yul\":8559:8565   */\n      dup4\n        /* \"#utility.yul\":8555:8572   */\n      add\n        /* \"#utility.yul\":8551:8578   */\n      slt\n        /* \"#utility.yul\":8541:8663   */\n      tag_201\n      jumpi\n        /* \"#utility.yul\":8582:8661   */\n      tag_202\n      tag_106\n      jump\t// in\n    tag_202:\n        /* \"#utility.yul\":8541:8663   */\n    tag_201:\n        /* \"#utility.yul\":8699:8705   */\n      dup2\n        /* \"#utility.yul\":8686:8706   */\n      calldataload\n        /* \"#utility.yul\":8724:8803   */\n      tag_203\n        /* \"#utility.yul\":8799:8802   */\n      dup5\n        /* \"#utility.yul\":8791:8797   */\n      dup3\n        /* \"#utility.yul\":8784:8788   */\n      0x20\n        /* \"#utility.yul\":8776:8782   */\n      dup7\n        /* \"#utility.yul\":8772:8789   */\n      add\n        /* \"#utility.yul\":8724:8803   */\n      tag_113\n      jump\t// in\n    tag_203:\n        /* \"#utility.yul\":8715:8803   */\n      swap2\n      pop\n        /* \"#utility.yul\":8531:8809   */\n      pop\n        /* \"#utility.yul\":8469:8809   */\n      swap3\n      swap2\n      pop\n      pop\n      jump\t// out\n        /* \"#utility.yul\":8815:9614   */\n    tag_24:\n        /* \"#utility.yul\":8902:8908   */\n      0x00\n        /* \"#utility.yul\":8910:8916   */\n      dup1\n        /* \"#utility.yul\":8918:8924   */\n      0x00\n        /* \"#utility.yul\":8967:8969   */\n      0x60\n        /* \"#utility.yul\":8955:8964   */\n      dup5\n        /* \"#utility.yul\":8946:8953   */\n      dup7\n        /* \"#utility.yul\":8942:8965   */\n      sub\n        /* \"#utility.yul\":8938:8970   */\n      slt\n        /* \"#utility.yul\":8935:9054   */\n      iszero\n      tag_205\n      jumpi\n        /* \"#utility.yul\":8973:9052   */\n      tag_206\n      tag_85\n      jump\t// in\n    tag_206:\n        /* \"#utility.yul\":8935:9054   */\n    tag_205:\n        /* \"#utility.yul\":9093:9094   */\n      0x00\n        /* \"#utility.yul\":9118:9171   */\n      tag_207\n        /* \"#utility.yul\":9163:9170   */\n      dup7\n        /* \"#utility.yul\":9154:9160   */\n      dup3\n        /* \"#utility.yul\":9143:9152   */\n      dup8\n        /* \"#utility.yul\":9139:9161   */\n      add\n        /* \"#utility.yul\":9118:9171   */\n      tag_89\n      jump\t// in\n    tag_207:\n        /* \"#utility.yul\":9108:9171   */\n      swap4\n      pop\n        /* \"#utility.yul\":9064:9181   */\n      pop\n        /* \"#utility.yul\":9248:9250   */\n      0x20\n        /* \"#utility.yul\":9237:9246   */\n      dup5\n        /* \"#utility.yul\":9233:9251   */\n      add\n        /* \"#utility.yul\":9220:9252   */\n      calldataload\n        /* \"#utility.yul\":9279:9297   */\n      0xffffffffffffffff\n        /* \"#utility.yul\":9271:9277   */\n      dup2\n        /* \"#utility.yul\":9268:9298   */\n      gt\n        /* \"#utility.yul\":9265:9382   */\n      iszero\n      tag_208\n      jumpi\n        /* \"#utility.yul\":9301:9380   */\n      tag_209\n      tag_86\n      jump\t// in\n    tag_209:\n        /* \"#utility.yul\":9265:9382   */\n    tag_208:\n        /* \"#utility.yul\":9406:9469   */\n      tag_210\n        /* \"#utility.yul\":9461:9468   */\n      dup7\n        /* \"#utility.yul\":9452:9458   */\n      dup3\n        /* \"#utility.yul\":9441:9450   */\n      dup8\n        /* \"#utility.yul\":9437:9459   */\n      add\n        /* \"#utility.yul\":9406:9469   */\n      tag_114\n      jump\t// in\n    tag_210:\n        /* \"#utility.yul\":9396:9469   */\n      swap3\n      pop\n        /* \"#utility.yul\":9191:9479   */\n      pop\n        /* \"#utility.yul\":9518:9520   */\n      0x40\n        /* \"#utility.yul\":9544:9597   */\n      tag_211\n        /* \"#utility.yul\":9589:9596   */\n      dup7\n        /* \"#utility.yul\":9580:9586   */\n      dup3\n        /* \"#utility.yul\":9569:9578   */\n      dup8\n        /* \"#utility.yul\":9565:9587   */\n      add\n        /* \"#utility.yul\":9544:9597   */\n      tag_89\n      jump\t// in\n    tag_211:\n        /* \"#utility.yul\":9534:9597   */\n      swap2\n      pop\n        /* \"#utility.yul\":9489:9607   */\n      pop\n        /* \"#utility.yul\":8815:9614   */\n      swap3\n      pop\n      swap3\n      pop\n      swap3\n      jump\t// out\n        /* \"#utility.yul\":9620:9800   */\n    tag_29:\n        /* \"#utility.yul\":9668:9745   */\n      0x4e487b7100000000000000000000000000000000000000000000000000000000\n        /* \"#utility.yul\":9665:9666   */\n      0x00\n        /* \"#utility.yul\":9658:9746   */\n      mstore\n        /* \"#utility.yul\":9765:9769   */\n      0x32\n        /* \"#utility.yul\":9762:9763   */\n      0x04\n        /* \"#utility.yul\":9755:9770   */\n      mstore\n        /* \"#utility.yul\":9789:9793   */\n      0x24\n        /* \"#utility.yul\":9786:9787   */\n      0x00\n        /* \"#utility.yul\":9779:9794   */\n      revert\n        /* \"#utility.yul\":9806:9986   */\n    tag_115:\n        /* \"#utility.yul\":9854:9931   */\n      0x4e487b7100000000000000000000000000000000000000000000000000000000\n        /* \"#utility.yul\":9851:9852   */\n      0x00\n        /* \"#utility.yul\":9844:9932   */\n      mstore\n        /* \"#utility.yul\":9951:9955   */\n      0x22\n        /* \"#utility.yul\":9948:9949   */\n      0x04\n        /* \"#utility.yul\":9941:9956   */\n      mstore\n        /* \"#utility.yul\":9975:9979   */\n      0x24\n        /* \"#utility.yul\":9972:9973   */\n      0x00\n        /* \"#utility.yul\":9965:9980   */\n      revert\n        /* \"#utility.yul\":9992:10312   */\n    tag_35:\n        /* \"#utility.yul\":10036:10042   */\n      0x00\n        /* \"#utility.yul\":10073:10074   */\n      0x02\n        /* \"#utility.yul\":10067:10071   */\n      dup3\n        /* \"#utility.yul\":10063:10075   */\n      div\n        /* \"#utility.yul\":10053:10075   */\n      swap1\n      pop\n        /* \"#utility.yul\":10120:10121   */\n      0x01\n        /* \"#utility.yul\":10114:10118   */\n      dup3\n        /* \"#utility.yul\":10110:10122   */\n      and\n        /* \"#utility.yul\":10141:10159   */\n      dup1\n        /* \"#utility.yul\":10131:10212   */\n      tag_215\n      jumpi\n        /* \"#utility.yul\":10197:10201   */\n      0x7f\n        /* \"#utility.yul\":10189:10195   */\n      dup3\n        /* \"#utility.yul\":10185:10202   */\n      and\n        /* \"#utility.yul\":10175:10202   */\n      swap2\n      pop\n        /* \"#utility.yul\":10131:10212   */\n    tag_215:\n        /* \"#utility.yul\":10259:10261   */\n      0x20\n        /* \"#utility.yul\":10251:10257   */\n      dup3\n        /* \"#utility.yul\":10248:10262   */\n      lt\n        /* \"#utility.yul\":10228:10246   */\n      dup2\n        /* \"#utility.yul\":10225:10263   */\n      sub\n        /* \"#utility.yul\":10222:10306   */\n      tag_216\n      jumpi\n        /* \"#utility.yul\":10278:10296   */\n      tag_217\n      tag_115\n      jump\t// in\n    tag_217:\n        /* \"#utility.yul\":10222:10306   */\n    tag_216:\n        /* \"#utility.yul\":10043:10312   */\n      pop\n        /* \"#utility.yul\":9992:10312   */\n      swap2\n      swap1\n      pop\n      jump\t// out\n        /* \"#utility.yul\":10318:10498   */\n    tag_116:\n        /* \"#utility.yul\":10366:10443   */\n      0x4e487b7100000000000000000000000000000000000000000000000000000000\n        /* \"#utility.yul\":10363:10364   */\n      0x00\n        /* \"#utility.yul\":10356:10444   */\n      mstore\n        /* \"#utility.yul\":10463:10467   */\n      0x11\n        /* \"#utility.yul\":10460:10461   */\n      0x04\n        /* \"#utility.yul\":10453:10468   */\n      mstore\n        /* \"#utility.yul\":10487:10491   */\n      0x24\n        /* \"#utility.yul\":10484:10485   */\n      0x00\n        /* \"#utility.yul\":10477:10492   */\n      revert\n        /* \"#utility.yul\":10504:10737   */\n    tag_69:\n        /* \"#utility.yul\":10543:10546   */\n      0x00\n        /* \"#utility.yul\":10566:10590   */\n      tag_220\n        /* \"#utility.yul\":10584:10589   */\n      dup3\n        /* \"#utility.yul\":10566:10590   */\n      tag_87\n      jump\t// in\n    tag_220:\n        /* \"#utility.yul\":10557:10590   */\n      swap2\n      pop\n        /* \"#utility.yul\":10612:10678   */\n      0xffffffffffffffffffffffffffffffffffffffffffffffffffffffffffffffff\n        /* \"#utility.yul\":10605:10610   */\n      dup3\n        /* \"#utility.yul\":10602:10679   */\n      sub\n        /* \"#utility.yul\":10599:10702   */\n      tag_221\n      jumpi\n        /* \"#utility.yul\":10682:10700   */\n      tag_222\n      tag_116\n      jump\t// in\n    tag_222:\n        /* \"#utility.yul\":10599:10702   */\n    tag_221:\n        /* \"#utility.yul\":10729:10730   */\n      0x01\n        /* \"#utility.yul\":10722:10727   */\n      dup3\n        /* \"#utility.yul\":10718:10731   */\n      add\n        /* \"#utility.yul\":10711:10731   */\n      swap1\n      pop\n        /* \"#utility.yul\":10504:10737   */\n      swap2\n      swap1\n      pop\n      jump\t// out\n\n    auxdata: 0xa2646970667358221220466b2f50bec0a9afc305fb14cb434c140c125532389f987d97cf0b4fe6ca2bd464736f6c634300080d0033\n}\n",
				"bytecode": {
					"linkReferences": {},
					"object": "608060405234801561001057600080fd5b50610b03806100206000396000f3fe608060405234801561001057600080fd5b506004361061004c5760003560e01c80630178fe3f146100515780634a96d170146100835780636b85da7c146100b5578063cc295b66146100e5575b600080fd5b61006b60048036038101906100669190610583565b610101565b60405161007a93929190610658565b60405180910390f35b61009d60048036038101906100989190610583565b61020d565b6040516100ac93929190610658565b60405180910390f35b6100cf60048036038101906100ca9190610583565b6102cf565b6040516100dc9190610801565b60405180910390f35b6100ff60048036038101906100fa9190610958565b610418565b005b60006060600080848154811061011a576101196109c7565b5b906000526020600020906003020160000154925060008481548110610142576101416109c7565b5b9060005260206000209060030201600101805461015e90610a25565b80601f016020809104026020016040519081016040528092919081815260200182805461018a90610a25565b80156101d75780601f106101ac576101008083540402835291602001916101d7565b820191906000526020600020905b8154815290600101906020018083116101ba57829003601f168201915b50505050509150600084815481106101f2576101f16109c7565b5b90600052602060002090600302016002015490509193909250565b6000818154811061021d57600080fd5b906000526020600020906003020160009150905080600001549080600101805461024690610a25565b80601f016020809104026020016040519081016040528092919081815260200182805461027290610a25565b80156102bf5780601f10610294576101008083540402835291602001916102bf565b820191906000526020600020905b8154815290600101906020018083116102a257829003601f168201915b5050505050908060020154905083565b606060005b6000805490508110156104125782600082815481106102f6576102f56109c7565b5b906000526020600020906003020160000154036103ff5760008181548110610321576103206109c7565b5b90600052602060002090600302016040518060600160405290816000820154815260200160018201805461035490610a25565b80601f016020809104026020016040519081016040528092919081815260200182805461038090610a25565b80156103cd5780601f106103a2576101008083540402835291602001916103cd565b820191906000526020600020905b8154815290600101906020018083116103b057829003601f168201915b505050505081526020016002820154815250508282815181106103f3576103f26109c7565b5b60200260200101819052505b808061040a90610a85565b9150506102d4565b50919050565b60006040518060600160405280858152602001848152602001838152509080600181540180825580915050600190039060005260206000209060030201600090919091909150600082015181600001556020820151816001019080519060200190610484929190610496565b50604082015181600201555050505050565b8280546104a290610a25565b90600052602060002090601f0160209004810192826104c4576000855561050b565b82601f106104dd57805160ff191683800117855561050b565b8280016001018555821561050b579182015b8281111561050a5782518255916020019190600101906104ef565b5b509050610518919061051c565b5090565b5b8082111561053557600081600090555060010161051d565b5090565b6000604051905090565b600080fd5b600080fd5b6000819050919050565b6105608161054d565b811461056b57600080fd5b50565b60008135905061057d81610557565b92915050565b60006020828403121561059957610598610543565b5b60006105a78482850161056e565b91505092915050565b6105b98161054d565b82525050565b600081519050919050565b600082825260208201905092915050565b60005b838110156105f95780820151818401526020810190506105de565b83811115610608576000848401525b50505050565b6000601f19601f8301169050919050565b600061062a826105bf565b61063481856105ca565b93506106448185602086016105db565b61064d8161060e565b840191505092915050565b600060608201905061066d60008301866105b0565b818103602083015261067f818561061f565b905061068e60408301846105b0565b949350505050565b600081519050919050565b600082825260208201905092915050565b6000819050602082019050919050565b6106cb8161054d565b82525050565b600082825260208201905092915050565b60006106ed826105bf565b6106f781856106d1565b93506107078185602086016105db565b6107108161060e565b840191505092915050565b600060608301600083015161073360008601826106c2565b506020830151848203602086015261074b82826106e2565b915050604083015161076060408601826106c2565b508091505092915050565b6000610777838361071b565b905092915050565b6000602082019050919050565b600061079782610696565b6107a181856106a1565b9350836020820285016107b3856106b2565b8060005b858110156107ef57848403895281516107d0858261076b565b94506107db8361077f565b925060208a019950506001810190506107b7565b50829750879550505050505092915050565b6000602082019050818103600083015261081b818461078c565b905092915050565b600080fd5b600080fd5b7f4e487b7100000000000000000000000000000000000000000000000000000000600052604160045260246000fd5b6108658261060e565b810181811067ffffffffffffffff821117156108845761088361082d565b5b80604052505050565b6000610897610539565b90506108a3828261085c565b919050565b600067ffffffffffffffff8211156108c3576108c261082d565b5b6108cc8261060e565b9050602081019050919050565b82818337600083830152505050565b60006108fb6108f6846108a8565b61088d565b90508281526020810184848401111561091757610916610828565b5b6109228482856108d9565b509392505050565b600082601f83011261093f5761093e610823565b5b813561094f8482602086016108e8565b91505092915050565b60008060006060848603121561097157610970610543565b5b600061097f8682870161056e565b935050602084013567ffffffffffffffff8111156109a05761099f610548565b5b6109ac8682870161092a565b92505060406109bd8682870161056e565b9150509250925092565b7f4e487b7100000000000000000000000000000000000000000000000000000000600052603260045260246000fd5b7f4e487b7100000000000000000000000000000000000000000000000000000000600052602260045260246000fd5b60006002820490506001821680610a3d57607f821691505b602082108103610a5057610a4f6109f6565b5b50919050565b7f4e487b7100000000000000000000000000000000000000000000000000000000600052601160045260246000fd5b6000610a908261054d565b91507fffffffffffffffffffffffffffffffffffffffffffffffffffffffffffffffff8203610ac257610ac1610a56565b5b60018201905091905056fea2646970667358221220466b2f50bec0a9afc305fb14cb434c140c125532389f987d97cf0b4fe6ca2bd464736f6c634300080d0033",
					"opcodes": "PUSH1 0x80 PUSH1 0x40 MSTORE CALLVALUE DUP1 ISZERO PUSH2 0x10 JUMPI PUSH1 0x0 DUP1 REVERT JUMPDEST POP PUSH2 0xB03 DUP1 PUSH2 0x20 PUSH1 0x0 CODECOPY PUSH1 0x0 RETURN INVALID PUSH1 0x80 PUSH1 0x40 MSTORE CALLVALUE DUP1 ISZERO PUSH2 0x10 JUMPI PUSH1 0x0 DUP1 REVERT JUMPDEST POP PUSH1 0x4 CALLDATASIZE LT PUSH2 0x4C JUMPI PUSH1 0x0 CALLDATALOAD PUSH1 0xE0 SHR DUP1 PUSH4 0x178FE3F EQ PUSH2 0x51 JUMPI DUP1 PUSH4 0x4A96D170 EQ PUSH2 0x83 JUMPI DUP1 PUSH4 0x6B85DA7C EQ PUSH2 0xB5 JUMPI DUP1 PUSH4 0xCC295B66 EQ PUSH2 0xE5 JUMPI JUMPDEST PUSH1 0x0 DUP1 REVERT JUMPDEST PUSH2 0x6B PUSH1 0x4 DUP1 CALLDATASIZE SUB DUP2 ADD SWAP1 PUSH2 0x66 SWAP2 SWAP1 PUSH2 0x583 JUMP JUMPDEST PUSH2 0x101 JUMP JUMPDEST PUSH1 0x40 MLOAD PUSH2 0x7A SWAP4 SWAP3 SWAP2 SWAP1 PUSH2 0x658 JUMP JUMPDEST PUSH1 0x40 MLOAD DUP1 SWAP2 SUB SWAP1 RETURN JUMPDEST PUSH2 0x9D PUSH1 0x4 DUP1 CALLDATASIZE SUB DUP2 ADD SWAP1 PUSH2 0x98 SWAP2 SWAP1 PUSH2 0x583 JUMP JUMPDEST PUSH2 0x20D JUMP JUMPDEST PUSH1 0x40 MLOAD PUSH2 0xAC SWAP4 SWAP3 SWAP2 SWAP1 PUSH2 0x658 JUMP JUMPDEST PUSH1 0x40 MLOAD DUP1 SWAP2 SUB SWAP1 RETURN JUMPDEST PUSH2 0xCF PUSH1 0x4 DUP1 CALLDATASIZE SUB DUP2 ADD SWAP1 PUSH2 0xCA SWAP2 SWAP1 PUSH2 0x583 JUMP JUMPDEST PUSH2 0x2CF JUMP JUMPDEST PUSH1 0x40 MLOAD PUSH2 0xDC SWAP2 SWAP1 PUSH2 0x801 JUMP JUMPDEST PUSH1 0x40 MLOAD DUP1 SWAP2 SUB SWAP1 RETURN JUMPDEST PUSH2 0xFF PUSH1 0x4 DUP1 CALLDATASIZE SUB DUP2 ADD SWAP1 PUSH2 0xFA SWAP2 SWAP1 PUSH2 0x958 JUMP JUMPDEST PUSH2 0x418 JUMP JUMPDEST STOP JUMPDEST PUSH1 0x0 PUSH1 0x60 PUSH1 0x0 DUP1 DUP5 DUP2 SLOAD DUP2 LT PUSH2 0x11A JUMPI PUSH2 0x119 PUSH2 0x9C7 JUMP JUMPDEST JUMPDEST SWAP1 PUSH1 0x0 MSTORE PUSH1 0x20 PUSH1 0x0 KECCAK256 SWAP1 PUSH1 0x3 MUL ADD PUSH1 0x0 ADD SLOAD SWAP3 POP PUSH1 0x0 DUP5 DUP2 SLOAD DUP2 LT PUSH2 0x142 JUMPI PUSH2 0x141 PUSH2 0x9C7 JUMP JUMPDEST JUMPDEST SWAP1 PUSH1 0x0 MSTORE PUSH1 0x20 PUSH1 0x0 KECCAK256 SWAP1 PUSH1 0x3 MUL ADD PUSH1 0x1 ADD DUP1 SLOAD PUSH2 0x15E SWAP1 PUSH2 0xA25 JUMP JUMPDEST DUP1 PUSH1 0x1F ADD PUSH1 0x20 DUP1 SWAP2 DIV MUL PUSH1 0x20 ADD PUSH1 0x40 MLOAD SWAP1 DUP2 ADD PUSH1 0x40 MSTORE DUP1 SWAP3 SWAP2 SWAP1 DUP2 DUP2 MSTORE PUSH1 0x20 ADD DUP3 DUP1 SLOAD PUSH2 0x18A SWAP1 PUSH2 0xA25 JUMP JUMPDEST DUP1 ISZERO PUSH2 0x1D7 JUMPI DUP1 PUSH1 0x1F LT PUSH2 0x1AC JUMPI PUSH2 0x100 DUP1 DUP4 SLOAD DIV MUL DUP4 MSTORE SWAP2 PUSH1 0x20 ADD SWAP2 PUSH2 0x1D7 JUMP JUMPDEST DUP3 ADD SWAP2 SWAP1 PUSH1 0x0 MSTORE PUSH1 0x20 PUSH1 0x0 KECCAK256 SWAP1 JUMPDEST DUP2 SLOAD DUP2 MSTORE SWAP1 PUSH1 0x1 ADD SWAP1 PUSH1 0x20 ADD DUP1 DUP4 GT PUSH2 0x1BA JUMPI DUP3 SWAP1 SUB PUSH1 0x1F AND DUP3 ADD SWAP2 JUMPDEST POP POP POP POP POP SWAP2 POP PUSH1 0x0 DUP5 DUP2 SLOAD DUP2 LT PUSH2 0x1F2 JUMPI PUSH2 0x1F1 PUSH2 0x9C7 JUMP JUMPDEST JUMPDEST SWAP1 PUSH1 0x0 MSTORE PUSH1 0x20 PUSH1 0x0 KECCAK256 SWAP1 PUSH1 0x3 MUL ADD PUSH1 0x2 ADD SLOAD SWAP1 POP SWAP2 SWAP4 SWAP1 SWAP3 POP JUMP JUMPDEST PUSH1 0x0 DUP2 DUP2 SLOAD DUP2 LT PUSH2 0x21D JUMPI PUSH1 0x0 DUP1 REVERT JUMPDEST SWAP1 PUSH1 0x0 MSTORE PUSH1 0x20 PUSH1 0x0 KECCAK256 SWAP1 PUSH1 0x3 MUL ADD PUSH1 0x0 SWAP2 POP SWAP1 POP DUP1 PUSH1 0x0 ADD SLOAD SWAP1 DUP1 PUSH1 0x1 ADD DUP1 SLOAD PUSH2 0x246 SWAP1 PUSH2 0xA25 JUMP JUMPDEST DUP1 PUSH1 0x1F ADD PUSH1 0x20 DUP1 SWAP2 DIV MUL PUSH1 0x20 ADD PUSH1 0x40 MLOAD SWAP1 DUP2 ADD PUSH1 0x40 MSTORE DUP1 SWAP3 SWAP2 SWAP1 DUP2 DUP2 MSTORE PUSH1 0x20 ADD DUP3 DUP1 SLOAD PUSH2 0x272 SWAP1 PUSH2 0xA25 JUMP JUMPDEST DUP1 ISZERO PUSH2 0x2BF JUMPI DUP1 PUSH1 0x1F LT PUSH2 0x294 JUMPI PUSH2 0x100 DUP1 DUP4 SLOAD DIV MUL DUP4 MSTORE SWAP2 PUSH1 0x20 ADD SWAP2 PUSH2 0x2BF JUMP JUMPDEST DUP3 ADD SWAP2 SWAP1 PUSH1 0x0 MSTORE PUSH1 0x20 PUSH1 0x0 KECCAK256 SWAP1 JUMPDEST DUP2 SLOAD DUP2 MSTORE SWAP1 PUSH1 0x1 ADD SWAP1 PUSH1 0x20 ADD DUP1 DUP4 GT PUSH2 0x2A2 JUMPI DUP3 SWAP1 SUB PUSH1 0x1F AND DUP3 ADD SWAP2 JUMPDEST POP POP POP POP POP SWAP1 DUP1 PUSH1 0x2 ADD SLOAD SWAP1 POP DUP4 JUMP JUMPDEST PUSH1 0x60 PUSH1 0x0 JUMPDEST PUSH1 0x0 DUP1 SLOAD SWAP1 POP DUP2 LT ISZERO PUSH2 0x412 JUMPI DUP3 PUSH1 0x0 DUP3 DUP2 SLOAD DUP2 LT PUSH2 0x2F6 JUMPI PUSH2 0x2F5 PUSH2 0x9C7 JUMP JUMPDEST JUMPDEST SWAP1 PUSH1 0x0 MSTORE PUSH1 0x20 PUSH1 0x0 KECCAK256 SWAP1 PUSH1 0x3 MUL ADD PUSH1 0x0 ADD SLOAD SUB PUSH2 0x3FF JUMPI PUSH1 0x0 DUP2 DUP2 SLOAD DUP2 LT PUSH2 0x321 JUMPI PUSH2 0x320 PUSH2 0x9C7 JUMP JUMPDEST JUMPDEST SWAP1 PUSH1 0x0 MSTORE PUSH1 0x20 PUSH1 0x0 KECCAK256 SWAP1 PUSH1 0x3 MUL ADD PUSH1 0x40 MLOAD DUP1 PUSH1 0x60 ADD PUSH1 0x40 MSTORE SWAP1 DUP2 PUSH1 0x0 DUP3 ADD SLOAD DUP2 MSTORE PUSH1 0x20 ADD PUSH1 0x1 DUP3 ADD DUP1 SLOAD PUSH2 0x354 SWAP1 PUSH2 0xA25 JUMP JUMPDEST DUP1 PUSH1 0x1F ADD PUSH1 0x20 DUP1 SWAP2 DIV MUL PUSH1 0x20 ADD PUSH1 0x40 MLOAD SWAP1 DUP2 ADD PUSH1 0x40 MSTORE DUP1 SWAP3 SWAP2 SWAP1 DUP2 DUP2 MSTORE PUSH1 0x20 ADD DUP3 DUP1 SLOAD PUSH2 0x380 SWAP1 PUSH2 0xA25 JUMP JUMPDEST DUP1 ISZERO PUSH2 0x3CD JUMPI DUP1 PUSH1 0x1F LT PUSH2 0x3A2 JUMPI PUSH2 0x100 DUP1 DUP4 SLOAD DIV MUL DUP4 MSTORE SWAP2 PUSH1 0x20 ADD SWAP2 PUSH2 0x3CD JUMP JUMPDEST DUP3 ADD SWAP2 SWAP1 PUSH1 0x0 MSTORE PUSH1 0x20 PUSH1 0x0 KECCAK256 SWAP1 JUMPDEST DUP2 SLOAD DUP2 MSTORE SWAP1 PUSH1 0x1 ADD SWAP1 PUSH1 0x20 ADD DUP1 DUP4 GT PUSH2 0x3B0 JUMPI DUP3 SWAP1 SUB PUSH1 0x1F AND DUP3 ADD SWAP2 JUMPDEST POP POP POP POP POP DUP2 MSTORE PUSH1 0x20 ADD PUSH1 0x2 DUP3 ADD SLOAD DUP2 MSTORE POP POP DUP3 DUP3 DUP2 MLOAD DUP2 LT PUSH2 0x3F3 JUMPI PUSH2 0x3F2 PUSH2 0x9C7 JUMP JUMPDEST JUMPDEST PUSH1 0x20 MUL PUSH1 0x20 ADD ADD DUP2 SWAP1 MSTORE POP JUMPDEST DUP1 DUP1 PUSH2 0x40A SWAP1 PUSH2 0xA85 JUMP JUMPDEST SWAP2 POP POP PUSH2 0x2D4 JUMP JUMPDEST POP SWAP2 SWAP1 POP JUMP JUMPDEST PUSH1 0x0 PUSH1 0x40 MLOAD DUP1 PUSH1 0x60 ADD PUSH1 0x40 MSTORE DUP1 DUP6 DUP2 MSTORE PUSH1 0x20 ADD DUP5 DUP2 MSTORE PUSH1 0x20 ADD DUP4 DUP2 MSTORE POP SWAP1 DUP1 PUSH1 0x1 DUP2 SLOAD ADD DUP1 DUP3 SSTORE DUP1 SWAP2 POP POP PUSH1 0x1 SWAP1 SUB SWAP1 PUSH1 0x0 MSTORE PUSH1 0x20 PUSH1 0x0 KECCAK256 SWAP1 PUSH1 0x3 MUL ADD PUSH1 0x0 SWAP1 SWAP2 SWAP1 SWAP2 SWAP1 SWAP2 POP PUSH1 0x0 DUP3 ADD MLOAD DUP2 PUSH1 0x0 ADD SSTORE PUSH1 0x20 DUP3 ADD MLOAD DUP2 PUSH1 0x1 ADD SWAP1 DUP1 MLOAD SWAP1 PUSH1 0x20 ADD SWAP1 PUSH2 0x484 SWAP3 SWAP2 SWAP1 PUSH2 0x496 JUMP JUMPDEST POP PUSH1 0x40 DUP3 ADD MLOAD DUP2 PUSH1 0x2 ADD SSTORE POP POP POP POP POP JUMP JUMPDEST DUP3 DUP1 SLOAD PUSH2 0x4A2 SWAP1 PUSH2 0xA25 JUMP JUMPDEST SWAP1 PUSH1 0x0 MSTORE PUSH1 0x20 PUSH1 0x0 KECCAK256 SWAP1 PUSH1 0x1F ADD PUSH1 0x20 SWAP1 DIV DUP2 ADD SWAP3 DUP3 PUSH2 0x4C4 JUMPI PUSH1 0x0 DUP6 SSTORE PUSH2 0x50B JUMP JUMPDEST DUP3 PUSH1 0x1F LT PUSH2 0x4DD JUMPI DUP1 MLOAD PUSH1 0xFF NOT AND DUP4 DUP1 ADD OR DUP6 SSTORE PUSH2 0x50B JUMP JUMPDEST DUP3 DUP1 ADD PUSH1 0x1 ADD DUP6 SSTORE DUP3 ISZERO PUSH2 0x50B JUMPI SWAP2 DUP3 ADD JUMPDEST DUP3 DUP2 GT ISZERO PUSH2 0x50A JUMPI DUP3 MLOAD DUP3 SSTORE SWAP2 PUSH1 0x20 ADD SWAP2 SWAP1 PUSH1 0x1 ADD SWAP1 PUSH2 0x4EF JUMP JUMPDEST JUMPDEST POP SWAP1 POP PUSH2 0x518 SWAP2 SWAP1 PUSH2 0x51C JUMP JUMPDEST POP SWAP1 JUMP JUMPDEST JUMPDEST DUP1 DUP3 GT ISZERO PUSH2 0x535 JUMPI PUSH1 0x0 DUP2 PUSH1 0x0 SWAP1 SSTORE POP PUSH1 0x1 ADD PUSH2 0x51D JUMP JUMPDEST POP SWAP1 JUMP JUMPDEST PUSH1 0x0 PUSH1 0x40 MLOAD SWAP1 POP SWAP1 JUMP JUMPDEST PUSH1 0x0 DUP1 REVERT JUMPDEST PUSH1 0x0 DUP1 REVERT JUMPDEST PUSH1 0x0 DUP2 SWAP1 POP SWAP2 SWAP1 POP JUMP JUMPDEST PUSH2 0x560 DUP2 PUSH2 0x54D JUMP JUMPDEST DUP2 EQ PUSH2 0x56B JUMPI PUSH1 0x0 DUP1 REVERT JUMPDEST POP JUMP JUMPDEST PUSH1 0x0 DUP2 CALLDATALOAD SWAP1 POP PUSH2 0x57D DUP2 PUSH2 0x557 JUMP JUMPDEST SWAP3 SWAP2 POP POP JUMP JUMPDEST PUSH1 0x0 PUSH1 0x20 DUP3 DUP5 SUB SLT ISZERO PUSH2 0x599 JUMPI PUSH2 0x598 PUSH2 0x543 JUMP JUMPDEST JUMPDEST PUSH1 0x0 PUSH2 0x5A7 DUP5 DUP3 DUP6 ADD PUSH2 0x56E JUMP JUMPDEST SWAP2 POP POP SWAP3 SWAP2 POP POP JUMP JUMPDEST PUSH2 0x5B9 DUP2 PUSH2 0x54D JUMP JUMPDEST DUP3 MSTORE POP POP JUMP JUMPDEST PUSH1 0x0 DUP2 MLOAD SWAP1 POP SWAP2 SWAP1 POP JUMP JUMPDEST PUSH1 0x0 DUP3 DUP3 MSTORE PUSH1 0x20 DUP3 ADD SWAP1 POP SWAP3 SWAP2 POP POP JUMP JUMPDEST PUSH1 0x0 JUMPDEST DUP4 DUP2 LT ISZERO PUSH2 0x5F9 JUMPI DUP1 DUP3 ADD MLOAD DUP2 DUP5 ADD MSTORE PUSH1 0x20 DUP2 ADD SWAP1 POP PUSH2 0x5DE JUMP JUMPDEST DUP4 DUP2 GT ISZERO PUSH2 0x608 JUMPI PUSH1 0x0 DUP5 DUP5 ADD MSTORE JUMPDEST POP POP POP POP JUMP JUMPDEST PUSH1 0x0 PUSH1 0x1F NOT PUSH1 0x1F DUP4 ADD AND SWAP1 POP SWAP2 SWAP1 POP JUMP JUMPDEST PUSH1 0x0 PUSH2 0x62A DUP3 PUSH2 0x5BF JUMP JUMPDEST PUSH2 0x634 DUP2 DUP6 PUSH2 0x5CA JUMP JUMPDEST SWAP4 POP PUSH2 0x644 DUP2 DUP6 PUSH1 0x20 DUP7 ADD PUSH2 0x5DB JUMP JUMPDEST PUSH2 0x64D DUP2 PUSH2 0x60E JUMP JUMPDEST DUP5 ADD SWAP2 POP POP SWAP3 SWAP2 POP POP JUMP JUMPDEST PUSH1 0x0 PUSH1 0x60 DUP3 ADD SWAP1 POP PUSH2 0x66D PUSH1 0x0 DUP4 ADD DUP7 PUSH2 0x5B0 JUMP JUMPDEST DUP2 DUP2 SUB PUSH1 0x20 DUP4 ADD MSTORE PUSH2 0x67F DUP2 DUP6 PUSH2 0x61F JUMP JUMPDEST SWAP1 POP PUSH2 0x68E PUSH1 0x40 DUP4 ADD DUP5 PUSH2 0x5B0 JUMP JUMPDEST SWAP5 SWAP4 POP POP POP POP JUMP JUMPDEST PUSH1 0x0 DUP2 MLOAD SWAP1 POP SWAP2 SWAP1 POP JUMP JUMPDEST PUSH1 0x0 DUP3 DUP3 MSTORE PUSH1 0x20 DUP3 ADD SWAP1 POP SWAP3 SWAP2 POP POP JUMP JUMPDEST PUSH1 0x0 DUP2 SWAP1 POP PUSH1 0x20 DUP3 ADD SWAP1 POP SWAP2 SWAP1 POP JUMP JUMPDEST PUSH2 0x6CB DUP2 PUSH2 0x54D JUMP JUMPDEST DUP3 MSTORE POP POP JUMP JUMPDEST PUSH1 0x0 DUP3 DUP3 MSTORE PUSH1 0x20 DUP3 ADD SWAP1 POP SWAP3 SWAP2 POP POP JUMP JUMPDEST PUSH1 0x0 PUSH2 0x6ED DUP3 PUSH2 0x5BF JUMP JUMPDEST PUSH2 0x6F7 DUP2 DUP6 PUSH2 0x6D1 JUMP JUMPDEST SWAP4 POP PUSH2 0x707 DUP2 DUP6 PUSH1 0x20 DUP7 ADD PUSH2 0x5DB JUMP JUMPDEST PUSH2 0x710 DUP2 PUSH2 0x60E JUMP JUMPDEST DUP5 ADD SWAP2 POP POP SWAP3 SWAP2 POP POP JUMP JUMPDEST PUSH1 0x0 PUSH1 0x60 DUP4 ADD PUSH1 0x0 DUP4 ADD MLOAD PUSH2 0x733 PUSH1 0x0 DUP7 ADD DUP3 PUSH2 0x6C2 JUMP JUMPDEST POP PUSH1 0x20 DUP4 ADD MLOAD DUP5 DUP3 SUB PUSH1 0x20 DUP7 ADD MSTORE PUSH2 0x74B DUP3 DUP3 PUSH2 0x6E2 JUMP JUMPDEST SWAP2 POP POP PUSH1 0x40 DUP4 ADD MLOAD PUSH2 0x760 PUSH1 0x40 DUP7 ADD DUP3 PUSH2 0x6C2 JUMP JUMPDEST POP DUP1 SWAP2 POP POP SWAP3 SWAP2 POP POP JUMP JUMPDEST PUSH1 0x0 PUSH2 0x777 DUP4 DUP4 PUSH2 0x71B JUMP JUMPDEST SWAP1 POP SWAP3 SWAP2 POP POP JUMP JUMPDEST PUSH1 0x0 PUSH1 0x20 DUP3 ADD SWAP1 POP SWAP2 SWAP1 POP JUMP JUMPDEST PUSH1 0x0 PUSH2 0x797 DUP3 PUSH2 0x696 JUMP JUMPDEST PUSH2 0x7A1 DUP2 DUP6 PUSH2 0x6A1 JUMP JUMPDEST SWAP4 POP DUP4 PUSH1 0x20 DUP3 MUL DUP6 ADD PUSH2 0x7B3 DUP6 PUSH2 0x6B2 JUMP JUMPDEST DUP1 PUSH1 0x0 JUMPDEST DUP6 DUP2 LT ISZERO PUSH2 0x7EF JUMPI DUP5 DUP5 SUB DUP10 MSTORE DUP2 MLOAD PUSH2 0x7D0 DUP6 DUP3 PUSH2 0x76B JUMP JUMPDEST SWAP5 POP PUSH2 0x7DB DUP4 PUSH2 0x77F JUMP JUMPDEST SWAP3 POP PUSH1 0x20 DUP11 ADD SWAP10 POP POP PUSH1 0x1 DUP2 ADD SWAP1 POP PUSH2 0x7B7 JUMP JUMPDEST POP DUP3 SWAP8 POP DUP8 SWAP6 POP POP POP POP POP POP SWAP3 SWAP2 POP POP JUMP JUMPDEST PUSH1 0x0 PUSH1 0x20 DUP3 ADD SWAP1 POP DUP2 DUP2 SUB PUSH1 0x0 DUP4 ADD MSTORE PUSH2 0x81B DUP2 DUP5 PUSH2 0x78C JUMP JUMPDEST SWAP1 POP SWAP3 SWAP2 POP POP JUMP JUMPDEST PUSH1 0x0 DUP1 REVERT JUMPDEST PUSH1 0x0 DUP1 REVERT JUMPDEST PUSH32 0x4E487B7100000000000000000000000000000000000000000000000000000000 PUSH1 0x0 MSTORE PUSH1 0x41 PUSH1 0x4 MSTORE PUSH1 0x24 PUSH1 0x0 REVERT JUMPDEST PUSH2 0x865 DUP3 PUSH2 0x60E JUMP JUMPDEST DUP2 ADD DUP2 DUP2 LT PUSH8 0xFFFFFFFFFFFFFFFF DUP3 GT OR ISZERO PUSH2 0x884 JUMPI PUSH2 0x883 PUSH2 0x82D JUMP JUMPDEST JUMPDEST DUP1 PUSH1 0x40 MSTORE POP POP POP JUMP JUMPDEST PUSH1 0x0 PUSH2 0x897 PUSH2 0x539 JUMP JUMPDEST SWAP1 POP PUSH2 0x8A3 DUP3 DUP3 PUSH2 0x85C JUMP JUMPDEST SWAP2 SWAP1 POP JUMP JUMPDEST PUSH1 0x0 PUSH8 0xFFFFFFFFFFFFFFFF DUP3 GT ISZERO PUSH2 0x8C3 JUMPI PUSH2 0x8C2 PUSH2 0x82D JUMP JUMPDEST JUMPDEST PUSH2 0x8CC DUP3 PUSH2 0x60E JUMP JUMPDEST SWAP1 POP PUSH1 0x20 DUP2 ADD SWAP1 POP SWAP2 SWAP1 POP JUMP JUMPDEST DUP3 DUP2 DUP4 CALLDATACOPY PUSH1 0x0 DUP4 DUP4 ADD MSTORE POP POP POP JUMP JUMPDEST PUSH1 0x0 PUSH2 0x8FB PUSH2 0x8F6 DUP5 PUSH2 0x8A8 JUMP JUMPDEST PUSH2 0x88D JUMP JUMPDEST SWAP1 POP DUP3 DUP2 MSTORE PUSH1 0x20 DUP2 ADD DUP5 DUP5 DUP5 ADD GT ISZERO PUSH2 0x917 JUMPI PUSH2 0x916 PUSH2 0x828 JUMP JUMPDEST JUMPDEST PUSH2 0x922 DUP5 DUP3 DUP6 PUSH2 0x8D9 JUMP JUMPDEST POP SWAP4 SWAP3 POP POP POP JUMP JUMPDEST PUSH1 0x0 DUP3 PUSH1 0x1F DUP4 ADD SLT PUSH2 0x93F JUMPI PUSH2 0x93E PUSH2 0x823 JUMP JUMPDEST JUMPDEST DUP2 CALLDATALOAD PUSH2 0x94F DUP5 DUP3 PUSH1 0x20 DUP7 ADD PUSH2 0x8E8 JUMP JUMPDEST SWAP2 POP POP SWAP3 SWAP2 POP POP JUMP JUMPDEST PUSH1 0x0 DUP1 PUSH1 0x0 PUSH1 0x60 DUP5 DUP7 SUB SLT ISZERO PUSH2 0x971 JUMPI PUSH2 0x970 PUSH2 0x543 JUMP JUMPDEST JUMPDEST PUSH1 0x0 PUSH2 0x97F DUP7 DUP3 DUP8 ADD PUSH2 0x56E JUMP JUMPDEST SWAP4 POP POP PUSH1 0x20 DUP5 ADD CALLDATALOAD PUSH8 0xFFFFFFFFFFFFFFFF DUP2 GT ISZERO PUSH2 0x9A0 JUMPI PUSH2 0x99F PUSH2 0x548 JUMP JUMPDEST JUMPDEST PUSH2 0x9AC DUP7 DUP3 DUP8 ADD PUSH2 0x92A JUMP JUMPDEST SWAP3 POP POP PUSH1 0x40 PUSH2 0x9BD DUP7 DUP3 DUP8 ADD PUSH2 0x56E JUMP JUMPDEST SWAP2 POP POP SWAP3 POP SWAP3 POP SWAP3 JUMP JUMPDEST PUSH32 0x4E487B7100000000000000000000000000000000000000000000000000000000 PUSH1 0x0 MSTORE PUSH1 0x32 PUSH1 0x4 MSTORE PUSH1 0x24 PUSH1 0x0 REVERT JUMPDEST PUSH32 0x4E487B7100000000000000000000000000000000000000000000000000000000 PUSH1 0x0 MSTORE PUSH1 0x22 PUSH1 0x4 MSTORE PUSH1 0x24 PUSH1 0x0 REVERT JUMPDEST PUSH1 0x0 PUSH1 0x2 DUP3 DIV SWAP1 POP PUSH1 0x1 DUP3 AND DUP1 PUSH2 0xA3D JUMPI PUSH1 0x7F DUP3 AND SWAP2 POP JUMPDEST PUSH1 0x20 DUP3 LT DUP2 SUB PUSH2 0xA50 JUMPI PUSH2 0xA4F PUSH2 0x9F6 JUMP JUMPDEST JUMPDEST POP SWAP2 SWAP1 POP JUMP JUMPDEST PUSH32 0x4E487B7100000000000000000000000000000000000000000000000000000000 PUSH1 0x0 MSTORE PUSH1 0x11 PUSH1 0x4 MSTORE PUSH1 0x24 PUSH1 0x0 REVERT JUMPDEST PUSH1 0x0 PUSH2 0xA90 DUP3 PUSH2 0x54D JUMP JUMPDEST SWAP2 POP PUSH32 0xFFFFFFFFFFFFFFFFFFFFFFFFFFFFFFFFFFFFFFFFFFFFFFFFFFFFFFFFFFFFFFFF DUP3 SUB PUSH2 0xAC2 JUMPI PUSH2 0xAC1 PUSH2 0xA56 JUMP JUMPDEST JUMPDEST PUSH1 0x1 DUP3 ADD SWAP1 POP SWAP2 SWAP1 POP JUMP INVALID LOG2 PUSH5 0x6970667358 0x22 SLT KECCAK256 CHAINID PUSH12 0x2F50BEC0A9AFC305FB14CB43 0x4C EQ 0xC SLT SSTORE ORIGIN CODESIZE SWAP16 SWAP9 PUSH30 0x97CF0B4FE6CA2BD464736F6C634300080D00330000000000000000000000 "
				},
				"gasEstimates": {
					"creation": {
						"codeDepositCost": "563800",
						"executionCost": "600",
						"totalCost": "564400"
					},
					"external": {
						"addData(uint256,string,uint256)": "infinite",
						"dataSet(uint256)": "infinite",
						"getAllDataBySensor(uint256)": "infinite",
						"getData(uint256)": "infinite"
					}
				},
				"methodIdentifiers": {
					"addData(uint256,string,uint256)": "cc295b66",
					"dataSet(uint256)": "4a96d170",
					"getAllDataBySensor(uint256)": "6b85da7c",
					"getData(uint256)": "0178fe3f"
				}
			},
			"userdoc": {
				"kind": "user",
				"methods": {},
				"version": 1
			}
		}
	}
}