{
	"DataStorage.sol": {
		"DataStorage": {
			"abi": [
				{
					"inputs": [
						{
							"internalType": "bytes32",
							"name": "Id",
							"type": "bytes32"
						},
						{
							"internalType": "bytes32",
							"name": "time",
							"type": "bytes32"
						},
						{
							"internalType": "bytes32",
							"name": "sensorvalue",
							"type": "bytes32"
						}
					],
					"name": "addData",
					"outputs": [],
					"stateMutability": "nonpayable",
					"type": "function"
				},
				{
					"inputs": [
						{
							"internalType": "uint256",
							"name": "",
							"type": "uint256"
						}
					],
					"name": "dataSet",
					"outputs": [
						{
							"internalType": "bytes32",
							"name": "sensorId",
							"type": "bytes32"
						},
						{
							"internalType": "bytes32",
							"name": "timeStamp",
							"type": "bytes32"
						},
						{
							"internalType": "bytes32",
							"name": "value",
							"type": "bytes32"
						}
					],
					"stateMutability": "view",
					"type": "function"
				},
				{
					"inputs": [
						{
							"internalType": "bytes32",
							"name": "givenId",
							"type": "bytes32"
						}
					],
					"name": "getAllDataBySensor",
					"outputs": [
						{
							"components": [
								{
									"internalType": "bytes32",
									"name": "sensorId",
									"type": "bytes32"
								},
								{
									"internalType": "bytes32",
									"name": "timeStamp",
									"type": "bytes32"
								},
								{
									"internalType": "bytes32",
									"name": "value",
									"type": "bytes32"
								}
							],
							"internalType": "struct DataStorage.Data[]",
							"name": "returnData",
							"type": "tuple[]"
						}
					],
					"stateMutability": "view",
					"type": "function"
				},
				{
					"inputs": [
						{
							"internalType": "uint256",
							"name": "arrayPointer",
							"type": "uint256"
						}
					],
					"name": "getData",
					"outputs": [
						{
							"internalType": "bytes32",
							"name": "Id",
							"type": "bytes32"
						},
						{
							"internalType": "bytes32",
							"name": "time",
							"type": "bytes32"
						},
						{
							"internalType": "bytes32",
							"name": "sensorvalue",
							"type": "bytes32"
						}
					],
					"stateMutability": "view",
					"type": "function"
				}
			],
			"devdoc": {
				"kind": "dev",
				"methods": {},
				"version": 1
			},
			"evm": {
				"assembly": "    /* \"DataStorage.sol\":25:799  contract DataStorage {... */\n  mstore(0x40, 0x80)\n  callvalue\n  dup1\n  iszero\n  tag_1\n  jumpi\n  0x00\n  dup1\n  revert\ntag_1:\n  pop\n  dataSize(sub_0)\n  dup1\n  dataOffset(sub_0)\n  0x00\n  codecopy\n  0x00\n  return\nstop\n\nsub_0: assembly {\n        /* \"DataStorage.sol\":25:799  contract DataStorage {... */\n      mstore(0x40, 0x80)\n      callvalue\n      dup1\n      iszero\n      tag_1\n      jumpi\n      0x00\n      dup1\n      revert\n    tag_1:\n      pop\n      jumpi(tag_2, lt(calldatasize, 0x04))\n      shr(0xe0, calldataload(0x00))\n      dup1\n      0x0178fe3f\n      eq\n      tag_3\n      jumpi\n      dup1\n      0x2373d8a5\n      eq\n      tag_4\n      jumpi\n      dup1\n      0x4a96d170\n      eq\n      tag_5\n      jumpi\n      dup1\n      0xc41bb527\n      eq\n      tag_6\n      jumpi\n    tag_2:\n      0x00\n      dup1\n      revert\n        /* \"DataStorage.sol\":287:528  function getData(uint arrayPointer) view public returns (bytes32 Id, bytes32 time, bytes32 sensorvalue) {... */\n    tag_3:\n      tag_7\n      0x04\n      dup1\n      calldatasize\n      sub\n      dup2\n      add\n      swap1\n      tag_8\n      swap2\n      swap1\n      tag_9\n      jump\t// in\n    tag_8:\n      tag_10\n      jump\t// in\n    tag_7:\n      mload(0x40)\n      tag_11\n      swap4\n      swap3\n      swap2\n      swap1\n      tag_12\n      jump\t// in\n    tag_11:\n      mload(0x40)\n      dup1\n      swap2\n      sub\n      swap1\n      return\n        /* \"DataStorage.sol\":160:283  function addData(bytes32 Id, bytes32 time, bytes32 sensorvalue) public {... */\n    tag_4:\n      tag_13\n      0x04\n      dup1\n      calldatasize\n      sub\n      dup2\n      add\n      swap1\n      tag_14\n      swap2\n      swap1\n      tag_15\n      jump\t// in\n    tag_14:\n      tag_16\n      jump\t// in\n    tag_13:\n      stop\n        /* \"DataStorage.sol\":50:71  Data[] public dataSet */\n    tag_5:\n      tag_17\n      0x04\n      dup1\n      calldatasize\n      sub\n      dup2\n      add\n      swap1\n      tag_18\n      swap2\n      swap1\n      tag_9\n      jump\t// in\n    tag_18:\n      tag_19\n      jump\t// in\n    tag_17:\n      mload(0x40)\n      tag_20\n      swap4\n      swap3\n      swap2\n      swap1\n      tag_12\n      jump\t// in\n    tag_20:\n      mload(0x40)\n      dup1\n      swap2\n      sub\n      swap1\n      return\n        /* \"DataStorage.sol\":532:797  function getAllDataBySensor(bytes32 givenId) view public returns (Data[] memory returnData){... */\n    tag_6:\n      tag_21\n      0x04\n      dup1\n      calldatasize\n      sub\n      dup2\n      add\n      swap1\n      tag_22\n      swap2\n      swap1\n      tag_23\n      jump\t// in\n    tag_22:\n      tag_24\n      jump\t// in\n    tag_21:\n      mload(0x40)\n      tag_25\n      swap2\n      swap1\n      tag_26\n      jump\t// in\n    tag_25:\n      mload(0x40)\n      dup1\n      swap2\n      sub\n      swap1\n      return\n        /* \"DataStorage.sol\":287:528  function getData(uint arrayPointer) view public returns (bytes32 Id, bytes32 time, bytes32 sensorvalue) {... */\n    tag_10:\n        /* \"DataStorage.sol\":344:354  bytes32 Id */\n      0x00\n        /* \"DataStorage.sol\":356:368  bytes32 time */\n      dup1\n        /* \"DataStorage.sol\":370:389  bytes32 sensorvalue */\n      0x00\n        /* \"DataStorage.sol\":402:409  dataSet */\n      dup1\n        /* \"DataStorage.sol\":410:422  arrayPointer */\n      dup5\n        /* \"DataStorage.sol\":402:423  dataSet[arrayPointer] */\n      dup2\n      sload\n      dup2\n      lt\n      tag_28\n      jumpi\n      tag_29\n      tag_30\n      jump\t// in\n    tag_29:\n    tag_28:\n      swap1\n      0x00\n      mstore\n      keccak256(0x00, 0x20)\n      swap1\n      0x03\n      mul\n      add\n        /* \"DataStorage.sol\":402:432  dataSet[arrayPointer].sensorId */\n      0x00\n      add\n      sload\n        /* \"DataStorage.sol\":397:432  Id = dataSet[arrayPointer].sensorId */\n      swap3\n      pop\n        /* \"DataStorage.sol\":445:452  dataSet */\n      0x00\n        /* \"DataStorage.sol\":453:465  arrayPointer */\n      dup5\n        /* \"DataStorage.sol\":445:466  dataSet[arrayPointer] */\n      dup2\n      sload\n      dup2\n      lt\n      tag_32\n      jumpi\n      tag_33\n      tag_30\n      jump\t// in\n    tag_33:\n    tag_32:\n      swap1\n      0x00\n      mstore\n      keccak256(0x00, 0x20)\n      swap1\n      0x03\n      mul\n      add\n        /* \"DataStorage.sol\":445:476  dataSet[arrayPointer].timeStamp */\n      0x01\n      add\n      sload\n        /* \"DataStorage.sol\":438:476  time = dataSet[arrayPointer].timeStamp */\n      swap2\n      pop\n        /* \"DataStorage.sol\":496:503  dataSet */\n      0x00\n        /* \"DataStorage.sol\":504:516  arrayPointer */\n      dup5\n        /* \"DataStorage.sol\":496:517  dataSet[arrayPointer] */\n      dup2\n      sload\n      dup2\n      lt\n      tag_35\n      jumpi\n      tag_36\n      tag_30\n      jump\t// in\n    tag_36:\n    tag_35:\n      swap1\n      0x00\n      mstore\n      keccak256(0x00, 0x20)\n      swap1\n      0x03\n      mul\n      add\n        /* \"DataStorage.sol\":496:523  dataSet[arrayPointer].value */\n      0x02\n      add\n      sload\n        /* \"DataStorage.sol\":482:523  sensorvalue = dataSet[arrayPointer].value */\n      swap1\n      pop\n        /* \"DataStorage.sol\":287:528  function getData(uint arrayPointer) view public returns (bytes32 Id, bytes32 time, bytes32 sensorvalue) {... */\n      swap2\n      swap4\n      swap1\n      swap3\n      pop\n      jump\t// out\n        /* \"DataStorage.sol\":160:283  function addData(bytes32 Id, bytes32 time, bytes32 sensorvalue) public {... */\n    tag_16:\n        /* \"DataStorage.sol\":237:244  dataSet */\n      0x00\n        /* \"DataStorage.sol\":250:277  Data(Id, time, sensorvalue) */\n      mload(0x40)\n      dup1\n      0x60\n      add\n      0x40\n      mstore\n      dup1\n        /* \"DataStorage.sol\":255:257  Id */\n      dup6\n        /* \"DataStorage.sol\":250:277  Data(Id, time, sensorvalue) */\n      dup2\n      mstore\n      0x20\n      add\n        /* \"DataStorage.sol\":259:263  time */\n      dup5\n        /* \"DataStorage.sol\":250:277  Data(Id, time, sensorvalue) */\n      dup2\n      mstore\n      0x20\n      add\n        /* \"DataStorage.sol\":265:276  sensorvalue */\n      dup4\n        /* \"DataStorage.sol\":250:277  Data(Id, time, sensorvalue) */\n      dup2\n      mstore\n      pop\n        /* \"DataStorage.sol\":237:278  dataSet.push(Data(Id, time, sensorvalue)) */\n      swap1\n      dup1\n      0x01\n      dup2\n      sload\n      add\n      dup1\n      dup3\n      sstore\n      dup1\n      swap2\n      pop\n      pop\n      0x01\n      swap1\n      sub\n      swap1\n      0x00\n      mstore\n      keccak256(0x00, 0x20)\n      swap1\n      0x03\n      mul\n      add\n      0x00\n      swap1\n      swap2\n      swap1\n      swap2\n      swap1\n      swap2\n      pop\n      0x00\n      dup3\n      add\n      mload\n      dup2\n      0x00\n      add\n      sstore\n      0x20\n      dup3\n      add\n      mload\n      dup2\n      0x01\n      add\n      sstore\n      0x40\n      dup3\n      add\n      mload\n      dup2\n      0x02\n      add\n      sstore\n      pop\n      pop\n        /* \"DataStorage.sol\":160:283  function addData(bytes32 Id, bytes32 time, bytes32 sensorvalue) public {... */\n      pop\n      pop\n      pop\n      jump\t// out\n        /* \"DataStorage.sol\":50:71  Data[] public dataSet */\n    tag_19:\n      0x00\n      dup2\n      dup2\n      sload\n      dup2\n      lt\n      tag_40\n      jumpi\n      0x00\n      dup1\n      revert\n    tag_40:\n      swap1\n      0x00\n      mstore\n      keccak256(0x00, 0x20)\n      swap1\n      0x03\n      mul\n      add\n      0x00\n      swap2\n      pop\n      swap1\n      pop\n      dup1\n      0x00\n      add\n      sload\n      swap1\n      dup1\n      0x01\n      add\n      sload\n      swap1\n      dup1\n      0x02\n      add\n      sload\n      swap1\n      pop\n      dup4\n      jump\t// out\n        /* \"DataStorage.sol\":532:797  function getAllDataBySensor(bytes32 givenId) view public returns (Data[] memory returnData){... */\n    tag_24:\n        /* \"DataStorage.sol\":598:622  Data[] memory returnData */\n      0x60\n        /* \"DataStorage.sol\":629:635  uint x */\n      0x00\n        /* \"DataStorage.sol\":650:656  uint i */\n      dup1\n        /* \"DataStorage.sol\":645:793  for (uint i = 0; i < dataSet.length; i++){... */\n    tag_43:\n        /* \"DataStorage.sol\":666:673  dataSet */\n      0x00\n        /* \"DataStorage.sol\":666:680  dataSet.length */\n      dup1\n      sload\n      swap1\n      pop\n        /* \"DataStorage.sol\":662:663  i */\n      dup2\n        /* \"DataStorage.sol\":662:680  i < dataSet.length */\n      lt\n        /* \"DataStorage.sol\":645:793  for (uint i = 0; i < dataSet.length; i++){... */\n      iszero\n      tag_44\n      jumpi\n        /* \"DataStorage.sol\":721:728  givenId */\n      dup4\n        /* \"DataStorage.sol\":698:705  dataSet */\n      0x00\n        /* \"DataStorage.sol\":706:707  i */\n      dup3\n        /* \"DataStorage.sol\":698:708  dataSet[i] */\n      dup2\n      sload\n      dup2\n      lt\n      tag_46\n      jumpi\n      tag_47\n      tag_30\n      jump\t// in\n    tag_47:\n    tag_46:\n      swap1\n      0x00\n      mstore\n      keccak256(0x00, 0x20)\n      swap1\n      0x03\n      mul\n      add\n        /* \"DataStorage.sol\":698:717  dataSet[i].sensorId */\n      0x00\n      add\n      sload\n        /* \"DataStorage.sol\":698:728  dataSet[i].sensorId == givenId */\n      sub\n        /* \"DataStorage.sol\":694:787  if (dataSet[i].sensorId == givenId){... */\n      tag_49\n      jumpi\n        /* \"DataStorage.sol\":755:762  dataSet */\n      0x00\n        /* \"DataStorage.sol\":763:764  i */\n      dup2\n        /* \"DataStorage.sol\":755:765  dataSet[i] */\n      dup2\n      sload\n      dup2\n      lt\n      tag_50\n      jumpi\n      tag_51\n      tag_30\n      jump\t// in\n    tag_51:\n    tag_50:\n      swap1\n      0x00\n      mstore\n      keccak256(0x00, 0x20)\n      swap1\n      0x03\n      mul\n      add\n        /* \"DataStorage.sol\":739:765  returnData[x] = dataSet[i] */\n      mload(0x40)\n      dup1\n      0x60\n      add\n      0x40\n      mstore\n      swap1\n      dup2\n      0x00\n      dup3\n      add\n      sload\n      dup2\n      mstore\n      0x20\n      add\n      0x01\n      dup3\n      add\n      sload\n      dup2\n      mstore\n      0x20\n      add\n      0x02\n      dup3\n      add\n      sload\n      dup2\n      mstore\n      pop\n      pop\n        /* \"DataStorage.sol\":739:749  returnData */\n      dup4\n        /* \"DataStorage.sol\":750:751  x */\n      dup4\n        /* \"DataStorage.sol\":739:752  returnData[x] */\n      dup2\n      mload\n      dup2\n      lt\n      tag_53\n      jumpi\n      tag_54\n      tag_30\n      jump\t// in\n    tag_54:\n    tag_53:\n      0x20\n      mul\n      0x20\n      add\n      add\n        /* \"DataStorage.sol\":739:765  returnData[x] = dataSet[i] */\n      dup2\n      swap1\n      mstore\n      pop\n        /* \"DataStorage.sol\":775:778  x++ */\n      dup2\n      dup1\n      tag_55\n      swap1\n      tag_56\n      jump\t// in\n    tag_55:\n      swap3\n      pop\n      pop\n        /* \"DataStorage.sol\":694:787  if (dataSet[i].sensorId == givenId){... */\n    tag_49:\n        /* \"DataStorage.sol\":682:685  i++ */\n      dup1\n      dup1\n      tag_57\n      swap1\n      tag_56\n      jump\t// in\n    tag_57:\n      swap2\n      pop\n      pop\n        /* \"DataStorage.sol\":645:793  for (uint i = 0; i < dataSet.length; i++){... */\n      jump(tag_43)\n    tag_44:\n      pop\n        /* \"DataStorage.sol\":623:797  {... */\n      pop\n        /* \"DataStorage.sol\":532:797  function getAllDataBySensor(bytes32 givenId) view public returns (Data[] memory returnData){... */\n      swap2\n      swap1\n      pop\n      jump\t// out\n        /* \"#utility.yul\":88:205   */\n    tag_59:\n        /* \"#utility.yul\":197:198   */\n      0x00\n        /* \"#utility.yul\":194:195   */\n      dup1\n        /* \"#utility.yul\":187:199   */\n      revert\n        /* \"#utility.yul\":334:411   */\n    tag_61:\n        /* \"#utility.yul\":371:378   */\n      0x00\n        /* \"#utility.yul\":400:405   */\n      dup2\n        /* \"#utility.yul\":389:405   */\n      swap1\n      pop\n        /* \"#utility.yul\":334:411   */\n      swap2\n      swap1\n      pop\n      jump\t// out\n        /* \"#utility.yul\":417:539   */\n    tag_62:\n        /* \"#utility.yul\":490:514   */\n      tag_83\n        /* \"#utility.yul\":508:513   */\n      dup2\n        /* \"#utility.yul\":490:514   */\n      tag_61\n      jump\t// in\n    tag_83:\n        /* \"#utility.yul\":483:488   */\n      dup2\n        /* \"#utility.yul\":480:515   */\n      eq\n        /* \"#utility.yul\":470:533   */\n      tag_84\n      jumpi\n        /* \"#utility.yul\":529:530   */\n      0x00\n        /* \"#utility.yul\":526:527   */\n      dup1\n        /* \"#utility.yul\":519:531   */\n      revert\n        /* \"#utility.yul\":470:533   */\n    tag_84:\n        /* \"#utility.yul\":417:539   */\n      pop\n      jump\t// out\n        /* \"#utility.yul\":545:684   */\n    tag_63:\n        /* \"#utility.yul\":591:596   */\n      0x00\n        /* \"#utility.yul\":629:635   */\n      dup2\n        /* \"#utility.yul\":616:636   */\n      calldataload\n        /* \"#utility.yul\":607:636   */\n      swap1\n      pop\n        /* \"#utility.yul\":645:678   */\n      tag_86\n        /* \"#utility.yul\":672:677   */\n      dup2\n        /* \"#utility.yul\":645:678   */\n      tag_62\n      jump\t// in\n    tag_86:\n        /* \"#utility.yul\":545:684   */\n      swap3\n      swap2\n      pop\n      pop\n      jump\t// out\n        /* \"#utility.yul\":690:1019   */\n    tag_9:\n        /* \"#utility.yul\":749:755   */\n      0x00\n        /* \"#utility.yul\":798:800   */\n      0x20\n        /* \"#utility.yul\":786:795   */\n      dup3\n        /* \"#utility.yul\":777:784   */\n      dup5\n        /* \"#utility.yul\":773:796   */\n      sub\n        /* \"#utility.yul\":769:801   */\n      slt\n        /* \"#utility.yul\":766:885   */\n      iszero\n      tag_88\n      jumpi\n        /* \"#utility.yul\":804:883   */\n      tag_89\n      tag_59\n      jump\t// in\n    tag_89:\n        /* \"#utility.yul\":766:885   */\n    tag_88:\n        /* \"#utility.yul\":924:925   */\n      0x00\n        /* \"#utility.yul\":949:1002   */\n      tag_90\n        /* \"#utility.yul\":994:1001   */\n      dup5\n        /* \"#utility.yul\":985:991   */\n      dup3\n        /* \"#utility.yul\":974:983   */\n      dup6\n        /* \"#utility.yul\":970:992   */\n      add\n        /* \"#utility.yul\":949:1002   */\n      tag_63\n      jump\t// in\n    tag_90:\n        /* \"#utility.yul\":939:1002   */\n      swap2\n      pop\n        /* \"#utility.yul\":895:1012   */\n      pop\n        /* \"#utility.yul\":690:1019   */\n      swap3\n      swap2\n      pop\n      pop\n      jump\t// out\n        /* \"#utility.yul\":1025:1102   */\n    tag_64:\n        /* \"#utility.yul\":1062:1069   */\n      0x00\n        /* \"#utility.yul\":1091:1096   */\n      dup2\n        /* \"#utility.yul\":1080:1096   */\n      swap1\n      pop\n        /* \"#utility.yul\":1025:1102   */\n      swap2\n      swap1\n      pop\n      jump\t// out\n        /* \"#utility.yul\":1108:1226   */\n    tag_65:\n        /* \"#utility.yul\":1195:1219   */\n      tag_93\n        /* \"#utility.yul\":1213:1218   */\n      dup2\n        /* \"#utility.yul\":1195:1219   */\n      tag_64\n      jump\t// in\n    tag_93:\n        /* \"#utility.yul\":1190:1193   */\n      dup3\n        /* \"#utility.yul\":1183:1220   */\n      mstore\n        /* \"#utility.yul\":1108:1226   */\n      pop\n      pop\n      jump\t// out\n        /* \"#utility.yul\":1232:1674   */\n    tag_12:\n        /* \"#utility.yul\":1381:1385   */\n      0x00\n        /* \"#utility.yul\":1419:1421   */\n      0x60\n        /* \"#utility.yul\":1408:1417   */\n      dup3\n        /* \"#utility.yul\":1404:1422   */\n      add\n        /* \"#utility.yul\":1396:1422   */\n      swap1\n      pop\n        /* \"#utility.yul\":1432:1503   */\n      tag_95\n        /* \"#utility.yul\":1500:1501   */\n      0x00\n        /* \"#utility.yul\":1489:1498   */\n      dup4\n        /* \"#utility.yul\":1485:1502   */\n      add\n        /* \"#utility.yul\":1476:1482   */\n      dup7\n        /* \"#utility.yul\":1432:1503   */\n      tag_65\n      jump\t// in\n    tag_95:\n        /* \"#utility.yul\":1513:1585   */\n      tag_96\n        /* \"#utility.yul\":1581:1583   */\n      0x20\n        /* \"#utility.yul\":1570:1579   */\n      dup4\n        /* \"#utility.yul\":1566:1584   */\n      add\n        /* \"#utility.yul\":1557:1563   */\n      dup6\n        /* \"#utility.yul\":1513:1585   */\n      tag_65\n      jump\t// in\n    tag_96:\n        /* \"#utility.yul\":1595:1667   */\n      tag_97\n        /* \"#utility.yul\":1663:1665   */\n      0x40\n        /* \"#utility.yul\":1652:1661   */\n      dup4\n        /* \"#utility.yul\":1648:1666   */\n      add\n        /* \"#utility.yul\":1639:1645   */\n      dup5\n        /* \"#utility.yul\":1595:1667   */\n      tag_65\n      jump\t// in\n    tag_97:\n        /* \"#utility.yul\":1232:1674   */\n      swap5\n      swap4\n      pop\n      pop\n      pop\n      pop\n      jump\t// out\n        /* \"#utility.yul\":1680:1802   */\n    tag_66:\n        /* \"#utility.yul\":1753:1777   */\n      tag_99\n        /* \"#utility.yul\":1771:1776   */\n      dup2\n        /* \"#utility.yul\":1753:1777   */\n      tag_64\n      jump\t// in\n    tag_99:\n        /* \"#utility.yul\":1746:1751   */\n      dup2\n        /* \"#utility.yul\":1743:1778   */\n      eq\n        /* \"#utility.yul\":1733:1796   */\n      tag_100\n      jumpi\n        /* \"#utility.yul\":1792:1793   */\n      0x00\n        /* \"#utility.yul\":1789:1790   */\n      dup1\n        /* \"#utility.yul\":1782:1794   */\n      revert\n        /* \"#utility.yul\":1733:1796   */\n    tag_100:\n        /* \"#utility.yul\":1680:1802   */\n      pop\n      jump\t// out\n        /* \"#utility.yul\":1808:1947   */\n    tag_67:\n        /* \"#utility.yul\":1854:1859   */\n      0x00\n        /* \"#utility.yul\":1892:1898   */\n      dup2\n        /* \"#utility.yul\":1879:1899   */\n      calldataload\n        /* \"#utility.yul\":1870:1899   */\n      swap1\n      pop\n        /* \"#utility.yul\":1908:1941   */\n      tag_102\n        /* \"#utility.yul\":1935:1940   */\n      dup2\n        /* \"#utility.yul\":1908:1941   */\n      tag_66\n      jump\t// in\n    tag_102:\n        /* \"#utility.yul\":1808:1947   */\n      swap3\n      swap2\n      pop\n      pop\n      jump\t// out\n        /* \"#utility.yul\":1953:2572   */\n    tag_15:\n        /* \"#utility.yul\":2030:2036   */\n      0x00\n        /* \"#utility.yul\":2038:2044   */\n      dup1\n        /* \"#utility.yul\":2046:2052   */\n      0x00\n        /* \"#utility.yul\":2095:2097   */\n      0x60\n        /* \"#utility.yul\":2083:2092   */\n      dup5\n        /* \"#utility.yul\":2074:2081   */\n      dup7\n        /* \"#utility.yul\":2070:2093   */\n      sub\n        /* \"#utility.yul\":2066:2098   */\n      slt\n        /* \"#utility.yul\":2063:2182   */\n      iszero\n      tag_104\n      jumpi\n        /* \"#utility.yul\":2101:2180   */\n      tag_105\n      tag_59\n      jump\t// in\n    tag_105:\n        /* \"#utility.yul\":2063:2182   */\n    tag_104:\n        /* \"#utility.yul\":2221:2222   */\n      0x00\n        /* \"#utility.yul\":2246:2299   */\n      tag_106\n        /* \"#utility.yul\":2291:2298   */\n      dup7\n        /* \"#utility.yul\":2282:2288   */\n      dup3\n        /* \"#utility.yul\":2271:2280   */\n      dup8\n        /* \"#utility.yul\":2267:2289   */\n      add\n        /* \"#utility.yul\":2246:2299   */\n      tag_67\n      jump\t// in\n    tag_106:\n        /* \"#utility.yul\":2236:2299   */\n      swap4\n      pop\n        /* \"#utility.yul\":2192:2309   */\n      pop\n        /* \"#utility.yul\":2348:2350   */\n      0x20\n        /* \"#utility.yul\":2374:2427   */\n      tag_107\n        /* \"#utility.yul\":2419:2426   */\n      dup7\n        /* \"#utility.yul\":2410:2416   */\n      dup3\n        /* \"#utility.yul\":2399:2408   */\n      dup8\n        /* \"#utility.yul\":2395:2417   */\n      add\n        /* \"#utility.yul\":2374:2427   */\n      tag_67\n      jump\t// in\n    tag_107:\n        /* \"#utility.yul\":2364:2427   */\n      swap3\n      pop\n        /* \"#utility.yul\":2319:2437   */\n      pop\n        /* \"#utility.yul\":2476:2478   */\n      0x40\n        /* \"#utility.yul\":2502:2555   */\n      tag_108\n        /* \"#utility.yul\":2547:2554   */\n      dup7\n        /* \"#utility.yul\":2538:2544   */\n      dup3\n        /* \"#utility.yul\":2527:2536   */\n      dup8\n        /* \"#utility.yul\":2523:2545   */\n      add\n        /* \"#utility.yul\":2502:2555   */\n      tag_67\n      jump\t// in\n    tag_108:\n        /* \"#utility.yul\":2492:2555   */\n      swap2\n      pop\n        /* \"#utility.yul\":2447:2565   */\n      pop\n        /* \"#utility.yul\":1953:2572   */\n      swap3\n      pop\n      swap3\n      pop\n      swap3\n      jump\t// out\n        /* \"#utility.yul\":2578:2907   */\n    tag_23:\n        /* \"#utility.yul\":2637:2643   */\n      0x00\n        /* \"#utility.yul\":2686:2688   */\n      0x20\n        /* \"#utility.yul\":2674:2683   */\n      dup3\n        /* \"#utility.yul\":2665:2672   */\n      dup5\n        /* \"#utility.yul\":2661:2684   */\n      sub\n        /* \"#utility.yul\":2657:2689   */\n      slt\n        /* \"#utility.yul\":2654:2773   */\n      iszero\n      tag_110\n      jumpi\n        /* \"#utility.yul\":2692:2771   */\n      tag_111\n      tag_59\n      jump\t// in\n    tag_111:\n        /* \"#utility.yul\":2654:2773   */\n    tag_110:\n        /* \"#utility.yul\":2812:2813   */\n      0x00\n        /* \"#utility.yul\":2837:2890   */\n      tag_112\n        /* \"#utility.yul\":2882:2889   */\n      dup5\n        /* \"#utility.yul\":2873:2879   */\n      dup3\n        /* \"#utility.yul\":2862:2871   */\n      dup6\n        /* \"#utility.yul\":2858:2880   */\n      add\n        /* \"#utility.yul\":2837:2890   */\n      tag_67\n      jump\t// in\n    tag_112:\n        /* \"#utility.yul\":2827:2890   */\n      swap2\n      pop\n        /* \"#utility.yul\":2783:2900   */\n      pop\n        /* \"#utility.yul\":2578:2907   */\n      swap3\n      swap2\n      pop\n      pop\n      jump\t// out\n        /* \"#utility.yul\":2913:3047   */\n    tag_68:\n        /* \"#utility.yul\":3000:3006   */\n      0x00\n        /* \"#utility.yul\":3034:3039   */\n      dup2\n        /* \"#utility.yul\":3028:3040   */\n      mload\n        /* \"#utility.yul\":3018:3040   */\n      swap1\n      pop\n        /* \"#utility.yul\":2913:3047   */\n      swap2\n      swap1\n      pop\n      jump\t// out\n        /* \"#utility.yul\":3053:3257   */\n    tag_69:\n        /* \"#utility.yul\":3172:3183   */\n      0x00\n        /* \"#utility.yul\":3206:3212   */\n      dup3\n        /* \"#utility.yul\":3201:3204   */\n      dup3\n        /* \"#utility.yul\":3194:3213   */\n      mstore\n        /* \"#utility.yul\":3246:3250   */\n      0x20\n        /* \"#utility.yul\":3241:3244   */\n      dup3\n        /* \"#utility.yul\":3237:3251   */\n      add\n        /* \"#utility.yul\":3222:3251   */\n      swap1\n      pop\n        /* \"#utility.yul\":3053:3257   */\n      swap3\n      swap2\n      pop\n      pop\n      jump\t// out\n        /* \"#utility.yul\":3263:3415   */\n    tag_70:\n        /* \"#utility.yul\":3350:3354   */\n      0x00\n        /* \"#utility.yul\":3373:3376   */\n      dup2\n        /* \"#utility.yul\":3365:3376   */\n      swap1\n      pop\n        /* \"#utility.yul\":3403:3407   */\n      0x20\n        /* \"#utility.yul\":3398:3401   */\n      dup3\n        /* \"#utility.yul\":3394:3408   */\n      add\n        /* \"#utility.yul\":3386:3408   */\n      swap1\n      pop\n        /* \"#utility.yul\":3263:3415   */\n      swap2\n      swap1\n      pop\n      jump\t// out\n        /* \"#utility.yul\":3421:3529   */\n    tag_71:\n        /* \"#utility.yul\":3498:3522   */\n      tag_117\n        /* \"#utility.yul\":3516:3521   */\n      dup2\n        /* \"#utility.yul\":3498:3522   */\n      tag_64\n      jump\t// in\n    tag_117:\n        /* \"#utility.yul\":3493:3496   */\n      dup3\n        /* \"#utility.yul\":3486:3523   */\n      mstore\n        /* \"#utility.yul\":3421:3529   */\n      pop\n      pop\n      jump\t// out\n        /* \"#utility.yul\":3593:4264   */\n    tag_72:\n        /* \"#utility.yul\":3720:3724   */\n      0x60\n        /* \"#utility.yul\":3715:3718   */\n      dup3\n        /* \"#utility.yul\":3711:3725   */\n      add\n        /* \"#utility.yul\":3811:3815   */\n      0x00\n        /* \"#utility.yul\":3804:3809   */\n      dup3\n        /* \"#utility.yul\":3800:3816   */\n      add\n        /* \"#utility.yul\":3794:3817   */\n      mload\n        /* \"#utility.yul\":3830:3893   */\n      tag_119\n        /* \"#utility.yul\":3887:3891   */\n      0x00\n        /* \"#utility.yul\":3882:3885   */\n      dup6\n        /* \"#utility.yul\":3878:3892   */\n      add\n        /* \"#utility.yul\":3864:3876   */\n      dup3\n        /* \"#utility.yul\":3830:3893   */\n      tag_71\n      jump\t// in\n    tag_119:\n        /* \"#utility.yul\":3735:3903   */\n      pop\n        /* \"#utility.yul\":3990:3994   */\n      0x20\n        /* \"#utility.yul\":3983:3988   */\n      dup3\n        /* \"#utility.yul\":3979:3995   */\n      add\n        /* \"#utility.yul\":3973:3996   */\n      mload\n        /* \"#utility.yul\":4009:4072   */\n      tag_120\n        /* \"#utility.yul\":4066:4070   */\n      0x20\n        /* \"#utility.yul\":4061:4064   */\n      dup6\n        /* \"#utility.yul\":4057:4071   */\n      add\n        /* \"#utility.yul\":4043:4055   */\n      dup3\n        /* \"#utility.yul\":4009:4072   */\n      tag_71\n      jump\t// in\n    tag_120:\n        /* \"#utility.yul\":3913:4082   */\n      pop\n        /* \"#utility.yul\":4165:4169   */\n      0x40\n        /* \"#utility.yul\":4158:4163   */\n      dup3\n        /* \"#utility.yul\":4154:4170   */\n      add\n        /* \"#utility.yul\":4148:4171   */\n      mload\n        /* \"#utility.yul\":4184:4247   */\n      tag_121\n        /* \"#utility.yul\":4241:4245   */\n      0x40\n        /* \"#utility.yul\":4236:4239   */\n      dup6\n        /* \"#utility.yul\":4232:4246   */\n      add\n        /* \"#utility.yul\":4218:4230   */\n      dup3\n        /* \"#utility.yul\":4184:4247   */\n      tag_71\n      jump\t// in\n    tag_121:\n        /* \"#utility.yul\":4092:4257   */\n      pop\n        /* \"#utility.yul\":3689:4264   */\n      pop\n        /* \"#utility.yul\":3593:4264   */\n      pop\n      pop\n      jump\t// out\n        /* \"#utility.yul\":4270:4529   */\n    tag_73:\n        /* \"#utility.yul\":4379:4389   */\n      0x00\n        /* \"#utility.yul\":4400:4486   */\n      tag_123\n        /* \"#utility.yul\":4482:4485   */\n      dup4\n        /* \"#utility.yul\":4474:4480   */\n      dup4\n        /* \"#utility.yul\":4400:4486   */\n      tag_72\n      jump\t// in\n    tag_123:\n        /* \"#utility.yul\":4518:4522   */\n      0x60\n        /* \"#utility.yul\":4513:4516   */\n      dup4\n        /* \"#utility.yul\":4509:4523   */\n      add\n        /* \"#utility.yul\":4495:4523   */\n      swap1\n      pop\n        /* \"#utility.yul\":4270:4529   */\n      swap3\n      swap2\n      pop\n      pop\n      jump\t// out\n        /* \"#utility.yul\":4535:4668   */\n    tag_74:\n        /* \"#utility.yul\":4625:4629   */\n      0x00\n        /* \"#utility.yul\":4657:4661   */\n      0x20\n        /* \"#utility.yul\":4652:4655   */\n      dup3\n        /* \"#utility.yul\":4648:4662   */\n      add\n        /* \"#utility.yul\":4640:4662   */\n      swap1\n      pop\n        /* \"#utility.yul\":4535:4668   */\n      swap2\n      swap1\n      pop\n      jump\t// out\n        /* \"#utility.yul\":4736:5628   */\n    tag_75:\n        /* \"#utility.yul\":4895:4898   */\n      0x00\n        /* \"#utility.yul\":4924:4998   */\n      tag_126\n        /* \"#utility.yul\":4992:4997   */\n      dup3\n        /* \"#utility.yul\":4924:4998   */\n      tag_68\n      jump\t// in\n    tag_126:\n        /* \"#utility.yul\":5014:5120   */\n      tag_127\n        /* \"#utility.yul\":5113:5119   */\n      dup2\n        /* \"#utility.yul\":5108:5111   */\n      dup6\n        /* \"#utility.yul\":5014:5120   */\n      tag_69\n      jump\t// in\n    tag_127:\n        /* \"#utility.yul\":5007:5120   */\n      swap4\n      pop\n        /* \"#utility.yul\":5144:5220   */\n      tag_128\n        /* \"#utility.yul\":5214:5219   */\n      dup4\n        /* \"#utility.yul\":5144:5220   */\n      tag_70\n      jump\t// in\n    tag_128:\n        /* \"#utility.yul\":5243:5250   */\n      dup1\n        /* \"#utility.yul\":5274:5275   */\n      0x00\n        /* \"#utility.yul\":5259:5603   */\n    tag_129:\n        /* \"#utility.yul\":5284:5290   */\n      dup4\n        /* \"#utility.yul\":5281:5282   */\n      dup2\n        /* \"#utility.yul\":5278:5291   */\n      lt\n        /* \"#utility.yul\":5259:5603   */\n      iszero\n      tag_131\n      jumpi\n        /* \"#utility.yul\":5360:5366   */\n      dup2\n        /* \"#utility.yul\":5354:5367   */\n      mload\n        /* \"#utility.yul\":5387:5490   */\n      tag_132\n        /* \"#utility.yul\":5486:5489   */\n      dup9\n        /* \"#utility.yul\":5471:5484   */\n      dup3\n        /* \"#utility.yul\":5387:5490   */\n      tag_73\n      jump\t// in\n    tag_132:\n        /* \"#utility.yul\":5380:5490   */\n      swap8\n      pop\n        /* \"#utility.yul\":5513:5593   */\n      tag_133\n        /* \"#utility.yul\":5586:5592   */\n      dup4\n        /* \"#utility.yul\":5513:5593   */\n      tag_74\n      jump\t// in\n    tag_133:\n        /* \"#utility.yul\":5503:5593   */\n      swap3\n      pop\n        /* \"#utility.yul\":5319:5603   */\n      pop\n        /* \"#utility.yul\":5306:5307   */\n      0x01\n        /* \"#utility.yul\":5303:5304   */\n      dup2\n        /* \"#utility.yul\":5299:5308   */\n      add\n        /* \"#utility.yul\":5294:5308   */\n      swap1\n      pop\n        /* \"#utility.yul\":5259:5603   */\n      jump(tag_129)\n    tag_131:\n        /* \"#utility.yul\":5263:5277   */\n      pop\n        /* \"#utility.yul\":5619:5622   */\n      dup6\n        /* \"#utility.yul\":5612:5622   */\n      swap4\n      pop\n        /* \"#utility.yul\":4900:5628   */\n      pop\n      pop\n      pop\n        /* \"#utility.yul\":4736:5628   */\n      swap3\n      swap2\n      pop\n      pop\n      jump\t// out\n        /* \"#utility.yul\":5634:6087   */\n    tag_26:\n        /* \"#utility.yul\":5817:5821   */\n      0x00\n        /* \"#utility.yul\":5855:5857   */\n      0x20\n        /* \"#utility.yul\":5844:5853   */\n      dup3\n        /* \"#utility.yul\":5840:5858   */\n      add\n        /* \"#utility.yul\":5832:5858   */\n      swap1\n      pop\n        /* \"#utility.yul\":5904:5913   */\n      dup2\n        /* \"#utility.yul\":5898:5902   */\n      dup2\n        /* \"#utility.yul\":5894:5914   */\n      sub\n        /* \"#utility.yul\":5890:5891   */\n      0x00\n        /* \"#utility.yul\":5879:5888   */\n      dup4\n        /* \"#utility.yul\":5875:5892   */\n      add\n        /* \"#utility.yul\":5868:5915   */\n      mstore\n        /* \"#utility.yul\":5932:6080   */\n      tag_135\n        /* \"#utility.yul\":6075:6079   */\n      dup2\n        /* \"#utility.yul\":6066:6072   */\n      dup5\n        /* \"#utility.yul\":5932:6080   */\n      tag_75\n      jump\t// in\n    tag_135:\n        /* \"#utility.yul\":5924:6080   */\n      swap1\n      pop\n        /* \"#utility.yul\":5634:6087   */\n      swap3\n      swap2\n      pop\n      pop\n      jump\t// out\n        /* \"#utility.yul\":6093:6273   */\n    tag_30:\n        /* \"#utility.yul\":6141:6218   */\n      0x4e487b7100000000000000000000000000000000000000000000000000000000\n        /* \"#utility.yul\":6138:6139   */\n      0x00\n        /* \"#utility.yul\":6131:6219   */\n      mstore\n        /* \"#utility.yul\":6238:6242   */\n      0x32\n        /* \"#utility.yul\":6235:6236   */\n      0x04\n        /* \"#utility.yul\":6228:6243   */\n      mstore\n        /* \"#utility.yul\":6262:6266   */\n      0x24\n        /* \"#utility.yul\":6259:6260   */\n      0x00\n        /* \"#utility.yul\":6252:6267   */\n      revert\n        /* \"#utility.yul\":6279:6459   */\n    tag_76:\n        /* \"#utility.yul\":6327:6404   */\n      0x4e487b7100000000000000000000000000000000000000000000000000000000\n        /* \"#utility.yul\":6324:6325   */\n      0x00\n        /* \"#utility.yul\":6317:6405   */\n      mstore\n        /* \"#utility.yul\":6424:6428   */\n      0x11\n        /* \"#utility.yul\":6421:6422   */\n      0x04\n        /* \"#utility.yul\":6414:6429   */\n      mstore\n        /* \"#utility.yul\":6448:6452   */\n      0x24\n        /* \"#utility.yul\":6445:6446   */\n      0x00\n        /* \"#utility.yul\":6438:6453   */\n      revert\n        /* \"#utility.yul\":6465:6698   */\n    tag_56:\n        /* \"#utility.yul\":6504:6507   */\n      0x00\n        /* \"#utility.yul\":6527:6551   */\n      tag_139\n        /* \"#utility.yul\":6545:6550   */\n      dup3\n        /* \"#utility.yul\":6527:6551   */\n      tag_61\n      jump\t// in\n    tag_139:\n        /* \"#utility.yul\":6518:6551   */\n      swap2\n      pop\n        /* \"#utility.yul\":6573:6639   */\n      0xffffffffffffffffffffffffffffffffffffffffffffffffffffffffffffffff\n        /* \"#utility.yul\":6566:6571   */\n      dup3\n        /* \"#utility.yul\":6563:6640   */\n      sub\n        /* \"#utility.yul\":6560:6663   */\n      tag_140\n      jumpi\n        /* \"#utility.yul\":6643:6661   */\n      tag_141\n      tag_76\n      jump\t// in\n    tag_141:\n        /* \"#utility.yul\":6560:6663   */\n    tag_140:\n        /* \"#utility.yul\":6690:6691   */\n      0x01\n        /* \"#utility.yul\":6683:6688   */\n      dup3\n        /* \"#utility.yul\":6679:6692   */\n      add\n        /* \"#utility.yul\":6672:6692   */\n      swap1\n      pop\n        /* \"#utility.yul\":6465:6698   */\n      swap2\n      swap1\n      pop\n      jump\t// out\n\n    auxdata: 0xa264697066735822122020bfc3065aa96687af6e4154f484bceeff6f662b0d3f5557d8b6da9381c07aab64736f6c634300080d0033\n}\n",
				"bytecode": {
					"linkReferences": {},
					"object": "608060405234801561001057600080fd5b5061065c806100206000396000f3fe608060405234801561001057600080fd5b506004361061004c5760003560e01c80630178fe3f146100515780632373d8a5146100835780634a96d1701461009f578063c41bb527146100d1575b600080fd5b61006b60048036038101906100669190610335565b610101565b60405161007a9392919061037b565b60405180910390f35b61009d600480360381019061009891906103de565b610184565b005b6100b960048036038101906100b49190610335565b6101ef565b6040516100c89392919061037b565b60405180910390f35b6100eb60048036038101906100e69190610431565b610229565b6040516100f8919061055e565b60405180910390f35b600080600080848154811061011957610118610580565b5b90600052602060002090600302016000015492506000848154811061014157610140610580565b5b90600052602060002090600302016001015491506000848154811061016957610168610580565b5b90600052602060002090600302016002015490509193909250565b600060405180606001604052808581526020018481526020018381525090806001815401808255809150506001900390600052602060002090600302016000909190919091506000820151816000015560208201518160010155604082015181600201555050505050565b600081815481106101ff57600080fd5b90600052602060002090600302016000915090508060000154908060010154908060020154905083565b60606000805b6000805490508110156102f357836000828154811061025157610250610580565b5b906000526020600020906003020160000154036102e0576000818154811061027c5761027b610580565b5b906000526020600020906003020160405180606001604052908160008201548152602001600182015481526020016002820154815250508383815181106102c6576102c5610580565b5b602002602001018190525081806102dc906105de565b9250505b80806102eb906105de565b91505061022f565b5050919050565b600080fd5b6000819050919050565b610312816102ff565b811461031d57600080fd5b50565b60008135905061032f81610309565b92915050565b60006020828403121561034b5761034a6102fa565b5b600061035984828501610320565b91505092915050565b6000819050919050565b61037581610362565b82525050565b6000606082019050610390600083018661036c565b61039d602083018561036c565b6103aa604083018461036c565b949350505050565b6103bb81610362565b81146103c657600080fd5b50565b6000813590506103d8816103b2565b92915050565b6000806000606084860312156103f7576103f66102fa565b5b6000610405868287016103c9565b9350506020610416868287016103c9565b9250506040610427868287016103c9565b9150509250925092565b600060208284031215610447576104466102fa565b5b6000610455848285016103c9565b91505092915050565b600081519050919050565b600082825260208201905092915050565b6000819050602082019050919050565b61049381610362565b82525050565b6060820160008201516104af600085018261048a565b5060208201516104c2602085018261048a565b5060408201516104d5604085018261048a565b50505050565b60006104e78383610499565b60608301905092915050565b6000602082019050919050565b600061050b8261045e565b6105158185610469565b93506105208361047a565b8060005b8381101561055157815161053888826104db565b9750610543836104f3565b925050600181019050610524565b5085935050505092915050565b600060208201905081810360008301526105788184610500565b905092915050565b7f4e487b7100000000000000000000000000000000000000000000000000000000600052603260045260246000fd5b7f4e487b7100000000000000000000000000000000000000000000000000000000600052601160045260246000fd5b60006105e9826102ff565b91507fffffffffffffffffffffffffffffffffffffffffffffffffffffffffffffffff820361061b5761061a6105af565b5b60018201905091905056fea264697066735822122020bfc3065aa96687af6e4154f484bceeff6f662b0d3f5557d8b6da9381c07aab64736f6c634300080d0033",
					"opcodes": "PUSH1 0x80 PUSH1 0x40 MSTORE CALLVALUE DUP1 ISZERO PUSH2 0x10 JUMPI PUSH1 0x0 DUP1 REVERT JUMPDEST POP PUSH2 0x65C DUP1 PUSH2 0x20 PUSH1 0x0 CODECOPY PUSH1 0x0 RETURN INVALID PUSH1 0x80 PUSH1 0x40 MSTORE CALLVALUE DUP1 ISZERO PUSH2 0x10 JUMPI PUSH1 0x0 DUP1 REVERT JUMPDEST POP PUSH1 0x4 CALLDATASIZE LT PUSH2 0x4C JUMPI PUSH1 0x0 CALLDATALOAD PUSH1 0xE0 SHR DUP1 PUSH4 0x178FE3F EQ PUSH2 0x51 JUMPI DUP1 PUSH4 0x2373D8A5 EQ PUSH2 0x83 JUMPI DUP1 PUSH4 0x4A96D170 EQ PUSH2 0x9F JUMPI DUP1 PUSH4 0xC41BB527 EQ PUSH2 0xD1 JUMPI JUMPDEST PUSH1 0x0 DUP1 REVERT JUMPDEST PUSH2 0x6B PUSH1 0x4 DUP1 CALLDATASIZE SUB DUP2 ADD SWAP1 PUSH2 0x66 SWAP2 SWAP1 PUSH2 0x335 JUMP JUMPDEST PUSH2 0x101 JUMP JUMPDEST PUSH1 0x40 MLOAD PUSH2 0x7A SWAP4 SWAP3 SWAP2 SWAP1 PUSH2 0x37B JUMP JUMPDEST PUSH1 0x40 MLOAD DUP1 SWAP2 SUB SWAP1 RETURN JUMPDEST PUSH2 0x9D PUSH1 0x4 DUP1 CALLDATASIZE SUB DUP2 ADD SWAP1 PUSH2 0x98 SWAP2 SWAP1 PUSH2 0x3DE JUMP JUMPDEST PUSH2 0x184 JUMP JUMPDEST STOP JUMPDEST PUSH2 0xB9 PUSH1 0x4 DUP1 CALLDATASIZE SUB DUP2 ADD SWAP1 PUSH2 0xB4 SWAP2 SWAP1 PUSH2 0x335 JUMP JUMPDEST PUSH2 0x1EF JUMP JUMPDEST PUSH1 0x40 MLOAD PUSH2 0xC8 SWAP4 SWAP3 SWAP2 SWAP1 PUSH2 0x37B JUMP JUMPDEST PUSH1 0x40 MLOAD DUP1 SWAP2 SUB SWAP1 RETURN JUMPDEST PUSH2 0xEB PUSH1 0x4 DUP1 CALLDATASIZE SUB DUP2 ADD SWAP1 PUSH2 0xE6 SWAP2 SWAP1 PUSH2 0x431 JUMP JUMPDEST PUSH2 0x229 JUMP JUMPDEST PUSH1 0x40 MLOAD PUSH2 0xF8 SWAP2 SWAP1 PUSH2 0x55E JUMP JUMPDEST PUSH1 0x40 MLOAD DUP1 SWAP2 SUB SWAP1 RETURN JUMPDEST PUSH1 0x0 DUP1 PUSH1 0x0 DUP1 DUP5 DUP2 SLOAD DUP2 LT PUSH2 0x119 JUMPI PUSH2 0x118 PUSH2 0x580 JUMP JUMPDEST JUMPDEST SWAP1 PUSH1 0x0 MSTORE PUSH1 0x20 PUSH1 0x0 KECCAK256 SWAP1 PUSH1 0x3 MUL ADD PUSH1 0x0 ADD SLOAD SWAP3 POP PUSH1 0x0 DUP5 DUP2 SLOAD DUP2 LT PUSH2 0x141 JUMPI PUSH2 0x140 PUSH2 0x580 JUMP JUMPDEST JUMPDEST SWAP1 PUSH1 0x0 MSTORE PUSH1 0x20 PUSH1 0x0 KECCAK256 SWAP1 PUSH1 0x3 MUL ADD PUSH1 0x1 ADD SLOAD SWAP2 POP PUSH1 0x0 DUP5 DUP2 SLOAD DUP2 LT PUSH2 0x169 JUMPI PUSH2 0x168 PUSH2 0x580 JUMP JUMPDEST JUMPDEST SWAP1 PUSH1 0x0 MSTORE PUSH1 0x20 PUSH1 0x0 KECCAK256 SWAP1 PUSH1 0x3 MUL ADD PUSH1 0x2 ADD SLOAD SWAP1 POP SWAP2 SWAP4 SWAP1 SWAP3 POP JUMP JUMPDEST PUSH1 0x0 PUSH1 0x40 MLOAD DUP1 PUSH1 0x60 ADD PUSH1 0x40 MSTORE DUP1 DUP6 DUP2 MSTORE PUSH1 0x20 ADD DUP5 DUP2 MSTORE PUSH1 0x20 ADD DUP4 DUP2 MSTORE POP SWAP1 DUP1 PUSH1 0x1 DUP2 SLOAD ADD DUP1 DUP3 SSTORE DUP1 SWAP2 POP POP PUSH1 0x1 SWAP1 SUB SWAP1 PUSH1 0x0 MSTORE PUSH1 0x20 PUSH1 0x0 KECCAK256 SWAP1 PUSH1 0x3 MUL ADD PUSH1 0x0 SWAP1 SWAP2 SWAP1 SWAP2 SWAP1 SWAP2 POP PUSH1 0x0 DUP3 ADD MLOAD DUP2 PUSH1 0x0 ADD SSTORE PUSH1 0x20 DUP3 ADD MLOAD DUP2 PUSH1 0x1 ADD SSTORE PUSH1 0x40 DUP3 ADD MLOAD DUP2 PUSH1 0x2 ADD SSTORE POP POP POP POP POP JUMP JUMPDEST PUSH1 0x0 DUP2 DUP2 SLOAD DUP2 LT PUSH2 0x1FF JUMPI PUSH1 0x0 DUP1 REVERT JUMPDEST SWAP1 PUSH1 0x0 MSTORE PUSH1 0x20 PUSH1 0x0 KECCAK256 SWAP1 PUSH1 0x3 MUL ADD PUSH1 0x0 SWAP2 POP SWAP1 POP DUP1 PUSH1 0x0 ADD SLOAD SWAP1 DUP1 PUSH1 0x1 ADD SLOAD SWAP1 DUP1 PUSH1 0x2 ADD SLOAD SWAP1 POP DUP4 JUMP JUMPDEST PUSH1 0x60 PUSH1 0x0 DUP1 JUMPDEST PUSH1 0x0 DUP1 SLOAD SWAP1 POP DUP2 LT ISZERO PUSH2 0x2F3 JUMPI DUP4 PUSH1 0x0 DUP3 DUP2 SLOAD DUP2 LT PUSH2 0x251 JUMPI PUSH2 0x250 PUSH2 0x580 JUMP JUMPDEST JUMPDEST SWAP1 PUSH1 0x0 MSTORE PUSH1 0x20 PUSH1 0x0 KECCAK256 SWAP1 PUSH1 0x3 MUL ADD PUSH1 0x0 ADD SLOAD SUB PUSH2 0x2E0 JUMPI PUSH1 0x0 DUP2 DUP2 SLOAD DUP2 LT PUSH2 0x27C JUMPI PUSH2 0x27B PUSH2 0x580 JUMP JUMPDEST JUMPDEST SWAP1 PUSH1 0x0 MSTORE PUSH1 0x20 PUSH1 0x0 KECCAK256 SWAP1 PUSH1 0x3 MUL ADD PUSH1 0x40 MLOAD DUP1 PUSH1 0x60 ADD PUSH1 0x40 MSTORE SWAP1 DUP2 PUSH1 0x0 DUP3 ADD SLOAD DUP2 MSTORE PUSH1 0x20 ADD PUSH1 0x1 DUP3 ADD SLOAD DUP2 MSTORE PUSH1 0x20 ADD PUSH1 0x2 DUP3 ADD SLOAD DUP2 MSTORE POP POP DUP4 DUP4 DUP2 MLOAD DUP2 LT PUSH2 0x2C6 JUMPI PUSH2 0x2C5 PUSH2 0x580 JUMP JUMPDEST JUMPDEST PUSH1 0x20 MUL PUSH1 0x20 ADD ADD DUP2 SWAP1 MSTORE POP DUP2 DUP1 PUSH2 0x2DC SWAP1 PUSH2 0x5DE JUMP JUMPDEST SWAP3 POP POP JUMPDEST DUP1 DUP1 PUSH2 0x2EB SWAP1 PUSH2 0x5DE JUMP JUMPDEST SWAP2 POP POP PUSH2 0x22F JUMP JUMPDEST POP POP SWAP2 SWAP1 POP JUMP JUMPDEST PUSH1 0x0 DUP1 REVERT JUMPDEST PUSH1 0x0 DUP2 SWAP1 POP SWAP2 SWAP1 POP JUMP JUMPDEST PUSH2 0x312 DUP2 PUSH2 0x2FF JUMP JUMPDEST DUP2 EQ PUSH2 0x31D JUMPI PUSH1 0x0 DUP1 REVERT JUMPDEST POP JUMP JUMPDEST PUSH1 0x0 DUP2 CALLDATALOAD SWAP1 POP PUSH2 0x32F DUP2 PUSH2 0x309 JUMP JUMPDEST SWAP3 SWAP2 POP POP JUMP JUMPDEST PUSH1 0x0 PUSH1 0x20 DUP3 DUP5 SUB SLT ISZERO PUSH2 0x34B JUMPI PUSH2 0x34A PUSH2 0x2FA JUMP JUMPDEST JUMPDEST PUSH1 0x0 PUSH2 0x359 DUP5 DUP3 DUP6 ADD PUSH2 0x320 JUMP JUMPDEST SWAP2 POP POP SWAP3 SWAP2 POP POP JUMP JUMPDEST PUSH1 0x0 DUP2 SWAP1 POP SWAP2 SWAP1 POP JUMP JUMPDEST PUSH2 0x375 DUP2 PUSH2 0x362 JUMP JUMPDEST DUP3 MSTORE POP POP JUMP JUMPDEST PUSH1 0x0 PUSH1 0x60 DUP3 ADD SWAP1 POP PUSH2 0x390 PUSH1 0x0 DUP4 ADD DUP7 PUSH2 0x36C JUMP JUMPDEST PUSH2 0x39D PUSH1 0x20 DUP4 ADD DUP6 PUSH2 0x36C JUMP JUMPDEST PUSH2 0x3AA PUSH1 0x40 DUP4 ADD DUP5 PUSH2 0x36C JUMP JUMPDEST SWAP5 SWAP4 POP POP POP POP JUMP JUMPDEST PUSH2 0x3BB DUP2 PUSH2 0x362 JUMP JUMPDEST DUP2 EQ PUSH2 0x3C6 JUMPI PUSH1 0x0 DUP1 REVERT JUMPDEST POP JUMP JUMPDEST PUSH1 0x0 DUP2 CALLDATALOAD SWAP1 POP PUSH2 0x3D8 DUP2 PUSH2 0x3B2 JUMP JUMPDEST SWAP3 SWAP2 POP POP JUMP JUMPDEST PUSH1 0x0 DUP1 PUSH1 0x0 PUSH1 0x60 DUP5 DUP7 SUB SLT ISZERO PUSH2 0x3F7 JUMPI PUSH2 0x3F6 PUSH2 0x2FA JUMP JUMPDEST JUMPDEST PUSH1 0x0 PUSH2 0x405 DUP7 DUP3 DUP8 ADD PUSH2 0x3C9 JUMP JUMPDEST SWAP4 POP POP PUSH1 0x20 PUSH2 0x416 DUP7 DUP3 DUP8 ADD PUSH2 0x3C9 JUMP JUMPDEST SWAP3 POP POP PUSH1 0x40 PUSH2 0x427 DUP7 DUP3 DUP8 ADD PUSH2 0x3C9 JUMP JUMPDEST SWAP2 POP POP SWAP3 POP SWAP3 POP SWAP3 JUMP JUMPDEST PUSH1 0x0 PUSH1 0x20 DUP3 DUP5 SUB SLT ISZERO PUSH2 0x447 JUMPI PUSH2 0x446 PUSH2 0x2FA JUMP JUMPDEST JUMPDEST PUSH1 0x0 PUSH2 0x455 DUP5 DUP3 DUP6 ADD PUSH2 0x3C9 JUMP JUMPDEST SWAP2 POP POP SWAP3 SWAP2 POP POP JUMP JUMPDEST PUSH1 0x0 DUP2 MLOAD SWAP1 POP SWAP2 SWAP1 POP JUMP JUMPDEST PUSH1 0x0 DUP3 DUP3 MSTORE PUSH1 0x20 DUP3 ADD SWAP1 POP SWAP3 SWAP2 POP POP JUMP JUMPDEST PUSH1 0x0 DUP2 SWAP1 POP PUSH1 0x20 DUP3 ADD SWAP1 POP SWAP2 SWAP1 POP JUMP JUMPDEST PUSH2 0x493 DUP2 PUSH2 0x362 JUMP JUMPDEST DUP3 MSTORE POP POP JUMP JUMPDEST PUSH1 0x60 DUP3 ADD PUSH1 0x0 DUP3 ADD MLOAD PUSH2 0x4AF PUSH1 0x0 DUP6 ADD DUP3 PUSH2 0x48A JUMP JUMPDEST POP PUSH1 0x20 DUP3 ADD MLOAD PUSH2 0x4C2 PUSH1 0x20 DUP6 ADD DUP3 PUSH2 0x48A JUMP JUMPDEST POP PUSH1 0x40 DUP3 ADD MLOAD PUSH2 0x4D5 PUSH1 0x40 DUP6 ADD DUP3 PUSH2 0x48A JUMP JUMPDEST POP POP POP POP JUMP JUMPDEST PUSH1 0x0 PUSH2 0x4E7 DUP4 DUP4 PUSH2 0x499 JUMP JUMPDEST PUSH1 0x60 DUP4 ADD SWAP1 POP SWAP3 SWAP2 POP POP JUMP JUMPDEST PUSH1 0x0 PUSH1 0x20 DUP3 ADD SWAP1 POP SWAP2 SWAP1 POP JUMP JUMPDEST PUSH1 0x0 PUSH2 0x50B DUP3 PUSH2 0x45E JUMP JUMPDEST PUSH2 0x515 DUP2 DUP6 PUSH2 0x469 JUMP JUMPDEST SWAP4 POP PUSH2 0x520 DUP4 PUSH2 0x47A JUMP JUMPDEST DUP1 PUSH1 0x0 JUMPDEST DUP4 DUP2 LT ISZERO PUSH2 0x551 JUMPI DUP2 MLOAD PUSH2 0x538 DUP9 DUP3 PUSH2 0x4DB JUMP JUMPDEST SWAP8 POP PUSH2 0x543 DUP4 PUSH2 0x4F3 JUMP JUMPDEST SWAP3 POP POP PUSH1 0x1 DUP2 ADD SWAP1 POP PUSH2 0x524 JUMP JUMPDEST POP DUP6 SWAP4 POP POP POP POP SWAP3 SWAP2 POP POP JUMP JUMPDEST PUSH1 0x0 PUSH1 0x20 DUP3 ADD SWAP1 POP DUP2 DUP2 SUB PUSH1 0x0 DUP4 ADD MSTORE PUSH2 0x578 DUP2 DUP5 PUSH2 0x500 JUMP JUMPDEST SWAP1 POP SWAP3 SWAP2 POP POP JUMP JUMPDEST PUSH32 0x4E487B7100000000000000000000000000000000000000000000000000000000 PUSH1 0x0 MSTORE PUSH1 0x32 PUSH1 0x4 MSTORE PUSH1 0x24 PUSH1 0x0 REVERT JUMPDEST PUSH32 0x4E487B7100000000000000000000000000000000000000000000000000000000 PUSH1 0x0 MSTORE PUSH1 0x11 PUSH1 0x4 MSTORE PUSH1 0x24 PUSH1 0x0 REVERT JUMPDEST PUSH1 0x0 PUSH2 0x5E9 DUP3 PUSH2 0x2FF JUMP JUMPDEST SWAP2 POP PUSH32 0xFFFFFFFFFFFFFFFFFFFFFFFFFFFFFFFFFFFFFFFFFFFFFFFFFFFFFFFFFFFFFFFF DUP3 SUB PUSH2 0x61B JUMPI PUSH2 0x61A PUSH2 0x5AF JUMP JUMPDEST JUMPDEST PUSH1 0x1 DUP3 ADD SWAP1 POP SWAP2 SWAP1 POP JUMP INVALID LOG2 PUSH5 0x6970667358 0x22 SLT KECCAK256 KECCAK256 0xBF 0xC3 MOD GAS 0xA9 PUSH7 0x87AF6E4154F484 0xBC 0xEE SELFDESTRUCT PUSH16 0x662B0D3F5557D8B6DA9381C07AAB6473 PUSH16 0x6C634300080D00330000000000000000 "
				},
				"gasEstimates": {
					"creation": {
						"codeDepositCost": "325600",
						"executionCost": "362",
						"totalCost": "325962"
					},
					"external": {
						"addData(bytes32,bytes32,bytes32)": "infinite",
						"dataSet(uint256)": "infinite",
						"getAllDataBySensor(bytes32)": "infinite",
						"getData(uint256)": "infinite"
					}
				},
				"methodIdentifiers": {
					"addData(bytes32,bytes32,bytes32)": "2373d8a5",
					"dataSet(uint256)": "4a96d170",
					"getAllDataBySensor(bytes32)": "c41bb527",
					"getData(uint256)": "0178fe3f"
				}
			},
			"userdoc": {
				"kind": "user",
				"methods": {},
				"version": 1
			}
		}
	}
}