{
	"DataStorage.sol": {
		"DataStorage": {
			"abi": [
				{
					"inputs": [
						{
							"internalType": "string",
							"name": "Id",
							"type": "string"
						},
						{
							"internalType": "string",
							"name": "time",
							"type": "string"
						},
						{
							"internalType": "uint256",
							"name": "sensorvalue",
							"type": "uint256"
						}
					],
					"name": "addData",
					"outputs": [],
					"stateMutability": "nonpayable",
					"type": "function"
				},
				{
					"inputs": [
						{
							"internalType": "uint256",
							"name": "",
							"type": "uint256"
						}
					],
					"name": "dataSet",
					"outputs": [
						{
							"internalType": "string",
							"name": "sensorId",
							"type": "string"
						},
						{
							"internalType": "string",
							"name": "timeStamp",
							"type": "string"
						},
						{
							"internalType": "uint256",
							"name": "value",
							"type": "uint256"
						}
					],
					"stateMutability": "view",
					"type": "function"
				},
				{
					"inputs": [
						{
							"internalType": "string",
							"name": "sensorId",
							"type": "string"
						}
					],
					"name": "getAllDataBySensor",
					"outputs": [
						{
							"components": [
								{
									"internalType": "string",
									"name": "sensorId",
									"type": "string"
								},
								{
									"internalType": "string",
									"name": "timeStamp",
									"type": "string"
								},
								{
									"internalType": "uint256",
									"name": "value",
									"type": "uint256"
								}
							],
							"internalType": "struct DataStorage.Data[]",
							"name": "returnData",
							"type": "tuple[]"
						}
					],
					"stateMutability": "view",
					"type": "function"
				},
				{
					"inputs": [
						{
							"internalType": "uint256",
							"name": "arrayPointer",
							"type": "uint256"
						}
					],
					"name": "getData",
					"outputs": [
						{
							"internalType": "string",
							"name": "Id",
							"type": "string"
						},
						{
							"internalType": "string",
							"name": "time",
							"type": "string"
						},
						{
							"internalType": "uint256",
							"name": "sensorvalue",
							"type": "uint256"
						}
					],
					"stateMutability": "view",
					"type": "function"
				}
			],
			"devdoc": {
				"kind": "dev",
				"methods": {},
				"version": 1
			},
			"evm": {
				"assembly": "    /* \"DataStorage.sol\":25:709  contract DataStorage {... */\n  mstore(0x40, 0x80)\n  callvalue\n  dup1\n  iszero\n  tag_1\n  jumpi\n  0x00\n  dup1\n  revert\ntag_1:\n  pop\n  dataSize(sub_0)\n  dup1\n  dataOffset(sub_0)\n  0x00\n  codecopy\n  0x00\n  return\nstop\n\nsub_0: assembly {\n        /* \"DataStorage.sol\":25:709  contract DataStorage {... */\n      mstore(0x40, 0x80)\n      callvalue\n      dup1\n      iszero\n      tag_1\n      jumpi\n      0x00\n      dup1\n      revert\n    tag_1:\n      pop\n      jumpi(tag_2, lt(calldatasize, 0x04))\n      shr(0xe0, calldataload(0x00))\n      dup1\n      0x0178fe3f\n      eq\n      tag_3\n      jumpi\n      dup1\n      0x4a96d170\n      eq\n      tag_4\n      jumpi\n      dup1\n      0x7deffc6a\n      eq\n      tag_5\n      jumpi\n      dup1\n      0xac578350\n      eq\n      tag_6\n      jumpi\n    tag_2:\n      0x00\n      dup1\n      revert\n        /* \"DataStorage.sol\":291:541  function getData(uint arrayPointer) view public returns (string memory Id, string memory time, uint sensorvalue) {... */\n    tag_3:\n      tag_7\n      0x04\n      dup1\n      calldatasize\n      sub\n      dup2\n      add\n      swap1\n      tag_8\n      swap2\n      swap1\n      tag_9\n      jump\t// in\n    tag_8:\n      tag_10\n      jump\t// in\n    tag_7:\n      mload(0x40)\n      tag_11\n      swap4\n      swap3\n      swap2\n      swap1\n      tag_12\n      jump\t// in\n    tag_11:\n      mload(0x40)\n      dup1\n      swap2\n      sub\n      swap1\n      return\n        /* \"DataStorage.sol\":50:71  Data[] public dataSet */\n    tag_4:\n      tag_13\n      0x04\n      dup1\n      calldatasize\n      sub\n      dup2\n      add\n      swap1\n      tag_14\n      swap2\n      swap1\n      tag_9\n      jump\t// in\n    tag_14:\n      tag_15\n      jump\t// in\n    tag_13:\n      mload(0x40)\n      tag_16\n      swap4\n      swap3\n      swap2\n      swap1\n      tag_12\n      jump\t// in\n    tag_16:\n      mload(0x40)\n      dup1\n      swap2\n      sub\n      swap1\n      return\n        /* \"DataStorage.sol\":155:287  function addData(string memory Id, string memory time, uint sensorvalue) public {... */\n    tag_5:\n      tag_17\n      0x04\n      dup1\n      calldatasize\n      sub\n      dup2\n      add\n      swap1\n      tag_18\n      swap2\n      swap1\n      tag_19\n      jump\t// in\n    tag_18:\n      tag_20\n      jump\t// in\n    tag_17:\n      stop\n        /* \"DataStorage.sol\":545:707  function getAllDataBySensor(string memory sensorId) view public returns (Data[] memory returnData){... */\n    tag_6:\n      tag_21\n      0x04\n      dup1\n      calldatasize\n      sub\n      dup2\n      add\n      swap1\n      tag_22\n      swap2\n      swap1\n      tag_23\n      jump\t// in\n    tag_22:\n      tag_24\n      jump\t// in\n    tag_21:\n      mload(0x40)\n      tag_25\n      swap2\n      swap1\n      tag_26\n      jump\t// in\n    tag_25:\n      mload(0x40)\n      dup1\n      swap2\n      sub\n      swap1\n      return\n        /* \"DataStorage.sol\":291:541  function getData(uint arrayPointer) view public returns (string memory Id, string memory time, uint sensorvalue) {... */\n    tag_10:\n        /* \"DataStorage.sol\":348:364  string memory Id */\n      0x60\n        /* \"DataStorage.sol\":366:384  string memory time */\n      dup1\n        /* \"DataStorage.sol\":386:402  uint sensorvalue */\n      0x00\n        /* \"DataStorage.sol\":415:422  dataSet */\n      dup1\n        /* \"DataStorage.sol\":423:435  arrayPointer */\n      dup5\n        /* \"DataStorage.sol\":415:436  dataSet[arrayPointer] */\n      dup2\n      sload\n      dup2\n      lt\n      tag_28\n      jumpi\n      tag_29\n      tag_30\n      jump\t// in\n    tag_29:\n    tag_28:\n      swap1\n      0x00\n      mstore\n      keccak256(0x00, 0x20)\n      swap1\n      0x03\n      mul\n      add\n        /* \"DataStorage.sol\":415:445  dataSet[arrayPointer].sensorId */\n      0x00\n      add\n        /* \"DataStorage.sol\":410:445  Id = dataSet[arrayPointer].sensorId */\n      dup1\n      sload\n      tag_32\n      swap1\n      tag_33\n      jump\t// in\n    tag_32:\n      dup1\n      0x1f\n      add\n      0x20\n      dup1\n      swap2\n      div\n      mul\n      0x20\n      add\n      mload(0x40)\n      swap1\n      dup2\n      add\n      0x40\n      mstore\n      dup1\n      swap3\n      swap2\n      swap1\n      dup2\n      dup2\n      mstore\n      0x20\n      add\n      dup3\n      dup1\n      sload\n      tag_34\n      swap1\n      tag_33\n      jump\t// in\n    tag_34:\n      dup1\n      iszero\n      tag_35\n      jumpi\n      dup1\n      0x1f\n      lt\n      tag_36\n      jumpi\n      0x0100\n      dup1\n      dup4\n      sload\n      div\n      mul\n      dup4\n      mstore\n      swap2\n      0x20\n      add\n      swap2\n      jump(tag_35)\n    tag_36:\n      dup3\n      add\n      swap2\n      swap1\n      0x00\n      mstore\n      keccak256(0x00, 0x20)\n      swap1\n    tag_37:\n      dup2\n      sload\n      dup2\n      mstore\n      swap1\n      0x01\n      add\n      swap1\n      0x20\n      add\n      dup1\n      dup4\n      gt\n      tag_37\n      jumpi\n      dup3\n      swap1\n      sub\n      0x1f\n      and\n      dup3\n      add\n      swap2\n    tag_35:\n      pop\n      pop\n      pop\n      pop\n      pop\n      swap3\n      pop\n        /* \"DataStorage.sol\":458:465  dataSet */\n      0x00\n        /* \"DataStorage.sol\":466:478  arrayPointer */\n      dup5\n        /* \"DataStorage.sol\":458:479  dataSet[arrayPointer] */\n      dup2\n      sload\n      dup2\n      lt\n      tag_38\n      jumpi\n      tag_39\n      tag_30\n      jump\t// in\n    tag_39:\n    tag_38:\n      swap1\n      0x00\n      mstore\n      keccak256(0x00, 0x20)\n      swap1\n      0x03\n      mul\n      add\n        /* \"DataStorage.sol\":458:489  dataSet[arrayPointer].timeStamp */\n      0x01\n      add\n        /* \"DataStorage.sol\":451:489  time = dataSet[arrayPointer].timeStamp */\n      dup1\n      sload\n      tag_41\n      swap1\n      tag_33\n      jump\t// in\n    tag_41:\n      dup1\n      0x1f\n      add\n      0x20\n      dup1\n      swap2\n      div\n      mul\n      0x20\n      add\n      mload(0x40)\n      swap1\n      dup2\n      add\n      0x40\n      mstore\n      dup1\n      swap3\n      swap2\n      swap1\n      dup2\n      dup2\n      mstore\n      0x20\n      add\n      dup3\n      dup1\n      sload\n      tag_42\n      swap1\n      tag_33\n      jump\t// in\n    tag_42:\n      dup1\n      iszero\n      tag_43\n      jumpi\n      dup1\n      0x1f\n      lt\n      tag_44\n      jumpi\n      0x0100\n      dup1\n      dup4\n      sload\n      div\n      mul\n      dup4\n      mstore\n      swap2\n      0x20\n      add\n      swap2\n      jump(tag_43)\n    tag_44:\n      dup3\n      add\n      swap2\n      swap1\n      0x00\n      mstore\n      keccak256(0x00, 0x20)\n      swap1\n    tag_45:\n      dup2\n      sload\n      dup2\n      mstore\n      swap1\n      0x01\n      add\n      swap1\n      0x20\n      add\n      dup1\n      dup4\n      gt\n      tag_45\n      jumpi\n      dup3\n      swap1\n      sub\n      0x1f\n      and\n      dup3\n      add\n      swap2\n    tag_43:\n      pop\n      pop\n      pop\n      pop\n      pop\n      swap2\n      pop\n        /* \"DataStorage.sol\":509:516  dataSet */\n      0x00\n        /* \"DataStorage.sol\":517:529  arrayPointer */\n      dup5\n        /* \"DataStorage.sol\":509:530  dataSet[arrayPointer] */\n      dup2\n      sload\n      dup2\n      lt\n      tag_46\n      jumpi\n      tag_47\n      tag_30\n      jump\t// in\n    tag_47:\n    tag_46:\n      swap1\n      0x00\n      mstore\n      keccak256(0x00, 0x20)\n      swap1\n      0x03\n      mul\n      add\n        /* \"DataStorage.sol\":509:536  dataSet[arrayPointer].value */\n      0x02\n      add\n      sload\n        /* \"DataStorage.sol\":495:536  sensorvalue = dataSet[arrayPointer].value */\n      swap1\n      pop\n        /* \"DataStorage.sol\":291:541  function getData(uint arrayPointer) view public returns (string memory Id, string memory time, uint sensorvalue) {... */\n      swap2\n      swap4\n      swap1\n      swap3\n      pop\n      jump\t// out\n        /* \"DataStorage.sol\":50:71  Data[] public dataSet */\n    tag_15:\n      0x00\n      dup2\n      dup2\n      sload\n      dup2\n      lt\n      tag_49\n      jumpi\n      0x00\n      dup1\n      revert\n    tag_49:\n      swap1\n      0x00\n      mstore\n      keccak256(0x00, 0x20)\n      swap1\n      0x03\n      mul\n      add\n      0x00\n      swap2\n      pop\n      swap1\n      pop\n      dup1\n      0x00\n      add\n      dup1\n      sload\n      tag_51\n      swap1\n      tag_33\n      jump\t// in\n    tag_51:\n      dup1\n      0x1f\n      add\n      0x20\n      dup1\n      swap2\n      div\n      mul\n      0x20\n      add\n      mload(0x40)\n      swap1\n      dup2\n      add\n      0x40\n      mstore\n      dup1\n      swap3\n      swap2\n      swap1\n      dup2\n      dup2\n      mstore\n      0x20\n      add\n      dup3\n      dup1\n      sload\n      tag_52\n      swap1\n      tag_33\n      jump\t// in\n    tag_52:\n      dup1\n      iszero\n      tag_53\n      jumpi\n      dup1\n      0x1f\n      lt\n      tag_54\n      jumpi\n      0x0100\n      dup1\n      dup4\n      sload\n      div\n      mul\n      dup4\n      mstore\n      swap2\n      0x20\n      add\n      swap2\n      jump(tag_53)\n    tag_54:\n      dup3\n      add\n      swap2\n      swap1\n      0x00\n      mstore\n      keccak256(0x00, 0x20)\n      swap1\n    tag_55:\n      dup2\n      sload\n      dup2\n      mstore\n      swap1\n      0x01\n      add\n      swap1\n      0x20\n      add\n      dup1\n      dup4\n      gt\n      tag_55\n      jumpi\n      dup3\n      swap1\n      sub\n      0x1f\n      and\n      dup3\n      add\n      swap2\n    tag_53:\n      pop\n      pop\n      pop\n      pop\n      pop\n      swap1\n      dup1\n      0x01\n      add\n      dup1\n      sload\n      tag_56\n      swap1\n      tag_33\n      jump\t// in\n    tag_56:\n      dup1\n      0x1f\n      add\n      0x20\n      dup1\n      swap2\n      div\n      mul\n      0x20\n      add\n      mload(0x40)\n      swap1\n      dup2\n      add\n      0x40\n      mstore\n      dup1\n      swap3\n      swap2\n      swap1\n      dup2\n      dup2\n      mstore\n      0x20\n      add\n      dup3\n      dup1\n      sload\n      tag_57\n      swap1\n      tag_33\n      jump\t// in\n    tag_57:\n      dup1\n      iszero\n      tag_58\n      jumpi\n      dup1\n      0x1f\n      lt\n      tag_59\n      jumpi\n      0x0100\n      dup1\n      dup4\n      sload\n      div\n      mul\n      dup4\n      mstore\n      swap2\n      0x20\n      add\n      swap2\n      jump(tag_58)\n    tag_59:\n      dup3\n      add\n      swap2\n      swap1\n      0x00\n      mstore\n      keccak256(0x00, 0x20)\n      swap1\n    tag_60:\n      dup2\n      sload\n      dup2\n      mstore\n      swap1\n      0x01\n      add\n      swap1\n      0x20\n      add\n      dup1\n      dup4\n      gt\n      tag_60\n      jumpi\n      dup3\n      swap1\n      sub\n      0x1f\n      and\n      dup3\n      add\n      swap2\n    tag_58:\n      pop\n      pop\n      pop\n      pop\n      pop\n      swap1\n      dup1\n      0x02\n      add\n      sload\n      swap1\n      pop\n      dup4\n      jump\t// out\n        /* \"DataStorage.sol\":155:287  function addData(string memory Id, string memory time, uint sensorvalue) public {... */\n    tag_20:\n        /* \"DataStorage.sol\":241:248  dataSet */\n      0x00\n        /* \"DataStorage.sol\":254:281  Data(Id, time, sensorvalue) */\n      mload(0x40)\n      dup1\n      0x60\n      add\n      0x40\n      mstore\n      dup1\n        /* \"DataStorage.sol\":259:261  Id */\n      dup6\n        /* \"DataStorage.sol\":254:281  Data(Id, time, sensorvalue) */\n      dup2\n      mstore\n      0x20\n      add\n        /* \"DataStorage.sol\":263:267  time */\n      dup5\n        /* \"DataStorage.sol\":254:281  Data(Id, time, sensorvalue) */\n      dup2\n      mstore\n      0x20\n      add\n        /* \"DataStorage.sol\":269:280  sensorvalue */\n      dup4\n        /* \"DataStorage.sol\":254:281  Data(Id, time, sensorvalue) */\n      dup2\n      mstore\n      pop\n        /* \"DataStorage.sol\":241:282  dataSet.push(Data(Id, time, sensorvalue)) */\n      swap1\n      dup1\n      0x01\n      dup2\n      sload\n      add\n      dup1\n      dup3\n      sstore\n      dup1\n      swap2\n      pop\n      pop\n      0x01\n      swap1\n      sub\n      swap1\n      0x00\n      mstore\n      keccak256(0x00, 0x20)\n      swap1\n      0x03\n      mul\n      add\n      0x00\n      swap1\n      swap2\n      swap1\n      swap2\n      swap1\n      swap2\n      pop\n      0x00\n      dup3\n      add\n      mload\n      dup2\n      0x00\n      add\n      swap1\n      dup1\n      mload\n      swap1\n      0x20\n      add\n      swap1\n      tag_63\n      swap3\n      swap2\n      swap1\n      tag_64\n      jump\t// in\n    tag_63:\n      pop\n      0x20\n      dup3\n      add\n      mload\n      dup2\n      0x01\n      add\n      swap1\n      dup1\n      mload\n      swap1\n      0x20\n      add\n      swap1\n      tag_65\n      swap3\n      swap2\n      swap1\n      tag_64\n      jump\t// in\n    tag_65:\n      pop\n      0x40\n      dup3\n      add\n      mload\n      dup2\n      0x02\n      add\n      sstore\n      pop\n      pop\n        /* \"DataStorage.sol\":155:287  function addData(string memory Id, string memory time, uint sensorvalue) public {... */\n      pop\n      pop\n      pop\n      jump\t// out\n        /* \"DataStorage.sol\":545:707  function getAllDataBySensor(string memory sensorId) view public returns (Data[] memory returnData){... */\n    tag_24:\n        /* \"DataStorage.sol\":618:642  Data[] memory returnData */\n      0x60\n        /* \"DataStorage.sol\":659:665  uint i */\n      0x00\n        /* \"DataStorage.sol\":654:703  for (uint i = 0; i < dataSet.length; i++){... */\n    tag_67:\n        /* \"DataStorage.sol\":675:682  dataSet */\n      0x00\n        /* \"DataStorage.sol\":675:689  dataSet.length */\n      dup1\n      sload\n      swap1\n      pop\n        /* \"DataStorage.sol\":671:672  i */\n      dup2\n        /* \"DataStorage.sol\":671:689  i < dataSet.length */\n      lt\n        /* \"DataStorage.sol\":654:703  for (uint i = 0; i < dataSet.length; i++){... */\n      iszero\n      tag_68\n      jumpi\n        /* \"DataStorage.sol\":691:694  i++ */\n      dup1\n      dup1\n      tag_70\n      swap1\n      tag_71\n      jump\t// in\n    tag_70:\n      swap2\n      pop\n      pop\n        /* \"DataStorage.sol\":654:703  for (uint i = 0; i < dataSet.length; i++){... */\n      jump(tag_67)\n    tag_68:\n      pop\n        /* \"DataStorage.sol\":545:707  function getAllDataBySensor(string memory sensorId) view public returns (Data[] memory returnData){... */\n      swap2\n      swap1\n      pop\n      jump\t// out\n    tag_64:\n      dup3\n      dup1\n      sload\n      tag_72\n      swap1\n      tag_33\n      jump\t// in\n    tag_72:\n      swap1\n      0x00\n      mstore\n      keccak256(0x00, 0x20)\n      swap1\n      0x1f\n      add\n      0x20\n      swap1\n      div\n      dup2\n      add\n      swap3\n      dup3\n      tag_74\n      jumpi\n      0x00\n      dup6\n      sstore\n      jump(tag_73)\n    tag_74:\n      dup3\n      0x1f\n      lt\n      tag_75\n      jumpi\n      dup1\n      mload\n      not(0xff)\n      and\n      dup4\n      dup1\n      add\n      or\n      dup6\n      sstore\n      jump(tag_73)\n    tag_75:\n      dup3\n      dup1\n      add\n      0x01\n      add\n      dup6\n      sstore\n      dup3\n      iszero\n      tag_73\n      jumpi\n      swap2\n      dup3\n      add\n    tag_76:\n      dup3\n      dup2\n      gt\n      iszero\n      tag_77\n      jumpi\n      dup3\n      mload\n      dup3\n      sstore\n      swap2\n      0x20\n      add\n      swap2\n      swap1\n      0x01\n      add\n      swap1\n      jump(tag_76)\n    tag_77:\n    tag_73:\n      pop\n      swap1\n      pop\n      tag_78\n      swap2\n      swap1\n      tag_79\n      jump\t// in\n    tag_78:\n      pop\n      swap1\n      jump\t// out\n    tag_79:\n    tag_80:\n      dup1\n      dup3\n      gt\n      iszero\n      tag_81\n      jumpi\n      0x00\n      dup2\n      0x00\n      swap1\n      sstore\n      pop\n      0x01\n      add\n      jump(tag_80)\n    tag_81:\n      pop\n      swap1\n      jump\t// out\n        /* \"#utility.yul\":7:82   */\n    tag_82:\n        /* \"#utility.yul\":40:46   */\n      0x00\n        /* \"#utility.yul\":73:75   */\n      0x40\n        /* \"#utility.yul\":67:76   */\n      mload\n        /* \"#utility.yul\":57:76   */\n      swap1\n      pop\n        /* \"#utility.yul\":7:82   */\n      swap1\n      jump\t// out\n        /* \"#utility.yul\":88:205   */\n    tag_83:\n        /* \"#utility.yul\":197:198   */\n      0x00\n        /* \"#utility.yul\":194:195   */\n      dup1\n        /* \"#utility.yul\":187:199   */\n      revert\n        /* \"#utility.yul\":211:328   */\n    tag_84:\n        /* \"#utility.yul\":320:321   */\n      0x00\n        /* \"#utility.yul\":317:318   */\n      dup1\n        /* \"#utility.yul\":310:322   */\n      revert\n        /* \"#utility.yul\":334:411   */\n    tag_85:\n        /* \"#utility.yul\":371:378   */\n      0x00\n        /* \"#utility.yul\":400:405   */\n      dup2\n        /* \"#utility.yul\":389:405   */\n      swap1\n      pop\n        /* \"#utility.yul\":334:411   */\n      swap2\n      swap1\n      pop\n      jump\t// out\n        /* \"#utility.yul\":417:539   */\n    tag_86:\n        /* \"#utility.yul\":490:514   */\n      tag_121\n        /* \"#utility.yul\":508:513   */\n      dup2\n        /* \"#utility.yul\":490:514   */\n      tag_85\n      jump\t// in\n    tag_121:\n        /* \"#utility.yul\":483:488   */\n      dup2\n        /* \"#utility.yul\":480:515   */\n      eq\n        /* \"#utility.yul\":470:533   */\n      tag_122\n      jumpi\n        /* \"#utility.yul\":529:530   */\n      0x00\n        /* \"#utility.yul\":526:527   */\n      dup1\n        /* \"#utility.yul\":519:531   */\n      revert\n        /* \"#utility.yul\":470:533   */\n    tag_122:\n        /* \"#utility.yul\":417:539   */\n      pop\n      jump\t// out\n        /* \"#utility.yul\":545:684   */\n    tag_87:\n        /* \"#utility.yul\":591:596   */\n      0x00\n        /* \"#utility.yul\":629:635   */\n      dup2\n        /* \"#utility.yul\":616:636   */\n      calldataload\n        /* \"#utility.yul\":607:636   */\n      swap1\n      pop\n        /* \"#utility.yul\":645:678   */\n      tag_124\n        /* \"#utility.yul\":672:677   */\n      dup2\n        /* \"#utility.yul\":645:678   */\n      tag_86\n      jump\t// in\n    tag_124:\n        /* \"#utility.yul\":545:684   */\n      swap3\n      swap2\n      pop\n      pop\n      jump\t// out\n        /* \"#utility.yul\":690:1019   */\n    tag_9:\n        /* \"#utility.yul\":749:755   */\n      0x00\n        /* \"#utility.yul\":798:800   */\n      0x20\n        /* \"#utility.yul\":786:795   */\n      dup3\n        /* \"#utility.yul\":777:784   */\n      dup5\n        /* \"#utility.yul\":773:796   */\n      sub\n        /* \"#utility.yul\":769:801   */\n      slt\n        /* \"#utility.yul\":766:885   */\n      iszero\n      tag_126\n      jumpi\n        /* \"#utility.yul\":804:883   */\n      tag_127\n      tag_83\n      jump\t// in\n    tag_127:\n        /* \"#utility.yul\":766:885   */\n    tag_126:\n        /* \"#utility.yul\":924:925   */\n      0x00\n        /* \"#utility.yul\":949:1002   */\n      tag_128\n        /* \"#utility.yul\":994:1001   */\n      dup5\n        /* \"#utility.yul\":985:991   */\n      dup3\n        /* \"#utility.yul\":974:983   */\n      dup6\n        /* \"#utility.yul\":970:992   */\n      add\n        /* \"#utility.yul\":949:1002   */\n      tag_87\n      jump\t// in\n    tag_128:\n        /* \"#utility.yul\":939:1002   */\n      swap2\n      pop\n        /* \"#utility.yul\":895:1012   */\n      pop\n        /* \"#utility.yul\":690:1019   */\n      swap3\n      swap2\n      pop\n      pop\n      jump\t// out\n        /* \"#utility.yul\":1025:1124   */\n    tag_88:\n        /* \"#utility.yul\":1077:1083   */\n      0x00\n        /* \"#utility.yul\":1111:1116   */\n      dup2\n        /* \"#utility.yul\":1105:1117   */\n      mload\n        /* \"#utility.yul\":1095:1117   */\n      swap1\n      pop\n        /* \"#utility.yul\":1025:1124   */\n      swap2\n      swap1\n      pop\n      jump\t// out\n        /* \"#utility.yul\":1130:1299   */\n    tag_89:\n        /* \"#utility.yul\":1214:1225   */\n      0x00\n        /* \"#utility.yul\":1248:1254   */\n      dup3\n        /* \"#utility.yul\":1243:1246   */\n      dup3\n        /* \"#utility.yul\":1236:1255   */\n      mstore\n        /* \"#utility.yul\":1288:1292   */\n      0x20\n        /* \"#utility.yul\":1283:1286   */\n      dup3\n        /* \"#utility.yul\":1279:1293   */\n      add\n        /* \"#utility.yul\":1264:1293   */\n      swap1\n      pop\n        /* \"#utility.yul\":1130:1299   */\n      swap3\n      swap2\n      pop\n      pop\n      jump\t// out\n        /* \"#utility.yul\":1305:1612   */\n    tag_90:\n        /* \"#utility.yul\":1373:1374   */\n      0x00\n        /* \"#utility.yul\":1383:1496   */\n    tag_132:\n        /* \"#utility.yul\":1397:1403   */\n      dup4\n        /* \"#utility.yul\":1394:1395   */\n      dup2\n        /* \"#utility.yul\":1391:1404   */\n      lt\n        /* \"#utility.yul\":1383:1496   */\n      iszero\n      tag_134\n      jumpi\n        /* \"#utility.yul\":1482:1483   */\n      dup1\n        /* \"#utility.yul\":1477:1480   */\n      dup3\n        /* \"#utility.yul\":1473:1484   */\n      add\n        /* \"#utility.yul\":1467:1485   */\n      mload\n        /* \"#utility.yul\":1463:1464   */\n      dup2\n        /* \"#utility.yul\":1458:1461   */\n      dup5\n        /* \"#utility.yul\":1454:1465   */\n      add\n        /* \"#utility.yul\":1447:1486   */\n      mstore\n        /* \"#utility.yul\":1419:1421   */\n      0x20\n        /* \"#utility.yul\":1416:1417   */\n      dup2\n        /* \"#utility.yul\":1412:1422   */\n      add\n        /* \"#utility.yul\":1407:1422   */\n      swap1\n      pop\n        /* \"#utility.yul\":1383:1496   */\n      jump(tag_132)\n    tag_134:\n        /* \"#utility.yul\":1514:1520   */\n      dup4\n        /* \"#utility.yul\":1511:1512   */\n      dup2\n        /* \"#utility.yul\":1508:1521   */\n      gt\n        /* \"#utility.yul\":1505:1606   */\n      iszero\n      tag_135\n      jumpi\n        /* \"#utility.yul\":1594:1595   */\n      0x00\n        /* \"#utility.yul\":1585:1591   */\n      dup5\n        /* \"#utility.yul\":1580:1583   */\n      dup5\n        /* \"#utility.yul\":1576:1592   */\n      add\n        /* \"#utility.yul\":1569:1596   */\n      mstore\n        /* \"#utility.yul\":1505:1606   */\n    tag_135:\n        /* \"#utility.yul\":1354:1612   */\n      pop\n        /* \"#utility.yul\":1305:1612   */\n      pop\n      pop\n      pop\n      jump\t// out\n        /* \"#utility.yul\":1618:1720   */\n    tag_91:\n        /* \"#utility.yul\":1659:1665   */\n      0x00\n        /* \"#utility.yul\":1710:1712   */\n      0x1f\n        /* \"#utility.yul\":1706:1713   */\n      not\n        /* \"#utility.yul\":1701:1703   */\n      0x1f\n        /* \"#utility.yul\":1694:1699   */\n      dup4\n        /* \"#utility.yul\":1690:1704   */\n      add\n        /* \"#utility.yul\":1686:1714   */\n      and\n        /* \"#utility.yul\":1676:1714   */\n      swap1\n      pop\n        /* \"#utility.yul\":1618:1720   */\n      swap2\n      swap1\n      pop\n      jump\t// out\n        /* \"#utility.yul\":1726:2090   */\n    tag_92:\n        /* \"#utility.yul\":1814:1817   */\n      0x00\n        /* \"#utility.yul\":1842:1881   */\n      tag_138\n        /* \"#utility.yul\":1875:1880   */\n      dup3\n        /* \"#utility.yul\":1842:1881   */\n      tag_88\n      jump\t// in\n    tag_138:\n        /* \"#utility.yul\":1897:1968   */\n      tag_139\n        /* \"#utility.yul\":1961:1967   */\n      dup2\n        /* \"#utility.yul\":1956:1959   */\n      dup6\n        /* \"#utility.yul\":1897:1968   */\n      tag_89\n      jump\t// in\n    tag_139:\n        /* \"#utility.yul\":1890:1968   */\n      swap4\n      pop\n        /* \"#utility.yul\":1977:2029   */\n      tag_140\n        /* \"#utility.yul\":2022:2028   */\n      dup2\n        /* \"#utility.yul\":2017:2020   */\n      dup6\n        /* \"#utility.yul\":2010:2014   */\n      0x20\n        /* \"#utility.yul\":2003:2008   */\n      dup7\n        /* \"#utility.yul\":1999:2015   */\n      add\n        /* \"#utility.yul\":1977:2029   */\n      tag_90\n      jump\t// in\n    tag_140:\n        /* \"#utility.yul\":2054:2083   */\n      tag_141\n        /* \"#utility.yul\":2076:2082   */\n      dup2\n        /* \"#utility.yul\":2054:2083   */\n      tag_91\n      jump\t// in\n    tag_141:\n        /* \"#utility.yul\":2049:2052   */\n      dup5\n        /* \"#utility.yul\":2045:2084   */\n      add\n        /* \"#utility.yul\":2038:2084   */\n      swap2\n      pop\n        /* \"#utility.yul\":1818:2090   */\n      pop\n        /* \"#utility.yul\":1726:2090   */\n      swap3\n      swap2\n      pop\n      pop\n      jump\t// out\n        /* \"#utility.yul\":2096:2214   */\n    tag_93:\n        /* \"#utility.yul\":2183:2207   */\n      tag_143\n        /* \"#utility.yul\":2201:2206   */\n      dup2\n        /* \"#utility.yul\":2183:2207   */\n      tag_85\n      jump\t// in\n    tag_143:\n        /* \"#utility.yul\":2178:2181   */\n      dup3\n        /* \"#utility.yul\":2171:2208   */\n      mstore\n        /* \"#utility.yul\":2096:2214   */\n      pop\n      pop\n      jump\t// out\n        /* \"#utility.yul\":2220:2844   */\n    tag_12:\n        /* \"#utility.yul\":2409:2413   */\n      0x00\n        /* \"#utility.yul\":2447:2449   */\n      0x60\n        /* \"#utility.yul\":2436:2445   */\n      dup3\n        /* \"#utility.yul\":2432:2450   */\n      add\n        /* \"#utility.yul\":2424:2450   */\n      swap1\n      pop\n        /* \"#utility.yul\":2496:2505   */\n      dup2\n        /* \"#utility.yul\":2490:2494   */\n      dup2\n        /* \"#utility.yul\":2486:2506   */\n      sub\n        /* \"#utility.yul\":2482:2483   */\n      0x00\n        /* \"#utility.yul\":2471:2480   */\n      dup4\n        /* \"#utility.yul\":2467:2484   */\n      add\n        /* \"#utility.yul\":2460:2507   */\n      mstore\n        /* \"#utility.yul\":2524:2602   */\n      tag_145\n        /* \"#utility.yul\":2597:2601   */\n      dup2\n        /* \"#utility.yul\":2588:2594   */\n      dup7\n        /* \"#utility.yul\":2524:2602   */\n      tag_92\n      jump\t// in\n    tag_145:\n        /* \"#utility.yul\":2516:2602   */\n      swap1\n      pop\n        /* \"#utility.yul\":2649:2658   */\n      dup2\n        /* \"#utility.yul\":2643:2647   */\n      dup2\n        /* \"#utility.yul\":2639:2659   */\n      sub\n        /* \"#utility.yul\":2634:2636   */\n      0x20\n        /* \"#utility.yul\":2623:2632   */\n      dup4\n        /* \"#utility.yul\":2619:2637   */\n      add\n        /* \"#utility.yul\":2612:2660   */\n      mstore\n        /* \"#utility.yul\":2677:2755   */\n      tag_146\n        /* \"#utility.yul\":2750:2754   */\n      dup2\n        /* \"#utility.yul\":2741:2747   */\n      dup6\n        /* \"#utility.yul\":2677:2755   */\n      tag_92\n      jump\t// in\n    tag_146:\n        /* \"#utility.yul\":2669:2755   */\n      swap1\n      pop\n        /* \"#utility.yul\":2765:2837   */\n      tag_147\n        /* \"#utility.yul\":2833:2835   */\n      0x40\n        /* \"#utility.yul\":2822:2831   */\n      dup4\n        /* \"#utility.yul\":2818:2836   */\n      add\n        /* \"#utility.yul\":2809:2815   */\n      dup5\n        /* \"#utility.yul\":2765:2837   */\n      tag_93\n      jump\t// in\n    tag_147:\n        /* \"#utility.yul\":2220:2844   */\n      swap5\n      swap4\n      pop\n      pop\n      pop\n      pop\n      jump\t// out\n        /* \"#utility.yul\":2850:2967   */\n    tag_94:\n        /* \"#utility.yul\":2959:2960   */\n      0x00\n        /* \"#utility.yul\":2956:2957   */\n      dup1\n        /* \"#utility.yul\":2949:2961   */\n      revert\n        /* \"#utility.yul\":2973:3090   */\n    tag_95:\n        /* \"#utility.yul\":3082:3083   */\n      0x00\n        /* \"#utility.yul\":3079:3080   */\n      dup1\n        /* \"#utility.yul\":3072:3084   */\n      revert\n        /* \"#utility.yul\":3096:3276   */\n    tag_96:\n        /* \"#utility.yul\":3144:3221   */\n      0x4e487b7100000000000000000000000000000000000000000000000000000000\n        /* \"#utility.yul\":3141:3142   */\n      0x00\n        /* \"#utility.yul\":3134:3222   */\n      mstore\n        /* \"#utility.yul\":3241:3245   */\n      0x41\n        /* \"#utility.yul\":3238:3239   */\n      0x04\n        /* \"#utility.yul\":3231:3246   */\n      mstore\n        /* \"#utility.yul\":3265:3269   */\n      0x24\n        /* \"#utility.yul\":3262:3263   */\n      0x00\n        /* \"#utility.yul\":3255:3270   */\n      revert\n        /* \"#utility.yul\":3282:3563   */\n    tag_97:\n        /* \"#utility.yul\":3365:3392   */\n      tag_152\n        /* \"#utility.yul\":3387:3391   */\n      dup3\n        /* \"#utility.yul\":3365:3392   */\n      tag_91\n      jump\t// in\n    tag_152:\n        /* \"#utility.yul\":3357:3363   */\n      dup2\n        /* \"#utility.yul\":3353:3393   */\n      add\n        /* \"#utility.yul\":3495:3501   */\n      dup2\n        /* \"#utility.yul\":3483:3493   */\n      dup2\n        /* \"#utility.yul\":3480:3502   */\n      lt\n        /* \"#utility.yul\":3459:3477   */\n      0xffffffffffffffff\n        /* \"#utility.yul\":3447:3457   */\n      dup3\n        /* \"#utility.yul\":3444:3478   */\n      gt\n        /* \"#utility.yul\":3441:3503   */\n      or\n        /* \"#utility.yul\":3438:3526   */\n      iszero\n      tag_153\n      jumpi\n        /* \"#utility.yul\":3506:3524   */\n      tag_154\n      tag_96\n      jump\t// in\n    tag_154:\n        /* \"#utility.yul\":3438:3526   */\n    tag_153:\n        /* \"#utility.yul\":3546:3556   */\n      dup1\n        /* \"#utility.yul\":3542:3544   */\n      0x40\n        /* \"#utility.yul\":3535:3557   */\n      mstore\n        /* \"#utility.yul\":3325:3563   */\n      pop\n        /* \"#utility.yul\":3282:3563   */\n      pop\n      pop\n      jump\t// out\n        /* \"#utility.yul\":3569:3698   */\n    tag_98:\n        /* \"#utility.yul\":3603:3609   */\n      0x00\n        /* \"#utility.yul\":3630:3650   */\n      tag_156\n      tag_82\n      jump\t// in\n    tag_156:\n        /* \"#utility.yul\":3620:3650   */\n      swap1\n      pop\n        /* \"#utility.yul\":3659:3692   */\n      tag_157\n        /* \"#utility.yul\":3687:3691   */\n      dup3\n        /* \"#utility.yul\":3679:3685   */\n      dup3\n        /* \"#utility.yul\":3659:3692   */\n      tag_97\n      jump\t// in\n    tag_157:\n        /* \"#utility.yul\":3569:3698   */\n      swap2\n      swap1\n      pop\n      jump\t// out\n        /* \"#utility.yul\":3704:4012   */\n    tag_99:\n        /* \"#utility.yul\":3766:3770   */\n      0x00\n        /* \"#utility.yul\":3856:3874   */\n      0xffffffffffffffff\n        /* \"#utility.yul\":3848:3854   */\n      dup3\n        /* \"#utility.yul\":3845:3875   */\n      gt\n        /* \"#utility.yul\":3842:3898   */\n      iszero\n      tag_159\n      jumpi\n        /* \"#utility.yul\":3878:3896   */\n      tag_160\n      tag_96\n      jump\t// in\n    tag_160:\n        /* \"#utility.yul\":3842:3898   */\n    tag_159:\n        /* \"#utility.yul\":3916:3945   */\n      tag_161\n        /* \"#utility.yul\":3938:3944   */\n      dup3\n        /* \"#utility.yul\":3916:3945   */\n      tag_91\n      jump\t// in\n    tag_161:\n        /* \"#utility.yul\":3908:3945   */\n      swap1\n      pop\n        /* \"#utility.yul\":4000:4004   */\n      0x20\n        /* \"#utility.yul\":3994:3998   */\n      dup2\n        /* \"#utility.yul\":3990:4005   */\n      add\n        /* \"#utility.yul\":3982:4005   */\n      swap1\n      pop\n        /* \"#utility.yul\":3704:4012   */\n      swap2\n      swap1\n      pop\n      jump\t// out\n        /* \"#utility.yul\":4018:4172   */\n    tag_100:\n        /* \"#utility.yul\":4102:4108   */\n      dup3\n        /* \"#utility.yul\":4097:4100   */\n      dup2\n        /* \"#utility.yul\":4092:4095   */\n      dup4\n        /* \"#utility.yul\":4079:4109   */\n      calldatacopy\n        /* \"#utility.yul\":4164:4165   */\n      0x00\n        /* \"#utility.yul\":4155:4161   */\n      dup4\n        /* \"#utility.yul\":4150:4153   */\n      dup4\n        /* \"#utility.yul\":4146:4162   */\n      add\n        /* \"#utility.yul\":4139:4166   */\n      mstore\n        /* \"#utility.yul\":4018:4172   */\n      pop\n      pop\n      pop\n      jump\t// out\n        /* \"#utility.yul\":4178:4590   */\n    tag_101:\n        /* \"#utility.yul\":4256:4261   */\n      0x00\n        /* \"#utility.yul\":4281:4347   */\n      tag_164\n        /* \"#utility.yul\":4297:4346   */\n      tag_165\n        /* \"#utility.yul\":4339:4345   */\n      dup5\n        /* \"#utility.yul\":4297:4346   */\n      tag_99\n      jump\t// in\n    tag_165:\n        /* \"#utility.yul\":4281:4347   */\n      tag_98\n      jump\t// in\n    tag_164:\n        /* \"#utility.yul\":4272:4347   */\n      swap1\n      pop\n        /* \"#utility.yul\":4370:4376   */\n      dup3\n        /* \"#utility.yul\":4363:4368   */\n      dup2\n        /* \"#utility.yul\":4356:4377   */\n      mstore\n        /* \"#utility.yul\":4408:4412   */\n      0x20\n        /* \"#utility.yul\":4401:4406   */\n      dup2\n        /* \"#utility.yul\":4397:4413   */\n      add\n        /* \"#utility.yul\":4446:4449   */\n      dup5\n        /* \"#utility.yul\":4437:4443   */\n      dup5\n        /* \"#utility.yul\":4432:4435   */\n      dup5\n        /* \"#utility.yul\":4428:4444   */\n      add\n        /* \"#utility.yul\":4425:4450   */\n      gt\n        /* \"#utility.yul\":4422:4534   */\n      iszero\n      tag_166\n      jumpi\n        /* \"#utility.yul\":4453:4532   */\n      tag_167\n      tag_95\n      jump\t// in\n    tag_167:\n        /* \"#utility.yul\":4422:4534   */\n    tag_166:\n        /* \"#utility.yul\":4543:4584   */\n      tag_168\n        /* \"#utility.yul\":4577:4583   */\n      dup5\n        /* \"#utility.yul\":4572:4575   */\n      dup3\n        /* \"#utility.yul\":4567:4570   */\n      dup6\n        /* \"#utility.yul\":4543:4584   */\n      tag_100\n      jump\t// in\n    tag_168:\n        /* \"#utility.yul\":4262:4590   */\n      pop\n        /* \"#utility.yul\":4178:4590   */\n      swap4\n      swap3\n      pop\n      pop\n      pop\n      jump\t// out\n        /* \"#utility.yul\":4610:4950   */\n    tag_102:\n        /* \"#utility.yul\":4666:4671   */\n      0x00\n        /* \"#utility.yul\":4715:4718   */\n      dup3\n        /* \"#utility.yul\":4708:4712   */\n      0x1f\n        /* \"#utility.yul\":4700:4706   */\n      dup4\n        /* \"#utility.yul\":4696:4713   */\n      add\n        /* \"#utility.yul\":4692:4719   */\n      slt\n        /* \"#utility.yul\":4682:4804   */\n      tag_170\n      jumpi\n        /* \"#utility.yul\":4723:4802   */\n      tag_171\n      tag_94\n      jump\t// in\n    tag_171:\n        /* \"#utility.yul\":4682:4804   */\n    tag_170:\n        /* \"#utility.yul\":4840:4846   */\n      dup2\n        /* \"#utility.yul\":4827:4847   */\n      calldataload\n        /* \"#utility.yul\":4865:4944   */\n      tag_172\n        /* \"#utility.yul\":4940:4943   */\n      dup5\n        /* \"#utility.yul\":4932:4938   */\n      dup3\n        /* \"#utility.yul\":4925:4929   */\n      0x20\n        /* \"#utility.yul\":4917:4923   */\n      dup7\n        /* \"#utility.yul\":4913:4930   */\n      add\n        /* \"#utility.yul\":4865:4944   */\n      tag_101\n      jump\t// in\n    tag_172:\n        /* \"#utility.yul\":4856:4944   */\n      swap2\n      pop\n        /* \"#utility.yul\":4672:4950   */\n      pop\n        /* \"#utility.yul\":4610:4950   */\n      swap3\n      swap2\n      pop\n      pop\n      jump\t// out\n        /* \"#utility.yul\":4956:5935   */\n    tag_19:\n        /* \"#utility.yul\":5053:5059   */\n      0x00\n        /* \"#utility.yul\":5061:5067   */\n      dup1\n        /* \"#utility.yul\":5069:5075   */\n      0x00\n        /* \"#utility.yul\":5118:5120   */\n      0x60\n        /* \"#utility.yul\":5106:5115   */\n      dup5\n        /* \"#utility.yul\":5097:5104   */\n      dup7\n        /* \"#utility.yul\":5093:5116   */\n      sub\n        /* \"#utility.yul\":5089:5121   */\n      slt\n        /* \"#utility.yul\":5086:5205   */\n      iszero\n      tag_174\n      jumpi\n        /* \"#utility.yul\":5124:5203   */\n      tag_175\n      tag_83\n      jump\t// in\n    tag_175:\n        /* \"#utility.yul\":5086:5205   */\n    tag_174:\n        /* \"#utility.yul\":5272:5273   */\n      0x00\n        /* \"#utility.yul\":5261:5270   */\n      dup5\n        /* \"#utility.yul\":5257:5274   */\n      add\n        /* \"#utility.yul\":5244:5275   */\n      calldataload\n        /* \"#utility.yul\":5302:5320   */\n      0xffffffffffffffff\n        /* \"#utility.yul\":5294:5300   */\n      dup2\n        /* \"#utility.yul\":5291:5321   */\n      gt\n        /* \"#utility.yul\":5288:5405   */\n      iszero\n      tag_176\n      jumpi\n        /* \"#utility.yul\":5324:5403   */\n      tag_177\n      tag_84\n      jump\t// in\n    tag_177:\n        /* \"#utility.yul\":5288:5405   */\n    tag_176:\n        /* \"#utility.yul\":5429:5492   */\n      tag_178\n        /* \"#utility.yul\":5484:5491   */\n      dup7\n        /* \"#utility.yul\":5475:5481   */\n      dup3\n        /* \"#utility.yul\":5464:5473   */\n      dup8\n        /* \"#utility.yul\":5460:5482   */\n      add\n        /* \"#utility.yul\":5429:5492   */\n      tag_102\n      jump\t// in\n    tag_178:\n        /* \"#utility.yul\":5419:5492   */\n      swap4\n      pop\n        /* \"#utility.yul\":5215:5502   */\n      pop\n        /* \"#utility.yul\":5569:5571   */\n      0x20\n        /* \"#utility.yul\":5558:5567   */\n      dup5\n        /* \"#utility.yul\":5554:5572   */\n      add\n        /* \"#utility.yul\":5541:5573   */\n      calldataload\n        /* \"#utility.yul\":5600:5618   */\n      0xffffffffffffffff\n        /* \"#utility.yul\":5592:5598   */\n      dup2\n        /* \"#utility.yul\":5589:5619   */\n      gt\n        /* \"#utility.yul\":5586:5703   */\n      iszero\n      tag_179\n      jumpi\n        /* \"#utility.yul\":5622:5701   */\n      tag_180\n      tag_84\n      jump\t// in\n    tag_180:\n        /* \"#utility.yul\":5586:5703   */\n    tag_179:\n        /* \"#utility.yul\":5727:5790   */\n      tag_181\n        /* \"#utility.yul\":5782:5789   */\n      dup7\n        /* \"#utility.yul\":5773:5779   */\n      dup3\n        /* \"#utility.yul\":5762:5771   */\n      dup8\n        /* \"#utility.yul\":5758:5780   */\n      add\n        /* \"#utility.yul\":5727:5790   */\n      tag_102\n      jump\t// in\n    tag_181:\n        /* \"#utility.yul\":5717:5790   */\n      swap3\n      pop\n        /* \"#utility.yul\":5512:5800   */\n      pop\n        /* \"#utility.yul\":5839:5841   */\n      0x40\n        /* \"#utility.yul\":5865:5918   */\n      tag_182\n        /* \"#utility.yul\":5910:5917   */\n      dup7\n        /* \"#utility.yul\":5901:5907   */\n      dup3\n        /* \"#utility.yul\":5890:5899   */\n      dup8\n        /* \"#utility.yul\":5886:5908   */\n      add\n        /* \"#utility.yul\":5865:5918   */\n      tag_87\n      jump\t// in\n    tag_182:\n        /* \"#utility.yul\":5855:5918   */\n      swap2\n      pop\n        /* \"#utility.yul\":5810:5928   */\n      pop\n        /* \"#utility.yul\":4956:5935   */\n      swap3\n      pop\n      swap3\n      pop\n      swap3\n      jump\t// out\n        /* \"#utility.yul\":5941:6450   */\n    tag_23:\n        /* \"#utility.yul\":6010:6016   */\n      0x00\n        /* \"#utility.yul\":6059:6061   */\n      0x20\n        /* \"#utility.yul\":6047:6056   */\n      dup3\n        /* \"#utility.yul\":6038:6045   */\n      dup5\n        /* \"#utility.yul\":6034:6057   */\n      sub\n        /* \"#utility.yul\":6030:6062   */\n      slt\n        /* \"#utility.yul\":6027:6146   */\n      iszero\n      tag_184\n      jumpi\n        /* \"#utility.yul\":6065:6144   */\n      tag_185\n      tag_83\n      jump\t// in\n    tag_185:\n        /* \"#utility.yul\":6027:6146   */\n    tag_184:\n        /* \"#utility.yul\":6213:6214   */\n      0x00\n        /* \"#utility.yul\":6202:6211   */\n      dup3\n        /* \"#utility.yul\":6198:6215   */\n      add\n        /* \"#utility.yul\":6185:6216   */\n      calldataload\n        /* \"#utility.yul\":6243:6261   */\n      0xffffffffffffffff\n        /* \"#utility.yul\":6235:6241   */\n      dup2\n        /* \"#utility.yul\":6232:6262   */\n      gt\n        /* \"#utility.yul\":6229:6346   */\n      iszero\n      tag_186\n      jumpi\n        /* \"#utility.yul\":6265:6344   */\n      tag_187\n      tag_84\n      jump\t// in\n    tag_187:\n        /* \"#utility.yul\":6229:6346   */\n    tag_186:\n        /* \"#utility.yul\":6370:6433   */\n      tag_188\n        /* \"#utility.yul\":6425:6432   */\n      dup5\n        /* \"#utility.yul\":6416:6422   */\n      dup3\n        /* \"#utility.yul\":6405:6414   */\n      dup6\n        /* \"#utility.yul\":6401:6423   */\n      add\n        /* \"#utility.yul\":6370:6433   */\n      tag_102\n      jump\t// in\n    tag_188:\n        /* \"#utility.yul\":6360:6433   */\n      swap2\n      pop\n        /* \"#utility.yul\":6156:6443   */\n      pop\n        /* \"#utility.yul\":5941:6450   */\n      swap3\n      swap2\n      pop\n      pop\n      jump\t// out\n        /* \"#utility.yul\":6456:6590   */\n    tag_103:\n        /* \"#utility.yul\":6543:6549   */\n      0x00\n        /* \"#utility.yul\":6577:6582   */\n      dup2\n        /* \"#utility.yul\":6571:6583   */\n      mload\n        /* \"#utility.yul\":6561:6583   */\n      swap1\n      pop\n        /* \"#utility.yul\":6456:6590   */\n      swap2\n      swap1\n      pop\n      jump\t// out\n        /* \"#utility.yul\":6596:6800   */\n    tag_104:\n        /* \"#utility.yul\":6715:6726   */\n      0x00\n        /* \"#utility.yul\":6749:6755   */\n      dup3\n        /* \"#utility.yul\":6744:6747   */\n      dup3\n        /* \"#utility.yul\":6737:6756   */\n      mstore\n        /* \"#utility.yul\":6789:6793   */\n      0x20\n        /* \"#utility.yul\":6784:6787   */\n      dup3\n        /* \"#utility.yul\":6780:6794   */\n      add\n        /* \"#utility.yul\":6765:6794   */\n      swap1\n      pop\n        /* \"#utility.yul\":6596:6800   */\n      swap3\n      swap2\n      pop\n      pop\n      jump\t// out\n        /* \"#utility.yul\":6806:6958   */\n    tag_105:\n        /* \"#utility.yul\":6893:6897   */\n      0x00\n        /* \"#utility.yul\":6916:6919   */\n      dup2\n        /* \"#utility.yul\":6908:6919   */\n      swap1\n      pop\n        /* \"#utility.yul\":6946:6950   */\n      0x20\n        /* \"#utility.yul\":6941:6944   */\n      dup3\n        /* \"#utility.yul\":6937:6951   */\n      add\n        /* \"#utility.yul\":6929:6951   */\n      swap1\n      pop\n        /* \"#utility.yul\":6806:6958   */\n      swap2\n      swap1\n      pop\n      jump\t// out\n        /* \"#utility.yul\":6964:7123   */\n    tag_106:\n        /* \"#utility.yul\":7038:7049   */\n      0x00\n        /* \"#utility.yul\":7072:7078   */\n      dup3\n        /* \"#utility.yul\":7067:7070   */\n      dup3\n        /* \"#utility.yul\":7060:7079   */\n      mstore\n        /* \"#utility.yul\":7112:7116   */\n      0x20\n        /* \"#utility.yul\":7107:7110   */\n      dup3\n        /* \"#utility.yul\":7103:7117   */\n      add\n        /* \"#utility.yul\":7088:7117   */\n      swap1\n      pop\n        /* \"#utility.yul\":6964:7123   */\n      swap3\n      swap2\n      pop\n      pop\n      jump\t// out\n        /* \"#utility.yul\":7129:7473   */\n    tag_107:\n        /* \"#utility.yul\":7207:7210   */\n      0x00\n        /* \"#utility.yul\":7235:7274   */\n      tag_194\n        /* \"#utility.yul\":7268:7273   */\n      dup3\n        /* \"#utility.yul\":7235:7274   */\n      tag_88\n      jump\t// in\n    tag_194:\n        /* \"#utility.yul\":7290:7351   */\n      tag_195\n        /* \"#utility.yul\":7344:7350   */\n      dup2\n        /* \"#utility.yul\":7339:7342   */\n      dup6\n        /* \"#utility.yul\":7290:7351   */\n      tag_106\n      jump\t// in\n    tag_195:\n        /* \"#utility.yul\":7283:7351   */\n      swap4\n      pop\n        /* \"#utility.yul\":7360:7412   */\n      tag_196\n        /* \"#utility.yul\":7405:7411   */\n      dup2\n        /* \"#utility.yul\":7400:7403   */\n      dup6\n        /* \"#utility.yul\":7393:7397   */\n      0x20\n        /* \"#utility.yul\":7386:7391   */\n      dup7\n        /* \"#utility.yul\":7382:7398   */\n      add\n        /* \"#utility.yul\":7360:7412   */\n      tag_90\n      jump\t// in\n    tag_196:\n        /* \"#utility.yul\":7437:7466   */\n      tag_197\n        /* \"#utility.yul\":7459:7465   */\n      dup2\n        /* \"#utility.yul\":7437:7466   */\n      tag_91\n      jump\t// in\n    tag_197:\n        /* \"#utility.yul\":7432:7435   */\n      dup5\n        /* \"#utility.yul\":7428:7467   */\n      add\n        /* \"#utility.yul\":7421:7467   */\n      swap2\n      pop\n        /* \"#utility.yul\":7211:7473   */\n      pop\n        /* \"#utility.yul\":7129:7473   */\n      swap3\n      swap2\n      pop\n      pop\n      jump\t// out\n        /* \"#utility.yul\":7479:7587   */\n    tag_108:\n        /* \"#utility.yul\":7556:7580   */\n      tag_199\n        /* \"#utility.yul\":7574:7579   */\n      dup2\n        /* \"#utility.yul\":7556:7580   */\n      tag_85\n      jump\t// in\n    tag_199:\n        /* \"#utility.yul\":7551:7554   */\n      dup3\n        /* \"#utility.yul\":7544:7581   */\n      mstore\n        /* \"#utility.yul\":7479:7587   */\n      pop\n      pop\n      jump\t// out\n        /* \"#utility.yul\":7651:8492   */\n    tag_109:\n        /* \"#utility.yul\":7750:7753   */\n      0x00\n        /* \"#utility.yul\":7786:7790   */\n      0x60\n        /* \"#utility.yul\":7781:7784   */\n      dup4\n        /* \"#utility.yul\":7777:7791   */\n      add\n        /* \"#utility.yul\":7877:7881   */\n      0x00\n        /* \"#utility.yul\":7870:7875   */\n      dup4\n        /* \"#utility.yul\":7866:7882   */\n      add\n        /* \"#utility.yul\":7860:7883   */\n      mload\n        /* \"#utility.yul\":7930:7933   */\n      dup5\n        /* \"#utility.yul\":7924:7928   */\n      dup3\n        /* \"#utility.yul\":7920:7934   */\n      sub\n        /* \"#utility.yul\":7913:7917   */\n      0x00\n        /* \"#utility.yul\":7908:7911   */\n      dup7\n        /* \"#utility.yul\":7904:7918   */\n      add\n        /* \"#utility.yul\":7897:7935   */\n      mstore\n        /* \"#utility.yul\":7956:8029   */\n      tag_201\n        /* \"#utility.yul\":8024:8028   */\n      dup3\n        /* \"#utility.yul\":8010:8022   */\n      dup3\n        /* \"#utility.yul\":7956:8029   */\n      tag_107\n      jump\t// in\n    tag_201:\n        /* \"#utility.yul\":7948:8029   */\n      swap2\n      pop\n        /* \"#utility.yul\":7801:8040   */\n      pop\n        /* \"#utility.yul\":8127:8131   */\n      0x20\n        /* \"#utility.yul\":8120:8125   */\n      dup4\n        /* \"#utility.yul\":8116:8132   */\n      add\n        /* \"#utility.yul\":8110:8133   */\n      mload\n        /* \"#utility.yul\":8180:8183   */\n      dup5\n        /* \"#utility.yul\":8174:8178   */\n      dup3\n        /* \"#utility.yul\":8170:8184   */\n      sub\n        /* \"#utility.yul\":8163:8167   */\n      0x20\n        /* \"#utility.yul\":8158:8161   */\n      dup7\n        /* \"#utility.yul\":8154:8168   */\n      add\n        /* \"#utility.yul\":8147:8185   */\n      mstore\n        /* \"#utility.yul\":8206:8279   */\n      tag_202\n        /* \"#utility.yul\":8274:8278   */\n      dup3\n        /* \"#utility.yul\":8260:8272   */\n      dup3\n        /* \"#utility.yul\":8206:8279   */\n      tag_107\n      jump\t// in\n    tag_202:\n        /* \"#utility.yul\":8198:8279   */\n      swap2\n      pop\n        /* \"#utility.yul\":8050:8290   */\n      pop\n        /* \"#utility.yul\":8373:8377   */\n      0x40\n        /* \"#utility.yul\":8366:8371   */\n      dup4\n        /* \"#utility.yul\":8362:8378   */\n      add\n        /* \"#utility.yul\":8356:8379   */\n      mload\n        /* \"#utility.yul\":8392:8455   */\n      tag_203\n        /* \"#utility.yul\":8449:8453   */\n      0x40\n        /* \"#utility.yul\":8444:8447   */\n      dup7\n        /* \"#utility.yul\":8440:8454   */\n      add\n        /* \"#utility.yul\":8426:8438   */\n      dup3\n        /* \"#utility.yul\":8392:8455   */\n      tag_108\n      jump\t// in\n    tag_203:\n        /* \"#utility.yul\":8300:8465   */\n      pop\n        /* \"#utility.yul\":8482:8486   */\n      dup1\n        /* \"#utility.yul\":8475:8486   */\n      swap2\n      pop\n        /* \"#utility.yul\":7755:8492   */\n      pop\n        /* \"#utility.yul\":7651:8492   */\n      swap3\n      swap2\n      pop\n      pop\n      jump\t// out\n        /* \"#utility.yul\":8498:8734   */\n    tag_110:\n        /* \"#utility.yul\":8607:8617   */\n      0x00\n        /* \"#utility.yul\":8642:8728   */\n      tag_205\n        /* \"#utility.yul\":8724:8727   */\n      dup4\n        /* \"#utility.yul\":8716:8722   */\n      dup4\n        /* \"#utility.yul\":8642:8728   */\n      tag_109\n      jump\t// in\n    tag_205:\n        /* \"#utility.yul\":8628:8728   */\n      swap1\n      pop\n        /* \"#utility.yul\":8498:8734   */\n      swap3\n      swap2\n      pop\n      pop\n      jump\t// out\n        /* \"#utility.yul\":8740:8873   */\n    tag_111:\n        /* \"#utility.yul\":8830:8834   */\n      0x00\n        /* \"#utility.yul\":8862:8866   */\n      0x20\n        /* \"#utility.yul\":8857:8860   */\n      dup3\n        /* \"#utility.yul\":8853:8867   */\n      add\n        /* \"#utility.yul\":8845:8867   */\n      swap1\n      pop\n        /* \"#utility.yul\":8740:8873   */\n      swap2\n      swap1\n      pop\n      jump\t// out\n        /* \"#utility.yul\":8941:10012   */\n    tag_112:\n        /* \"#utility.yul\":9100:9103   */\n      0x00\n        /* \"#utility.yul\":9129:9203   */\n      tag_208\n        /* \"#utility.yul\":9197:9202   */\n      dup3\n        /* \"#utility.yul\":9129:9203   */\n      tag_103\n      jump\t// in\n    tag_208:\n        /* \"#utility.yul\":9219:9325   */\n      tag_209\n        /* \"#utility.yul\":9318:9324   */\n      dup2\n        /* \"#utility.yul\":9313:9316   */\n      dup6\n        /* \"#utility.yul\":9219:9325   */\n      tag_104\n      jump\t// in\n    tag_209:\n        /* \"#utility.yul\":9212:9325   */\n      swap4\n      pop\n        /* \"#utility.yul\":9351:9354   */\n      dup4\n        /* \"#utility.yul\":9396:9400   */\n      0x20\n        /* \"#utility.yul\":9388:9394   */\n      dup3\n        /* \"#utility.yul\":9384:9401   */\n      mul\n        /* \"#utility.yul\":9379:9382   */\n      dup6\n        /* \"#utility.yul\":9375:9402   */\n      add\n        /* \"#utility.yul\":9426:9502   */\n      tag_210\n        /* \"#utility.yul\":9496:9501   */\n      dup6\n        /* \"#utility.yul\":9426:9502   */\n      tag_105\n      jump\t// in\n    tag_210:\n        /* \"#utility.yul\":9525:9532   */\n      dup1\n        /* \"#utility.yul\":9556:9557   */\n      0x00\n        /* \"#utility.yul\":9541:9967   */\n    tag_211:\n        /* \"#utility.yul\":9566:9572   */\n      dup6\n        /* \"#utility.yul\":9563:9564   */\n      dup2\n        /* \"#utility.yul\":9560:9573   */\n      lt\n        /* \"#utility.yul\":9541:9967   */\n      iszero\n      tag_213\n      jumpi\n        /* \"#utility.yul\":9637:9646   */\n      dup5\n        /* \"#utility.yul\":9631:9635   */\n      dup5\n        /* \"#utility.yul\":9627:9647   */\n      sub\n        /* \"#utility.yul\":9622:9625   */\n      dup10\n        /* \"#utility.yul\":9615:9648   */\n      mstore\n        /* \"#utility.yul\":9688:9694   */\n      dup2\n        /* \"#utility.yul\":9682:9695   */\n      mload\n        /* \"#utility.yul\":9716:9820   */\n      tag_214\n        /* \"#utility.yul\":9815:9819   */\n      dup6\n        /* \"#utility.yul\":9800:9813   */\n      dup3\n        /* \"#utility.yul\":9716:9820   */\n      tag_110\n      jump\t// in\n    tag_214:\n        /* \"#utility.yul\":9708:9820   */\n      swap5\n      pop\n        /* \"#utility.yul\":9843:9923   */\n      tag_215\n        /* \"#utility.yul\":9916:9922   */\n      dup4\n        /* \"#utility.yul\":9843:9923   */\n      tag_111\n      jump\t// in\n    tag_215:\n        /* \"#utility.yul\":9833:9923   */\n      swap3\n      pop\n        /* \"#utility.yul\":9952:9956   */\n      0x20\n        /* \"#utility.yul\":9947:9950   */\n      dup11\n        /* \"#utility.yul\":9943:9957   */\n      add\n        /* \"#utility.yul\":9936:9957   */\n      swap10\n      pop\n        /* \"#utility.yul\":9601:9967   */\n      pop\n        /* \"#utility.yul\":9588:9589   */\n      0x01\n        /* \"#utility.yul\":9585:9586   */\n      dup2\n        /* \"#utility.yul\":9581:9590   */\n      add\n        /* \"#utility.yul\":9576:9590   */\n      swap1\n      pop\n        /* \"#utility.yul\":9541:9967   */\n      jump(tag_211)\n    tag_213:\n        /* \"#utility.yul\":9545:9559   */\n      pop\n        /* \"#utility.yul\":9983:9987   */\n      dup3\n        /* \"#utility.yul\":9976:9987   */\n      swap8\n      pop\n        /* \"#utility.yul\":10003:10006   */\n      dup8\n        /* \"#utility.yul\":9996:10006   */\n      swap6\n      pop\n        /* \"#utility.yul\":9105:10012   */\n      pop\n      pop\n      pop\n      pop\n      pop\n        /* \"#utility.yul\":8941:10012   */\n      swap3\n      swap2\n      pop\n      pop\n      jump\t// out\n        /* \"#utility.yul\":10018:10471   */\n    tag_26:\n        /* \"#utility.yul\":10201:10205   */\n      0x00\n        /* \"#utility.yul\":10239:10241   */\n      0x20\n        /* \"#utility.yul\":10228:10237   */\n      dup3\n        /* \"#utility.yul\":10224:10242   */\n      add\n        /* \"#utility.yul\":10216:10242   */\n      swap1\n      pop\n        /* \"#utility.yul\":10288:10297   */\n      dup2\n        /* \"#utility.yul\":10282:10286   */\n      dup2\n        /* \"#utility.yul\":10278:10298   */\n      sub\n        /* \"#utility.yul\":10274:10275   */\n      0x00\n        /* \"#utility.yul\":10263:10272   */\n      dup4\n        /* \"#utility.yul\":10259:10276   */\n      add\n        /* \"#utility.yul\":10252:10299   */\n      mstore\n        /* \"#utility.yul\":10316:10464   */\n      tag_217\n        /* \"#utility.yul\":10459:10463   */\n      dup2\n        /* \"#utility.yul\":10450:10456   */\n      dup5\n        /* \"#utility.yul\":10316:10464   */\n      tag_112\n      jump\t// in\n    tag_217:\n        /* \"#utility.yul\":10308:10464   */\n      swap1\n      pop\n        /* \"#utility.yul\":10018:10471   */\n      swap3\n      swap2\n      pop\n      pop\n      jump\t// out\n        /* \"#utility.yul\":10477:10657   */\n    tag_30:\n        /* \"#utility.yul\":10525:10602   */\n      0x4e487b7100000000000000000000000000000000000000000000000000000000\n        /* \"#utility.yul\":10522:10523   */\n      0x00\n        /* \"#utility.yul\":10515:10603   */\n      mstore\n        /* \"#utility.yul\":10622:10626   */\n      0x32\n        /* \"#utility.yul\":10619:10620   */\n      0x04\n        /* \"#utility.yul\":10612:10627   */\n      mstore\n        /* \"#utility.yul\":10646:10650   */\n      0x24\n        /* \"#utility.yul\":10643:10644   */\n      0x00\n        /* \"#utility.yul\":10636:10651   */\n      revert\n        /* \"#utility.yul\":10663:10843   */\n    tag_113:\n        /* \"#utility.yul\":10711:10788   */\n      0x4e487b7100000000000000000000000000000000000000000000000000000000\n        /* \"#utility.yul\":10708:10709   */\n      0x00\n        /* \"#utility.yul\":10701:10789   */\n      mstore\n        /* \"#utility.yul\":10808:10812   */\n      0x22\n        /* \"#utility.yul\":10805:10806   */\n      0x04\n        /* \"#utility.yul\":10798:10813   */\n      mstore\n        /* \"#utility.yul\":10832:10836   */\n      0x24\n        /* \"#utility.yul\":10829:10830   */\n      0x00\n        /* \"#utility.yul\":10822:10837   */\n      revert\n        /* \"#utility.yul\":10849:11169   */\n    tag_33:\n        /* \"#utility.yul\":10893:10899   */\n      0x00\n        /* \"#utility.yul\":10930:10931   */\n      0x02\n        /* \"#utility.yul\":10924:10928   */\n      dup3\n        /* \"#utility.yul\":10920:10932   */\n      div\n        /* \"#utility.yul\":10910:10932   */\n      swap1\n      pop\n        /* \"#utility.yul\":10977:10978   */\n      0x01\n        /* \"#utility.yul\":10971:10975   */\n      dup3\n        /* \"#utility.yul\":10967:10979   */\n      and\n        /* \"#utility.yul\":10998:11016   */\n      dup1\n        /* \"#utility.yul\":10988:11069   */\n      tag_221\n      jumpi\n        /* \"#utility.yul\":11054:11058   */\n      0x7f\n        /* \"#utility.yul\":11046:11052   */\n      dup3\n        /* \"#utility.yul\":11042:11059   */\n      and\n        /* \"#utility.yul\":11032:11059   */\n      swap2\n      pop\n        /* \"#utility.yul\":10988:11069   */\n    tag_221:\n        /* \"#utility.yul\":11116:11118   */\n      0x20\n        /* \"#utility.yul\":11108:11114   */\n      dup3\n        /* \"#utility.yul\":11105:11119   */\n      lt\n        /* \"#utility.yul\":11085:11103   */\n      dup2\n        /* \"#utility.yul\":11082:11120   */\n      sub\n        /* \"#utility.yul\":11079:11163   */\n      tag_222\n      jumpi\n        /* \"#utility.yul\":11135:11153   */\n      tag_223\n      tag_113\n      jump\t// in\n    tag_223:\n        /* \"#utility.yul\":11079:11163   */\n    tag_222:\n        /* \"#utility.yul\":10900:11169   */\n      pop\n        /* \"#utility.yul\":10849:11169   */\n      swap2\n      swap1\n      pop\n      jump\t// out\n        /* \"#utility.yul\":11175:11355   */\n    tag_114:\n        /* \"#utility.yul\":11223:11300   */\n      0x4e487b7100000000000000000000000000000000000000000000000000000000\n        /* \"#utility.yul\":11220:11221   */\n      0x00\n        /* \"#utility.yul\":11213:11301   */\n      mstore\n        /* \"#utility.yul\":11320:11324   */\n      0x11\n        /* \"#utility.yul\":11317:11318   */\n      0x04\n        /* \"#utility.yul\":11310:11325   */\n      mstore\n        /* \"#utility.yul\":11344:11348   */\n      0x24\n        /* \"#utility.yul\":11341:11342   */\n      0x00\n        /* \"#utility.yul\":11334:11349   */\n      revert\n        /* \"#utility.yul\":11361:11594   */\n    tag_71:\n        /* \"#utility.yul\":11400:11403   */\n      0x00\n        /* \"#utility.yul\":11423:11447   */\n      tag_226\n        /* \"#utility.yul\":11441:11446   */\n      dup3\n        /* \"#utility.yul\":11423:11447   */\n      tag_85\n      jump\t// in\n    tag_226:\n        /* \"#utility.yul\":11414:11447   */\n      swap2\n      pop\n        /* \"#utility.yul\":11469:11535   */\n      0xffffffffffffffffffffffffffffffffffffffffffffffffffffffffffffffff\n        /* \"#utility.yul\":11462:11467   */\n      dup3\n        /* \"#utility.yul\":11459:11536   */\n      sub\n        /* \"#utility.yul\":11456:11559   */\n      tag_227\n      jumpi\n        /* \"#utility.yul\":11539:11557   */\n      tag_228\n      tag_114\n      jump\t// in\n    tag_228:\n        /* \"#utility.yul\":11456:11559   */\n    tag_227:\n        /* \"#utility.yul\":11586:11587   */\n      0x01\n        /* \"#utility.yul\":11579:11584   */\n      dup3\n        /* \"#utility.yul\":11575:11588   */\n      add\n        /* \"#utility.yul\":11568:11588   */\n      swap1\n      pop\n        /* \"#utility.yul\":11361:11594   */\n      swap2\n      swap1\n      pop\n      jump\t// out\n\n    auxdata: 0xa264697066735822122085b7d3b1544a139f00a3f4205b159ae4a64714655f4636da5cbe0974a70af5b764736f6c634300080d0033\n}\n",
				"bytecode": {
					"linkReferences": {},
					"object": "608060405234801561001057600080fd5b50610b7a806100206000396000f3fe608060405234801561001057600080fd5b506004361061004c5760003560e01c80630178fe3f146100515780634a96d170146100835780637deffc6a146100b5578063ac578350146100d1575b600080fd5b61006b60048036038101906100669190610587565b610101565b60405161007a9392919061065c565b60405180910390f35b61009d60048036038101906100989190610587565b610294565b6040516100ac9392919061065c565b60405180910390f35b6100cf60048036038101906100ca91906107d6565b6103de565b005b6100eb60048036038101906100e69190610861565b61046f565b6040516100f89190610a1c565b60405180910390f35b606080600080848154811061011957610118610a3e565b5b9060005260206000209060030201600001805461013590610a9c565b80601f016020809104026020016040519081016040528092919081815260200182805461016190610a9c565b80156101ae5780601f10610183576101008083540402835291602001916101ae565b820191906000526020600020905b81548152906001019060200180831161019157829003601f168201915b50505050509250600084815481106101c9576101c8610a3e565b5b906000526020600020906003020160010180546101e590610a9c565b80601f016020809104026020016040519081016040528092919081815260200182805461021190610a9c565b801561025e5780601f106102335761010080835404028352916020019161025e565b820191906000526020600020905b81548152906001019060200180831161024157829003601f168201915b505050505091506000848154811061027957610278610a3e565b5b90600052602060002090600302016002015490509193909250565b600081815481106102a457600080fd5b90600052602060002090600302016000915090508060000180546102c790610a9c565b80601f01602080910402602001604051908101604052809291908181526020018280546102f390610a9c565b80156103405780601f1061031557610100808354040283529160200191610340565b820191906000526020600020905b81548152906001019060200180831161032357829003601f168201915b50505050509080600101805461035590610a9c565b80601f016020809104026020016040519081016040528092919081815260200182805461038190610a9c565b80156103ce5780601f106103a3576101008083540402835291602001916103ce565b820191906000526020600020905b8154815290600101906020018083116103b157829003601f168201915b5050505050908060020154905083565b60006040518060600160405280858152602001848152602001838152509080600181540180825580915050600190039060005260206000209060030201600090919091909150600082015181600001908051906020019061044092919061049a565b50602082015181600101908051906020019061045d92919061049a565b50604082015181600201555050505050565b606060005b60008054905081101561049457808061048c90610afc565b915050610474565b50919050565b8280546104a690610a9c565b90600052602060002090601f0160209004810192826104c8576000855561050f565b82601f106104e157805160ff191683800117855561050f565b8280016001018555821561050f579182015b8281111561050e5782518255916020019190600101906104f3565b5b50905061051c9190610520565b5090565b5b80821115610539576000816000905550600101610521565b5090565b6000604051905090565b600080fd5b600080fd5b6000819050919050565b61056481610551565b811461056f57600080fd5b50565b6000813590506105818161055b565b92915050565b60006020828403121561059d5761059c610547565b5b60006105ab84828501610572565b91505092915050565b600081519050919050565b600082825260208201905092915050565b60005b838110156105ee5780820151818401526020810190506105d3565b838111156105fd576000848401525b50505050565b6000601f19601f8301169050919050565b600061061f826105b4565b61062981856105bf565b93506106398185602086016105d0565b61064281610603565b840191505092915050565b61065681610551565b82525050565b600060608201905081810360008301526106768186610614565b9050818103602083015261068a8185610614565b9050610699604083018461064d565b949350505050565b600080fd5b600080fd5b7f4e487b7100000000000000000000000000000000000000000000000000000000600052604160045260246000fd5b6106e382610603565b810181811067ffffffffffffffff82111715610702576107016106ab565b5b80604052505050565b600061071561053d565b905061072182826106da565b919050565b600067ffffffffffffffff821115610741576107406106ab565b5b61074a82610603565b9050602081019050919050565b82818337600083830152505050565b600061077961077484610726565b61070b565b905082815260208101848484011115610795576107946106a6565b5b6107a0848285610757565b509392505050565b600082601f8301126107bd576107bc6106a1565b5b81356107cd848260208601610766565b91505092915050565b6000806000606084860312156107ef576107ee610547565b5b600084013567ffffffffffffffff81111561080d5761080c61054c565b5b610819868287016107a8565b935050602084013567ffffffffffffffff81111561083a5761083961054c565b5b610846868287016107a8565b925050604061085786828701610572565b9150509250925092565b60006020828403121561087757610876610547565b5b600082013567ffffffffffffffff8111156108955761089461054c565b5b6108a1848285016107a8565b91505092915050565b600081519050919050565b600082825260208201905092915050565b6000819050602082019050919050565b600082825260208201905092915050565b60006108f2826105b4565b6108fc81856108d6565b935061090c8185602086016105d0565b61091581610603565b840191505092915050565b61092981610551565b82525050565b6000606083016000830151848203600086015261094c82826108e7565b9150506020830151848203602086015261096682826108e7565b915050604083015161097b6040860182610920565b508091505092915050565b6000610992838361092f565b905092915050565b6000602082019050919050565b60006109b2826108aa565b6109bc81856108b5565b9350836020820285016109ce856108c6565b8060005b85811015610a0a57848403895281516109eb8582610986565b94506109f68361099a565b925060208a019950506001810190506109d2565b50829750879550505050505092915050565b60006020820190508181036000830152610a3681846109a7565b905092915050565b7f4e487b7100000000000000000000000000000000000000000000000000000000600052603260045260246000fd5b7f4e487b7100000000000000000000000000000000000000000000000000000000600052602260045260246000fd5b60006002820490506001821680610ab457607f821691505b602082108103610ac757610ac6610a6d565b5b50919050565b7f4e487b7100000000000000000000000000000000000000000000000000000000600052601160045260246000fd5b6000610b0782610551565b91507fffffffffffffffffffffffffffffffffffffffffffffffffffffffffffffffff8203610b3957610b38610acd565b5b60018201905091905056fea264697066735822122085b7d3b1544a139f00a3f4205b159ae4a64714655f4636da5cbe0974a70af5b764736f6c634300080d0033",
					"opcodes": "PUSH1 0x80 PUSH1 0x40 MSTORE CALLVALUE DUP1 ISZERO PUSH2 0x10 JUMPI PUSH1 0x0 DUP1 REVERT JUMPDEST POP PUSH2 0xB7A DUP1 PUSH2 0x20 PUSH1 0x0 CODECOPY PUSH1 0x0 RETURN INVALID PUSH1 0x80 PUSH1 0x40 MSTORE CALLVALUE DUP1 ISZERO PUSH2 0x10 JUMPI PUSH1 0x0 DUP1 REVERT JUMPDEST POP PUSH1 0x4 CALLDATASIZE LT PUSH2 0x4C JUMPI PUSH1 0x0 CALLDATALOAD PUSH1 0xE0 SHR DUP1 PUSH4 0x178FE3F EQ PUSH2 0x51 JUMPI DUP1 PUSH4 0x4A96D170 EQ PUSH2 0x83 JUMPI DUP1 PUSH4 0x7DEFFC6A EQ PUSH2 0xB5 JUMPI DUP1 PUSH4 0xAC578350 EQ PUSH2 0xD1 JUMPI JUMPDEST PUSH1 0x0 DUP1 REVERT JUMPDEST PUSH2 0x6B PUSH1 0x4 DUP1 CALLDATASIZE SUB DUP2 ADD SWAP1 PUSH2 0x66 SWAP2 SWAP1 PUSH2 0x587 JUMP JUMPDEST PUSH2 0x101 JUMP JUMPDEST PUSH1 0x40 MLOAD PUSH2 0x7A SWAP4 SWAP3 SWAP2 SWAP1 PUSH2 0x65C JUMP JUMPDEST PUSH1 0x40 MLOAD DUP1 SWAP2 SUB SWAP1 RETURN JUMPDEST PUSH2 0x9D PUSH1 0x4 DUP1 CALLDATASIZE SUB DUP2 ADD SWAP1 PUSH2 0x98 SWAP2 SWAP1 PUSH2 0x587 JUMP JUMPDEST PUSH2 0x294 JUMP JUMPDEST PUSH1 0x40 MLOAD PUSH2 0xAC SWAP4 SWAP3 SWAP2 SWAP1 PUSH2 0x65C JUMP JUMPDEST PUSH1 0x40 MLOAD DUP1 SWAP2 SUB SWAP1 RETURN JUMPDEST PUSH2 0xCF PUSH1 0x4 DUP1 CALLDATASIZE SUB DUP2 ADD SWAP1 PUSH2 0xCA SWAP2 SWAP1 PUSH2 0x7D6 JUMP JUMPDEST PUSH2 0x3DE JUMP JUMPDEST STOP JUMPDEST PUSH2 0xEB PUSH1 0x4 DUP1 CALLDATASIZE SUB DUP2 ADD SWAP1 PUSH2 0xE6 SWAP2 SWAP1 PUSH2 0x861 JUMP JUMPDEST PUSH2 0x46F JUMP JUMPDEST PUSH1 0x40 MLOAD PUSH2 0xF8 SWAP2 SWAP1 PUSH2 0xA1C JUMP JUMPDEST PUSH1 0x40 MLOAD DUP1 SWAP2 SUB SWAP1 RETURN JUMPDEST PUSH1 0x60 DUP1 PUSH1 0x0 DUP1 DUP5 DUP2 SLOAD DUP2 LT PUSH2 0x119 JUMPI PUSH2 0x118 PUSH2 0xA3E JUMP JUMPDEST JUMPDEST SWAP1 PUSH1 0x0 MSTORE PUSH1 0x20 PUSH1 0x0 KECCAK256 SWAP1 PUSH1 0x3 MUL ADD PUSH1 0x0 ADD DUP1 SLOAD PUSH2 0x135 SWAP1 PUSH2 0xA9C JUMP JUMPDEST DUP1 PUSH1 0x1F ADD PUSH1 0x20 DUP1 SWAP2 DIV MUL PUSH1 0x20 ADD PUSH1 0x40 MLOAD SWAP1 DUP2 ADD PUSH1 0x40 MSTORE DUP1 SWAP3 SWAP2 SWAP1 DUP2 DUP2 MSTORE PUSH1 0x20 ADD DUP3 DUP1 SLOAD PUSH2 0x161 SWAP1 PUSH2 0xA9C JUMP JUMPDEST DUP1 ISZERO PUSH2 0x1AE JUMPI DUP1 PUSH1 0x1F LT PUSH2 0x183 JUMPI PUSH2 0x100 DUP1 DUP4 SLOAD DIV MUL DUP4 MSTORE SWAP2 PUSH1 0x20 ADD SWAP2 PUSH2 0x1AE JUMP JUMPDEST DUP3 ADD SWAP2 SWAP1 PUSH1 0x0 MSTORE PUSH1 0x20 PUSH1 0x0 KECCAK256 SWAP1 JUMPDEST DUP2 SLOAD DUP2 MSTORE SWAP1 PUSH1 0x1 ADD SWAP1 PUSH1 0x20 ADD DUP1 DUP4 GT PUSH2 0x191 JUMPI DUP3 SWAP1 SUB PUSH1 0x1F AND DUP3 ADD SWAP2 JUMPDEST POP POP POP POP POP SWAP3 POP PUSH1 0x0 DUP5 DUP2 SLOAD DUP2 LT PUSH2 0x1C9 JUMPI PUSH2 0x1C8 PUSH2 0xA3E JUMP JUMPDEST JUMPDEST SWAP1 PUSH1 0x0 MSTORE PUSH1 0x20 PUSH1 0x0 KECCAK256 SWAP1 PUSH1 0x3 MUL ADD PUSH1 0x1 ADD DUP1 SLOAD PUSH2 0x1E5 SWAP1 PUSH2 0xA9C JUMP JUMPDEST DUP1 PUSH1 0x1F ADD PUSH1 0x20 DUP1 SWAP2 DIV MUL PUSH1 0x20 ADD PUSH1 0x40 MLOAD SWAP1 DUP2 ADD PUSH1 0x40 MSTORE DUP1 SWAP3 SWAP2 SWAP1 DUP2 DUP2 MSTORE PUSH1 0x20 ADD DUP3 DUP1 SLOAD PUSH2 0x211 SWAP1 PUSH2 0xA9C JUMP JUMPDEST DUP1 ISZERO PUSH2 0x25E JUMPI DUP1 PUSH1 0x1F LT PUSH2 0x233 JUMPI PUSH2 0x100 DUP1 DUP4 SLOAD DIV MUL DUP4 MSTORE SWAP2 PUSH1 0x20 ADD SWAP2 PUSH2 0x25E JUMP JUMPDEST DUP3 ADD SWAP2 SWAP1 PUSH1 0x0 MSTORE PUSH1 0x20 PUSH1 0x0 KECCAK256 SWAP1 JUMPDEST DUP2 SLOAD DUP2 MSTORE SWAP1 PUSH1 0x1 ADD SWAP1 PUSH1 0x20 ADD DUP1 DUP4 GT PUSH2 0x241 JUMPI DUP3 SWAP1 SUB PUSH1 0x1F AND DUP3 ADD SWAP2 JUMPDEST POP POP POP POP POP SWAP2 POP PUSH1 0x0 DUP5 DUP2 SLOAD DUP2 LT PUSH2 0x279 JUMPI PUSH2 0x278 PUSH2 0xA3E JUMP JUMPDEST JUMPDEST SWAP1 PUSH1 0x0 MSTORE PUSH1 0x20 PUSH1 0x0 KECCAK256 SWAP1 PUSH1 0x3 MUL ADD PUSH1 0x2 ADD SLOAD SWAP1 POP SWAP2 SWAP4 SWAP1 SWAP3 POP JUMP JUMPDEST PUSH1 0x0 DUP2 DUP2 SLOAD DUP2 LT PUSH2 0x2A4 JUMPI PUSH1 0x0 DUP1 REVERT JUMPDEST SWAP1 PUSH1 0x0 MSTORE PUSH1 0x20 PUSH1 0x0 KECCAK256 SWAP1 PUSH1 0x3 MUL ADD PUSH1 0x0 SWAP2 POP SWAP1 POP DUP1 PUSH1 0x0 ADD DUP1 SLOAD PUSH2 0x2C7 SWAP1 PUSH2 0xA9C JUMP JUMPDEST DUP1 PUSH1 0x1F ADD PUSH1 0x20 DUP1 SWAP2 DIV MUL PUSH1 0x20 ADD PUSH1 0x40 MLOAD SWAP1 DUP2 ADD PUSH1 0x40 MSTORE DUP1 SWAP3 SWAP2 SWAP1 DUP2 DUP2 MSTORE PUSH1 0x20 ADD DUP3 DUP1 SLOAD PUSH2 0x2F3 SWAP1 PUSH2 0xA9C JUMP JUMPDEST DUP1 ISZERO PUSH2 0x340 JUMPI DUP1 PUSH1 0x1F LT PUSH2 0x315 JUMPI PUSH2 0x100 DUP1 DUP4 SLOAD DIV MUL DUP4 MSTORE SWAP2 PUSH1 0x20 ADD SWAP2 PUSH2 0x340 JUMP JUMPDEST DUP3 ADD SWAP2 SWAP1 PUSH1 0x0 MSTORE PUSH1 0x20 PUSH1 0x0 KECCAK256 SWAP1 JUMPDEST DUP2 SLOAD DUP2 MSTORE SWAP1 PUSH1 0x1 ADD SWAP1 PUSH1 0x20 ADD DUP1 DUP4 GT PUSH2 0x323 JUMPI DUP3 SWAP1 SUB PUSH1 0x1F AND DUP3 ADD SWAP2 JUMPDEST POP POP POP POP POP SWAP1 DUP1 PUSH1 0x1 ADD DUP1 SLOAD PUSH2 0x355 SWAP1 PUSH2 0xA9C JUMP JUMPDEST DUP1 PUSH1 0x1F ADD PUSH1 0x20 DUP1 SWAP2 DIV MUL PUSH1 0x20 ADD PUSH1 0x40 MLOAD SWAP1 DUP2 ADD PUSH1 0x40 MSTORE DUP1 SWAP3 SWAP2 SWAP1 DUP2 DUP2 MSTORE PUSH1 0x20 ADD DUP3 DUP1 SLOAD PUSH2 0x381 SWAP1 PUSH2 0xA9C JUMP JUMPDEST DUP1 ISZERO PUSH2 0x3CE JUMPI DUP1 PUSH1 0x1F LT PUSH2 0x3A3 JUMPI PUSH2 0x100 DUP1 DUP4 SLOAD DIV MUL DUP4 MSTORE SWAP2 PUSH1 0x20 ADD SWAP2 PUSH2 0x3CE JUMP JUMPDEST DUP3 ADD SWAP2 SWAP1 PUSH1 0x0 MSTORE PUSH1 0x20 PUSH1 0x0 KECCAK256 SWAP1 JUMPDEST DUP2 SLOAD DUP2 MSTORE SWAP1 PUSH1 0x1 ADD SWAP1 PUSH1 0x20 ADD DUP1 DUP4 GT PUSH2 0x3B1 JUMPI DUP3 SWAP1 SUB PUSH1 0x1F AND DUP3 ADD SWAP2 JUMPDEST POP POP POP POP POP SWAP1 DUP1 PUSH1 0x2 ADD SLOAD SWAP1 POP DUP4 JUMP JUMPDEST PUSH1 0x0 PUSH1 0x40 MLOAD DUP1 PUSH1 0x60 ADD PUSH1 0x40 MSTORE DUP1 DUP6 DUP2 MSTORE PUSH1 0x20 ADD DUP5 DUP2 MSTORE PUSH1 0x20 ADD DUP4 DUP2 MSTORE POP SWAP1 DUP1 PUSH1 0x1 DUP2 SLOAD ADD DUP1 DUP3 SSTORE DUP1 SWAP2 POP POP PUSH1 0x1 SWAP1 SUB SWAP1 PUSH1 0x0 MSTORE PUSH1 0x20 PUSH1 0x0 KECCAK256 SWAP1 PUSH1 0x3 MUL ADD PUSH1 0x0 SWAP1 SWAP2 SWAP1 SWAP2 SWAP1 SWAP2 POP PUSH1 0x0 DUP3 ADD MLOAD DUP2 PUSH1 0x0 ADD SWAP1 DUP1 MLOAD SWAP1 PUSH1 0x20 ADD SWAP1 PUSH2 0x440 SWAP3 SWAP2 SWAP1 PUSH2 0x49A JUMP JUMPDEST POP PUSH1 0x20 DUP3 ADD MLOAD DUP2 PUSH1 0x1 ADD SWAP1 DUP1 MLOAD SWAP1 PUSH1 0x20 ADD SWAP1 PUSH2 0x45D SWAP3 SWAP2 SWAP1 PUSH2 0x49A JUMP JUMPDEST POP PUSH1 0x40 DUP3 ADD MLOAD DUP2 PUSH1 0x2 ADD SSTORE POP POP POP POP POP JUMP JUMPDEST PUSH1 0x60 PUSH1 0x0 JUMPDEST PUSH1 0x0 DUP1 SLOAD SWAP1 POP DUP2 LT ISZERO PUSH2 0x494 JUMPI DUP1 DUP1 PUSH2 0x48C SWAP1 PUSH2 0xAFC JUMP JUMPDEST SWAP2 POP POP PUSH2 0x474 JUMP JUMPDEST POP SWAP2 SWAP1 POP JUMP JUMPDEST DUP3 DUP1 SLOAD PUSH2 0x4A6 SWAP1 PUSH2 0xA9C JUMP JUMPDEST SWAP1 PUSH1 0x0 MSTORE PUSH1 0x20 PUSH1 0x0 KECCAK256 SWAP1 PUSH1 0x1F ADD PUSH1 0x20 SWAP1 DIV DUP2 ADD SWAP3 DUP3 PUSH2 0x4C8 JUMPI PUSH1 0x0 DUP6 SSTORE PUSH2 0x50F JUMP JUMPDEST DUP3 PUSH1 0x1F LT PUSH2 0x4E1 JUMPI DUP1 MLOAD PUSH1 0xFF NOT AND DUP4 DUP1 ADD OR DUP6 SSTORE PUSH2 0x50F JUMP JUMPDEST DUP3 DUP1 ADD PUSH1 0x1 ADD DUP6 SSTORE DUP3 ISZERO PUSH2 0x50F JUMPI SWAP2 DUP3 ADD JUMPDEST DUP3 DUP2 GT ISZERO PUSH2 0x50E JUMPI DUP3 MLOAD DUP3 SSTORE SWAP2 PUSH1 0x20 ADD SWAP2 SWAP1 PUSH1 0x1 ADD SWAP1 PUSH2 0x4F3 JUMP JUMPDEST JUMPDEST POP SWAP1 POP PUSH2 0x51C SWAP2 SWAP1 PUSH2 0x520 JUMP JUMPDEST POP SWAP1 JUMP JUMPDEST JUMPDEST DUP1 DUP3 GT ISZERO PUSH2 0x539 JUMPI PUSH1 0x0 DUP2 PUSH1 0x0 SWAP1 SSTORE POP PUSH1 0x1 ADD PUSH2 0x521 JUMP JUMPDEST POP SWAP1 JUMP JUMPDEST PUSH1 0x0 PUSH1 0x40 MLOAD SWAP1 POP SWAP1 JUMP JUMPDEST PUSH1 0x0 DUP1 REVERT JUMPDEST PUSH1 0x0 DUP1 REVERT JUMPDEST PUSH1 0x0 DUP2 SWAP1 POP SWAP2 SWAP1 POP JUMP JUMPDEST PUSH2 0x564 DUP2 PUSH2 0x551 JUMP JUMPDEST DUP2 EQ PUSH2 0x56F JUMPI PUSH1 0x0 DUP1 REVERT JUMPDEST POP JUMP JUMPDEST PUSH1 0x0 DUP2 CALLDATALOAD SWAP1 POP PUSH2 0x581 DUP2 PUSH2 0x55B JUMP JUMPDEST SWAP3 SWAP2 POP POP JUMP JUMPDEST PUSH1 0x0 PUSH1 0x20 DUP3 DUP5 SUB SLT ISZERO PUSH2 0x59D JUMPI PUSH2 0x59C PUSH2 0x547 JUMP JUMPDEST JUMPDEST PUSH1 0x0 PUSH2 0x5AB DUP5 DUP3 DUP6 ADD PUSH2 0x572 JUMP JUMPDEST SWAP2 POP POP SWAP3 SWAP2 POP POP JUMP JUMPDEST PUSH1 0x0 DUP2 MLOAD SWAP1 POP SWAP2 SWAP1 POP JUMP JUMPDEST PUSH1 0x0 DUP3 DUP3 MSTORE PUSH1 0x20 DUP3 ADD SWAP1 POP SWAP3 SWAP2 POP POP JUMP JUMPDEST PUSH1 0x0 JUMPDEST DUP4 DUP2 LT ISZERO PUSH2 0x5EE JUMPI DUP1 DUP3 ADD MLOAD DUP2 DUP5 ADD MSTORE PUSH1 0x20 DUP2 ADD SWAP1 POP PUSH2 0x5D3 JUMP JUMPDEST DUP4 DUP2 GT ISZERO PUSH2 0x5FD JUMPI PUSH1 0x0 DUP5 DUP5 ADD MSTORE JUMPDEST POP POP POP POP JUMP JUMPDEST PUSH1 0x0 PUSH1 0x1F NOT PUSH1 0x1F DUP4 ADD AND SWAP1 POP SWAP2 SWAP1 POP JUMP JUMPDEST PUSH1 0x0 PUSH2 0x61F DUP3 PUSH2 0x5B4 JUMP JUMPDEST PUSH2 0x629 DUP2 DUP6 PUSH2 0x5BF JUMP JUMPDEST SWAP4 POP PUSH2 0x639 DUP2 DUP6 PUSH1 0x20 DUP7 ADD PUSH2 0x5D0 JUMP JUMPDEST PUSH2 0x642 DUP2 PUSH2 0x603 JUMP JUMPDEST DUP5 ADD SWAP2 POP POP SWAP3 SWAP2 POP POP JUMP JUMPDEST PUSH2 0x656 DUP2 PUSH2 0x551 JUMP JUMPDEST DUP3 MSTORE POP POP JUMP JUMPDEST PUSH1 0x0 PUSH1 0x60 DUP3 ADD SWAP1 POP DUP2 DUP2 SUB PUSH1 0x0 DUP4 ADD MSTORE PUSH2 0x676 DUP2 DUP7 PUSH2 0x614 JUMP JUMPDEST SWAP1 POP DUP2 DUP2 SUB PUSH1 0x20 DUP4 ADD MSTORE PUSH2 0x68A DUP2 DUP6 PUSH2 0x614 JUMP JUMPDEST SWAP1 POP PUSH2 0x699 PUSH1 0x40 DUP4 ADD DUP5 PUSH2 0x64D JUMP JUMPDEST SWAP5 SWAP4 POP POP POP POP JUMP JUMPDEST PUSH1 0x0 DUP1 REVERT JUMPDEST PUSH1 0x0 DUP1 REVERT JUMPDEST PUSH32 0x4E487B7100000000000000000000000000000000000000000000000000000000 PUSH1 0x0 MSTORE PUSH1 0x41 PUSH1 0x4 MSTORE PUSH1 0x24 PUSH1 0x0 REVERT JUMPDEST PUSH2 0x6E3 DUP3 PUSH2 0x603 JUMP JUMPDEST DUP2 ADD DUP2 DUP2 LT PUSH8 0xFFFFFFFFFFFFFFFF DUP3 GT OR ISZERO PUSH2 0x702 JUMPI PUSH2 0x701 PUSH2 0x6AB JUMP JUMPDEST JUMPDEST DUP1 PUSH1 0x40 MSTORE POP POP POP JUMP JUMPDEST PUSH1 0x0 PUSH2 0x715 PUSH2 0x53D JUMP JUMPDEST SWAP1 POP PUSH2 0x721 DUP3 DUP3 PUSH2 0x6DA JUMP JUMPDEST SWAP2 SWAP1 POP JUMP JUMPDEST PUSH1 0x0 PUSH8 0xFFFFFFFFFFFFFFFF DUP3 GT ISZERO PUSH2 0x741 JUMPI PUSH2 0x740 PUSH2 0x6AB JUMP JUMPDEST JUMPDEST PUSH2 0x74A DUP3 PUSH2 0x603 JUMP JUMPDEST SWAP1 POP PUSH1 0x20 DUP2 ADD SWAP1 POP SWAP2 SWAP1 POP JUMP JUMPDEST DUP3 DUP2 DUP4 CALLDATACOPY PUSH1 0x0 DUP4 DUP4 ADD MSTORE POP POP POP JUMP JUMPDEST PUSH1 0x0 PUSH2 0x779 PUSH2 0x774 DUP5 PUSH2 0x726 JUMP JUMPDEST PUSH2 0x70B JUMP JUMPDEST SWAP1 POP DUP3 DUP2 MSTORE PUSH1 0x20 DUP2 ADD DUP5 DUP5 DUP5 ADD GT ISZERO PUSH2 0x795 JUMPI PUSH2 0x794 PUSH2 0x6A6 JUMP JUMPDEST JUMPDEST PUSH2 0x7A0 DUP5 DUP3 DUP6 PUSH2 0x757 JUMP JUMPDEST POP SWAP4 SWAP3 POP POP POP JUMP JUMPDEST PUSH1 0x0 DUP3 PUSH1 0x1F DUP4 ADD SLT PUSH2 0x7BD JUMPI PUSH2 0x7BC PUSH2 0x6A1 JUMP JUMPDEST JUMPDEST DUP2 CALLDATALOAD PUSH2 0x7CD DUP5 DUP3 PUSH1 0x20 DUP7 ADD PUSH2 0x766 JUMP JUMPDEST SWAP2 POP POP SWAP3 SWAP2 POP POP JUMP JUMPDEST PUSH1 0x0 DUP1 PUSH1 0x0 PUSH1 0x60 DUP5 DUP7 SUB SLT ISZERO PUSH2 0x7EF JUMPI PUSH2 0x7EE PUSH2 0x547 JUMP JUMPDEST JUMPDEST PUSH1 0x0 DUP5 ADD CALLDATALOAD PUSH8 0xFFFFFFFFFFFFFFFF DUP2 GT ISZERO PUSH2 0x80D JUMPI PUSH2 0x80C PUSH2 0x54C JUMP JUMPDEST JUMPDEST PUSH2 0x819 DUP7 DUP3 DUP8 ADD PUSH2 0x7A8 JUMP JUMPDEST SWAP4 POP POP PUSH1 0x20 DUP5 ADD CALLDATALOAD PUSH8 0xFFFFFFFFFFFFFFFF DUP2 GT ISZERO PUSH2 0x83A JUMPI PUSH2 0x839 PUSH2 0x54C JUMP JUMPDEST JUMPDEST PUSH2 0x846 DUP7 DUP3 DUP8 ADD PUSH2 0x7A8 JUMP JUMPDEST SWAP3 POP POP PUSH1 0x40 PUSH2 0x857 DUP7 DUP3 DUP8 ADD PUSH2 0x572 JUMP JUMPDEST SWAP2 POP POP SWAP3 POP SWAP3 POP SWAP3 JUMP JUMPDEST PUSH1 0x0 PUSH1 0x20 DUP3 DUP5 SUB SLT ISZERO PUSH2 0x877 JUMPI PUSH2 0x876 PUSH2 0x547 JUMP JUMPDEST JUMPDEST PUSH1 0x0 DUP3 ADD CALLDATALOAD PUSH8 0xFFFFFFFFFFFFFFFF DUP2 GT ISZERO PUSH2 0x895 JUMPI PUSH2 0x894 PUSH2 0x54C JUMP JUMPDEST JUMPDEST PUSH2 0x8A1 DUP5 DUP3 DUP6 ADD PUSH2 0x7A8 JUMP JUMPDEST SWAP2 POP POP SWAP3 SWAP2 POP POP JUMP JUMPDEST PUSH1 0x0 DUP2 MLOAD SWAP1 POP SWAP2 SWAP1 POP JUMP JUMPDEST PUSH1 0x0 DUP3 DUP3 MSTORE PUSH1 0x20 DUP3 ADD SWAP1 POP SWAP3 SWAP2 POP POP JUMP JUMPDEST PUSH1 0x0 DUP2 SWAP1 POP PUSH1 0x20 DUP3 ADD SWAP1 POP SWAP2 SWAP1 POP JUMP JUMPDEST PUSH1 0x0 DUP3 DUP3 MSTORE PUSH1 0x20 DUP3 ADD SWAP1 POP SWAP3 SWAP2 POP POP JUMP JUMPDEST PUSH1 0x0 PUSH2 0x8F2 DUP3 PUSH2 0x5B4 JUMP JUMPDEST PUSH2 0x8FC DUP2 DUP6 PUSH2 0x8D6 JUMP JUMPDEST SWAP4 POP PUSH2 0x90C DUP2 DUP6 PUSH1 0x20 DUP7 ADD PUSH2 0x5D0 JUMP JUMPDEST PUSH2 0x915 DUP2 PUSH2 0x603 JUMP JUMPDEST DUP5 ADD SWAP2 POP POP SWAP3 SWAP2 POP POP JUMP JUMPDEST PUSH2 0x929 DUP2 PUSH2 0x551 JUMP JUMPDEST DUP3 MSTORE POP POP JUMP JUMPDEST PUSH1 0x0 PUSH1 0x60 DUP4 ADD PUSH1 0x0 DUP4 ADD MLOAD DUP5 DUP3 SUB PUSH1 0x0 DUP7 ADD MSTORE PUSH2 0x94C DUP3 DUP3 PUSH2 0x8E7 JUMP JUMPDEST SWAP2 POP POP PUSH1 0x20 DUP4 ADD MLOAD DUP5 DUP3 SUB PUSH1 0x20 DUP7 ADD MSTORE PUSH2 0x966 DUP3 DUP3 PUSH2 0x8E7 JUMP JUMPDEST SWAP2 POP POP PUSH1 0x40 DUP4 ADD MLOAD PUSH2 0x97B PUSH1 0x40 DUP7 ADD DUP3 PUSH2 0x920 JUMP JUMPDEST POP DUP1 SWAP2 POP POP SWAP3 SWAP2 POP POP JUMP JUMPDEST PUSH1 0x0 PUSH2 0x992 DUP4 DUP4 PUSH2 0x92F JUMP JUMPDEST SWAP1 POP SWAP3 SWAP2 POP POP JUMP JUMPDEST PUSH1 0x0 PUSH1 0x20 DUP3 ADD SWAP1 POP SWAP2 SWAP1 POP JUMP JUMPDEST PUSH1 0x0 PUSH2 0x9B2 DUP3 PUSH2 0x8AA JUMP JUMPDEST PUSH2 0x9BC DUP2 DUP6 PUSH2 0x8B5 JUMP JUMPDEST SWAP4 POP DUP4 PUSH1 0x20 DUP3 MUL DUP6 ADD PUSH2 0x9CE DUP6 PUSH2 0x8C6 JUMP JUMPDEST DUP1 PUSH1 0x0 JUMPDEST DUP6 DUP2 LT ISZERO PUSH2 0xA0A JUMPI DUP5 DUP5 SUB DUP10 MSTORE DUP2 MLOAD PUSH2 0x9EB DUP6 DUP3 PUSH2 0x986 JUMP JUMPDEST SWAP5 POP PUSH2 0x9F6 DUP4 PUSH2 0x99A JUMP JUMPDEST SWAP3 POP PUSH1 0x20 DUP11 ADD SWAP10 POP POP PUSH1 0x1 DUP2 ADD SWAP1 POP PUSH2 0x9D2 JUMP JUMPDEST POP DUP3 SWAP8 POP DUP8 SWAP6 POP POP POP POP POP POP SWAP3 SWAP2 POP POP JUMP JUMPDEST PUSH1 0x0 PUSH1 0x20 DUP3 ADD SWAP1 POP DUP2 DUP2 SUB PUSH1 0x0 DUP4 ADD MSTORE PUSH2 0xA36 DUP2 DUP5 PUSH2 0x9A7 JUMP JUMPDEST SWAP1 POP SWAP3 SWAP2 POP POP JUMP JUMPDEST PUSH32 0x4E487B7100000000000000000000000000000000000000000000000000000000 PUSH1 0x0 MSTORE PUSH1 0x32 PUSH1 0x4 MSTORE PUSH1 0x24 PUSH1 0x0 REVERT JUMPDEST PUSH32 0x4E487B7100000000000000000000000000000000000000000000000000000000 PUSH1 0x0 MSTORE PUSH1 0x22 PUSH1 0x4 MSTORE PUSH1 0x24 PUSH1 0x0 REVERT JUMPDEST PUSH1 0x0 PUSH1 0x2 DUP3 DIV SWAP1 POP PUSH1 0x1 DUP3 AND DUP1 PUSH2 0xAB4 JUMPI PUSH1 0x7F DUP3 AND SWAP2 POP JUMPDEST PUSH1 0x20 DUP3 LT DUP2 SUB PUSH2 0xAC7 JUMPI PUSH2 0xAC6 PUSH2 0xA6D JUMP JUMPDEST JUMPDEST POP SWAP2 SWAP1 POP JUMP JUMPDEST PUSH32 0x4E487B7100000000000000000000000000000000000000000000000000000000 PUSH1 0x0 MSTORE PUSH1 0x11 PUSH1 0x4 MSTORE PUSH1 0x24 PUSH1 0x0 REVERT JUMPDEST PUSH1 0x0 PUSH2 0xB07 DUP3 PUSH2 0x551 JUMP JUMPDEST SWAP2 POP PUSH32 0xFFFFFFFFFFFFFFFFFFFFFFFFFFFFFFFFFFFFFFFFFFFFFFFFFFFFFFFFFFFFFFFF DUP3 SUB PUSH2 0xB39 JUMPI PUSH2 0xB38 PUSH2 0xACD JUMP JUMPDEST JUMPDEST PUSH1 0x1 DUP3 ADD SWAP1 POP SWAP2 SWAP1 POP JUMP INVALID LOG2 PUSH5 0x6970667358 0x22 SLT KECCAK256 DUP6 0xB7 0xD3 0xB1 SLOAD 0x4A SGT SWAP16 STOP LOG3 DELEGATECALL KECCAK256 JUMPDEST ISZERO SWAP11 0xE4 0xA6 SELFBALANCE EQ PUSH6 0x5F4636DA5CBE MULMOD PUSH21 0xA70AF5B764736F6C634300080D0033000000000000 "
				},
				"gasEstimates": {
					"creation": {
						"codeDepositCost": "587600",
						"executionCost": "619",
						"totalCost": "588219"
					},
					"external": {
						"addData(string,string,uint256)": "infinite",
						"dataSet(uint256)": "infinite",
						"getAllDataBySensor(string)": "infinite",
						"getData(uint256)": "infinite"
					}
				},
				"methodIdentifiers": {
					"addData(string,string,uint256)": "7deffc6a",
					"dataSet(uint256)": "4a96d170",
					"getAllDataBySensor(string)": "ac578350",
					"getData(uint256)": "0178fe3f"
				}
			},
			"userdoc": {
				"kind": "user",
				"methods": {},
				"version": 1
			}
		}
	}
}