{
	"DataStorage.sol": {
		"DataStorage": {
			"abi": [
				{
					"inputs": [
						{
							"internalType": "int256",
							"name": "id",
							"type": "int256"
						},
						{
							"internalType": "string",
							"name": "time",
							"type": "string"
						},
						{
							"internalType": "int256",
							"name": "value",
							"type": "int256"
						}
					],
					"name": "addData",
					"outputs": [],
					"stateMutability": "payable",
					"type": "function"
				},
				{
					"inputs": [
						{
							"internalType": "uint256",
							"name": "",
							"type": "uint256"
						}
					],
					"name": "dataSet",
					"outputs": [
						{
							"internalType": "int256",
							"name": "sensorId",
							"type": "int256"
						},
						{
							"internalType": "string",
							"name": "timeStamp",
							"type": "string"
						},
						{
							"internalType": "int256",
							"name": "value",
							"type": "int256"
						}
					],
					"stateMutability": "view",
					"type": "function"
				},
				{
					"inputs": [
						{
							"internalType": "int256",
							"name": "givenId",
							"type": "int256"
						}
					],
					"name": "getAllDataBySensor",
					"outputs": [
						{
							"components": [
								{
									"internalType": "int256",
									"name": "sensorId",
									"type": "int256"
								},
								{
									"internalType": "string",
									"name": "timeStamp",
									"type": "string"
								},
								{
									"internalType": "int256",
									"name": "value",
									"type": "int256"
								}
							],
							"internalType": "struct DataStorage.Data[]",
							"name": "returnData",
							"type": "tuple[]"
						}
					],
					"stateMutability": "view",
					"type": "function"
				},
				{
					"inputs": [
						{
							"internalType": "uint256",
							"name": "arrayPointer",
							"type": "uint256"
						}
					],
					"name": "getData",
					"outputs": [
						{
							"components": [
								{
									"internalType": "int256",
									"name": "sensorId",
									"type": "int256"
								},
								{
									"internalType": "string",
									"name": "timeStamp",
									"type": "string"
								},
								{
									"internalType": "int256",
									"name": "value",
									"type": "int256"
								}
							],
							"internalType": "struct DataStorage.Data",
							"name": "returnData",
							"type": "tuple"
						}
					],
					"stateMutability": "view",
					"type": "function"
				}
			],
			"devdoc": {
				"kind": "dev",
				"methods": {},
				"version": 1
			},
			"evm": {
				"assembly": "    /* \"DataStorage.sol\":25:716  contract DataStorage {... */\n  mstore(0x40, 0x80)\n  callvalue\n  dup1\n  iszero\n  tag_1\n  jumpi\n  0x00\n  dup1\n  revert\ntag_1:\n  pop\n  dataSize(sub_0)\n  dup1\n  dataOffset(sub_0)\n  0x00\n  codecopy\n  0x00\n  return\nstop\n\nsub_0: assembly {\n        /* \"DataStorage.sol\":25:716  contract DataStorage {... */\n      mstore(0x40, 0x80)\n      jumpi(tag_1, lt(calldatasize, 0x04))\n      shr(0xe0, calldataload(0x00))\n      dup1\n      0x0178fe3f\n      eq\n      tag_2\n      jumpi\n      dup1\n      0x4a96d170\n      eq\n      tag_3\n      jumpi\n      dup1\n      0x4cfe187f\n      eq\n      tag_4\n      jumpi\n      dup1\n      0xbdd1805d\n      eq\n      tag_5\n      jumpi\n    tag_1:\n      0x00\n      dup1\n      revert\n        /* \"DataStorage.sol\":323:449  function getData(uint arrayPointer) view public returns (Data memory returnData) {... */\n    tag_2:\n      callvalue\n      dup1\n      iszero\n      tag_6\n      jumpi\n      0x00\n      dup1\n      revert\n    tag_6:\n      pop\n      tag_7\n      0x04\n      dup1\n      calldatasize\n      sub\n      dup2\n      add\n      swap1\n      tag_8\n      swap2\n      swap1\n      tag_9\n      jump\t// in\n    tag_8:\n      tag_10\n      jump\t// in\n    tag_7:\n      mload(0x40)\n      tag_11\n      swap2\n      swap1\n      tag_12\n      jump\t// in\n    tag_11:\n      mload(0x40)\n      dup1\n      swap2\n      sub\n      swap1\n      return\n        /* \"DataStorage.sol\":50:71  Data[] public dataSet */\n    tag_3:\n      callvalue\n      dup1\n      iszero\n      tag_13\n      jumpi\n      0x00\n      dup1\n      revert\n    tag_13:\n      pop\n      tag_14\n      0x04\n      dup1\n      calldatasize\n      sub\n      dup2\n      add\n      swap1\n      tag_15\n      swap2\n      swap1\n      tag_9\n      jump\t// in\n    tag_15:\n      tag_16\n      jump\t// in\n    tag_14:\n      mload(0x40)\n      tag_17\n      swap4\n      swap3\n      swap2\n      swap1\n      tag_18\n      jump\t// in\n    tag_17:\n      mload(0x40)\n      dup1\n      swap2\n      sub\n      swap1\n      return\n        /* \"DataStorage.sol\":202:319  function addData(int id, string memory time, int value) public payable {... */\n    tag_4:\n      tag_19\n      0x04\n      dup1\n      calldatasize\n      sub\n      dup2\n      add\n      swap1\n      tag_20\n      swap2\n      swap1\n      tag_21\n      jump\t// in\n    tag_20:\n      tag_22\n      jump\t// in\n    tag_19:\n      stop\n        /* \"DataStorage.sol\":453:714  function getAllDataBySensor(int givenId) view public returns (Data[] memory returnData){... */\n    tag_5:\n      callvalue\n      dup1\n      iszero\n      tag_23\n      jumpi\n      0x00\n      dup1\n      revert\n    tag_23:\n      pop\n      tag_24\n      0x04\n      dup1\n      calldatasize\n      sub\n      dup2\n      add\n      swap1\n      tag_25\n      swap2\n      swap1\n      tag_26\n      jump\t// in\n    tag_25:\n      tag_27\n      jump\t// in\n    tag_24:\n      mload(0x40)\n      tag_28\n      swap2\n      swap1\n      tag_29\n      jump\t// in\n    tag_28:\n      mload(0x40)\n      dup1\n      swap2\n      sub\n      swap1\n      return\n        /* \"DataStorage.sol\":323:449  function getData(uint arrayPointer) view public returns (Data memory returnData) {... */\n    tag_10:\n        /* \"DataStorage.sol\":380:402  Data memory returnData */\n      tag_30\n      tag_31\n      jump\t// in\n    tag_30:\n        /* \"DataStorage.sol\":423:430  dataSet */\n      0x00\n        /* \"DataStorage.sol\":431:443  arrayPointer */\n      dup3\n        /* \"DataStorage.sol\":423:444  dataSet[arrayPointer] */\n      dup2\n      sload\n      dup2\n      lt\n      tag_33\n      jumpi\n      tag_34\n      tag_35\n      jump\t// in\n    tag_34:\n    tag_33:\n      swap1\n      0x00\n      mstore\n      keccak256(0x00, 0x20)\n      swap1\n      0x03\n      mul\n      add\n        /* \"DataStorage.sol\":410:444  returnData = dataSet[arrayPointer] */\n      mload(0x40)\n      dup1\n      0x60\n      add\n      0x40\n      mstore\n      swap1\n      dup2\n      0x00\n      dup3\n      add\n      sload\n      dup2\n      mstore\n      0x20\n      add\n      0x01\n      dup3\n      add\n      dup1\n      sload\n      tag_37\n      swap1\n      tag_38\n      jump\t// in\n    tag_37:\n      dup1\n      0x1f\n      add\n      0x20\n      dup1\n      swap2\n      div\n      mul\n      0x20\n      add\n      mload(0x40)\n      swap1\n      dup2\n      add\n      0x40\n      mstore\n      dup1\n      swap3\n      swap2\n      swap1\n      dup2\n      dup2\n      mstore\n      0x20\n      add\n      dup3\n      dup1\n      sload\n      tag_39\n      swap1\n      tag_38\n      jump\t// in\n    tag_39:\n      dup1\n      iszero\n      tag_40\n      jumpi\n      dup1\n      0x1f\n      lt\n      tag_41\n      jumpi\n      0x0100\n      dup1\n      dup4\n      sload\n      div\n      mul\n      dup4\n      mstore\n      swap2\n      0x20\n      add\n      swap2\n      jump(tag_40)\n    tag_41:\n      dup3\n      add\n      swap2\n      swap1\n      0x00\n      mstore\n      keccak256(0x00, 0x20)\n      swap1\n    tag_42:\n      dup2\n      sload\n      dup2\n      mstore\n      swap1\n      0x01\n      add\n      swap1\n      0x20\n      add\n      dup1\n      dup4\n      gt\n      tag_42\n      jumpi\n      dup3\n      swap1\n      sub\n      0x1f\n      and\n      dup3\n      add\n      swap2\n    tag_40:\n      pop\n      pop\n      pop\n      pop\n      pop\n      dup2\n      mstore\n      0x20\n      add\n      0x02\n      dup3\n      add\n      sload\n      dup2\n      mstore\n      pop\n      pop\n      swap1\n      pop\n        /* \"DataStorage.sol\":323:449  function getData(uint arrayPointer) view public returns (Data memory returnData) {... */\n      swap2\n      swap1\n      pop\n      jump\t// out\n        /* \"DataStorage.sol\":50:71  Data[] public dataSet */\n    tag_16:\n      0x00\n      dup2\n      dup2\n      sload\n      dup2\n      lt\n      tag_43\n      jumpi\n      0x00\n      dup1\n      revert\n    tag_43:\n      swap1\n      0x00\n      mstore\n      keccak256(0x00, 0x20)\n      swap1\n      0x03\n      mul\n      add\n      0x00\n      swap2\n      pop\n      swap1\n      pop\n      dup1\n      0x00\n      add\n      sload\n      swap1\n      dup1\n      0x01\n      add\n      dup1\n      sload\n      tag_45\n      swap1\n      tag_38\n      jump\t// in\n    tag_45:\n      dup1\n      0x1f\n      add\n      0x20\n      dup1\n      swap2\n      div\n      mul\n      0x20\n      add\n      mload(0x40)\n      swap1\n      dup2\n      add\n      0x40\n      mstore\n      dup1\n      swap3\n      swap2\n      swap1\n      dup2\n      dup2\n      mstore\n      0x20\n      add\n      dup3\n      dup1\n      sload\n      tag_46\n      swap1\n      tag_38\n      jump\t// in\n    tag_46:\n      dup1\n      iszero\n      tag_47\n      jumpi\n      dup1\n      0x1f\n      lt\n      tag_48\n      jumpi\n      0x0100\n      dup1\n      dup4\n      sload\n      div\n      mul\n      dup4\n      mstore\n      swap2\n      0x20\n      add\n      swap2\n      jump(tag_47)\n    tag_48:\n      dup3\n      add\n      swap2\n      swap1\n      0x00\n      mstore\n      keccak256(0x00, 0x20)\n      swap1\n    tag_49:\n      dup2\n      sload\n      dup2\n      mstore\n      swap1\n      0x01\n      add\n      swap1\n      0x20\n      add\n      dup1\n      dup4\n      gt\n      tag_49\n      jumpi\n      dup3\n      swap1\n      sub\n      0x1f\n      and\n      dup3\n      add\n      swap2\n    tag_47:\n      pop\n      pop\n      pop\n      pop\n      pop\n      swap1\n      dup1\n      0x02\n      add\n      sload\n      swap1\n      pop\n      dup4\n      jump\t// out\n        /* \"DataStorage.sol\":202:319  function addData(int id, string memory time, int value) public payable {... */\n    tag_22:\n        /* \"DataStorage.sol\":279:286  dataSet */\n      0x00\n        /* \"DataStorage.sol\":292:313  Data(id, time, value) */\n      mload(0x40)\n      dup1\n      0x60\n      add\n      0x40\n      mstore\n      dup1\n        /* \"DataStorage.sol\":297:299  id */\n      dup6\n        /* \"DataStorage.sol\":292:313  Data(id, time, value) */\n      dup2\n      mstore\n      0x20\n      add\n        /* \"DataStorage.sol\":301:305  time */\n      dup5\n        /* \"DataStorage.sol\":292:313  Data(id, time, value) */\n      dup2\n      mstore\n      0x20\n      add\n        /* \"DataStorage.sol\":307:312  value */\n      dup4\n        /* \"DataStorage.sol\":292:313  Data(id, time, value) */\n      dup2\n      mstore\n      pop\n        /* \"DataStorage.sol\":279:314  dataSet.push(Data(id, time, value)) */\n      swap1\n      dup1\n      0x01\n      dup2\n      sload\n      add\n      dup1\n      dup3\n      sstore\n      dup1\n      swap2\n      pop\n      pop\n      0x01\n      swap1\n      sub\n      swap1\n      0x00\n      mstore\n      keccak256(0x00, 0x20)\n      swap1\n      0x03\n      mul\n      add\n      0x00\n      swap1\n      swap2\n      swap1\n      swap2\n      swap1\n      swap2\n      pop\n      0x00\n      dup3\n      add\n      mload\n      dup2\n      0x00\n      add\n      sstore\n      0x20\n      dup3\n      add\n      mload\n      dup2\n      0x01\n      add\n      swap1\n      dup1\n      mload\n      swap1\n      0x20\n      add\n      swap1\n      tag_52\n      swap3\n      swap2\n      swap1\n      tag_53\n      jump\t// in\n    tag_52:\n      pop\n      0x40\n      dup3\n      add\n      mload\n      dup2\n      0x02\n      add\n      sstore\n      pop\n      pop\n        /* \"DataStorage.sol\":202:319  function addData(int id, string memory time, int value) public payable {... */\n      pop\n      pop\n      pop\n      jump\t// out\n        /* \"DataStorage.sol\":453:714  function getAllDataBySensor(int givenId) view public returns (Data[] memory returnData){... */\n    tag_27:\n        /* \"DataStorage.sol\":515:539  Data[] memory returnData */\n      0x60\n        /* \"DataStorage.sol\":546:552  uint x */\n      0x00\n        /* \"DataStorage.sol\":567:573  uint i */\n      dup1\n        /* \"DataStorage.sol\":562:710  for (uint i = 0; i < dataSet.length; i++){... */\n    tag_55:\n        /* \"DataStorage.sol\":583:590  dataSet */\n      0x00\n        /* \"DataStorage.sol\":583:597  dataSet.length */\n      dup1\n      sload\n      swap1\n      pop\n        /* \"DataStorage.sol\":579:580  i */\n      dup2\n        /* \"DataStorage.sol\":579:597  i < dataSet.length */\n      lt\n        /* \"DataStorage.sol\":562:710  for (uint i = 0; i < dataSet.length; i++){... */\n      iszero\n      tag_56\n      jumpi\n        /* \"DataStorage.sol\":638:645  givenId */\n      dup4\n        /* \"DataStorage.sol\":615:622  dataSet */\n      0x00\n        /* \"DataStorage.sol\":623:624  i */\n      dup3\n        /* \"DataStorage.sol\":615:625  dataSet[i] */\n      dup2\n      sload\n      dup2\n      lt\n      tag_58\n      jumpi\n      tag_59\n      tag_35\n      jump\t// in\n    tag_59:\n    tag_58:\n      swap1\n      0x00\n      mstore\n      keccak256(0x00, 0x20)\n      swap1\n      0x03\n      mul\n      add\n        /* \"DataStorage.sol\":615:634  dataSet[i].sensorId */\n      0x00\n      add\n      sload\n        /* \"DataStorage.sol\":615:645  dataSet[i].sensorId == givenId */\n      sub\n        /* \"DataStorage.sol\":611:704  if (dataSet[i].sensorId == givenId){... */\n      tag_61\n      jumpi\n        /* \"DataStorage.sol\":672:679  dataSet */\n      0x00\n        /* \"DataStorage.sol\":680:681  i */\n      dup2\n        /* \"DataStorage.sol\":672:682  dataSet[i] */\n      dup2\n      sload\n      dup2\n      lt\n      tag_62\n      jumpi\n      tag_63\n      tag_35\n      jump\t// in\n    tag_63:\n    tag_62:\n      swap1\n      0x00\n      mstore\n      keccak256(0x00, 0x20)\n      swap1\n      0x03\n      mul\n      add\n        /* \"DataStorage.sol\":656:682  returnData[x] = dataSet[i] */\n      mload(0x40)\n      dup1\n      0x60\n      add\n      0x40\n      mstore\n      swap1\n      dup2\n      0x00\n      dup3\n      add\n      sload\n      dup2\n      mstore\n      0x20\n      add\n      0x01\n      dup3\n      add\n      dup1\n      sload\n      tag_65\n      swap1\n      tag_38\n      jump\t// in\n    tag_65:\n      dup1\n      0x1f\n      add\n      0x20\n      dup1\n      swap2\n      div\n      mul\n      0x20\n      add\n      mload(0x40)\n      swap1\n      dup2\n      add\n      0x40\n      mstore\n      dup1\n      swap3\n      swap2\n      swap1\n      dup2\n      dup2\n      mstore\n      0x20\n      add\n      dup3\n      dup1\n      sload\n      tag_66\n      swap1\n      tag_38\n      jump\t// in\n    tag_66:\n      dup1\n      iszero\n      tag_67\n      jumpi\n      dup1\n      0x1f\n      lt\n      tag_68\n      jumpi\n      0x0100\n      dup1\n      dup4\n      sload\n      div\n      mul\n      dup4\n      mstore\n      swap2\n      0x20\n      add\n      swap2\n      jump(tag_67)\n    tag_68:\n      dup3\n      add\n      swap2\n      swap1\n      0x00\n      mstore\n      keccak256(0x00, 0x20)\n      swap1\n    tag_69:\n      dup2\n      sload\n      dup2\n      mstore\n      swap1\n      0x01\n      add\n      swap1\n      0x20\n      add\n      dup1\n      dup4\n      gt\n      tag_69\n      jumpi\n      dup3\n      swap1\n      sub\n      0x1f\n      and\n      dup3\n      add\n      swap2\n    tag_67:\n      pop\n      pop\n      pop\n      pop\n      pop\n      dup2\n      mstore\n      0x20\n      add\n      0x02\n      dup3\n      add\n      sload\n      dup2\n      mstore\n      pop\n      pop\n        /* \"DataStorage.sol\":656:666  returnData */\n      dup4\n        /* \"DataStorage.sol\":667:668  x */\n      dup4\n        /* \"DataStorage.sol\":656:669  returnData[x] */\n      dup2\n      mload\n      dup2\n      lt\n      tag_70\n      jumpi\n      tag_71\n      tag_35\n      jump\t// in\n    tag_71:\n    tag_70:\n      0x20\n      mul\n      0x20\n      add\n      add\n        /* \"DataStorage.sol\":656:682  returnData[x] = dataSet[i] */\n      dup2\n      swap1\n      mstore\n      pop\n        /* \"DataStorage.sol\":692:695  x++ */\n      dup2\n      dup1\n      tag_72\n      swap1\n      tag_73\n      jump\t// in\n    tag_72:\n      swap3\n      pop\n      pop\n        /* \"DataStorage.sol\":611:704  if (dataSet[i].sensorId == givenId){... */\n    tag_61:\n        /* \"DataStorage.sol\":599:602  i++ */\n      dup1\n      dup1\n      tag_74\n      swap1\n      tag_73\n      jump\t// in\n    tag_74:\n      swap2\n      pop\n      pop\n        /* \"DataStorage.sol\":562:710  for (uint i = 0; i < dataSet.length; i++){... */\n      jump(tag_55)\n    tag_56:\n      pop\n        /* \"DataStorage.sol\":540:714  {... */\n      pop\n        /* \"DataStorage.sol\":453:714  function getAllDataBySensor(int givenId) view public returns (Data[] memory returnData){... */\n      swap2\n      swap1\n      pop\n      jump\t// out\n    tag_31:\n      mload(0x40)\n      dup1\n      0x60\n      add\n      0x40\n      mstore\n      dup1\n      0x00\n      dup2\n      mstore\n      0x20\n      add\n      0x60\n      dup2\n      mstore\n      0x20\n      add\n      0x00\n      dup2\n      mstore\n      pop\n      swap1\n      jump\t// out\n    tag_53:\n      dup3\n      dup1\n      sload\n      tag_75\n      swap1\n      tag_38\n      jump\t// in\n    tag_75:\n      swap1\n      0x00\n      mstore\n      keccak256(0x00, 0x20)\n      swap1\n      0x1f\n      add\n      0x20\n      swap1\n      div\n      dup2\n      add\n      swap3\n      dup3\n      tag_77\n      jumpi\n      0x00\n      dup6\n      sstore\n      jump(tag_76)\n    tag_77:\n      dup3\n      0x1f\n      lt\n      tag_78\n      jumpi\n      dup1\n      mload\n      not(0xff)\n      and\n      dup4\n      dup1\n      add\n      or\n      dup6\n      sstore\n      jump(tag_76)\n    tag_78:\n      dup3\n      dup1\n      add\n      0x01\n      add\n      dup6\n      sstore\n      dup3\n      iszero\n      tag_76\n      jumpi\n      swap2\n      dup3\n      add\n    tag_79:\n      dup3\n      dup2\n      gt\n      iszero\n      tag_80\n      jumpi\n      dup3\n      mload\n      dup3\n      sstore\n      swap2\n      0x20\n      add\n      swap2\n      swap1\n      0x01\n      add\n      swap1\n      jump(tag_79)\n    tag_80:\n    tag_76:\n      pop\n      swap1\n      pop\n      tag_81\n      swap2\n      swap1\n      tag_82\n      jump\t// in\n    tag_81:\n      pop\n      swap1\n      jump\t// out\n    tag_82:\n    tag_83:\n      dup1\n      dup3\n      gt\n      iszero\n      tag_84\n      jumpi\n      0x00\n      dup2\n      0x00\n      swap1\n      sstore\n      pop\n      0x01\n      add\n      jump(tag_83)\n    tag_84:\n      pop\n      swap1\n      jump\t// out\n        /* \"#utility.yul\":7:82   */\n    tag_85:\n        /* \"#utility.yul\":40:46   */\n      0x00\n        /* \"#utility.yul\":73:75   */\n      0x40\n        /* \"#utility.yul\":67:76   */\n      mload\n        /* \"#utility.yul\":57:76   */\n      swap1\n      pop\n        /* \"#utility.yul\":7:82   */\n      swap1\n      jump\t// out\n        /* \"#utility.yul\":88:205   */\n    tag_86:\n        /* \"#utility.yul\":197:198   */\n      0x00\n        /* \"#utility.yul\":194:195   */\n      dup1\n        /* \"#utility.yul\":187:199   */\n      revert\n        /* \"#utility.yul\":211:328   */\n    tag_87:\n        /* \"#utility.yul\":320:321   */\n      0x00\n        /* \"#utility.yul\":317:318   */\n      dup1\n        /* \"#utility.yul\":310:322   */\n      revert\n        /* \"#utility.yul\":334:411   */\n    tag_88:\n        /* \"#utility.yul\":371:378   */\n      0x00\n        /* \"#utility.yul\":400:405   */\n      dup2\n        /* \"#utility.yul\":389:405   */\n      swap1\n      pop\n        /* \"#utility.yul\":334:411   */\n      swap2\n      swap1\n      pop\n      jump\t// out\n        /* \"#utility.yul\":417:539   */\n    tag_89:\n        /* \"#utility.yul\":490:514   */\n      tag_128\n        /* \"#utility.yul\":508:513   */\n      dup2\n        /* \"#utility.yul\":490:514   */\n      tag_88\n      jump\t// in\n    tag_128:\n        /* \"#utility.yul\":483:488   */\n      dup2\n        /* \"#utility.yul\":480:515   */\n      eq\n        /* \"#utility.yul\":470:533   */\n      tag_129\n      jumpi\n        /* \"#utility.yul\":529:530   */\n      0x00\n        /* \"#utility.yul\":526:527   */\n      dup1\n        /* \"#utility.yul\":519:531   */\n      revert\n        /* \"#utility.yul\":470:533   */\n    tag_129:\n        /* \"#utility.yul\":417:539   */\n      pop\n      jump\t// out\n        /* \"#utility.yul\":545:684   */\n    tag_90:\n        /* \"#utility.yul\":591:596   */\n      0x00\n        /* \"#utility.yul\":629:635   */\n      dup2\n        /* \"#utility.yul\":616:636   */\n      calldataload\n        /* \"#utility.yul\":607:636   */\n      swap1\n      pop\n        /* \"#utility.yul\":645:678   */\n      tag_131\n        /* \"#utility.yul\":672:677   */\n      dup2\n        /* \"#utility.yul\":645:678   */\n      tag_89\n      jump\t// in\n    tag_131:\n        /* \"#utility.yul\":545:684   */\n      swap3\n      swap2\n      pop\n      pop\n      jump\t// out\n        /* \"#utility.yul\":690:1019   */\n    tag_9:\n        /* \"#utility.yul\":749:755   */\n      0x00\n        /* \"#utility.yul\":798:800   */\n      0x20\n        /* \"#utility.yul\":786:795   */\n      dup3\n        /* \"#utility.yul\":777:784   */\n      dup5\n        /* \"#utility.yul\":773:796   */\n      sub\n        /* \"#utility.yul\":769:801   */\n      slt\n        /* \"#utility.yul\":766:885   */\n      iszero\n      tag_133\n      jumpi\n        /* \"#utility.yul\":804:883   */\n      tag_134\n      tag_86\n      jump\t// in\n    tag_134:\n        /* \"#utility.yul\":766:885   */\n    tag_133:\n        /* \"#utility.yul\":924:925   */\n      0x00\n        /* \"#utility.yul\":949:1002   */\n      tag_135\n        /* \"#utility.yul\":994:1001   */\n      dup5\n        /* \"#utility.yul\":985:991   */\n      dup3\n        /* \"#utility.yul\":974:983   */\n      dup6\n        /* \"#utility.yul\":970:992   */\n      add\n        /* \"#utility.yul\":949:1002   */\n      tag_90\n      jump\t// in\n    tag_135:\n        /* \"#utility.yul\":939:1002   */\n      swap2\n      pop\n        /* \"#utility.yul\":895:1012   */\n      pop\n        /* \"#utility.yul\":690:1019   */\n      swap3\n      swap2\n      pop\n      pop\n      jump\t// out\n        /* \"#utility.yul\":1025:1101   */\n    tag_91:\n        /* \"#utility.yul\":1061:1068   */\n      0x00\n        /* \"#utility.yul\":1090:1095   */\n      dup2\n        /* \"#utility.yul\":1079:1095   */\n      swap1\n      pop\n        /* \"#utility.yul\":1025:1101   */\n      swap2\n      swap1\n      pop\n      jump\t// out\n        /* \"#utility.yul\":1107:1212   */\n    tag_92:\n        /* \"#utility.yul\":1182:1205   */\n      tag_138\n        /* \"#utility.yul\":1199:1204   */\n      dup2\n        /* \"#utility.yul\":1182:1205   */\n      tag_91\n      jump\t// in\n    tag_138:\n        /* \"#utility.yul\":1177:1180   */\n      dup3\n        /* \"#utility.yul\":1170:1206   */\n      mstore\n        /* \"#utility.yul\":1107:1212   */\n      pop\n      pop\n      jump\t// out\n        /* \"#utility.yul\":1218:1317   */\n    tag_93:\n        /* \"#utility.yul\":1270:1276   */\n      0x00\n        /* \"#utility.yul\":1304:1309   */\n      dup2\n        /* \"#utility.yul\":1298:1310   */\n      mload\n        /* \"#utility.yul\":1288:1310   */\n      swap1\n      pop\n        /* \"#utility.yul\":1218:1317   */\n      swap2\n      swap1\n      pop\n      jump\t// out\n        /* \"#utility.yul\":1323:1482   */\n    tag_94:\n        /* \"#utility.yul\":1397:1408   */\n      0x00\n        /* \"#utility.yul\":1431:1437   */\n      dup3\n        /* \"#utility.yul\":1426:1429   */\n      dup3\n        /* \"#utility.yul\":1419:1438   */\n      mstore\n        /* \"#utility.yul\":1471:1475   */\n      0x20\n        /* \"#utility.yul\":1466:1469   */\n      dup3\n        /* \"#utility.yul\":1462:1476   */\n      add\n        /* \"#utility.yul\":1447:1476   */\n      swap1\n      pop\n        /* \"#utility.yul\":1323:1482   */\n      swap3\n      swap2\n      pop\n      pop\n      jump\t// out\n        /* \"#utility.yul\":1488:1795   */\n    tag_95:\n        /* \"#utility.yul\":1556:1557   */\n      0x00\n        /* \"#utility.yul\":1566:1679   */\n    tag_142:\n        /* \"#utility.yul\":1580:1586   */\n      dup4\n        /* \"#utility.yul\":1577:1578   */\n      dup2\n        /* \"#utility.yul\":1574:1587   */\n      lt\n        /* \"#utility.yul\":1566:1679   */\n      iszero\n      tag_144\n      jumpi\n        /* \"#utility.yul\":1665:1666   */\n      dup1\n        /* \"#utility.yul\":1660:1663   */\n      dup3\n        /* \"#utility.yul\":1656:1667   */\n      add\n        /* \"#utility.yul\":1650:1668   */\n      mload\n        /* \"#utility.yul\":1646:1647   */\n      dup2\n        /* \"#utility.yul\":1641:1644   */\n      dup5\n        /* \"#utility.yul\":1637:1648   */\n      add\n        /* \"#utility.yul\":1630:1669   */\n      mstore\n        /* \"#utility.yul\":1602:1604   */\n      0x20\n        /* \"#utility.yul\":1599:1600   */\n      dup2\n        /* \"#utility.yul\":1595:1605   */\n      add\n        /* \"#utility.yul\":1590:1605   */\n      swap1\n      pop\n        /* \"#utility.yul\":1566:1679   */\n      jump(tag_142)\n    tag_144:\n        /* \"#utility.yul\":1697:1703   */\n      dup4\n        /* \"#utility.yul\":1694:1695   */\n      dup2\n        /* \"#utility.yul\":1691:1704   */\n      gt\n        /* \"#utility.yul\":1688:1789   */\n      iszero\n      tag_145\n      jumpi\n        /* \"#utility.yul\":1777:1778   */\n      0x00\n        /* \"#utility.yul\":1768:1774   */\n      dup5\n        /* \"#utility.yul\":1763:1766   */\n      dup5\n        /* \"#utility.yul\":1759:1775   */\n      add\n        /* \"#utility.yul\":1752:1779   */\n      mstore\n        /* \"#utility.yul\":1688:1789   */\n    tag_145:\n        /* \"#utility.yul\":1537:1795   */\n      pop\n        /* \"#utility.yul\":1488:1795   */\n      pop\n      pop\n      pop\n      jump\t// out\n        /* \"#utility.yul\":1801:1903   */\n    tag_96:\n        /* \"#utility.yul\":1842:1848   */\n      0x00\n        /* \"#utility.yul\":1893:1895   */\n      0x1f\n        /* \"#utility.yul\":1889:1896   */\n      not\n        /* \"#utility.yul\":1884:1886   */\n      0x1f\n        /* \"#utility.yul\":1877:1882   */\n      dup4\n        /* \"#utility.yul\":1873:1887   */\n      add\n        /* \"#utility.yul\":1869:1897   */\n      and\n        /* \"#utility.yul\":1859:1897   */\n      swap1\n      pop\n        /* \"#utility.yul\":1801:1903   */\n      swap2\n      swap1\n      pop\n      jump\t// out\n        /* \"#utility.yul\":1909:2253   */\n    tag_97:\n        /* \"#utility.yul\":1987:1990   */\n      0x00\n        /* \"#utility.yul\":2015:2054   */\n      tag_148\n        /* \"#utility.yul\":2048:2053   */\n      dup3\n        /* \"#utility.yul\":2015:2054   */\n      tag_93\n      jump\t// in\n    tag_148:\n        /* \"#utility.yul\":2070:2131   */\n      tag_149\n        /* \"#utility.yul\":2124:2130   */\n      dup2\n        /* \"#utility.yul\":2119:2122   */\n      dup6\n        /* \"#utility.yul\":2070:2131   */\n      tag_94\n      jump\t// in\n    tag_149:\n        /* \"#utility.yul\":2063:2131   */\n      swap4\n      pop\n        /* \"#utility.yul\":2140:2192   */\n      tag_150\n        /* \"#utility.yul\":2185:2191   */\n      dup2\n        /* \"#utility.yul\":2180:2183   */\n      dup6\n        /* \"#utility.yul\":2173:2177   */\n      0x20\n        /* \"#utility.yul\":2166:2171   */\n      dup7\n        /* \"#utility.yul\":2162:2178   */\n      add\n        /* \"#utility.yul\":2140:2192   */\n      tag_95\n      jump\t// in\n    tag_150:\n        /* \"#utility.yul\":2217:2246   */\n      tag_151\n        /* \"#utility.yul\":2239:2245   */\n      dup2\n        /* \"#utility.yul\":2217:2246   */\n      tag_96\n      jump\t// in\n    tag_151:\n        /* \"#utility.yul\":2212:2215   */\n      dup5\n        /* \"#utility.yul\":2208:2247   */\n      add\n        /* \"#utility.yul\":2201:2247   */\n      swap2\n      pop\n        /* \"#utility.yul\":1991:2253   */\n      pop\n        /* \"#utility.yul\":1909:2253   */\n      swap3\n      swap2\n      pop\n      pop\n      jump\t// out\n        /* \"#utility.yul\":2317:3093   */\n    tag_98:\n        /* \"#utility.yul\":2426:2429   */\n      0x00\n        /* \"#utility.yul\":2462:2466   */\n      0x60\n        /* \"#utility.yul\":2457:2460   */\n      dup4\n        /* \"#utility.yul\":2453:2467   */\n      add\n        /* \"#utility.yul\":2553:2557   */\n      0x00\n        /* \"#utility.yul\":2546:2551   */\n      dup4\n        /* \"#utility.yul\":2542:2558   */\n      add\n        /* \"#utility.yul\":2536:2559   */\n      mload\n        /* \"#utility.yul\":2572:2633   */\n      tag_153\n        /* \"#utility.yul\":2627:2631   */\n      0x00\n        /* \"#utility.yul\":2622:2625   */\n      dup7\n        /* \"#utility.yul\":2618:2632   */\n      add\n        /* \"#utility.yul\":2604:2616   */\n      dup3\n        /* \"#utility.yul\":2572:2633   */\n      tag_92\n      jump\t// in\n    tag_153:\n        /* \"#utility.yul\":2477:2643   */\n      pop\n        /* \"#utility.yul\":2730:2734   */\n      0x20\n        /* \"#utility.yul\":2723:2728   */\n      dup4\n        /* \"#utility.yul\":2719:2735   */\n      add\n        /* \"#utility.yul\":2713:2736   */\n      mload\n        /* \"#utility.yul\":2783:2786   */\n      dup5\n        /* \"#utility.yul\":2777:2781   */\n      dup3\n        /* \"#utility.yul\":2773:2787   */\n      sub\n        /* \"#utility.yul\":2766:2770   */\n      0x20\n        /* \"#utility.yul\":2761:2764   */\n      dup7\n        /* \"#utility.yul\":2757:2771   */\n      add\n        /* \"#utility.yul\":2750:2788   */\n      mstore\n        /* \"#utility.yul\":2809:2882   */\n      tag_154\n        /* \"#utility.yul\":2877:2881   */\n      dup3\n        /* \"#utility.yul\":2863:2875   */\n      dup3\n        /* \"#utility.yul\":2809:2882   */\n      tag_97\n      jump\t// in\n    tag_154:\n        /* \"#utility.yul\":2801:2882   */\n      swap2\n      pop\n        /* \"#utility.yul\":2653:2893   */\n      pop\n        /* \"#utility.yul\":2976:2980   */\n      0x40\n        /* \"#utility.yul\":2969:2974   */\n      dup4\n        /* \"#utility.yul\":2965:2981   */\n      add\n        /* \"#utility.yul\":2959:2982   */\n      mload\n        /* \"#utility.yul\":2995:3056   */\n      tag_155\n        /* \"#utility.yul\":3050:3054   */\n      0x40\n        /* \"#utility.yul\":3045:3048   */\n      dup7\n        /* \"#utility.yul\":3041:3055   */\n      add\n        /* \"#utility.yul\":3027:3039   */\n      dup3\n        /* \"#utility.yul\":2995:3056   */\n      tag_92\n      jump\t// in\n    tag_155:\n        /* \"#utility.yul\":2903:3066   */\n      pop\n        /* \"#utility.yul\":3083:3087   */\n      dup1\n        /* \"#utility.yul\":3076:3087   */\n      swap2\n      pop\n        /* \"#utility.yul\":2431:3093   */\n      pop\n        /* \"#utility.yul\":2317:3093   */\n      swap3\n      swap2\n      pop\n      pop\n      jump\t// out\n        /* \"#utility.yul\":3099:3452   */\n    tag_12:\n        /* \"#utility.yul\":3232:3236   */\n      0x00\n        /* \"#utility.yul\":3270:3272   */\n      0x20\n        /* \"#utility.yul\":3259:3268   */\n      dup3\n        /* \"#utility.yul\":3255:3273   */\n      add\n        /* \"#utility.yul\":3247:3273   */\n      swap1\n      pop\n        /* \"#utility.yul\":3319:3328   */\n      dup2\n        /* \"#utility.yul\":3313:3317   */\n      dup2\n        /* \"#utility.yul\":3309:3329   */\n      sub\n        /* \"#utility.yul\":3305:3306   */\n      0x00\n        /* \"#utility.yul\":3294:3303   */\n      dup4\n        /* \"#utility.yul\":3290:3307   */\n      add\n        /* \"#utility.yul\":3283:3330   */\n      mstore\n        /* \"#utility.yul\":3347:3445   */\n      tag_157\n        /* \"#utility.yul\":3440:3444   */\n      dup2\n        /* \"#utility.yul\":3431:3437   */\n      dup5\n        /* \"#utility.yul\":3347:3445   */\n      tag_98\n      jump\t// in\n    tag_157:\n        /* \"#utility.yul\":3339:3445   */\n      swap1\n      pop\n        /* \"#utility.yul\":3099:3452   */\n      swap3\n      swap2\n      pop\n      pop\n      jump\t// out\n        /* \"#utility.yul\":3458:3573   */\n    tag_99:\n        /* \"#utility.yul\":3543:3566   */\n      tag_159\n        /* \"#utility.yul\":3560:3565   */\n      dup2\n        /* \"#utility.yul\":3543:3566   */\n      tag_91\n      jump\t// in\n    tag_159:\n        /* \"#utility.yul\":3538:3541   */\n      dup3\n        /* \"#utility.yul\":3531:3567   */\n      mstore\n        /* \"#utility.yul\":3458:3573   */\n      pop\n      pop\n      jump\t// out\n        /* \"#utility.yul\":3579:3748   */\n    tag_100:\n        /* \"#utility.yul\":3663:3674   */\n      0x00\n        /* \"#utility.yul\":3697:3703   */\n      dup3\n        /* \"#utility.yul\":3692:3695   */\n      dup3\n        /* \"#utility.yul\":3685:3704   */\n      mstore\n        /* \"#utility.yul\":3737:3741   */\n      0x20\n        /* \"#utility.yul\":3732:3735   */\n      dup3\n        /* \"#utility.yul\":3728:3742   */\n      add\n        /* \"#utility.yul\":3713:3742   */\n      swap1\n      pop\n        /* \"#utility.yul\":3579:3748   */\n      swap3\n      swap2\n      pop\n      pop\n      jump\t// out\n        /* \"#utility.yul\":3754:4118   */\n    tag_101:\n        /* \"#utility.yul\":3842:3845   */\n      0x00\n        /* \"#utility.yul\":3870:3909   */\n      tag_162\n        /* \"#utility.yul\":3903:3908   */\n      dup3\n        /* \"#utility.yul\":3870:3909   */\n      tag_93\n      jump\t// in\n    tag_162:\n        /* \"#utility.yul\":3925:3996   */\n      tag_163\n        /* \"#utility.yul\":3989:3995   */\n      dup2\n        /* \"#utility.yul\":3984:3987   */\n      dup6\n        /* \"#utility.yul\":3925:3996   */\n      tag_100\n      jump\t// in\n    tag_163:\n        /* \"#utility.yul\":3918:3996   */\n      swap4\n      pop\n        /* \"#utility.yul\":4005:4057   */\n      tag_164\n        /* \"#utility.yul\":4050:4056   */\n      dup2\n        /* \"#utility.yul\":4045:4048   */\n      dup6\n        /* \"#utility.yul\":4038:4042   */\n      0x20\n        /* \"#utility.yul\":4031:4036   */\n      dup7\n        /* \"#utility.yul\":4027:4043   */\n      add\n        /* \"#utility.yul\":4005:4057   */\n      tag_95\n      jump\t// in\n    tag_164:\n        /* \"#utility.yul\":4082:4111   */\n      tag_165\n        /* \"#utility.yul\":4104:4110   */\n      dup2\n        /* \"#utility.yul\":4082:4111   */\n      tag_96\n      jump\t// in\n    tag_165:\n        /* \"#utility.yul\":4077:4080   */\n      dup5\n        /* \"#utility.yul\":4073:4112   */\n      add\n        /* \"#utility.yul\":4066:4112   */\n      swap2\n      pop\n        /* \"#utility.yul\":3846:4118   */\n      pop\n        /* \"#utility.yul\":3754:4118   */\n      swap3\n      swap2\n      pop\n      pop\n      jump\t// out\n        /* \"#utility.yul\":4124:4649   */\n    tag_18:\n        /* \"#utility.yul\":4289:4293   */\n      0x00\n        /* \"#utility.yul\":4327:4329   */\n      0x60\n        /* \"#utility.yul\":4316:4325   */\n      dup3\n        /* \"#utility.yul\":4312:4330   */\n      add\n        /* \"#utility.yul\":4304:4330   */\n      swap1\n      pop\n        /* \"#utility.yul\":4340:4409   */\n      tag_167\n        /* \"#utility.yul\":4406:4407   */\n      0x00\n        /* \"#utility.yul\":4395:4404   */\n      dup4\n        /* \"#utility.yul\":4391:4408   */\n      add\n        /* \"#utility.yul\":4382:4388   */\n      dup7\n        /* \"#utility.yul\":4340:4409   */\n      tag_99\n      jump\t// in\n    tag_167:\n        /* \"#utility.yul\":4456:4465   */\n      dup2\n        /* \"#utility.yul\":4450:4454   */\n      dup2\n        /* \"#utility.yul\":4446:4466   */\n      sub\n        /* \"#utility.yul\":4441:4443   */\n      0x20\n        /* \"#utility.yul\":4430:4439   */\n      dup4\n        /* \"#utility.yul\":4426:4444   */\n      add\n        /* \"#utility.yul\":4419:4467   */\n      mstore\n        /* \"#utility.yul\":4484:4562   */\n      tag_168\n        /* \"#utility.yul\":4557:4561   */\n      dup2\n        /* \"#utility.yul\":4548:4554   */\n      dup6\n        /* \"#utility.yul\":4484:4562   */\n      tag_101\n      jump\t// in\n    tag_168:\n        /* \"#utility.yul\":4476:4562   */\n      swap1\n      pop\n        /* \"#utility.yul\":4572:4642   */\n      tag_169\n        /* \"#utility.yul\":4638:4640   */\n      0x40\n        /* \"#utility.yul\":4627:4636   */\n      dup4\n        /* \"#utility.yul\":4623:4641   */\n      add\n        /* \"#utility.yul\":4614:4620   */\n      dup5\n        /* \"#utility.yul\":4572:4642   */\n      tag_99\n      jump\t// in\n    tag_169:\n        /* \"#utility.yul\":4124:4649   */\n      swap5\n      swap4\n      pop\n      pop\n      pop\n      pop\n      jump\t// out\n        /* \"#utility.yul\":4655:4775   */\n    tag_102:\n        /* \"#utility.yul\":4727:4750   */\n      tag_171\n        /* \"#utility.yul\":4744:4749   */\n      dup2\n        /* \"#utility.yul\":4727:4750   */\n      tag_91\n      jump\t// in\n    tag_171:\n        /* \"#utility.yul\":4720:4725   */\n      dup2\n        /* \"#utility.yul\":4717:4751   */\n      eq\n        /* \"#utility.yul\":4707:4769   */\n      tag_172\n      jumpi\n        /* \"#utility.yul\":4765:4766   */\n      0x00\n        /* \"#utility.yul\":4762:4763   */\n      dup1\n        /* \"#utility.yul\":4755:4767   */\n      revert\n        /* \"#utility.yul\":4707:4769   */\n    tag_172:\n        /* \"#utility.yul\":4655:4775   */\n      pop\n      jump\t// out\n        /* \"#utility.yul\":4781:4918   */\n    tag_103:\n        /* \"#utility.yul\":4826:4831   */\n      0x00\n        /* \"#utility.yul\":4864:4870   */\n      dup2\n        /* \"#utility.yul\":4851:4871   */\n      calldataload\n        /* \"#utility.yul\":4842:4871   */\n      swap1\n      pop\n        /* \"#utility.yul\":4880:4912   */\n      tag_174\n        /* \"#utility.yul\":4906:4911   */\n      dup2\n        /* \"#utility.yul\":4880:4912   */\n      tag_102\n      jump\t// in\n    tag_174:\n        /* \"#utility.yul\":4781:4918   */\n      swap3\n      swap2\n      pop\n      pop\n      jump\t// out\n        /* \"#utility.yul\":4924:5041   */\n    tag_104:\n        /* \"#utility.yul\":5033:5034   */\n      0x00\n        /* \"#utility.yul\":5030:5031   */\n      dup1\n        /* \"#utility.yul\":5023:5035   */\n      revert\n        /* \"#utility.yul\":5047:5164   */\n    tag_105:\n        /* \"#utility.yul\":5156:5157   */\n      0x00\n        /* \"#utility.yul\":5153:5154   */\n      dup1\n        /* \"#utility.yul\":5146:5158   */\n      revert\n        /* \"#utility.yul\":5170:5350   */\n    tag_106:\n        /* \"#utility.yul\":5218:5295   */\n      0x4e487b7100000000000000000000000000000000000000000000000000000000\n        /* \"#utility.yul\":5215:5216   */\n      0x00\n        /* \"#utility.yul\":5208:5296   */\n      mstore\n        /* \"#utility.yul\":5315:5319   */\n      0x41\n        /* \"#utility.yul\":5312:5313   */\n      0x04\n        /* \"#utility.yul\":5305:5320   */\n      mstore\n        /* \"#utility.yul\":5339:5343   */\n      0x24\n        /* \"#utility.yul\":5336:5337   */\n      0x00\n        /* \"#utility.yul\":5329:5344   */\n      revert\n        /* \"#utility.yul\":5356:5637   */\n    tag_107:\n        /* \"#utility.yul\":5439:5466   */\n      tag_179\n        /* \"#utility.yul\":5461:5465   */\n      dup3\n        /* \"#utility.yul\":5439:5466   */\n      tag_96\n      jump\t// in\n    tag_179:\n        /* \"#utility.yul\":5431:5437   */\n      dup2\n        /* \"#utility.yul\":5427:5467   */\n      add\n        /* \"#utility.yul\":5569:5575   */\n      dup2\n        /* \"#utility.yul\":5557:5567   */\n      dup2\n        /* \"#utility.yul\":5554:5576   */\n      lt\n        /* \"#utility.yul\":5533:5551   */\n      0xffffffffffffffff\n        /* \"#utility.yul\":5521:5531   */\n      dup3\n        /* \"#utility.yul\":5518:5552   */\n      gt\n        /* \"#utility.yul\":5515:5577   */\n      or\n        /* \"#utility.yul\":5512:5600   */\n      iszero\n      tag_180\n      jumpi\n        /* \"#utility.yul\":5580:5598   */\n      tag_181\n      tag_106\n      jump\t// in\n    tag_181:\n        /* \"#utility.yul\":5512:5600   */\n    tag_180:\n        /* \"#utility.yul\":5620:5630   */\n      dup1\n        /* \"#utility.yul\":5616:5618   */\n      0x40\n        /* \"#utility.yul\":5609:5631   */\n      mstore\n        /* \"#utility.yul\":5399:5637   */\n      pop\n        /* \"#utility.yul\":5356:5637   */\n      pop\n      pop\n      jump\t// out\n        /* \"#utility.yul\":5643:5772   */\n    tag_108:\n        /* \"#utility.yul\":5677:5683   */\n      0x00\n        /* \"#utility.yul\":5704:5724   */\n      tag_183\n      tag_85\n      jump\t// in\n    tag_183:\n        /* \"#utility.yul\":5694:5724   */\n      swap1\n      pop\n        /* \"#utility.yul\":5733:5766   */\n      tag_184\n        /* \"#utility.yul\":5761:5765   */\n      dup3\n        /* \"#utility.yul\":5753:5759   */\n      dup3\n        /* \"#utility.yul\":5733:5766   */\n      tag_107\n      jump\t// in\n    tag_184:\n        /* \"#utility.yul\":5643:5772   */\n      swap2\n      swap1\n      pop\n      jump\t// out\n        /* \"#utility.yul\":5778:6086   */\n    tag_109:\n        /* \"#utility.yul\":5840:5844   */\n      0x00\n        /* \"#utility.yul\":5930:5948   */\n      0xffffffffffffffff\n        /* \"#utility.yul\":5922:5928   */\n      dup3\n        /* \"#utility.yul\":5919:5949   */\n      gt\n        /* \"#utility.yul\":5916:5972   */\n      iszero\n      tag_186\n      jumpi\n        /* \"#utility.yul\":5952:5970   */\n      tag_187\n      tag_106\n      jump\t// in\n    tag_187:\n        /* \"#utility.yul\":5916:5972   */\n    tag_186:\n        /* \"#utility.yul\":5990:6019   */\n      tag_188\n        /* \"#utility.yul\":6012:6018   */\n      dup3\n        /* \"#utility.yul\":5990:6019   */\n      tag_96\n      jump\t// in\n    tag_188:\n        /* \"#utility.yul\":5982:6019   */\n      swap1\n      pop\n        /* \"#utility.yul\":6074:6078   */\n      0x20\n        /* \"#utility.yul\":6068:6072   */\n      dup2\n        /* \"#utility.yul\":6064:6079   */\n      add\n        /* \"#utility.yul\":6056:6079   */\n      swap1\n      pop\n        /* \"#utility.yul\":5778:6086   */\n      swap2\n      swap1\n      pop\n      jump\t// out\n        /* \"#utility.yul\":6092:6246   */\n    tag_110:\n        /* \"#utility.yul\":6176:6182   */\n      dup3\n        /* \"#utility.yul\":6171:6174   */\n      dup2\n        /* \"#utility.yul\":6166:6169   */\n      dup4\n        /* \"#utility.yul\":6153:6183   */\n      calldatacopy\n        /* \"#utility.yul\":6238:6239   */\n      0x00\n        /* \"#utility.yul\":6229:6235   */\n      dup4\n        /* \"#utility.yul\":6224:6227   */\n      dup4\n        /* \"#utility.yul\":6220:6236   */\n      add\n        /* \"#utility.yul\":6213:6240   */\n      mstore\n        /* \"#utility.yul\":6092:6246   */\n      pop\n      pop\n      pop\n      jump\t// out\n        /* \"#utility.yul\":6252:6664   */\n    tag_111:\n        /* \"#utility.yul\":6330:6335   */\n      0x00\n        /* \"#utility.yul\":6355:6421   */\n      tag_191\n        /* \"#utility.yul\":6371:6420   */\n      tag_192\n        /* \"#utility.yul\":6413:6419   */\n      dup5\n        /* \"#utility.yul\":6371:6420   */\n      tag_109\n      jump\t// in\n    tag_192:\n        /* \"#utility.yul\":6355:6421   */\n      tag_108\n      jump\t// in\n    tag_191:\n        /* \"#utility.yul\":6346:6421   */\n      swap1\n      pop\n        /* \"#utility.yul\":6444:6450   */\n      dup3\n        /* \"#utility.yul\":6437:6442   */\n      dup2\n        /* \"#utility.yul\":6430:6451   */\n      mstore\n        /* \"#utility.yul\":6482:6486   */\n      0x20\n        /* \"#utility.yul\":6475:6480   */\n      dup2\n        /* \"#utility.yul\":6471:6487   */\n      add\n        /* \"#utility.yul\":6520:6523   */\n      dup5\n        /* \"#utility.yul\":6511:6517   */\n      dup5\n        /* \"#utility.yul\":6506:6509   */\n      dup5\n        /* \"#utility.yul\":6502:6518   */\n      add\n        /* \"#utility.yul\":6499:6524   */\n      gt\n        /* \"#utility.yul\":6496:6608   */\n      iszero\n      tag_193\n      jumpi\n        /* \"#utility.yul\":6527:6606   */\n      tag_194\n      tag_105\n      jump\t// in\n    tag_194:\n        /* \"#utility.yul\":6496:6608   */\n    tag_193:\n        /* \"#utility.yul\":6617:6658   */\n      tag_195\n        /* \"#utility.yul\":6651:6657   */\n      dup5\n        /* \"#utility.yul\":6646:6649   */\n      dup3\n        /* \"#utility.yul\":6641:6644   */\n      dup6\n        /* \"#utility.yul\":6617:6658   */\n      tag_110\n      jump\t// in\n    tag_195:\n        /* \"#utility.yul\":6336:6664   */\n      pop\n        /* \"#utility.yul\":6252:6664   */\n      swap4\n      swap3\n      pop\n      pop\n      pop\n      jump\t// out\n        /* \"#utility.yul\":6684:7024   */\n    tag_112:\n        /* \"#utility.yul\":6740:6745   */\n      0x00\n        /* \"#utility.yul\":6789:6792   */\n      dup3\n        /* \"#utility.yul\":6782:6786   */\n      0x1f\n        /* \"#utility.yul\":6774:6780   */\n      dup4\n        /* \"#utility.yul\":6770:6787   */\n      add\n        /* \"#utility.yul\":6766:6793   */\n      slt\n        /* \"#utility.yul\":6756:6878   */\n      tag_197\n      jumpi\n        /* \"#utility.yul\":6797:6876   */\n      tag_198\n      tag_104\n      jump\t// in\n    tag_198:\n        /* \"#utility.yul\":6756:6878   */\n    tag_197:\n        /* \"#utility.yul\":6914:6920   */\n      dup2\n        /* \"#utility.yul\":6901:6921   */\n      calldataload\n        /* \"#utility.yul\":6939:7018   */\n      tag_199\n        /* \"#utility.yul\":7014:7017   */\n      dup5\n        /* \"#utility.yul\":7006:7012   */\n      dup3\n        /* \"#utility.yul\":6999:7003   */\n      0x20\n        /* \"#utility.yul\":6991:6997   */\n      dup7\n        /* \"#utility.yul\":6987:7004   */\n      add\n        /* \"#utility.yul\":6939:7018   */\n      tag_111\n      jump\t// in\n    tag_199:\n        /* \"#utility.yul\":6930:7018   */\n      swap2\n      pop\n        /* \"#utility.yul\":6746:7024   */\n      pop\n        /* \"#utility.yul\":6684:7024   */\n      swap3\n      swap2\n      pop\n      pop\n      jump\t// out\n        /* \"#utility.yul\":7030:7825   */\n    tag_21:\n        /* \"#utility.yul\":7115:7121   */\n      0x00\n        /* \"#utility.yul\":7123:7129   */\n      dup1\n        /* \"#utility.yul\":7131:7137   */\n      0x00\n        /* \"#utility.yul\":7180:7182   */\n      0x60\n        /* \"#utility.yul\":7168:7177   */\n      dup5\n        /* \"#utility.yul\":7159:7166   */\n      dup7\n        /* \"#utility.yul\":7155:7178   */\n      sub\n        /* \"#utility.yul\":7151:7183   */\n      slt\n        /* \"#utility.yul\":7148:7267   */\n      iszero\n      tag_201\n      jumpi\n        /* \"#utility.yul\":7186:7265   */\n      tag_202\n      tag_86\n      jump\t// in\n    tag_202:\n        /* \"#utility.yul\":7148:7267   */\n    tag_201:\n        /* \"#utility.yul\":7306:7307   */\n      0x00\n        /* \"#utility.yul\":7331:7383   */\n      tag_203\n        /* \"#utility.yul\":7375:7382   */\n      dup7\n        /* \"#utility.yul\":7366:7372   */\n      dup3\n        /* \"#utility.yul\":7355:7364   */\n      dup8\n        /* \"#utility.yul\":7351:7373   */\n      add\n        /* \"#utility.yul\":7331:7383   */\n      tag_103\n      jump\t// in\n    tag_203:\n        /* \"#utility.yul\":7321:7383   */\n      swap4\n      pop\n        /* \"#utility.yul\":7277:7393   */\n      pop\n        /* \"#utility.yul\":7460:7462   */\n      0x20\n        /* \"#utility.yul\":7449:7458   */\n      dup5\n        /* \"#utility.yul\":7445:7463   */\n      add\n        /* \"#utility.yul\":7432:7464   */\n      calldataload\n        /* \"#utility.yul\":7491:7509   */\n      0xffffffffffffffff\n        /* \"#utility.yul\":7483:7489   */\n      dup2\n        /* \"#utility.yul\":7480:7510   */\n      gt\n        /* \"#utility.yul\":7477:7594   */\n      iszero\n      tag_204\n      jumpi\n        /* \"#utility.yul\":7513:7592   */\n      tag_205\n      tag_87\n      jump\t// in\n    tag_205:\n        /* \"#utility.yul\":7477:7594   */\n    tag_204:\n        /* \"#utility.yul\":7618:7681   */\n      tag_206\n        /* \"#utility.yul\":7673:7680   */\n      dup7\n        /* \"#utility.yul\":7664:7670   */\n      dup3\n        /* \"#utility.yul\":7653:7662   */\n      dup8\n        /* \"#utility.yul\":7649:7671   */\n      add\n        /* \"#utility.yul\":7618:7681   */\n      tag_112\n      jump\t// in\n    tag_206:\n        /* \"#utility.yul\":7608:7681   */\n      swap3\n      pop\n        /* \"#utility.yul\":7403:7691   */\n      pop\n        /* \"#utility.yul\":7730:7732   */\n      0x40\n        /* \"#utility.yul\":7756:7808   */\n      tag_207\n        /* \"#utility.yul\":7800:7807   */\n      dup7\n        /* \"#utility.yul\":7791:7797   */\n      dup3\n        /* \"#utility.yul\":7780:7789   */\n      dup8\n        /* \"#utility.yul\":7776:7798   */\n      add\n        /* \"#utility.yul\":7756:7808   */\n      tag_103\n      jump\t// in\n    tag_207:\n        /* \"#utility.yul\":7746:7808   */\n      swap2\n      pop\n        /* \"#utility.yul\":7701:7818   */\n      pop\n        /* \"#utility.yul\":7030:7825   */\n      swap3\n      pop\n      swap3\n      pop\n      swap3\n      jump\t// out\n        /* \"#utility.yul\":7831:8158   */\n    tag_26:\n        /* \"#utility.yul\":7889:7895   */\n      0x00\n        /* \"#utility.yul\":7938:7940   */\n      0x20\n        /* \"#utility.yul\":7926:7935   */\n      dup3\n        /* \"#utility.yul\":7917:7924   */\n      dup5\n        /* \"#utility.yul\":7913:7936   */\n      sub\n        /* \"#utility.yul\":7909:7941   */\n      slt\n        /* \"#utility.yul\":7906:8025   */\n      iszero\n      tag_209\n      jumpi\n        /* \"#utility.yul\":7944:8023   */\n      tag_210\n      tag_86\n      jump\t// in\n    tag_210:\n        /* \"#utility.yul\":7906:8025   */\n    tag_209:\n        /* \"#utility.yul\":8064:8065   */\n      0x00\n        /* \"#utility.yul\":8089:8141   */\n      tag_211\n        /* \"#utility.yul\":8133:8140   */\n      dup5\n        /* \"#utility.yul\":8124:8130   */\n      dup3\n        /* \"#utility.yul\":8113:8122   */\n      dup6\n        /* \"#utility.yul\":8109:8131   */\n      add\n        /* \"#utility.yul\":8089:8141   */\n      tag_103\n      jump\t// in\n    tag_211:\n        /* \"#utility.yul\":8079:8141   */\n      swap2\n      pop\n        /* \"#utility.yul\":8035:8151   */\n      pop\n        /* \"#utility.yul\":7831:8158   */\n      swap3\n      swap2\n      pop\n      pop\n      jump\t// out\n        /* \"#utility.yul\":8164:8298   */\n    tag_113:\n        /* \"#utility.yul\":8251:8257   */\n      0x00\n        /* \"#utility.yul\":8285:8290   */\n      dup2\n        /* \"#utility.yul\":8279:8291   */\n      mload\n        /* \"#utility.yul\":8269:8291   */\n      swap1\n      pop\n        /* \"#utility.yul\":8164:8298   */\n      swap2\n      swap1\n      pop\n      jump\t// out\n        /* \"#utility.yul\":8304:8508   */\n    tag_114:\n        /* \"#utility.yul\":8423:8434   */\n      0x00\n        /* \"#utility.yul\":8457:8463   */\n      dup3\n        /* \"#utility.yul\":8452:8455   */\n      dup3\n        /* \"#utility.yul\":8445:8464   */\n      mstore\n        /* \"#utility.yul\":8497:8501   */\n      0x20\n        /* \"#utility.yul\":8492:8495   */\n      dup3\n        /* \"#utility.yul\":8488:8502   */\n      add\n        /* \"#utility.yul\":8473:8502   */\n      swap1\n      pop\n        /* \"#utility.yul\":8304:8508   */\n      swap3\n      swap2\n      pop\n      pop\n      jump\t// out\n        /* \"#utility.yul\":8514:8666   */\n    tag_115:\n        /* \"#utility.yul\":8601:8605   */\n      0x00\n        /* \"#utility.yul\":8624:8627   */\n      dup2\n        /* \"#utility.yul\":8616:8627   */\n      swap1\n      pop\n        /* \"#utility.yul\":8654:8658   */\n      0x20\n        /* \"#utility.yul\":8649:8652   */\n      dup3\n        /* \"#utility.yul\":8645:8659   */\n      add\n        /* \"#utility.yul\":8637:8659   */\n      swap1\n      pop\n        /* \"#utility.yul\":8514:8666   */\n      swap2\n      swap1\n      pop\n      jump\t// out\n        /* \"#utility.yul\":8730:9496   */\n    tag_116:\n        /* \"#utility.yul\":8829:8832   */\n      0x00\n        /* \"#utility.yul\":8865:8869   */\n      0x60\n        /* \"#utility.yul\":8860:8863   */\n      dup4\n        /* \"#utility.yul\":8856:8870   */\n      add\n        /* \"#utility.yul\":8956:8960   */\n      0x00\n        /* \"#utility.yul\":8949:8954   */\n      dup4\n        /* \"#utility.yul\":8945:8961   */\n      add\n        /* \"#utility.yul\":8939:8962   */\n      mload\n        /* \"#utility.yul\":8975:9036   */\n      tag_216\n        /* \"#utility.yul\":9030:9034   */\n      0x00\n        /* \"#utility.yul\":9025:9028   */\n      dup7\n        /* \"#utility.yul\":9021:9035   */\n      add\n        /* \"#utility.yul\":9007:9019   */\n      dup3\n        /* \"#utility.yul\":8975:9036   */\n      tag_92\n      jump\t// in\n    tag_216:\n        /* \"#utility.yul\":8880:9046   */\n      pop\n        /* \"#utility.yul\":9133:9137   */\n      0x20\n        /* \"#utility.yul\":9126:9131   */\n      dup4\n        /* \"#utility.yul\":9122:9138   */\n      add\n        /* \"#utility.yul\":9116:9139   */\n      mload\n        /* \"#utility.yul\":9186:9189   */\n      dup5\n        /* \"#utility.yul\":9180:9184   */\n      dup3\n        /* \"#utility.yul\":9176:9190   */\n      sub\n        /* \"#utility.yul\":9169:9173   */\n      0x20\n        /* \"#utility.yul\":9164:9167   */\n      dup7\n        /* \"#utility.yul\":9160:9174   */\n      add\n        /* \"#utility.yul\":9153:9191   */\n      mstore\n        /* \"#utility.yul\":9212:9285   */\n      tag_217\n        /* \"#utility.yul\":9280:9284   */\n      dup3\n        /* \"#utility.yul\":9266:9278   */\n      dup3\n        /* \"#utility.yul\":9212:9285   */\n      tag_97\n      jump\t// in\n    tag_217:\n        /* \"#utility.yul\":9204:9285   */\n      swap2\n      pop\n        /* \"#utility.yul\":9056:9296   */\n      pop\n        /* \"#utility.yul\":9379:9383   */\n      0x40\n        /* \"#utility.yul\":9372:9377   */\n      dup4\n        /* \"#utility.yul\":9368:9384   */\n      add\n        /* \"#utility.yul\":9362:9385   */\n      mload\n        /* \"#utility.yul\":9398:9459   */\n      tag_218\n        /* \"#utility.yul\":9453:9457   */\n      0x40\n        /* \"#utility.yul\":9448:9451   */\n      dup7\n        /* \"#utility.yul\":9444:9458   */\n      add\n        /* \"#utility.yul\":9430:9442   */\n      dup3\n        /* \"#utility.yul\":9398:9459   */\n      tag_92\n      jump\t// in\n    tag_218:\n        /* \"#utility.yul\":9306:9469   */\n      pop\n        /* \"#utility.yul\":9486:9490   */\n      dup1\n        /* \"#utility.yul\":9479:9490   */\n      swap2\n      pop\n        /* \"#utility.yul\":8834:9496   */\n      pop\n        /* \"#utility.yul\":8730:9496   */\n      swap3\n      swap2\n      pop\n      pop\n      jump\t// out\n        /* \"#utility.yul\":9502:9738   */\n    tag_117:\n        /* \"#utility.yul\":9611:9621   */\n      0x00\n        /* \"#utility.yul\":9646:9732   */\n      tag_220\n        /* \"#utility.yul\":9728:9731   */\n      dup4\n        /* \"#utility.yul\":9720:9726   */\n      dup4\n        /* \"#utility.yul\":9646:9732   */\n      tag_116\n      jump\t// in\n    tag_220:\n        /* \"#utility.yul\":9632:9732   */\n      swap1\n      pop\n        /* \"#utility.yul\":9502:9738   */\n      swap3\n      swap2\n      pop\n      pop\n      jump\t// out\n        /* \"#utility.yul\":9744:9877   */\n    tag_118:\n        /* \"#utility.yul\":9834:9838   */\n      0x00\n        /* \"#utility.yul\":9866:9870   */\n      0x20\n        /* \"#utility.yul\":9861:9864   */\n      dup3\n        /* \"#utility.yul\":9857:9871   */\n      add\n        /* \"#utility.yul\":9849:9871   */\n      swap1\n      pop\n        /* \"#utility.yul\":9744:9877   */\n      swap2\n      swap1\n      pop\n      jump\t// out\n        /* \"#utility.yul\":9945:11016   */\n    tag_119:\n        /* \"#utility.yul\":10104:10107   */\n      0x00\n        /* \"#utility.yul\":10133:10207   */\n      tag_223\n        /* \"#utility.yul\":10201:10206   */\n      dup3\n        /* \"#utility.yul\":10133:10207   */\n      tag_113\n      jump\t// in\n    tag_223:\n        /* \"#utility.yul\":10223:10329   */\n      tag_224\n        /* \"#utility.yul\":10322:10328   */\n      dup2\n        /* \"#utility.yul\":10317:10320   */\n      dup6\n        /* \"#utility.yul\":10223:10329   */\n      tag_114\n      jump\t// in\n    tag_224:\n        /* \"#utility.yul\":10216:10329   */\n      swap4\n      pop\n        /* \"#utility.yul\":10355:10358   */\n      dup4\n        /* \"#utility.yul\":10400:10404   */\n      0x20\n        /* \"#utility.yul\":10392:10398   */\n      dup3\n        /* \"#utility.yul\":10388:10405   */\n      mul\n        /* \"#utility.yul\":10383:10386   */\n      dup6\n        /* \"#utility.yul\":10379:10406   */\n      add\n        /* \"#utility.yul\":10430:10506   */\n      tag_225\n        /* \"#utility.yul\":10500:10505   */\n      dup6\n        /* \"#utility.yul\":10430:10506   */\n      tag_115\n      jump\t// in\n    tag_225:\n        /* \"#utility.yul\":10529:10536   */\n      dup1\n        /* \"#utility.yul\":10560:10561   */\n      0x00\n        /* \"#utility.yul\":10545:10971   */\n    tag_226:\n        /* \"#utility.yul\":10570:10576   */\n      dup6\n        /* \"#utility.yul\":10567:10568   */\n      dup2\n        /* \"#utility.yul\":10564:10577   */\n      lt\n        /* \"#utility.yul\":10545:10971   */\n      iszero\n      tag_228\n      jumpi\n        /* \"#utility.yul\":10641:10650   */\n      dup5\n        /* \"#utility.yul\":10635:10639   */\n      dup5\n        /* \"#utility.yul\":10631:10651   */\n      sub\n        /* \"#utility.yul\":10626:10629   */\n      dup10\n        /* \"#utility.yul\":10619:10652   */\n      mstore\n        /* \"#utility.yul\":10692:10698   */\n      dup2\n        /* \"#utility.yul\":10686:10699   */\n      mload\n        /* \"#utility.yul\":10720:10824   */\n      tag_229\n        /* \"#utility.yul\":10819:10823   */\n      dup6\n        /* \"#utility.yul\":10804:10817   */\n      dup3\n        /* \"#utility.yul\":10720:10824   */\n      tag_117\n      jump\t// in\n    tag_229:\n        /* \"#utility.yul\":10712:10824   */\n      swap5\n      pop\n        /* \"#utility.yul\":10847:10927   */\n      tag_230\n        /* \"#utility.yul\":10920:10926   */\n      dup4\n        /* \"#utility.yul\":10847:10927   */\n      tag_118\n      jump\t// in\n    tag_230:\n        /* \"#utility.yul\":10837:10927   */\n      swap3\n      pop\n        /* \"#utility.yul\":10956:10960   */\n      0x20\n        /* \"#utility.yul\":10951:10954   */\n      dup11\n        /* \"#utility.yul\":10947:10961   */\n      add\n        /* \"#utility.yul\":10940:10961   */\n      swap10\n      pop\n        /* \"#utility.yul\":10605:10971   */\n      pop\n        /* \"#utility.yul\":10592:10593   */\n      0x01\n        /* \"#utility.yul\":10589:10590   */\n      dup2\n        /* \"#utility.yul\":10585:10594   */\n      add\n        /* \"#utility.yul\":10580:10594   */\n      swap1\n      pop\n        /* \"#utility.yul\":10545:10971   */\n      jump(tag_226)\n    tag_228:\n        /* \"#utility.yul\":10549:10563   */\n      pop\n        /* \"#utility.yul\":10987:10991   */\n      dup3\n        /* \"#utility.yul\":10980:10991   */\n      swap8\n      pop\n        /* \"#utility.yul\":11007:11010   */\n      dup8\n        /* \"#utility.yul\":11000:11010   */\n      swap6\n      pop\n        /* \"#utility.yul\":10109:11016   */\n      pop\n      pop\n      pop\n      pop\n      pop\n        /* \"#utility.yul\":9945:11016   */\n      swap3\n      swap2\n      pop\n      pop\n      jump\t// out\n        /* \"#utility.yul\":11022:11475   */\n    tag_29:\n        /* \"#utility.yul\":11205:11209   */\n      0x00\n        /* \"#utility.yul\":11243:11245   */\n      0x20\n        /* \"#utility.yul\":11232:11241   */\n      dup3\n        /* \"#utility.yul\":11228:11246   */\n      add\n        /* \"#utility.yul\":11220:11246   */\n      swap1\n      pop\n        /* \"#utility.yul\":11292:11301   */\n      dup2\n        /* \"#utility.yul\":11286:11290   */\n      dup2\n        /* \"#utility.yul\":11282:11302   */\n      sub\n        /* \"#utility.yul\":11278:11279   */\n      0x00\n        /* \"#utility.yul\":11267:11276   */\n      dup4\n        /* \"#utility.yul\":11263:11280   */\n      add\n        /* \"#utility.yul\":11256:11303   */\n      mstore\n        /* \"#utility.yul\":11320:11468   */\n      tag_232\n        /* \"#utility.yul\":11463:11467   */\n      dup2\n        /* \"#utility.yul\":11454:11460   */\n      dup5\n        /* \"#utility.yul\":11320:11468   */\n      tag_119\n      jump\t// in\n    tag_232:\n        /* \"#utility.yul\":11312:11468   */\n      swap1\n      pop\n        /* \"#utility.yul\":11022:11475   */\n      swap3\n      swap2\n      pop\n      pop\n      jump\t// out\n        /* \"#utility.yul\":11481:11661   */\n    tag_35:\n        /* \"#utility.yul\":11529:11606   */\n      0x4e487b7100000000000000000000000000000000000000000000000000000000\n        /* \"#utility.yul\":11526:11527   */\n      0x00\n        /* \"#utility.yul\":11519:11607   */\n      mstore\n        /* \"#utility.yul\":11626:11630   */\n      0x32\n        /* \"#utility.yul\":11623:11624   */\n      0x04\n        /* \"#utility.yul\":11616:11631   */\n      mstore\n        /* \"#utility.yul\":11650:11654   */\n      0x24\n        /* \"#utility.yul\":11647:11648   */\n      0x00\n        /* \"#utility.yul\":11640:11655   */\n      revert\n        /* \"#utility.yul\":11667:11847   */\n    tag_120:\n        /* \"#utility.yul\":11715:11792   */\n      0x4e487b7100000000000000000000000000000000000000000000000000000000\n        /* \"#utility.yul\":11712:11713   */\n      0x00\n        /* \"#utility.yul\":11705:11793   */\n      mstore\n        /* \"#utility.yul\":11812:11816   */\n      0x22\n        /* \"#utility.yul\":11809:11810   */\n      0x04\n        /* \"#utility.yul\":11802:11817   */\n      mstore\n        /* \"#utility.yul\":11836:11840   */\n      0x24\n        /* \"#utility.yul\":11833:11834   */\n      0x00\n        /* \"#utility.yul\":11826:11841   */\n      revert\n        /* \"#utility.yul\":11853:12173   */\n    tag_38:\n        /* \"#utility.yul\":11897:11903   */\n      0x00\n        /* \"#utility.yul\":11934:11935   */\n      0x02\n        /* \"#utility.yul\":11928:11932   */\n      dup3\n        /* \"#utility.yul\":11924:11936   */\n      div\n        /* \"#utility.yul\":11914:11936   */\n      swap1\n      pop\n        /* \"#utility.yul\":11981:11982   */\n      0x01\n        /* \"#utility.yul\":11975:11979   */\n      dup3\n        /* \"#utility.yul\":11971:11983   */\n      and\n        /* \"#utility.yul\":12002:12020   */\n      dup1\n        /* \"#utility.yul\":11992:12073   */\n      tag_236\n      jumpi\n        /* \"#utility.yul\":12058:12062   */\n      0x7f\n        /* \"#utility.yul\":12050:12056   */\n      dup3\n        /* \"#utility.yul\":12046:12063   */\n      and\n        /* \"#utility.yul\":12036:12063   */\n      swap2\n      pop\n        /* \"#utility.yul\":11992:12073   */\n    tag_236:\n        /* \"#utility.yul\":12120:12122   */\n      0x20\n        /* \"#utility.yul\":12112:12118   */\n      dup3\n        /* \"#utility.yul\":12109:12123   */\n      lt\n        /* \"#utility.yul\":12089:12107   */\n      dup2\n        /* \"#utility.yul\":12086:12124   */\n      sub\n        /* \"#utility.yul\":12083:12167   */\n      tag_237\n      jumpi\n        /* \"#utility.yul\":12139:12157   */\n      tag_238\n      tag_120\n      jump\t// in\n    tag_238:\n        /* \"#utility.yul\":12083:12167   */\n    tag_237:\n        /* \"#utility.yul\":11904:12173   */\n      pop\n        /* \"#utility.yul\":11853:12173   */\n      swap2\n      swap1\n      pop\n      jump\t// out\n        /* \"#utility.yul\":12179:12359   */\n    tag_121:\n        /* \"#utility.yul\":12227:12304   */\n      0x4e487b7100000000000000000000000000000000000000000000000000000000\n        /* \"#utility.yul\":12224:12225   */\n      0x00\n        /* \"#utility.yul\":12217:12305   */\n      mstore\n        /* \"#utility.yul\":12324:12328   */\n      0x11\n        /* \"#utility.yul\":12321:12322   */\n      0x04\n        /* \"#utility.yul\":12314:12329   */\n      mstore\n        /* \"#utility.yul\":12348:12352   */\n      0x24\n        /* \"#utility.yul\":12345:12346   */\n      0x00\n        /* \"#utility.yul\":12338:12353   */\n      revert\n        /* \"#utility.yul\":12365:12598   */\n    tag_73:\n        /* \"#utility.yul\":12404:12407   */\n      0x00\n        /* \"#utility.yul\":12427:12451   */\n      tag_241\n        /* \"#utility.yul\":12445:12450   */\n      dup3\n        /* \"#utility.yul\":12427:12451   */\n      tag_88\n      jump\t// in\n    tag_241:\n        /* \"#utility.yul\":12418:12451   */\n      swap2\n      pop\n        /* \"#utility.yul\":12473:12539   */\n      0xffffffffffffffffffffffffffffffffffffffffffffffffffffffffffffffff\n        /* \"#utility.yul\":12466:12471   */\n      dup3\n        /* \"#utility.yul\":12463:12540   */\n      sub\n        /* \"#utility.yul\":12460:12563   */\n      tag_242\n      jumpi\n        /* \"#utility.yul\":12543:12561   */\n      tag_243\n      tag_121\n      jump\t// in\n    tag_243:\n        /* \"#utility.yul\":12460:12563   */\n    tag_242:\n        /* \"#utility.yul\":12590:12591   */\n      0x01\n        /* \"#utility.yul\":12583:12588   */\n      dup3\n        /* \"#utility.yul\":12579:12592   */\n      add\n        /* \"#utility.yul\":12572:12592   */\n      swap1\n      pop\n        /* \"#utility.yul\":12365:12598   */\n      swap2\n      swap1\n      pop\n      jump\t// out\n\n    auxdata: 0xa26469706673582212200bc242fd243a7622553afeb3bdf195cb5d110d2c477f3c8a8bd3a4c3c8b14d1664736f6c634300080d0033\n}\n",
				"bytecode": {
					"linkReferences": {},
					"object": "608060405234801561001057600080fd5b50610bf7806100206000396000f3fe60806040526004361061003f5760003560e01c80630178fe3f146100445780634a96d170146100815780634cfe187f146100c0578063bdd1805d146100dc575b600080fd5b34801561005057600080fd5b5061006b600480360381019061006691906105a2565b610119565b60405161007891906106d1565b60405180910390f35b34801561008d57600080fd5b506100a860048036038101906100a391906105a2565b6101fb565b6040516100b79392919061074c565b60405180910390f35b6100da60048036038101906100d591906108eb565b6102bd565b005b3480156100e857600080fd5b5061010360048036038101906100fe919061095a565b61033b565b6040516101109190610a99565b60405180910390f35b610121610494565b6000828154811061013557610134610abb565b5b90600052602060002090600302016040518060600160405290816000820154815260200160018201805461016890610b19565b80601f016020809104026020016040519081016040528092919081815260200182805461019490610b19565b80156101e15780601f106101b6576101008083540402835291602001916101e1565b820191906000526020600020905b8154815290600101906020018083116101c457829003601f168201915b505050505081526020016002820154815250509050919050565b6000818154811061020b57600080fd5b906000526020600020906003020160009150905080600001549080600101805461023490610b19565b80601f016020809104026020016040519081016040528092919081815260200182805461026090610b19565b80156102ad5780601f10610282576101008083540402835291602001916102ad565b820191906000526020600020905b81548152906001019060200180831161029057829003601f168201915b5050505050908060020154905083565b600060405180606001604052808581526020018481526020018381525090806001815401808255809150506001900390600052602060002090600302016000909190919091506000820151816000015560208201518160010190805190602001906103299291906104b5565b50604082015181600201555050505050565b60606000805b60008054905081101561048d57836000828154811061036357610362610abb565b5b9060005260206000209060030201600001540361047a576000818154811061038e5761038d610abb565b5b9060005260206000209060030201604051806060016040529081600082015481526020016001820180546103c190610b19565b80601f01602080910402602001604051908101604052809291908181526020018280546103ed90610b19565b801561043a5780601f1061040f5761010080835404028352916020019161043a565b820191906000526020600020905b81548152906001019060200180831161041d57829003601f168201915b505050505081526020016002820154815250508383815181106104605761045f610abb565b5b6020026020010181905250818061047690610b79565b9250505b808061048590610b79565b915050610341565b5050919050565b60405180606001604052806000815260200160608152602001600081525090565b8280546104c190610b19565b90600052602060002090601f0160209004810192826104e3576000855561052a565b82601f106104fc57805160ff191683800117855561052a565b8280016001018555821561052a579182015b8281111561052957825182559160200191906001019061050e565b5b509050610537919061053b565b5090565b5b8082111561055457600081600090555060010161053c565b5090565b6000604051905090565b600080fd5b600080fd5b6000819050919050565b61057f8161056c565b811461058a57600080fd5b50565b60008135905061059c81610576565b92915050565b6000602082840312156105b8576105b7610562565b5b60006105c68482850161058d565b91505092915050565b6000819050919050565b6105e2816105cf565b82525050565b600081519050919050565b600082825260208201905092915050565b60005b83811015610622578082015181840152602081019050610607565b83811115610631576000848401525b50505050565b6000601f19601f8301169050919050565b6000610653826105e8565b61065d81856105f3565b935061066d818560208601610604565b61067681610637565b840191505092915050565b600060608301600083015161069960008601826105d9565b50602083015184820360208601526106b18282610648565b91505060408301516106c660408601826105d9565b508091505092915050565b600060208201905081810360008301526106eb8184610681565b905092915050565b6106fc816105cf565b82525050565b600082825260208201905092915050565b600061071e826105e8565b6107288185610702565b9350610738818560208601610604565b61074181610637565b840191505092915050565b600060608201905061076160008301866106f3565b81810360208301526107738185610713565b905061078260408301846106f3565b949350505050565b610793816105cf565b811461079e57600080fd5b50565b6000813590506107b08161078a565b92915050565b600080fd5b600080fd5b7f4e487b7100000000000000000000000000000000000000000000000000000000600052604160045260246000fd5b6107f882610637565b810181811067ffffffffffffffff82111715610817576108166107c0565b5b80604052505050565b600061082a610558565b905061083682826107ef565b919050565b600067ffffffffffffffff821115610856576108556107c0565b5b61085f82610637565b9050602081019050919050565b82818337600083830152505050565b600061088e6108898461083b565b610820565b9050828152602081018484840111156108aa576108a96107bb565b5b6108b584828561086c565b509392505050565b600082601f8301126108d2576108d16107b6565b5b81356108e284826020860161087b565b91505092915050565b60008060006060848603121561090457610903610562565b5b6000610912868287016107a1565b935050602084013567ffffffffffffffff81111561093357610932610567565b5b61093f868287016108bd565b9250506040610950868287016107a1565b9150509250925092565b6000602082840312156109705761096f610562565b5b600061097e848285016107a1565b91505092915050565b600081519050919050565b600082825260208201905092915050565b6000819050602082019050919050565b60006060830160008301516109cb60008601826105d9565b50602083015184820360208601526109e38282610648565b91505060408301516109f860408601826105d9565b508091505092915050565b6000610a0f83836109b3565b905092915050565b6000602082019050919050565b6000610a2f82610987565b610a398185610992565b935083602082028501610a4b856109a3565b8060005b85811015610a875784840389528151610a688582610a03565b9450610a7383610a17565b925060208a01995050600181019050610a4f565b50829750879550505050505092915050565b60006020820190508181036000830152610ab38184610a24565b905092915050565b7f4e487b7100000000000000000000000000000000000000000000000000000000600052603260045260246000fd5b7f4e487b7100000000000000000000000000000000000000000000000000000000600052602260045260246000fd5b60006002820490506001821680610b3157607f821691505b602082108103610b4457610b43610aea565b5b50919050565b7f4e487b7100000000000000000000000000000000000000000000000000000000600052601160045260246000fd5b6000610b848261056c565b91507fffffffffffffffffffffffffffffffffffffffffffffffffffffffffffffffff8203610bb657610bb5610b4a565b5b60018201905091905056fea26469706673582212200bc242fd243a7622553afeb3bdf195cb5d110d2c477f3c8a8bd3a4c3c8b14d1664736f6c634300080d0033",
					"opcodes": "PUSH1 0x80 PUSH1 0x40 MSTORE CALLVALUE DUP1 ISZERO PUSH2 0x10 JUMPI PUSH1 0x0 DUP1 REVERT JUMPDEST POP PUSH2 0xBF7 DUP1 PUSH2 0x20 PUSH1 0x0 CODECOPY PUSH1 0x0 RETURN INVALID PUSH1 0x80 PUSH1 0x40 MSTORE PUSH1 0x4 CALLDATASIZE LT PUSH2 0x3F JUMPI PUSH1 0x0 CALLDATALOAD PUSH1 0xE0 SHR DUP1 PUSH4 0x178FE3F EQ PUSH2 0x44 JUMPI DUP1 PUSH4 0x4A96D170 EQ PUSH2 0x81 JUMPI DUP1 PUSH4 0x4CFE187F EQ PUSH2 0xC0 JUMPI DUP1 PUSH4 0xBDD1805D EQ PUSH2 0xDC JUMPI JUMPDEST PUSH1 0x0 DUP1 REVERT JUMPDEST CALLVALUE DUP1 ISZERO PUSH2 0x50 JUMPI PUSH1 0x0 DUP1 REVERT JUMPDEST POP PUSH2 0x6B PUSH1 0x4 DUP1 CALLDATASIZE SUB DUP2 ADD SWAP1 PUSH2 0x66 SWAP2 SWAP1 PUSH2 0x5A2 JUMP JUMPDEST PUSH2 0x119 JUMP JUMPDEST PUSH1 0x40 MLOAD PUSH2 0x78 SWAP2 SWAP1 PUSH2 0x6D1 JUMP JUMPDEST PUSH1 0x40 MLOAD DUP1 SWAP2 SUB SWAP1 RETURN JUMPDEST CALLVALUE DUP1 ISZERO PUSH2 0x8D JUMPI PUSH1 0x0 DUP1 REVERT JUMPDEST POP PUSH2 0xA8 PUSH1 0x4 DUP1 CALLDATASIZE SUB DUP2 ADD SWAP1 PUSH2 0xA3 SWAP2 SWAP1 PUSH2 0x5A2 JUMP JUMPDEST PUSH2 0x1FB JUMP JUMPDEST PUSH1 0x40 MLOAD PUSH2 0xB7 SWAP4 SWAP3 SWAP2 SWAP1 PUSH2 0x74C JUMP JUMPDEST PUSH1 0x40 MLOAD DUP1 SWAP2 SUB SWAP1 RETURN JUMPDEST PUSH2 0xDA PUSH1 0x4 DUP1 CALLDATASIZE SUB DUP2 ADD SWAP1 PUSH2 0xD5 SWAP2 SWAP1 PUSH2 0x8EB JUMP JUMPDEST PUSH2 0x2BD JUMP JUMPDEST STOP JUMPDEST CALLVALUE DUP1 ISZERO PUSH2 0xE8 JUMPI PUSH1 0x0 DUP1 REVERT JUMPDEST POP PUSH2 0x103 PUSH1 0x4 DUP1 CALLDATASIZE SUB DUP2 ADD SWAP1 PUSH2 0xFE SWAP2 SWAP1 PUSH2 0x95A JUMP JUMPDEST PUSH2 0x33B JUMP JUMPDEST PUSH1 0x40 MLOAD PUSH2 0x110 SWAP2 SWAP1 PUSH2 0xA99 JUMP JUMPDEST PUSH1 0x40 MLOAD DUP1 SWAP2 SUB SWAP1 RETURN JUMPDEST PUSH2 0x121 PUSH2 0x494 JUMP JUMPDEST PUSH1 0x0 DUP3 DUP2 SLOAD DUP2 LT PUSH2 0x135 JUMPI PUSH2 0x134 PUSH2 0xABB JUMP JUMPDEST JUMPDEST SWAP1 PUSH1 0x0 MSTORE PUSH1 0x20 PUSH1 0x0 KECCAK256 SWAP1 PUSH1 0x3 MUL ADD PUSH1 0x40 MLOAD DUP1 PUSH1 0x60 ADD PUSH1 0x40 MSTORE SWAP1 DUP2 PUSH1 0x0 DUP3 ADD SLOAD DUP2 MSTORE PUSH1 0x20 ADD PUSH1 0x1 DUP3 ADD DUP1 SLOAD PUSH2 0x168 SWAP1 PUSH2 0xB19 JUMP JUMPDEST DUP1 PUSH1 0x1F ADD PUSH1 0x20 DUP1 SWAP2 DIV MUL PUSH1 0x20 ADD PUSH1 0x40 MLOAD SWAP1 DUP2 ADD PUSH1 0x40 MSTORE DUP1 SWAP3 SWAP2 SWAP1 DUP2 DUP2 MSTORE PUSH1 0x20 ADD DUP3 DUP1 SLOAD PUSH2 0x194 SWAP1 PUSH2 0xB19 JUMP JUMPDEST DUP1 ISZERO PUSH2 0x1E1 JUMPI DUP1 PUSH1 0x1F LT PUSH2 0x1B6 JUMPI PUSH2 0x100 DUP1 DUP4 SLOAD DIV MUL DUP4 MSTORE SWAP2 PUSH1 0x20 ADD SWAP2 PUSH2 0x1E1 JUMP JUMPDEST DUP3 ADD SWAP2 SWAP1 PUSH1 0x0 MSTORE PUSH1 0x20 PUSH1 0x0 KECCAK256 SWAP1 JUMPDEST DUP2 SLOAD DUP2 MSTORE SWAP1 PUSH1 0x1 ADD SWAP1 PUSH1 0x20 ADD DUP1 DUP4 GT PUSH2 0x1C4 JUMPI DUP3 SWAP1 SUB PUSH1 0x1F AND DUP3 ADD SWAP2 JUMPDEST POP POP POP POP POP DUP2 MSTORE PUSH1 0x20 ADD PUSH1 0x2 DUP3 ADD SLOAD DUP2 MSTORE POP POP SWAP1 POP SWAP2 SWAP1 POP JUMP JUMPDEST PUSH1 0x0 DUP2 DUP2 SLOAD DUP2 LT PUSH2 0x20B JUMPI PUSH1 0x0 DUP1 REVERT JUMPDEST SWAP1 PUSH1 0x0 MSTORE PUSH1 0x20 PUSH1 0x0 KECCAK256 SWAP1 PUSH1 0x3 MUL ADD PUSH1 0x0 SWAP2 POP SWAP1 POP DUP1 PUSH1 0x0 ADD SLOAD SWAP1 DUP1 PUSH1 0x1 ADD DUP1 SLOAD PUSH2 0x234 SWAP1 PUSH2 0xB19 JUMP JUMPDEST DUP1 PUSH1 0x1F ADD PUSH1 0x20 DUP1 SWAP2 DIV MUL PUSH1 0x20 ADD PUSH1 0x40 MLOAD SWAP1 DUP2 ADD PUSH1 0x40 MSTORE DUP1 SWAP3 SWAP2 SWAP1 DUP2 DUP2 MSTORE PUSH1 0x20 ADD DUP3 DUP1 SLOAD PUSH2 0x260 SWAP1 PUSH2 0xB19 JUMP JUMPDEST DUP1 ISZERO PUSH2 0x2AD JUMPI DUP1 PUSH1 0x1F LT PUSH2 0x282 JUMPI PUSH2 0x100 DUP1 DUP4 SLOAD DIV MUL DUP4 MSTORE SWAP2 PUSH1 0x20 ADD SWAP2 PUSH2 0x2AD JUMP JUMPDEST DUP3 ADD SWAP2 SWAP1 PUSH1 0x0 MSTORE PUSH1 0x20 PUSH1 0x0 KECCAK256 SWAP1 JUMPDEST DUP2 SLOAD DUP2 MSTORE SWAP1 PUSH1 0x1 ADD SWAP1 PUSH1 0x20 ADD DUP1 DUP4 GT PUSH2 0x290 JUMPI DUP3 SWAP1 SUB PUSH1 0x1F AND DUP3 ADD SWAP2 JUMPDEST POP POP POP POP POP SWAP1 DUP1 PUSH1 0x2 ADD SLOAD SWAP1 POP DUP4 JUMP JUMPDEST PUSH1 0x0 PUSH1 0x40 MLOAD DUP1 PUSH1 0x60 ADD PUSH1 0x40 MSTORE DUP1 DUP6 DUP2 MSTORE PUSH1 0x20 ADD DUP5 DUP2 MSTORE PUSH1 0x20 ADD DUP4 DUP2 MSTORE POP SWAP1 DUP1 PUSH1 0x1 DUP2 SLOAD ADD DUP1 DUP3 SSTORE DUP1 SWAP2 POP POP PUSH1 0x1 SWAP1 SUB SWAP1 PUSH1 0x0 MSTORE PUSH1 0x20 PUSH1 0x0 KECCAK256 SWAP1 PUSH1 0x3 MUL ADD PUSH1 0x0 SWAP1 SWAP2 SWAP1 SWAP2 SWAP1 SWAP2 POP PUSH1 0x0 DUP3 ADD MLOAD DUP2 PUSH1 0x0 ADD SSTORE PUSH1 0x20 DUP3 ADD MLOAD DUP2 PUSH1 0x1 ADD SWAP1 DUP1 MLOAD SWAP1 PUSH1 0x20 ADD SWAP1 PUSH2 0x329 SWAP3 SWAP2 SWAP1 PUSH2 0x4B5 JUMP JUMPDEST POP PUSH1 0x40 DUP3 ADD MLOAD DUP2 PUSH1 0x2 ADD SSTORE POP POP POP POP POP JUMP JUMPDEST PUSH1 0x60 PUSH1 0x0 DUP1 JUMPDEST PUSH1 0x0 DUP1 SLOAD SWAP1 POP DUP2 LT ISZERO PUSH2 0x48D JUMPI DUP4 PUSH1 0x0 DUP3 DUP2 SLOAD DUP2 LT PUSH2 0x363 JUMPI PUSH2 0x362 PUSH2 0xABB JUMP JUMPDEST JUMPDEST SWAP1 PUSH1 0x0 MSTORE PUSH1 0x20 PUSH1 0x0 KECCAK256 SWAP1 PUSH1 0x3 MUL ADD PUSH1 0x0 ADD SLOAD SUB PUSH2 0x47A JUMPI PUSH1 0x0 DUP2 DUP2 SLOAD DUP2 LT PUSH2 0x38E JUMPI PUSH2 0x38D PUSH2 0xABB JUMP JUMPDEST JUMPDEST SWAP1 PUSH1 0x0 MSTORE PUSH1 0x20 PUSH1 0x0 KECCAK256 SWAP1 PUSH1 0x3 MUL ADD PUSH1 0x40 MLOAD DUP1 PUSH1 0x60 ADD PUSH1 0x40 MSTORE SWAP1 DUP2 PUSH1 0x0 DUP3 ADD SLOAD DUP2 MSTORE PUSH1 0x20 ADD PUSH1 0x1 DUP3 ADD DUP1 SLOAD PUSH2 0x3C1 SWAP1 PUSH2 0xB19 JUMP JUMPDEST DUP1 PUSH1 0x1F ADD PUSH1 0x20 DUP1 SWAP2 DIV MUL PUSH1 0x20 ADD PUSH1 0x40 MLOAD SWAP1 DUP2 ADD PUSH1 0x40 MSTORE DUP1 SWAP3 SWAP2 SWAP1 DUP2 DUP2 MSTORE PUSH1 0x20 ADD DUP3 DUP1 SLOAD PUSH2 0x3ED SWAP1 PUSH2 0xB19 JUMP JUMPDEST DUP1 ISZERO PUSH2 0x43A JUMPI DUP1 PUSH1 0x1F LT PUSH2 0x40F JUMPI PUSH2 0x100 DUP1 DUP4 SLOAD DIV MUL DUP4 MSTORE SWAP2 PUSH1 0x20 ADD SWAP2 PUSH2 0x43A JUMP JUMPDEST DUP3 ADD SWAP2 SWAP1 PUSH1 0x0 MSTORE PUSH1 0x20 PUSH1 0x0 KECCAK256 SWAP1 JUMPDEST DUP2 SLOAD DUP2 MSTORE SWAP1 PUSH1 0x1 ADD SWAP1 PUSH1 0x20 ADD DUP1 DUP4 GT PUSH2 0x41D JUMPI DUP3 SWAP1 SUB PUSH1 0x1F AND DUP3 ADD SWAP2 JUMPDEST POP POP POP POP POP DUP2 MSTORE PUSH1 0x20 ADD PUSH1 0x2 DUP3 ADD SLOAD DUP2 MSTORE POP POP DUP4 DUP4 DUP2 MLOAD DUP2 LT PUSH2 0x460 JUMPI PUSH2 0x45F PUSH2 0xABB JUMP JUMPDEST JUMPDEST PUSH1 0x20 MUL PUSH1 0x20 ADD ADD DUP2 SWAP1 MSTORE POP DUP2 DUP1 PUSH2 0x476 SWAP1 PUSH2 0xB79 JUMP JUMPDEST SWAP3 POP POP JUMPDEST DUP1 DUP1 PUSH2 0x485 SWAP1 PUSH2 0xB79 JUMP JUMPDEST SWAP2 POP POP PUSH2 0x341 JUMP JUMPDEST POP POP SWAP2 SWAP1 POP JUMP JUMPDEST PUSH1 0x40 MLOAD DUP1 PUSH1 0x60 ADD PUSH1 0x40 MSTORE DUP1 PUSH1 0x0 DUP2 MSTORE PUSH1 0x20 ADD PUSH1 0x60 DUP2 MSTORE PUSH1 0x20 ADD PUSH1 0x0 DUP2 MSTORE POP SWAP1 JUMP JUMPDEST DUP3 DUP1 SLOAD PUSH2 0x4C1 SWAP1 PUSH2 0xB19 JUMP JUMPDEST SWAP1 PUSH1 0x0 MSTORE PUSH1 0x20 PUSH1 0x0 KECCAK256 SWAP1 PUSH1 0x1F ADD PUSH1 0x20 SWAP1 DIV DUP2 ADD SWAP3 DUP3 PUSH2 0x4E3 JUMPI PUSH1 0x0 DUP6 SSTORE PUSH2 0x52A JUMP JUMPDEST DUP3 PUSH1 0x1F LT PUSH2 0x4FC JUMPI DUP1 MLOAD PUSH1 0xFF NOT AND DUP4 DUP1 ADD OR DUP6 SSTORE PUSH2 0x52A JUMP JUMPDEST DUP3 DUP1 ADD PUSH1 0x1 ADD DUP6 SSTORE DUP3 ISZERO PUSH2 0x52A JUMPI SWAP2 DUP3 ADD JUMPDEST DUP3 DUP2 GT ISZERO PUSH2 0x529 JUMPI DUP3 MLOAD DUP3 SSTORE SWAP2 PUSH1 0x20 ADD SWAP2 SWAP1 PUSH1 0x1 ADD SWAP1 PUSH2 0x50E JUMP JUMPDEST JUMPDEST POP SWAP1 POP PUSH2 0x537 SWAP2 SWAP1 PUSH2 0x53B JUMP JUMPDEST POP SWAP1 JUMP JUMPDEST JUMPDEST DUP1 DUP3 GT ISZERO PUSH2 0x554 JUMPI PUSH1 0x0 DUP2 PUSH1 0x0 SWAP1 SSTORE POP PUSH1 0x1 ADD PUSH2 0x53C JUMP JUMPDEST POP SWAP1 JUMP JUMPDEST PUSH1 0x0 PUSH1 0x40 MLOAD SWAP1 POP SWAP1 JUMP JUMPDEST PUSH1 0x0 DUP1 REVERT JUMPDEST PUSH1 0x0 DUP1 REVERT JUMPDEST PUSH1 0x0 DUP2 SWAP1 POP SWAP2 SWAP1 POP JUMP JUMPDEST PUSH2 0x57F DUP2 PUSH2 0x56C JUMP JUMPDEST DUP2 EQ PUSH2 0x58A JUMPI PUSH1 0x0 DUP1 REVERT JUMPDEST POP JUMP JUMPDEST PUSH1 0x0 DUP2 CALLDATALOAD SWAP1 POP PUSH2 0x59C DUP2 PUSH2 0x576 JUMP JUMPDEST SWAP3 SWAP2 POP POP JUMP JUMPDEST PUSH1 0x0 PUSH1 0x20 DUP3 DUP5 SUB SLT ISZERO PUSH2 0x5B8 JUMPI PUSH2 0x5B7 PUSH2 0x562 JUMP JUMPDEST JUMPDEST PUSH1 0x0 PUSH2 0x5C6 DUP5 DUP3 DUP6 ADD PUSH2 0x58D JUMP JUMPDEST SWAP2 POP POP SWAP3 SWAP2 POP POP JUMP JUMPDEST PUSH1 0x0 DUP2 SWAP1 POP SWAP2 SWAP1 POP JUMP JUMPDEST PUSH2 0x5E2 DUP2 PUSH2 0x5CF JUMP JUMPDEST DUP3 MSTORE POP POP JUMP JUMPDEST PUSH1 0x0 DUP2 MLOAD SWAP1 POP SWAP2 SWAP1 POP JUMP JUMPDEST PUSH1 0x0 DUP3 DUP3 MSTORE PUSH1 0x20 DUP3 ADD SWAP1 POP SWAP3 SWAP2 POP POP JUMP JUMPDEST PUSH1 0x0 JUMPDEST DUP4 DUP2 LT ISZERO PUSH2 0x622 JUMPI DUP1 DUP3 ADD MLOAD DUP2 DUP5 ADD MSTORE PUSH1 0x20 DUP2 ADD SWAP1 POP PUSH2 0x607 JUMP JUMPDEST DUP4 DUP2 GT ISZERO PUSH2 0x631 JUMPI PUSH1 0x0 DUP5 DUP5 ADD MSTORE JUMPDEST POP POP POP POP JUMP JUMPDEST PUSH1 0x0 PUSH1 0x1F NOT PUSH1 0x1F DUP4 ADD AND SWAP1 POP SWAP2 SWAP1 POP JUMP JUMPDEST PUSH1 0x0 PUSH2 0x653 DUP3 PUSH2 0x5E8 JUMP JUMPDEST PUSH2 0x65D DUP2 DUP6 PUSH2 0x5F3 JUMP JUMPDEST SWAP4 POP PUSH2 0x66D DUP2 DUP6 PUSH1 0x20 DUP7 ADD PUSH2 0x604 JUMP JUMPDEST PUSH2 0x676 DUP2 PUSH2 0x637 JUMP JUMPDEST DUP5 ADD SWAP2 POP POP SWAP3 SWAP2 POP POP JUMP JUMPDEST PUSH1 0x0 PUSH1 0x60 DUP4 ADD PUSH1 0x0 DUP4 ADD MLOAD PUSH2 0x699 PUSH1 0x0 DUP7 ADD DUP3 PUSH2 0x5D9 JUMP JUMPDEST POP PUSH1 0x20 DUP4 ADD MLOAD DUP5 DUP3 SUB PUSH1 0x20 DUP7 ADD MSTORE PUSH2 0x6B1 DUP3 DUP3 PUSH2 0x648 JUMP JUMPDEST SWAP2 POP POP PUSH1 0x40 DUP4 ADD MLOAD PUSH2 0x6C6 PUSH1 0x40 DUP7 ADD DUP3 PUSH2 0x5D9 JUMP JUMPDEST POP DUP1 SWAP2 POP POP SWAP3 SWAP2 POP POP JUMP JUMPDEST PUSH1 0x0 PUSH1 0x20 DUP3 ADD SWAP1 POP DUP2 DUP2 SUB PUSH1 0x0 DUP4 ADD MSTORE PUSH2 0x6EB DUP2 DUP5 PUSH2 0x681 JUMP JUMPDEST SWAP1 POP SWAP3 SWAP2 POP POP JUMP JUMPDEST PUSH2 0x6FC DUP2 PUSH2 0x5CF JUMP JUMPDEST DUP3 MSTORE POP POP JUMP JUMPDEST PUSH1 0x0 DUP3 DUP3 MSTORE PUSH1 0x20 DUP3 ADD SWAP1 POP SWAP3 SWAP2 POP POP JUMP JUMPDEST PUSH1 0x0 PUSH2 0x71E DUP3 PUSH2 0x5E8 JUMP JUMPDEST PUSH2 0x728 DUP2 DUP6 PUSH2 0x702 JUMP JUMPDEST SWAP4 POP PUSH2 0x738 DUP2 DUP6 PUSH1 0x20 DUP7 ADD PUSH2 0x604 JUMP JUMPDEST PUSH2 0x741 DUP2 PUSH2 0x637 JUMP JUMPDEST DUP5 ADD SWAP2 POP POP SWAP3 SWAP2 POP POP JUMP JUMPDEST PUSH1 0x0 PUSH1 0x60 DUP3 ADD SWAP1 POP PUSH2 0x761 PUSH1 0x0 DUP4 ADD DUP7 PUSH2 0x6F3 JUMP JUMPDEST DUP2 DUP2 SUB PUSH1 0x20 DUP4 ADD MSTORE PUSH2 0x773 DUP2 DUP6 PUSH2 0x713 JUMP JUMPDEST SWAP1 POP PUSH2 0x782 PUSH1 0x40 DUP4 ADD DUP5 PUSH2 0x6F3 JUMP JUMPDEST SWAP5 SWAP4 POP POP POP POP JUMP JUMPDEST PUSH2 0x793 DUP2 PUSH2 0x5CF JUMP JUMPDEST DUP2 EQ PUSH2 0x79E JUMPI PUSH1 0x0 DUP1 REVERT JUMPDEST POP JUMP JUMPDEST PUSH1 0x0 DUP2 CALLDATALOAD SWAP1 POP PUSH2 0x7B0 DUP2 PUSH2 0x78A JUMP JUMPDEST SWAP3 SWAP2 POP POP JUMP JUMPDEST PUSH1 0x0 DUP1 REVERT JUMPDEST PUSH1 0x0 DUP1 REVERT JUMPDEST PUSH32 0x4E487B7100000000000000000000000000000000000000000000000000000000 PUSH1 0x0 MSTORE PUSH1 0x41 PUSH1 0x4 MSTORE PUSH1 0x24 PUSH1 0x0 REVERT JUMPDEST PUSH2 0x7F8 DUP3 PUSH2 0x637 JUMP JUMPDEST DUP2 ADD DUP2 DUP2 LT PUSH8 0xFFFFFFFFFFFFFFFF DUP3 GT OR ISZERO PUSH2 0x817 JUMPI PUSH2 0x816 PUSH2 0x7C0 JUMP JUMPDEST JUMPDEST DUP1 PUSH1 0x40 MSTORE POP POP POP JUMP JUMPDEST PUSH1 0x0 PUSH2 0x82A PUSH2 0x558 JUMP JUMPDEST SWAP1 POP PUSH2 0x836 DUP3 DUP3 PUSH2 0x7EF JUMP JUMPDEST SWAP2 SWAP1 POP JUMP JUMPDEST PUSH1 0x0 PUSH8 0xFFFFFFFFFFFFFFFF DUP3 GT ISZERO PUSH2 0x856 JUMPI PUSH2 0x855 PUSH2 0x7C0 JUMP JUMPDEST JUMPDEST PUSH2 0x85F DUP3 PUSH2 0x637 JUMP JUMPDEST SWAP1 POP PUSH1 0x20 DUP2 ADD SWAP1 POP SWAP2 SWAP1 POP JUMP JUMPDEST DUP3 DUP2 DUP4 CALLDATACOPY PUSH1 0x0 DUP4 DUP4 ADD MSTORE POP POP POP JUMP JUMPDEST PUSH1 0x0 PUSH2 0x88E PUSH2 0x889 DUP5 PUSH2 0x83B JUMP JUMPDEST PUSH2 0x820 JUMP JUMPDEST SWAP1 POP DUP3 DUP2 MSTORE PUSH1 0x20 DUP2 ADD DUP5 DUP5 DUP5 ADD GT ISZERO PUSH2 0x8AA JUMPI PUSH2 0x8A9 PUSH2 0x7BB JUMP JUMPDEST JUMPDEST PUSH2 0x8B5 DUP5 DUP3 DUP6 PUSH2 0x86C JUMP JUMPDEST POP SWAP4 SWAP3 POP POP POP JUMP JUMPDEST PUSH1 0x0 DUP3 PUSH1 0x1F DUP4 ADD SLT PUSH2 0x8D2 JUMPI PUSH2 0x8D1 PUSH2 0x7B6 JUMP JUMPDEST JUMPDEST DUP2 CALLDATALOAD PUSH2 0x8E2 DUP5 DUP3 PUSH1 0x20 DUP7 ADD PUSH2 0x87B JUMP JUMPDEST SWAP2 POP POP SWAP3 SWAP2 POP POP JUMP JUMPDEST PUSH1 0x0 DUP1 PUSH1 0x0 PUSH1 0x60 DUP5 DUP7 SUB SLT ISZERO PUSH2 0x904 JUMPI PUSH2 0x903 PUSH2 0x562 JUMP JUMPDEST JUMPDEST PUSH1 0x0 PUSH2 0x912 DUP7 DUP3 DUP8 ADD PUSH2 0x7A1 JUMP JUMPDEST SWAP4 POP POP PUSH1 0x20 DUP5 ADD CALLDATALOAD PUSH8 0xFFFFFFFFFFFFFFFF DUP2 GT ISZERO PUSH2 0x933 JUMPI PUSH2 0x932 PUSH2 0x567 JUMP JUMPDEST JUMPDEST PUSH2 0x93F DUP7 DUP3 DUP8 ADD PUSH2 0x8BD JUMP JUMPDEST SWAP3 POP POP PUSH1 0x40 PUSH2 0x950 DUP7 DUP3 DUP8 ADD PUSH2 0x7A1 JUMP JUMPDEST SWAP2 POP POP SWAP3 POP SWAP3 POP SWAP3 JUMP JUMPDEST PUSH1 0x0 PUSH1 0x20 DUP3 DUP5 SUB SLT ISZERO PUSH2 0x970 JUMPI PUSH2 0x96F PUSH2 0x562 JUMP JUMPDEST JUMPDEST PUSH1 0x0 PUSH2 0x97E DUP5 DUP3 DUP6 ADD PUSH2 0x7A1 JUMP JUMPDEST SWAP2 POP POP SWAP3 SWAP2 POP POP JUMP JUMPDEST PUSH1 0x0 DUP2 MLOAD SWAP1 POP SWAP2 SWAP1 POP JUMP JUMPDEST PUSH1 0x0 DUP3 DUP3 MSTORE PUSH1 0x20 DUP3 ADD SWAP1 POP SWAP3 SWAP2 POP POP JUMP JUMPDEST PUSH1 0x0 DUP2 SWAP1 POP PUSH1 0x20 DUP3 ADD SWAP1 POP SWAP2 SWAP1 POP JUMP JUMPDEST PUSH1 0x0 PUSH1 0x60 DUP4 ADD PUSH1 0x0 DUP4 ADD MLOAD PUSH2 0x9CB PUSH1 0x0 DUP7 ADD DUP3 PUSH2 0x5D9 JUMP JUMPDEST POP PUSH1 0x20 DUP4 ADD MLOAD DUP5 DUP3 SUB PUSH1 0x20 DUP7 ADD MSTORE PUSH2 0x9E3 DUP3 DUP3 PUSH2 0x648 JUMP JUMPDEST SWAP2 POP POP PUSH1 0x40 DUP4 ADD MLOAD PUSH2 0x9F8 PUSH1 0x40 DUP7 ADD DUP3 PUSH2 0x5D9 JUMP JUMPDEST POP DUP1 SWAP2 POP POP SWAP3 SWAP2 POP POP JUMP JUMPDEST PUSH1 0x0 PUSH2 0xA0F DUP4 DUP4 PUSH2 0x9B3 JUMP JUMPDEST SWAP1 POP SWAP3 SWAP2 POP POP JUMP JUMPDEST PUSH1 0x0 PUSH1 0x20 DUP3 ADD SWAP1 POP SWAP2 SWAP1 POP JUMP JUMPDEST PUSH1 0x0 PUSH2 0xA2F DUP3 PUSH2 0x987 JUMP JUMPDEST PUSH2 0xA39 DUP2 DUP6 PUSH2 0x992 JUMP JUMPDEST SWAP4 POP DUP4 PUSH1 0x20 DUP3 MUL DUP6 ADD PUSH2 0xA4B DUP6 PUSH2 0x9A3 JUMP JUMPDEST DUP1 PUSH1 0x0 JUMPDEST DUP6 DUP2 LT ISZERO PUSH2 0xA87 JUMPI DUP5 DUP5 SUB DUP10 MSTORE DUP2 MLOAD PUSH2 0xA68 DUP6 DUP3 PUSH2 0xA03 JUMP JUMPDEST SWAP5 POP PUSH2 0xA73 DUP4 PUSH2 0xA17 JUMP JUMPDEST SWAP3 POP PUSH1 0x20 DUP11 ADD SWAP10 POP POP PUSH1 0x1 DUP2 ADD SWAP1 POP PUSH2 0xA4F JUMP JUMPDEST POP DUP3 SWAP8 POP DUP8 SWAP6 POP POP POP POP POP POP SWAP3 SWAP2 POP POP JUMP JUMPDEST PUSH1 0x0 PUSH1 0x20 DUP3 ADD SWAP1 POP DUP2 DUP2 SUB PUSH1 0x0 DUP4 ADD MSTORE PUSH2 0xAB3 DUP2 DUP5 PUSH2 0xA24 JUMP JUMPDEST SWAP1 POP SWAP3 SWAP2 POP POP JUMP JUMPDEST PUSH32 0x4E487B7100000000000000000000000000000000000000000000000000000000 PUSH1 0x0 MSTORE PUSH1 0x32 PUSH1 0x4 MSTORE PUSH1 0x24 PUSH1 0x0 REVERT JUMPDEST PUSH32 0x4E487B7100000000000000000000000000000000000000000000000000000000 PUSH1 0x0 MSTORE PUSH1 0x22 PUSH1 0x4 MSTORE PUSH1 0x24 PUSH1 0x0 REVERT JUMPDEST PUSH1 0x0 PUSH1 0x2 DUP3 DIV SWAP1 POP PUSH1 0x1 DUP3 AND DUP1 PUSH2 0xB31 JUMPI PUSH1 0x7F DUP3 AND SWAP2 POP JUMPDEST PUSH1 0x20 DUP3 LT DUP2 SUB PUSH2 0xB44 JUMPI PUSH2 0xB43 PUSH2 0xAEA JUMP JUMPDEST JUMPDEST POP SWAP2 SWAP1 POP JUMP JUMPDEST PUSH32 0x4E487B7100000000000000000000000000000000000000000000000000000000 PUSH1 0x0 MSTORE PUSH1 0x11 PUSH1 0x4 MSTORE PUSH1 0x24 PUSH1 0x0 REVERT JUMPDEST PUSH1 0x0 PUSH2 0xB84 DUP3 PUSH2 0x56C JUMP JUMPDEST SWAP2 POP PUSH32 0xFFFFFFFFFFFFFFFFFFFFFFFFFFFFFFFFFFFFFFFFFFFFFFFFFFFFFFFFFFFFFFFF DUP3 SUB PUSH2 0xBB6 JUMPI PUSH2 0xBB5 PUSH2 0xB4A JUMP JUMPDEST JUMPDEST PUSH1 0x1 DUP3 ADD SWAP1 POP SWAP2 SWAP1 POP JUMP INVALID LOG2 PUSH5 0x6970667358 0x22 SLT KECCAK256 SIGNEXTEND 0xC2 TIMESTAMP REVERT 0x24 GASPRICE PUSH23 0x22553AFEB3BDF195CB5D110D2C477F3C8A8BD3A4C3C8B1 0x4D AND PUSH5 0x736F6C6343 STOP ADDMOD 0xD STOP CALLER "
				},
				"gasEstimates": {
					"creation": {
						"codeDepositCost": "612600",
						"executionCost": "645",
						"totalCost": "613245"
					},
					"external": {
						"addData(int256,string,int256)": "infinite",
						"dataSet(uint256)": "infinite",
						"getAllDataBySensor(int256)": "infinite",
						"getData(uint256)": "infinite"
					}
				},
				"methodIdentifiers": {
					"addData(int256,string,int256)": "4cfe187f",
					"dataSet(uint256)": "4a96d170",
					"getAllDataBySensor(int256)": "bdd1805d",
					"getData(uint256)": "0178fe3f"
				}
			},
			"userdoc": {
				"kind": "user",
				"methods": {},
				"version": 1
			}
		}
	}
}